{
	"contracts/LendingPlatform.sol": {
		"LendingPlatform": {
			"abi": [
				{
					"inputs": [
						{
							"internalType": "address",
							"name": "_usdcTokenAddress",
							"type": "address"
						},
						{
							"internalType": "address",
							"name": "_ethUsdPriceFeed",
							"type": "address"
						}
					],
					"stateMutability": "nonpayable",
					"type": "constructor"
				},
				{
					"anonymous": false,
					"inputs": [
						{
							"indexed": true,
							"internalType": "uint256",
							"name": "id",
							"type": "uint256"
						},
						{
							"indexed": true,
							"internalType": "address",
							"name": "borrower",
							"type": "address"
						}
					],
					"name": "DealCancell",
					"type": "event"
				},
				{
					"anonymous": false,
					"inputs": [
						{
							"indexed": true,
							"internalType": "uint256",
							"name": "id",
							"type": "uint256"
						},
						{
							"indexed": true,
							"internalType": "address",
							"name": "borrower",
							"type": "address"
						},
						{
							"indexed": true,
							"internalType": "address",
							"name": "confirmer",
							"type": "address"
						}
					],
					"name": "DealConfirmed",
					"type": "event"
				},
				{
					"anonymous": false,
					"inputs": [
						{
							"indexed": true,
							"internalType": "uint256",
							"name": "id",
							"type": "uint256"
						},
						{
							"indexed": true,
							"internalType": "address",
							"name": "borrower",
							"type": "address"
						},
						{
							"indexed": false,
							"internalType": "uint256",
							"name": "dueDate",
							"type": "uint256"
						}
					],
					"name": "LoanActivated",
					"type": "event"
				},
				{
					"anonymous": false,
					"inputs": [
						{
							"indexed": true,
							"internalType": "uint256",
							"name": "id",
							"type": "uint256"
						},
						{
							"indexed": true,
							"internalType": "address",
							"name": "borrower",
							"type": "address"
						}
					],
					"name": "LoanLiquidated",
					"type": "event"
				},
				{
					"anonymous": false,
					"inputs": [
						{
							"indexed": true,
							"internalType": "uint256",
							"name": "id",
							"type": "uint256"
						},
						{
							"indexed": true,
							"internalType": "address",
							"name": "borrower",
							"type": "address"
						}
					],
					"name": "LoanOverdue",
					"type": "event"
				},
				{
					"anonymous": false,
					"inputs": [
						{
							"indexed": true,
							"internalType": "uint256",
							"name": "id",
							"type": "uint256"
						},
						{
							"indexed": true,
							"internalType": "address",
							"name": "borrower",
							"type": "address"
						},
						{
							"indexed": false,
							"internalType": "uint256",
							"name": "USDC",
							"type": "uint256"
						},
						{
							"indexed": false,
							"internalType": "uint256",
							"name": "repayment",
							"type": "uint256"
						},
						{
							"indexed": false,
							"internalType": "uint256",
							"name": "ETH",
							"type": "uint256"
						}
					],
					"name": "LoanRequestAwaiting",
					"type": "event"
				},
				{
					"anonymous": false,
					"inputs": [
						{
							"indexed": true,
							"internalType": "uint256",
							"name": "id",
							"type": "uint256"
						},
						{
							"indexed": true,
							"internalType": "address",
							"name": "borrower",
							"type": "address"
						}
					],
					"name": "LoanReturned",
					"type": "event"
				},
				{
					"anonymous": false,
					"inputs": [
						{
							"indexed": true,
							"internalType": "uint256",
							"name": "id",
							"type": "uint256"
						},
						{
							"indexed": true,
							"internalType": "address",
							"name": "borrower",
							"type": "address"
						},
						{
							"indexed": true,
							"internalType": "address",
							"name": "lender",
							"type": "address"
						}
					],
					"name": "RequestPending",
					"type": "event"
				},
				{
					"inputs": [],
					"name": "ETHRatio",
					"outputs": [
						{
							"internalType": "uint256",
							"name": "",
							"type": "uint256"
						}
					],
					"stateMutability": "view",
					"type": "function"
				},
				{
					"inputs": [
						{
							"internalType": "uint256",
							"name": "",
							"type": "uint256"
						}
					],
					"name": "activeLoans",
					"outputs": [
						{
							"internalType": "address",
							"name": "borrower",
							"type": "address"
						},
						{
							"internalType": "uint256",
							"name": "loanId",
							"type": "uint256"
						}
					],
					"stateMutability": "view",
					"type": "function"
				},
				{
					"inputs": [
						{
							"internalType": "address",
							"name": "_borrowerAddress",
							"type": "address"
						},
						{
							"internalType": "uint256",
							"name": "_loanId",
							"type": "uint256"
						}
					],
					"name": "cancelDeal",
					"outputs": [],
					"stateMutability": "nonpayable",
					"type": "function"
				},
				{
					"inputs": [
						{
							"internalType": "bytes",
							"name": "",
							"type": "bytes"
						}
					],
					"name": "checkUpkeep",
					"outputs": [
						{
							"internalType": "bool",
							"name": "upkeepNeeded",
							"type": "bool"
						},
						{
							"internalType": "bytes",
							"name": "performData",
							"type": "bytes"
						}
					],
					"stateMutability": "view",
					"type": "function"
				},
				{
					"inputs": [
						{
							"internalType": "address",
							"name": "_borrowerAddress",
							"type": "address"
						},
						{
							"internalType": "uint256",
							"name": "_loanId",
							"type": "uint256"
						}
					],
					"name": "confirmDeal",
					"outputs": [],
					"stateMutability": "nonpayable",
					"type": "function"
				},
				{
					"inputs": [
						{
							"internalType": "uint256",
							"name": "_USDC",
							"type": "uint256"
						},
						{
							"internalType": "uint256",
							"name": "_percent",
							"type": "uint256"
						},
						{
							"internalType": "uint256",
							"name": "_TimeDelta",
							"type": "uint256"
						}
					],
					"name": "createLoanRequest",
					"outputs": [],
					"stateMutability": "payable",
					"type": "function"
				},
				{
					"inputs": [],
					"name": "ethPriceInUsdt",
					"outputs": [
						{
							"internalType": "uint256",
							"name": "",
							"type": "uint256"
						}
					],
					"stateMutability": "view",
					"type": "function"
				},
				{
					"inputs": [
						{
							"internalType": "address",
							"name": "_borrowerAddress",
							"type": "address"
						},
						{
							"internalType": "uint256",
							"name": "_loanId",
							"type": "uint256"
						}
					],
					"name": "fundRequest",
					"outputs": [],
					"stateMutability": "nonpayable",
					"type": "function"
				},
				{
					"inputs": [],
					"name": "getLatestETHPrice",
					"outputs": [
						{
							"internalType": "uint256",
							"name": "",
							"type": "uint256"
						}
					],
					"stateMutability": "view",
					"type": "function"
				},
				{
					"inputs": [
						{
							"internalType": "address",
							"name": "_borrowerAddress",
							"type": "address"
						},
						{
							"internalType": "uint256",
							"name": "_loanId",
							"type": "uint256"
						}
					],
					"name": "getLoanDetails",
					"outputs": [
						{
							"components": [
								{
									"internalType": "uint256",
									"name": "id",
									"type": "uint256"
								},
								{
									"internalType": "address",
									"name": "borrower",
									"type": "address"
								},
								{
									"internalType": "address",
									"name": "lender",
									"type": "address"
								},
								{
									"internalType": "uint256",
									"name": "USDC",
									"type": "uint256"
								},
								{
									"internalType": "uint256",
									"name": "Percent",
									"type": "uint256"
								},
								{
									"internalType": "uint256",
									"name": "ETH",
									"type": "uint256"
								},
								{
									"internalType": "uint256",
									"name": "TimeDelta",
									"type": "uint256"
								},
								{
									"internalType": "uint256",
									"name": "dueDate",
									"type": "uint256"
								},
								{
									"internalType": "bool",
									"name": "borrowerConfirmed",
									"type": "bool"
								},
								{
									"internalType": "enum LendingPlatform.Status",
									"name": "status",
									"type": "uint8"
								}
							],
							"internalType": "struct LendingPlatform.Loan",
							"name": "",
							"type": "tuple"
						}
					],
					"stateMutability": "view",
					"type": "function"
				},
				{
					"inputs": [
						{
							"internalType": "address",
							"name": "",
							"type": "address"
						},
						{
							"internalType": "uint256",
							"name": "",
							"type": "uint256"
						}
					],
					"name": "loans",
					"outputs": [
						{
							"internalType": "uint256",
							"name": "id",
							"type": "uint256"
						},
						{
							"internalType": "address",
							"name": "borrower",
							"type": "address"
						},
						{
							"internalType": "address",
							"name": "lender",
							"type": "address"
						},
						{
							"internalType": "uint256",
							"name": "USDC",
							"type": "uint256"
						},
						{
							"internalType": "uint256",
							"name": "Percent",
							"type": "uint256"
						},
						{
							"internalType": "uint256",
							"name": "ETH",
							"type": "uint256"
						},
						{
							"internalType": "uint256",
							"name": "TimeDelta",
							"type": "uint256"
						},
						{
							"internalType": "uint256",
							"name": "dueDate",
							"type": "uint256"
						},
						{
							"internalType": "bool",
							"name": "borrowerConfirmed",
							"type": "bool"
						},
						{
							"internalType": "enum LendingPlatform.Status",
							"name": "status",
							"type": "uint8"
						}
					],
					"stateMutability": "view",
					"type": "function"
				},
				{
					"inputs": [
						{
							"internalType": "bytes",
							"name": "performData",
							"type": "bytes"
						}
					],
					"name": "performUpkeep",
					"outputs": [],
					"stateMutability": "nonpayable",
					"type": "function"
				},
				{
					"inputs": [
						{
							"internalType": "uint256",
							"name": "_loanId",
							"type": "uint256"
						}
					],
					"name": "repayLoan",
					"outputs": [],
					"stateMutability": "nonpayable",
					"type": "function"
				},
				{
					"inputs": [],
					"name": "usdtTokenAddress",
					"outputs": [
						{
							"internalType": "contract IERC20",
							"name": "",
							"type": "address"
						}
					],
					"stateMutability": "view",
					"type": "function"
				}
			],
			"devdoc": {
				"details": "Новая версия, где заёмщик инициирует заявку на кредит.",
				"kind": "dev",
				"methods": {
					"cancelDeal(address,uint256)": {
						"details": "3b. ОБЕ СТОРОНЫ: Отменяют сделку до её активации."
					},
					"confirmDeal(address,uint256)": {
						"details": "3. Подтверждение сделки."
					},
					"createLoanRequest(uint256,uint256,uint256)": {
						"details": "1. ЗАЁМЩИК: Создаёт заявку на кредит и вносит залог в ETH."
					},
					"fundRequest(address,uint256)": {
						"details": "2. КРЕДИТОР: Отвечает на заявку и вносит средства (USDT)."
					},
					"performUpkeep(bytes)": {
						"details": "5. Ликвидация заёма, если он просрочен."
					},
					"repayLoan(uint256)": {
						"details": "4. ЗАЁМЩИК: Погашает долг."
					}
				},
				"title": "LendingPlatform",
				"version": 1
			},
			"evm": {
				"assembly": "    /* \"contracts/LendingPlatform.sol\":415:11178  contract LendingPlatform is KeeperCompatibleInterface {... */\n  mstore(0x40, 0x80)\n    /* \"contracts/LendingPlatform.sol\":727:731  3000 */\n  0x0bb8\n    /* \"contracts/LendingPlatform.sol\":695:731  uint256 public ethPriceInUsdt = 3000 */\n  0x02\n  sstore\n    /* \"contracts/LendingPlatform.sol\":844:847  150 */\n  0x96\n    /* \"contracts/LendingPlatform.sol\":818:847  uint256 public ETHRatio = 150 */\n  0x03\n  sstore\n    /* \"contracts/LendingPlatform.sol\":3201:3497  constructor(address _usdcTokenAddress, address _ethUsdPriceFeed) {... */\n  callvalue\n  dup1\n  iszero\n  tag_1\n  jumpi\n  revert(0x00, 0x00)\ntag_1:\n  pop\n  mload(0x40)\n  sub(codesize, bytecodeSize)\n  dup1\n  bytecodeSize\n  dup4\n  codecopy\n  dup2\n  dup2\n  add\n  0x40\n  mstore\n  dup2\n  add\n  swap1\n  tag_2\n  swap2\n  swap1\n  tag_3\n  jump\t// in\ntag_2:\n    /* \"contracts/LendingPlatform.sol\":3313:3314  0 */\n  0x00\n    /* \"contracts/LendingPlatform.sol\":3284:3315  _usdcTokenAddress != address(0) */\n  0xffffffffffffffffffffffffffffffffffffffff\n  and\n    /* \"contracts/LendingPlatform.sol\":3284:3301  _usdcTokenAddress */\n  dup3\n    /* \"contracts/LendingPlatform.sol\":3284:3315  _usdcTokenAddress != address(0) */\n  0xffffffffffffffffffffffffffffffffffffffff\n  and\n  sub\n    /* \"contracts/LendingPlatform.sol\":3276:3346  require(_usdcTokenAddress != address(0), \"Invalid USDC token address\") */\n  tag_6\n  jumpi\n  mload(0x40)\n  0x08c379a000000000000000000000000000000000000000000000000000000000\n  dup2\n  mstore\n  0x04\n  add\n  tag_7\n  swap1\n  tag_8\n  jump\t// in\ntag_7:\n  mload(0x40)\n  dup1\n  swap2\n  sub\n  swap1\n  revert\ntag_6:\n    /* \"contracts/LendingPlatform.sol\":3382:3399  _usdcTokenAddress */\n  dup2\n    /* \"contracts/LendingPlatform.sol\":3356:3372  usdtTokenAddress */\n  0x00\n  0x00\n    /* \"contracts/LendingPlatform.sol\":3356:3400  usdtTokenAddress = IERC20(_usdcTokenAddress) */\n  0x0100\n  exp\n  dup2\n  sload\n  dup2\n  0xffffffffffffffffffffffffffffffffffffffff\n  mul\n  not\n  and\n  swap1\n  dup4\n  0xffffffffffffffffffffffffffffffffffffffff\n  and\n  mul\n  or\n  swap1\n  sstore\n  pop\n    /* \"contracts/LendingPlatform.sol\":3444:3460  _ethUsdPriceFeed */\n  dup1\n    /* \"contracts/LendingPlatform.sol\":3410:3419  priceFeed */\n  0x04\n  0x00\n    /* \"contracts/LendingPlatform.sol\":3410:3461  priceFeed = AggregatorV3Interface(_ethUsdPriceFeed) */\n  0x0100\n  exp\n  dup2\n  sload\n  dup2\n  0xffffffffffffffffffffffffffffffffffffffff\n  mul\n  not\n  and\n  swap1\n  dup4\n  0xffffffffffffffffffffffffffffffffffffffff\n  and\n  mul\n  or\n  swap1\n  sstore\n  pop\n    /* \"contracts/LendingPlatform.sol\":3480:3490  msg.sender */\n  caller\n    /* \"contracts/LendingPlatform.sol\":3471:3477  _owner */\n  0x01\n  0x00\n    /* \"contracts/LendingPlatform.sol\":3471:3490  _owner = msg.sender */\n  0x0100\n  exp\n  dup2\n  sload\n  dup2\n  0xffffffffffffffffffffffffffffffffffffffff\n  mul\n  not\n  and\n  swap1\n  dup4\n  0xffffffffffffffffffffffffffffffffffffffff\n  and\n  mul\n  or\n  swap1\n  sstore\n  pop\n    /* \"contracts/LendingPlatform.sol\":3201:3497  constructor(address _usdcTokenAddress, address _ethUsdPriceFeed) {... */\n  pop\n  pop\n    /* \"contracts/LendingPlatform.sol\":415:11178  contract LendingPlatform is KeeperCompatibleInterface {... */\n  jump(tag_9)\n    /* \"#utility.yul\":88:205   */\ntag_11:\n    /* \"#utility.yul\":197:198   */\n  0x00\n    /* \"#utility.yul\":194:195   */\n  0x00\n    /* \"#utility.yul\":187:199   */\n  revert\n    /* \"#utility.yul\":334:460   */\ntag_13:\n    /* \"#utility.yul\":371:378   */\n  0x00\n    /* \"#utility.yul\":411:453   */\n  0xffffffffffffffffffffffffffffffffffffffff\n    /* \"#utility.yul\":404:409   */\n  dup3\n    /* \"#utility.yul\":400:454   */\n  and\n    /* \"#utility.yul\":389:454   */\n  swap1\n  pop\n    /* \"#utility.yul\":334:460   */\n  swap2\n  swap1\n  pop\n  jump\t// out\n    /* \"#utility.yul\":466:562   */\ntag_14:\n    /* \"#utility.yul\":503:510   */\n  0x00\n    /* \"#utility.yul\":532:556   */\n  tag_26\n    /* \"#utility.yul\":550:555   */\n  dup3\n    /* \"#utility.yul\":532:556   */\n  tag_13\n  jump\t// in\ntag_26:\n    /* \"#utility.yul\":521:556   */\n  swap1\n  pop\n    /* \"#utility.yul\":466:562   */\n  swap2\n  swap1\n  pop\n  jump\t// out\n    /* \"#utility.yul\":568:690   */\ntag_15:\n    /* \"#utility.yul\":641:665   */\n  tag_28\n    /* \"#utility.yul\":659:664   */\n  dup2\n    /* \"#utility.yul\":641:665   */\n  tag_14\n  jump\t// in\ntag_28:\n    /* \"#utility.yul\":634:639   */\n  dup2\n    /* \"#utility.yul\":631:666   */\n  eq\n    /* \"#utility.yul\":621:684   */\n  tag_29\n  jumpi\n    /* \"#utility.yul\":680:681   */\n  0x00\n    /* \"#utility.yul\":677:678   */\n  0x00\n    /* \"#utility.yul\":670:682   */\n  revert\n    /* \"#utility.yul\":621:684   */\ntag_29:\n    /* \"#utility.yul\":568:690   */\n  pop\n  jump\t// out\n    /* \"#utility.yul\":696:839   */\ntag_16:\n    /* \"#utility.yul\":753:758   */\n  0x00\n    /* \"#utility.yul\":784:790   */\n  dup2\n    /* \"#utility.yul\":778:791   */\n  mload\n    /* \"#utility.yul\":769:791   */\n  swap1\n  pop\n    /* \"#utility.yul\":800:833   */\n  tag_31\n    /* \"#utility.yul\":827:832   */\n  dup2\n    /* \"#utility.yul\":800:833   */\n  tag_15\n  jump\t// in\ntag_31:\n    /* \"#utility.yul\":696:839   */\n  swap3\n  swap2\n  pop\n  pop\n  jump\t// out\n    /* \"#utility.yul\":845:1352   */\ntag_3:\n    /* \"#utility.yul\":924:930   */\n  0x00\n    /* \"#utility.yul\":932:938   */\n  0x00\n    /* \"#utility.yul\":981:983   */\n  0x40\n    /* \"#utility.yul\":969:978   */\n  dup4\n    /* \"#utility.yul\":960:967   */\n  dup6\n    /* \"#utility.yul\":956:979   */\n  sub\n    /* \"#utility.yul\":952:984   */\n  slt\n    /* \"#utility.yul\":949:1068   */\n  iszero\n  tag_33\n  jumpi\n    /* \"#utility.yul\":987:1066   */\n  tag_34\n  tag_11\n  jump\t// in\ntag_34:\n    /* \"#utility.yul\":949:1068   */\ntag_33:\n    /* \"#utility.yul\":1107:1108   */\n  0x00\n    /* \"#utility.yul\":1132:1196   */\n  tag_35\n    /* \"#utility.yul\":1188:1195   */\n  dup6\n    /* \"#utility.yul\":1179:1185   */\n  dup3\n    /* \"#utility.yul\":1168:1177   */\n  dup7\n    /* \"#utility.yul\":1164:1186   */\n  add\n    /* \"#utility.yul\":1132:1196   */\n  tag_16\n  jump\t// in\ntag_35:\n    /* \"#utility.yul\":1122:1196   */\n  swap3\n  pop\n    /* \"#utility.yul\":1078:1206   */\n  pop\n    /* \"#utility.yul\":1245:1247   */\n  0x20\n    /* \"#utility.yul\":1271:1335   */\n  tag_36\n    /* \"#utility.yul\":1327:1334   */\n  dup6\n    /* \"#utility.yul\":1318:1324   */\n  dup3\n    /* \"#utility.yul\":1307:1316   */\n  dup7\n    /* \"#utility.yul\":1303:1325   */\n  add\n    /* \"#utility.yul\":1271:1335   */\n  tag_16\n  jump\t// in\ntag_36:\n    /* \"#utility.yul\":1261:1335   */\n  swap2\n  pop\n    /* \"#utility.yul\":1216:1345   */\n  pop\n    /* \"#utility.yul\":845:1352   */\n  swap3\n  pop\n  swap3\n  swap1\n  pop\n  jump\t// out\n    /* \"#utility.yul\":1358:1527   */\ntag_17:\n    /* \"#utility.yul\":1442:1453   */\n  0x00\n    /* \"#utility.yul\":1476:1482   */\n  dup3\n    /* \"#utility.yul\":1471:1474   */\n  dup3\n    /* \"#utility.yul\":1464:1483   */\n  mstore\n    /* \"#utility.yul\":1516:1520   */\n  0x20\n    /* \"#utility.yul\":1511:1514   */\n  dup3\n    /* \"#utility.yul\":1507:1521   */\n  add\n    /* \"#utility.yul\":1492:1521   */\n  swap1\n  pop\n    /* \"#utility.yul\":1358:1527   */\n  swap3\n  swap2\n  pop\n  pop\n  jump\t// out\n    /* \"#utility.yul\":1533:1709   */\ntag_18:\n    /* \"#utility.yul\":1673:1701   */\n  0x496e76616c6964205553444320746f6b656e2061646472657373000000000000\n    /* \"#utility.yul\":1669:1670   */\n  0x00\n    /* \"#utility.yul\":1661:1667   */\n  dup3\n    /* \"#utility.yul\":1657:1671   */\n  add\n    /* \"#utility.yul\":1650:1702   */\n  mstore\n    /* \"#utility.yul\":1533:1709   */\n  pop\n  jump\t// out\n    /* \"#utility.yul\":1715:2081   */\ntag_19:\n    /* \"#utility.yul\":1857:1860   */\n  0x00\n    /* \"#utility.yul\":1878:1945   */\n  tag_40\n    /* \"#utility.yul\":1942:1944   */\n  0x1a\n    /* \"#utility.yul\":1937:1940   */\n  dup4\n    /* \"#utility.yul\":1878:1945   */\n  tag_17\n  jump\t// in\ntag_40:\n    /* \"#utility.yul\":1871:1945   */\n  swap2\n  pop\n    /* \"#utility.yul\":1954:2047   */\n  tag_41\n    /* \"#utility.yul\":2043:2046   */\n  dup3\n    /* \"#utility.yul\":1954:2047   */\n  tag_18\n  jump\t// in\ntag_41:\n    /* \"#utility.yul\":2072:2074   */\n  0x20\n    /* \"#utility.yul\":2067:2070   */\n  dup3\n    /* \"#utility.yul\":2063:2075   */\n  add\n    /* \"#utility.yul\":2056:2075   */\n  swap1\n  pop\n    /* \"#utility.yul\":1715:2081   */\n  swap2\n  swap1\n  pop\n  jump\t// out\n    /* \"#utility.yul\":2087:2506   */\ntag_8:\n    /* \"#utility.yul\":2253:2257   */\n  0x00\n    /* \"#utility.yul\":2291:2293   */\n  0x20\n    /* \"#utility.yul\":2280:2289   */\n  dup3\n    /* \"#utility.yul\":2276:2294   */\n  add\n    /* \"#utility.yul\":2268:2294   */\n  swap1\n  pop\n    /* \"#utility.yul\":2340:2349   */\n  dup2\n    /* \"#utility.yul\":2334:2338   */\n  dup2\n    /* \"#utility.yul\":2330:2350   */\n  sub\n    /* \"#utility.yul\":2326:2327   */\n  0x00\n    /* \"#utility.yul\":2315:2324   */\n  dup4\n    /* \"#utility.yul\":2311:2328   */\n  add\n    /* \"#utility.yul\":2304:2351   */\n  mstore\n    /* \"#utility.yul\":2368:2499   */\n  tag_43\n    /* \"#utility.yul\":2494:2498   */\n  dup2\n    /* \"#utility.yul\":2368:2499   */\n  tag_19\n  jump\t// in\ntag_43:\n    /* \"#utility.yul\":2360:2499   */\n  swap1\n  pop\n    /* \"#utility.yul\":2087:2506   */\n  swap2\n  swap1\n  pop\n  jump\t// out\n    /* \"contracts/LendingPlatform.sol\":415:11178  contract LendingPlatform is KeeperCompatibleInterface {... */\ntag_9:\n  dataSize(sub_0)\n  dup1\n  dataOffset(sub_0)\n  0x00\n  codecopy\n  0x00\n  return\nstop\n\nsub_0: assembly {\n        /* \"contracts/LendingPlatform.sol\":415:11178  contract LendingPlatform is KeeperCompatibleInterface {... */\n      mstore(0x40, 0x80)\n      jumpi(tag_1, lt(calldatasize, 0x04))\n      shr(0xe0, calldataload(0x00))\n      dup1\n      0x777e0d86\n      gt\n      tag_16\n      jumpi\n      dup1\n      0xab7b1c89\n      gt\n      tag_17\n      jumpi\n      dup1\n      0xab7b1c89\n      eq\n      tag_12\n      jumpi\n      dup1\n      0xbfae5f42\n      eq\n      tag_13\n      jumpi\n      dup1\n      0xccd6b218\n      eq\n      tag_14\n      jumpi\n      dup1\n      0xd13d5e56\n      eq\n      tag_15\n      jumpi\n      jump(tag_1)\n    tag_17:\n      dup1\n      0x777e0d86\n      eq\n      tag_9\n      jumpi\n      dup1\n      0x98c61c37\n      eq\n      tag_10\n      jumpi\n      dup1\n      0x9d741e5d\n      eq\n      tag_11\n      jumpi\n      jump(tag_1)\n    tag_16:\n      dup1\n      0x46208d68\n      gt\n      tag_18\n      jumpi\n      dup1\n      0x46208d68\n      eq\n      tag_5\n      jumpi\n      dup1\n      0x47126f62\n      eq\n      tag_6\n      jumpi\n      dup1\n      0x6b3731f0\n      eq\n      tag_7\n      jumpi\n      dup1\n      0x6e04ff0d\n      eq\n      tag_8\n      jumpi\n      jump(tag_1)\n    tag_18:\n      dup1\n      0x1443e4e7\n      eq\n      tag_2\n      jumpi\n      dup1\n      0x2d66195e\n      eq\n      tag_3\n      jumpi\n      dup1\n      0x4585e33b\n      eq\n      tag_4\n      jumpi\n    tag_1:\n      revert(0x00, 0x00)\n        /* \"contracts/LendingPlatform.sol\":4074:5178  function createLoanRequest(uint256 _USDC,uint256 _percent,uint256 _TimeDelta) external payable {... */\n    tag_2:\n      tag_19\n      0x04\n      dup1\n      calldatasize\n      sub\n      dup2\n      add\n      swap1\n      tag_20\n      swap2\n      swap1\n      tag_21\n      jump\t// in\n    tag_20:\n      tag_22\n      jump\t// in\n    tag_19:\n      stop\n        /* \"contracts/LendingPlatform.sol\":5309:5999  function fundRequest(address _borrowerAddress, uint256 _loanId) external {... */\n    tag_3:\n      callvalue\n      dup1\n      iszero\n      tag_23\n      jumpi\n      revert(0x00, 0x00)\n    tag_23:\n      pop\n      tag_24\n      0x04\n      dup1\n      calldatasize\n      sub\n      dup2\n      add\n      swap1\n      tag_25\n      swap2\n      swap1\n      tag_26\n      jump\t// in\n    tag_25:\n      tag_27\n      jump\t// in\n    tag_24:\n      stop\n        /* \"contracts/LendingPlatform.sol\":10037:10944  function performUpkeep(bytes calldata performData) external override {... */\n    tag_4:\n      callvalue\n      dup1\n      iszero\n      tag_28\n      jumpi\n      revert(0x00, 0x00)\n    tag_28:\n      pop\n      tag_29\n      0x04\n      dup1\n      calldatasize\n      sub\n      dup2\n      add\n      swap1\n      tag_30\n      swap2\n      swap1\n      tag_31\n      jump\t// in\n    tag_30:\n      tag_32\n      jump\t// in\n    tag_29:\n      stop\n        /* \"contracts/LendingPlatform.sol\":7244:8164  function cancelDeal(address _borrowerAddress, uint256 _loanId) external {... */\n    tag_5:\n      callvalue\n      dup1\n      iszero\n      tag_33\n      jumpi\n      revert(0x00, 0x00)\n    tag_33:\n      pop\n      tag_34\n      0x04\n      dup1\n      calldatasize\n      sub\n      dup2\n      add\n      swap1\n      tag_35\n      swap2\n      swap1\n      tag_26\n      jump\t// in\n    tag_35:\n      tag_36\n      jump\t// in\n    tag_34:\n      stop\n        /* \"contracts/LendingPlatform.sol\":2343:2371  LoanKey[] public activeLoans */\n    tag_6:\n      callvalue\n      dup1\n      iszero\n      tag_37\n      jumpi\n      revert(0x00, 0x00)\n    tag_37:\n      pop\n      tag_38\n      0x04\n      dup1\n      calldatasize\n      sub\n      dup2\n      add\n      swap1\n      tag_39\n      swap2\n      swap1\n      tag_40\n      jump\t// in\n    tag_39:\n      tag_41\n      jump\t// in\n    tag_38:\n      mload(0x40)\n      tag_42\n      swap3\n      swap2\n      swap1\n      tag_43\n      jump\t// in\n    tag_42:\n      mload(0x40)\n      dup1\n      swap2\n      sub\n      swap1\n      return\n        /* \"contracts/LendingPlatform.sol\":6077:7123  function confirmDeal(address _borrowerAddress, uint256 _loanId) external {... */\n    tag_7:\n      callvalue\n      dup1\n      iszero\n      tag_44\n      jumpi\n      revert(0x00, 0x00)\n    tag_44:\n      pop\n      tag_45\n      0x04\n      dup1\n      calldatasize\n      sub\n      dup2\n      add\n      swap1\n      tag_46\n      swap2\n      swap1\n      tag_26\n      jump\t// in\n    tag_46:\n      tag_47\n      jump\t// in\n    tag_45:\n      stop\n        /* \"contracts/LendingPlatform.sol\":9076:9931  function checkUpkeep(bytes calldata) external view override returns (bool upkeepNeeded, bytes memory performData) {... */\n    tag_8:\n      callvalue\n      dup1\n      iszero\n      tag_48\n      jumpi\n      revert(0x00, 0x00)\n    tag_48:\n      pop\n      tag_49\n      0x04\n      dup1\n      calldatasize\n      sub\n      dup2\n      add\n      swap1\n      tag_50\n      swap2\n      swap1\n      tag_31\n      jump\t// in\n    tag_50:\n      tag_51\n      jump\t// in\n    tag_49:\n      mload(0x40)\n      tag_52\n      swap3\n      swap2\n      swap1\n      tag_53\n      jump\t// in\n    tag_52:\n      mload(0x40)\n      dup1\n      swap2\n      sub\n      swap1\n      return\n        /* \"contracts/LendingPlatform.sol\":3541:3892  function getLatestETHPrice() public view returns (uint256) {... */\n    tag_9:\n      callvalue\n      dup1\n      iszero\n      tag_54\n      jumpi\n      revert(0x00, 0x00)\n    tag_54:\n      pop\n      tag_55\n      tag_56\n      jump\t// in\n    tag_55:\n      mload(0x40)\n      tag_57\n      swap2\n      swap1\n      tag_58\n      jump\t// in\n    tag_57:\n      mload(0x40)\n      dup1\n      swap2\n      sub\n      swap1\n      return\n        /* \"contracts/LendingPlatform.sol\":2378:2435  mapping(address => mapping(uint256 => Loan)) public loans */\n    tag_10:\n      callvalue\n      dup1\n      iszero\n      tag_59\n      jumpi\n      revert(0x00, 0x00)\n    tag_59:\n      pop\n      tag_60\n      0x04\n      dup1\n      calldatasize\n      sub\n      dup2\n      add\n      swap1\n      tag_61\n      swap2\n      swap1\n      tag_26\n      jump\t// in\n    tag_61:\n      tag_62\n      jump\t// in\n    tag_60:\n      mload(0x40)\n      tag_63\n      swap11\n      swap10\n      swap9\n      swap8\n      swap7\n      swap6\n      swap5\n      swap4\n      swap3\n      swap2\n      swap1\n      tag_64\n      jump\t// in\n    tag_63:\n      mload(0x40)\n      dup1\n      swap2\n      sub\n      swap1\n      return\n        /* \"contracts/LendingPlatform.sol\":530:560  IERC20 public usdtTokenAddress */\n    tag_11:\n      callvalue\n      dup1\n      iszero\n      tag_65\n      jumpi\n      revert(0x00, 0x00)\n    tag_65:\n      pop\n      tag_66\n      tag_67\n      jump\t// in\n    tag_66:\n      mload(0x40)\n      tag_68\n      swap2\n      swap1\n      tag_69\n      jump\t// in\n    tag_68:\n      mload(0x40)\n      dup1\n      swap2\n      sub\n      swap1\n      return\n        /* \"contracts/LendingPlatform.sol\":8244:9070  function repayLoan(uint256 _loanId) external {... */\n    tag_12:\n      callvalue\n      dup1\n      iszero\n      tag_70\n      jumpi\n      revert(0x00, 0x00)\n    tag_70:\n      pop\n      tag_71\n      0x04\n      dup1\n      calldatasize\n      sub\n      dup2\n      add\n      swap1\n      tag_72\n      swap2\n      swap1\n      tag_40\n      jump\t// in\n    tag_72:\n      tag_73\n      jump\t// in\n    tag_71:\n      stop\n        /* \"contracts/LendingPlatform.sol\":695:731  uint256 public ethPriceInUsdt = 3000 */\n    tag_13:\n      callvalue\n      dup1\n      iszero\n      tag_74\n      jumpi\n      revert(0x00, 0x00)\n    tag_74:\n      pop\n      tag_75\n      tag_76\n      jump\t// in\n    tag_75:\n      mload(0x40)\n      tag_77\n      swap2\n      swap1\n      tag_58\n      jump\t// in\n    tag_77:\n      mload(0x40)\n      dup1\n      swap2\n      sub\n      swap1\n      return\n        /* \"contracts/LendingPlatform.sol\":818:847  uint256 public ETHRatio = 150 */\n    tag_14:\n      callvalue\n      dup1\n      iszero\n      tag_78\n      jumpi\n      revert(0x00, 0x00)\n    tag_78:\n      pop\n      tag_79\n      tag_80\n      jump\t// in\n    tag_79:\n      mload(0x40)\n      tag_81\n      swap2\n      swap1\n      tag_58\n      jump\t// in\n    tag_81:\n      mload(0x40)\n      dup1\n      swap2\n      sub\n      swap1\n      return\n        /* \"contracts/LendingPlatform.sol\":11017:11176  function getLoanDetails(address _borrowerAddress, uint256 _loanId) external view returns (Loan memory) {... */\n    tag_15:\n      callvalue\n      dup1\n      iszero\n      tag_82\n      jumpi\n      revert(0x00, 0x00)\n    tag_82:\n      pop\n      tag_83\n      0x04\n      dup1\n      calldatasize\n      sub\n      dup2\n      add\n      swap1\n      tag_84\n      swap2\n      swap1\n      tag_26\n      jump\t// in\n    tag_84:\n      tag_85\n      jump\t// in\n    tag_83:\n      mload(0x40)\n      tag_86\n      swap2\n      swap1\n      tag_87\n      jump\t// in\n    tag_86:\n      mload(0x40)\n      dup1\n      swap2\n      sub\n      swap1\n      return\n        /* \"contracts/LendingPlatform.sol\":4074:5178  function createLoanRequest(uint256 _USDC,uint256 _percent,uint256 _TimeDelta) external payable {... */\n    tag_22:\n        /* \"contracts/LendingPlatform.sol\":4195:4196  0 */\n      0x00\n        /* \"contracts/LendingPlatform.sol\":4187:4192  _USDC */\n      dup4\n        /* \"contracts/LendingPlatform.sol\":4187:4196  _USDC > 0 */\n      gt\n        /* \"contracts/LendingPlatform.sol\":4179:4222  require(_USDC > 0, \"USDC must be positive\") */\n      tag_89\n      jumpi\n      mload(0x40)\n      0x08c379a000000000000000000000000000000000000000000000000000000000\n      dup2\n      mstore\n      0x04\n      add\n      tag_90\n      swap1\n      tag_91\n      jump\t// in\n    tag_90:\n      mload(0x40)\n      dup1\n      swap2\n      sub\n      swap1\n      revert\n    tag_89:\n        /* \"contracts/LendingPlatform.sol\":4259:4264  _USDC */\n      dup3\n        /* \"contracts/LendingPlatform.sol\":4251:4256  _USDC */\n      dup4\n        /* \"contracts/LendingPlatform.sol\":4240:4248  _percent */\n      dup4\n        /* \"contracts/LendingPlatform.sol\":4240:4256  _percent * _USDC */\n      tag_92\n      swap2\n      swap1\n      tag_93\n      jump\t// in\n    tag_92:\n        /* \"contracts/LendingPlatform.sol\":4240:4264  _percent * _USDC > _USDC */\n      gt\n        /* \"contracts/LendingPlatform.sol\":4232:4303  require(_percent * _USDC > _USDC,\"Repayment must be greater than USDC\") */\n      tag_94\n      jumpi\n      mload(0x40)\n      0x08c379a000000000000000000000000000000000000000000000000000000000\n      dup2\n      mstore\n      0x04\n      add\n      tag_95\n      swap1\n      tag_96\n      jump\t// in\n    tag_95:\n      mload(0x40)\n      dup1\n      swap2\n      sub\n      swap1\n      revert\n    tag_94:\n        /* \"contracts/LendingPlatform.sol\":4333:4334  0 */\n      0x00\n        /* \"contracts/LendingPlatform.sol\":4321:4330  msg.value */\n      callvalue\n        /* \"contracts/LendingPlatform.sol\":4321:4334  msg.value > 0 */\n      gt\n        /* \"contracts/LendingPlatform.sol\":4313:4355  require(msg.value > 0, \"ETH must be sent\") */\n      tag_97\n      jumpi\n      mload(0x40)\n      0x08c379a000000000000000000000000000000000000000000000000000000000\n      dup2\n      mstore\n      0x04\n      add\n      tag_98\n      swap1\n      tag_99\n      jump\t// in\n    tag_98:\n      mload(0x40)\n      dup1\n      swap2\n      sub\n      swap1\n      revert\n    tag_97:\n        /* \"contracts/LendingPlatform.sol\":4436:4452  uint256 ethPrice */\n      0x00\n        /* \"contracts/LendingPlatform.sol\":4455:4474  getLatestETHPrice() */\n      tag_100\n        /* \"contracts/LendingPlatform.sol\":4455:4472  getLatestETHPrice */\n      tag_56\n        /* \"contracts/LendingPlatform.sol\":4455:4474  getLatestETHPrice() */\n      jump\t// in\n    tag_100:\n        /* \"contracts/LendingPlatform.sol\":4436:4474  uint256 ethPrice = getLatestETHPrice() */\n      swap1\n      pop\n        /* \"contracts/LendingPlatform.sol\":4484:4506  uint256 requiredETHWei */\n      0x00\n        /* \"contracts/LendingPlatform.sol\":4565:4569  1e18 */\n      0x0de0b6b3a7640000\n        /* \"contracts/LendingPlatform.sol\":4559:4562  100 */\n      0x64\n        /* \"contracts/LendingPlatform.sol\":4548:4556  ethPrice */\n      dup4\n        /* \"contracts/LendingPlatform.sol\":4548:4562  ethPrice * 100 */\n      tag_101\n      swap2\n      swap1\n      tag_93\n      jump\t// in\n    tag_101:\n        /* \"contracts/LendingPlatform.sol\":4548:4569  ethPrice * 100 / 1e18 */\n      tag_102\n      swap2\n      swap1\n      tag_103\n      jump\t// in\n    tag_102:\n        /* \"contracts/LendingPlatform.sol\":4529:4535  10**18 */\n      0x0de0b6b3a7640000\n        /* \"contracts/LendingPlatform.sol\":4518:4526  ETHRatio */\n      sload(0x03)\n        /* \"contracts/LendingPlatform.sol\":4510:4515  _USDC */\n      dup8\n        /* \"contracts/LendingPlatform.sol\":4510:4526  _USDC * ETHRatio */\n      tag_104\n      swap2\n      swap1\n      tag_93\n      jump\t// in\n    tag_104:\n        /* \"contracts/LendingPlatform.sol\":4510:4535  _USDC * ETHRatio * 10**18 */\n      tag_105\n      swap2\n      swap1\n      tag_93\n      jump\t// in\n    tag_105:\n        /* \"contracts/LendingPlatform.sol\":4509:4570  (_USDC * ETHRatio * 10**18) /... */\n      tag_106\n      swap2\n      swap1\n      tag_103\n      jump\t// in\n    tag_106:\n        /* \"contracts/LendingPlatform.sol\":4484:4570  uint256 requiredETHWei = (_USDC * ETHRatio * 10**18) /... */\n      swap1\n      pop\n        /* \"contracts/LendingPlatform.sol\":4601:4615  requiredETHWei */\n      dup1\n        /* \"contracts/LendingPlatform.sol\":4588:4597  msg.value */\n      callvalue\n        /* \"contracts/LendingPlatform.sol\":4588:4615  msg.value >= requiredETHWei */\n      lt\n      iszero\n        /* \"contracts/LendingPlatform.sol\":4580:4638  require(msg.value >= requiredETHWei, \"Not enough ETH ETH\") */\n      tag_107\n      jumpi\n      mload(0x40)\n      0x08c379a000000000000000000000000000000000000000000000000000000000\n      dup2\n      mstore\n      0x04\n      add\n      tag_108\n      swap1\n      tag_109\n      jump\t// in\n    tag_108:\n      mload(0x40)\n      dup1\n      swap2\n      sub\n      swap1\n      revert\n    tag_107:\n        /* \"contracts/LendingPlatform.sol\":4650:4662  _loanCounter */\n      0x05\n        /* \"contracts/LendingPlatform.sol\":4650:4674  _loanCounter[msg.sender] */\n      0x00\n        /* \"contracts/LendingPlatform.sol\":4663:4673  msg.sender */\n      caller\n        /* \"contracts/LendingPlatform.sol\":4650:4674  _loanCounter[msg.sender] */\n      0xffffffffffffffffffffffffffffffffffffffff\n      and\n      0xffffffffffffffffffffffffffffffffffffffff\n      and\n      dup2\n      mstore\n      0x20\n      add\n      swap1\n      dup2\n      mstore\n      0x20\n      add\n      0x00\n      keccak256\n      0x00\n        /* \"contracts/LendingPlatform.sol\":4650:4676  _loanCounter[msg.sender]++ */\n      dup2\n      sload\n      dup1\n      swap3\n      swap2\n      swap1\n      tag_110\n      swap1\n      tag_111\n      jump\t// in\n    tag_110:\n      swap2\n      swap1\n      pop\n      sstore\n      pop\n        /* \"contracts/LendingPlatform.sol\":4686:4700  uint256 loanId */\n      0x00\n        /* \"contracts/LendingPlatform.sol\":4703:4715  _loanCounter */\n      0x05\n        /* \"contracts/LendingPlatform.sol\":4703:4727  _loanCounter[msg.sender] */\n      0x00\n        /* \"contracts/LendingPlatform.sol\":4716:4726  msg.sender */\n      caller\n        /* \"contracts/LendingPlatform.sol\":4703:4727  _loanCounter[msg.sender] */\n      0xffffffffffffffffffffffffffffffffffffffff\n      and\n      0xffffffffffffffffffffffffffffffffffffffff\n      and\n      dup2\n      mstore\n      0x20\n      add\n      swap1\n      dup2\n      mstore\n      0x20\n      add\n      0x00\n      keccak256\n      sload\n        /* \"contracts/LendingPlatform.sol\":4686:4727  uint256 loanId = _loanCounter[msg.sender] */\n      swap1\n      pop\n        /* \"contracts/LendingPlatform.sol\":4766:5090  Loan({... */\n      mload(0x40)\n      dup1\n      0x0140\n      add\n      0x40\n      mstore\n      dup1\n        /* \"contracts/LendingPlatform.sol\":4789:4795  loanId */\n      dup3\n        /* \"contracts/LendingPlatform.sol\":4766:5090  Loan({... */\n      dup2\n      mstore\n      0x20\n      add\n        /* \"contracts/LendingPlatform.sol\":4819:4829  msg.sender */\n      caller\n        /* \"contracts/LendingPlatform.sol\":4766:5090  Loan({... */\n      0xffffffffffffffffffffffffffffffffffffffff\n      and\n      dup2\n      mstore\n      0x20\n      add\n        /* \"contracts/LendingPlatform.sol\":4859:4860  0 */\n      0x00\n        /* \"contracts/LendingPlatform.sol\":4766:5090  Loan({... */\n      0xffffffffffffffffffffffffffffffffffffffff\n      and\n      dup2\n      mstore\n      0x20\n      add\n        /* \"contracts/LendingPlatform.sol\":4881:4886  _USDC */\n      dup8\n        /* \"contracts/LendingPlatform.sol\":4766:5090  Loan({... */\n      dup2\n      mstore\n      0x20\n      add\n        /* \"contracts/LendingPlatform.sol\":4909:4917  _percent */\n      dup7\n        /* \"contracts/LendingPlatform.sol\":4766:5090  Loan({... */\n      dup2\n      mstore\n      0x20\n      add\n        /* \"contracts/LendingPlatform.sol\":4936:4945  msg.value */\n      callvalue\n        /* \"contracts/LendingPlatform.sol\":4766:5090  Loan({... */\n      dup2\n      mstore\n      0x20\n      add\n        /* \"contracts/LendingPlatform.sol\":4970:4980  _TimeDelta */\n      dup6\n        /* \"contracts/LendingPlatform.sol\":4766:5090  Loan({... */\n      dup2\n      mstore\n      0x20\n      add\n        /* \"contracts/LendingPlatform.sol\":5003:5004  0 */\n      0x00\n        /* \"contracts/LendingPlatform.sol\":4766:5090  Loan({... */\n      dup2\n      mstore\n      0x20\n      add\n        /* \"contracts/LendingPlatform.sol\":5037:5042  false */\n      0x00\n        /* \"contracts/LendingPlatform.sol\":4766:5090  Loan({... */\n      iszero\n      iszero\n      dup2\n      mstore\n      0x20\n      add\n        /* \"contracts/LendingPlatform.sol\":5064:5079  Status.Awaiting */\n      0x00\n        /* \"contracts/LendingPlatform.sol\":4766:5090  Loan({... */\n      0x06\n      dup2\n      gt\n      iszero\n      tag_112\n      jumpi\n      tag_113\n      tag_114\n      jump\t// in\n    tag_113:\n    tag_112:\n      dup2\n      mstore\n      pop\n        /* \"contracts/LendingPlatform.sol\":4738:4743  loans */\n      0x07\n        /* \"contracts/LendingPlatform.sol\":4738:4755  loans[msg.sender] */\n      0x00\n        /* \"contracts/LendingPlatform.sol\":4744:4754  msg.sender */\n      caller\n        /* \"contracts/LendingPlatform.sol\":4738:4755  loans[msg.sender] */\n      0xffffffffffffffffffffffffffffffffffffffff\n      and\n      0xffffffffffffffffffffffffffffffffffffffff\n      and\n      dup2\n      mstore\n      0x20\n      add\n      swap1\n      dup2\n      mstore\n      0x20\n      add\n      0x00\n      keccak256\n        /* \"contracts/LendingPlatform.sol\":4738:4763  loans[msg.sender][loanId] */\n      0x00\n        /* \"contracts/LendingPlatform.sol\":4756:4762  loanId */\n      dup4\n        /* \"contracts/LendingPlatform.sol\":4738:4763  loans[msg.sender][loanId] */\n      dup2\n      mstore\n      0x20\n      add\n      swap1\n      dup2\n      mstore\n      0x20\n      add\n      0x00\n      keccak256\n        /* \"contracts/LendingPlatform.sol\":4738:5090  loans[msg.sender][loanId] = Loan({... */\n      0x00\n      dup3\n      add\n      mload\n      dup2\n      0x00\n      add\n      sstore\n      0x20\n      dup3\n      add\n      mload\n      dup2\n      0x01\n      add\n      exp(0x0100, 0x00)\n      dup2\n      sload\n      dup2\n      0xffffffffffffffffffffffffffffffffffffffff\n      mul\n      not\n      and\n      swap1\n      dup4\n      0xffffffffffffffffffffffffffffffffffffffff\n      and\n      mul\n      or\n      swap1\n      sstore\n      pop\n      0x40\n      dup3\n      add\n      mload\n      dup2\n      0x02\n      add\n      exp(0x0100, 0x00)\n      dup2\n      sload\n      dup2\n      0xffffffffffffffffffffffffffffffffffffffff\n      mul\n      not\n      and\n      swap1\n      dup4\n      0xffffffffffffffffffffffffffffffffffffffff\n      and\n      mul\n      or\n      swap1\n      sstore\n      pop\n      0x60\n      dup3\n      add\n      mload\n      dup2\n      0x03\n      add\n      sstore\n      0x80\n      dup3\n      add\n      mload\n      dup2\n      0x04\n      add\n      sstore\n      0xa0\n      dup3\n      add\n      mload\n      dup2\n      0x05\n      add\n      sstore\n      0xc0\n      dup3\n      add\n      mload\n      dup2\n      0x06\n      add\n      sstore\n      0xe0\n      dup3\n      add\n      mload\n      dup2\n      0x07\n      add\n      sstore\n      0x0100\n      dup3\n      add\n      mload\n      dup2\n      0x08\n      add\n      exp(0x0100, 0x00)\n      dup2\n      sload\n      dup2\n      0xff\n      mul\n      not\n      and\n      swap1\n      dup4\n      iszero\n      iszero\n      mul\n      or\n      swap1\n      sstore\n      pop\n      0x0120\n      dup3\n      add\n      mload\n      dup2\n      0x08\n      add\n      exp(0x0100, 0x01)\n      dup2\n      sload\n      dup2\n      0xff\n      mul\n      not\n      and\n      swap1\n      dup4\n      0x06\n      dup2\n      gt\n      iszero\n      tag_115\n      jumpi\n      tag_116\n      tag_114\n      jump\t// in\n    tag_116:\n    tag_115:\n      mul\n      or\n      swap1\n      sstore\n      pop\n      swap1\n      pop\n      pop\n        /* \"contracts/LendingPlatform.sol\":5133:5143  msg.sender */\n      caller\n        /* \"contracts/LendingPlatform.sol\":5106:5171  LoanRequestAwaiting(loanId,msg.sender, _USDC,_percent, msg.value) */\n      0xffffffffffffffffffffffffffffffffffffffff\n      and\n        /* \"contracts/LendingPlatform.sol\":5126:5132  loanId */\n      dup2\n        /* \"contracts/LendingPlatform.sol\":5106:5171  LoanRequestAwaiting(loanId,msg.sender, _USDC,_percent, msg.value) */\n      0x5562cd4ee21f29c3f86bd5fbef7db62e5d2bd7f7aec654ff86558dcdd7efe481\n        /* \"contracts/LendingPlatform.sol\":5145:5150  _USDC */\n      dup9\n        /* \"contracts/LendingPlatform.sol\":5151:5159  _percent */\n      dup9\n        /* \"contracts/LendingPlatform.sol\":5161:5170  msg.value */\n      callvalue\n        /* \"contracts/LendingPlatform.sol\":5106:5171  LoanRequestAwaiting(loanId,msg.sender, _USDC,_percent, msg.value) */\n      mload(0x40)\n      tag_117\n      swap4\n      swap3\n      swap2\n      swap1\n      tag_118\n      jump\t// in\n    tag_117:\n      mload(0x40)\n      dup1\n      swap2\n      sub\n      swap1\n      log3\n        /* \"contracts/LendingPlatform.sol\":4169:5178  {... */\n      pop\n      pop\n      pop\n        /* \"contracts/LendingPlatform.sol\":4074:5178  function createLoanRequest(uint256 _USDC,uint256 _percent,uint256 _TimeDelta) external payable {... */\n      pop\n      pop\n      pop\n      jump\t// out\n        /* \"contracts/LendingPlatform.sol\":5309:5999  function fundRequest(address _borrowerAddress, uint256 _loanId) external {... */\n    tag_27:\n        /* \"contracts/LendingPlatform.sol\":5392:5409  Loan storage loan */\n      0x00\n        /* \"contracts/LendingPlatform.sol\":5412:5417  loans */\n      0x07\n        /* \"contracts/LendingPlatform.sol\":5412:5435  loans[_borrowerAddress] */\n      0x00\n        /* \"contracts/LendingPlatform.sol\":5418:5434  _borrowerAddress */\n      dup5\n        /* \"contracts/LendingPlatform.sol\":5412:5435  loans[_borrowerAddress] */\n      0xffffffffffffffffffffffffffffffffffffffff\n      and\n      0xffffffffffffffffffffffffffffffffffffffff\n      and\n      dup2\n      mstore\n      0x20\n      add\n      swap1\n      dup2\n      mstore\n      0x20\n      add\n      0x00\n      keccak256\n        /* \"contracts/LendingPlatform.sol\":5412:5444  loans[_borrowerAddress][_loanId] */\n      0x00\n        /* \"contracts/LendingPlatform.sol\":5436:5443  _loanId */\n      dup4\n        /* \"contracts/LendingPlatform.sol\":5412:5444  loans[_borrowerAddress][_loanId] */\n      dup2\n      mstore\n      0x20\n      add\n      swap1\n      dup2\n      mstore\n      0x20\n      add\n      0x00\n      keccak256\n        /* \"contracts/LendingPlatform.sol\":5392:5444  Loan storage loan = loans[_borrowerAddress][_loanId] */\n      swap1\n      pop\n        /* \"contracts/LendingPlatform.sol\":5477:5492  Status.Awaiting */\n      0x00\n        /* \"contracts/LendingPlatform.sol\":5462:5492  loan.status == Status.Awaiting */\n      0x06\n      dup2\n      gt\n      iszero\n      tag_120\n      jumpi\n      tag_121\n      tag_114\n      jump\t// in\n    tag_121:\n    tag_120:\n        /* \"contracts/LendingPlatform.sol\":5462:5466  loan */\n      dup2\n        /* \"contracts/LendingPlatform.sol\":5462:5473  loan.status */\n      0x08\n      add\n      0x01\n      swap1\n      sload\n      swap1\n      0x0100\n      exp\n      swap1\n      div\n      0xff\n      and\n        /* \"contracts/LendingPlatform.sol\":5462:5492  loan.status == Status.Awaiting */\n      0x06\n      dup2\n      gt\n      iszero\n      tag_122\n      jumpi\n      tag_123\n      tag_114\n      jump\t// in\n    tag_123:\n    tag_122:\n      eq\n        /* \"contracts/LendingPlatform.sol\":5454:5518  require(loan.status == Status.Awaiting, \"Request is not active\") */\n      tag_124\n      jumpi\n      mload(0x40)\n      0x08c379a000000000000000000000000000000000000000000000000000000000\n      dup2\n      mstore\n      0x04\n      add\n      tag_125\n      swap1\n      tag_126\n      jump\t// in\n    tag_125:\n      mload(0x40)\n      dup1\n      swap2\n      sub\n      swap1\n      revert\n    tag_124:\n        /* \"contracts/LendingPlatform.sol\":5566:5576  msg.sender */\n      caller\n        /* \"contracts/LendingPlatform.sol\":5549:5576  loan.borrower != msg.sender */\n      0xffffffffffffffffffffffffffffffffffffffff\n      and\n        /* \"contracts/LendingPlatform.sol\":5549:5553  loan */\n      dup2\n        /* \"contracts/LendingPlatform.sol\":5549:5562  loan.borrower */\n      0x01\n      add\n      0x00\n      swap1\n      sload\n      swap1\n      0x0100\n      exp\n      swap1\n      div\n      0xffffffffffffffffffffffffffffffffffffffff\n      and\n        /* \"contracts/LendingPlatform.sol\":5549:5576  loan.borrower != msg.sender */\n      0xffffffffffffffffffffffffffffffffffffffff\n      and\n      sub\n        /* \"contracts/LendingPlatform.sol\":5528:5640  require(... */\n      tag_127\n      jumpi\n      mload(0x40)\n      0x08c379a000000000000000000000000000000000000000000000000000000000\n      dup2\n      mstore\n      0x04\n      add\n      tag_128\n      swap1\n      tag_129\n      jump\t// in\n    tag_128:\n      mload(0x40)\n      dup1\n      swap2\n      sub\n      swap1\n      revert\n    tag_127:\n        /* \"contracts/LendingPlatform.sol\":5651:5662  IERC20 usdt */\n      0x00\n        /* \"contracts/LendingPlatform.sol\":5665:5681  usdtTokenAddress */\n      0x00\n      0x00\n      swap1\n      sload\n      swap1\n      0x0100\n      exp\n      swap1\n      div\n      0xffffffffffffffffffffffffffffffffffffffff\n      and\n        /* \"contracts/LendingPlatform.sol\":5651:5681  IERC20 usdt = usdtTokenAddress */\n      swap1\n      pop\n        /* \"contracts/LendingPlatform.sol\":5745:5749  loan */\n      dup2\n        /* \"contracts/LendingPlatform.sol\":5745:5754  loan.USDC */\n      0x03\n      add\n      sload\n        /* \"contracts/LendingPlatform.sol\":5700:5704  usdt */\n      dup2\n        /* \"contracts/LendingPlatform.sol\":5700:5714  usdt.allowance */\n      0xffffffffffffffffffffffffffffffffffffffff\n      and\n      0xdd62ed3e\n        /* \"contracts/LendingPlatform.sol\":5715:5725  msg.sender */\n      caller\n        /* \"contracts/LendingPlatform.sol\":5735:5739  this */\n      address\n        /* \"contracts/LendingPlatform.sol\":5700:5741  usdt.allowance(msg.sender, address(this)) */\n      mload(0x40)\n      dup4\n      0xffffffff\n      and\n      0xe0\n      shl\n      dup2\n      mstore\n      0x04\n      add\n      tag_130\n      swap3\n      swap2\n      swap1\n      tag_131\n      jump\t// in\n    tag_130:\n      0x20\n      mload(0x40)\n      dup1\n      dup4\n      sub\n      dup2\n      dup7\n      gas\n      staticcall\n      iszero\n      dup1\n      iszero\n      tag_133\n      jumpi\n      returndatacopy(0x00, 0x00, returndatasize)\n      revert(0x00, returndatasize)\n    tag_133:\n      pop\n      pop\n      pop\n      pop\n      mload(0x40)\n      returndatasize\n      not(0x1f)\n      0x1f\n      dup3\n      add\n      and\n      dup3\n      add\n      dup1\n      0x40\n      mstore\n      pop\n      dup2\n      add\n      swap1\n      tag_134\n      swap2\n      swap1\n      tag_135\n      jump\t// in\n    tag_134:\n        /* \"contracts/LendingPlatform.sol\":5700:5754  usdt.allowance(msg.sender, address(this)) >= loan.USDC */\n      lt\n      iszero\n        /* \"contracts/LendingPlatform.sol\":5691:5784  require( usdt.allowance(msg.sender, address(this)) >= loan.USDC, \"Not enough USDT allowance\") */\n      tag_136\n      jumpi\n      mload(0x40)\n      0x08c379a000000000000000000000000000000000000000000000000000000000\n      dup2\n      mstore\n      0x04\n      add\n      tag_137\n      swap1\n      tag_138\n      jump\t// in\n    tag_137:\n      mload(0x40)\n      dup1\n      swap2\n      sub\n      swap1\n      revert\n    tag_136:\n        /* \"contracts/LendingPlatform.sol\":5795:5799  usdt */\n      dup1\n        /* \"contracts/LendingPlatform.sol\":5795:5812  usdt.transferFrom */\n      0xffffffffffffffffffffffffffffffffffffffff\n      and\n      0x23b872dd\n        /* \"contracts/LendingPlatform.sol\":5813:5823  msg.sender */\n      caller\n        /* \"contracts/LendingPlatform.sol\":5833:5837  this */\n      address\n        /* \"contracts/LendingPlatform.sol\":5840:5844  loan */\n      dup6\n        /* \"contracts/LendingPlatform.sol\":5840:5849  loan.USDC */\n      0x03\n      add\n      sload\n        /* \"contracts/LendingPlatform.sol\":5795:5850  usdt.transferFrom(msg.sender, address(this), loan.USDC) */\n      mload(0x40)\n      dup5\n      0xffffffff\n      and\n      0xe0\n      shl\n      dup2\n      mstore\n      0x04\n      add\n      tag_139\n      swap4\n      swap3\n      swap2\n      swap1\n      tag_140\n      jump\t// in\n    tag_139:\n      0x20\n      mload(0x40)\n      dup1\n      dup4\n      sub\n      dup2\n      0x00\n      dup8\n      gas\n      call\n      iszero\n      dup1\n      iszero\n      tag_142\n      jumpi\n      returndatacopy(0x00, 0x00, returndatasize)\n      revert(0x00, returndatasize)\n    tag_142:\n      pop\n      pop\n      pop\n      pop\n      mload(0x40)\n      returndatasize\n      not(0x1f)\n      0x1f\n      dup3\n      add\n      and\n      dup3\n      add\n      dup1\n      0x40\n      mstore\n      pop\n      dup2\n      add\n      swap1\n      tag_143\n      swap2\n      swap1\n      tag_144\n      jump\t// in\n    tag_143:\n      pop\n        /* \"contracts/LendingPlatform.sol\":5875:5885  msg.sender */\n      caller\n        /* \"contracts/LendingPlatform.sol\":5861:5865  loan */\n      dup3\n        /* \"contracts/LendingPlatform.sol\":5861:5872  loan.lender */\n      0x02\n      add\n      0x00\n        /* \"contracts/LendingPlatform.sol\":5861:5885  loan.lender = msg.sender */\n      0x0100\n      exp\n      dup2\n      sload\n      dup2\n      0xffffffffffffffffffffffffffffffffffffffff\n      mul\n      not\n      and\n      swap1\n      dup4\n      0xffffffffffffffffffffffffffffffffffffffff\n      and\n      mul\n      or\n      swap1\n      sstore\n      pop\n        /* \"contracts/LendingPlatform.sol\":5909:5923  Status.Pending */\n      0x01\n        /* \"contracts/LendingPlatform.sol\":5895:5899  loan */\n      dup3\n        /* \"contracts/LendingPlatform.sol\":5895:5906  loan.status */\n      0x08\n      add\n      0x01\n        /* \"contracts/LendingPlatform.sol\":5895:5923  loan.status = Status.Pending */\n      0x0100\n      exp\n      dup2\n      sload\n      dup2\n      0xff\n      mul\n      not\n      and\n      swap1\n      dup4\n      0x06\n      dup2\n      gt\n      iszero\n      tag_145\n      jumpi\n      tag_146\n      tag_114\n      jump\t// in\n    tag_146:\n    tag_145:\n      mul\n      or\n      swap1\n      sstore\n      pop\n        /* \"contracts/LendingPlatform.sol\":5981:5991  msg.sender */\n      caller\n        /* \"contracts/LendingPlatform.sol\":5939:5992  RequestPending(_loanId, _borrowerAddress, msg.sender) */\n      0xffffffffffffffffffffffffffffffffffffffff\n      and\n        /* \"contracts/LendingPlatform.sol\":5963:5979  _borrowerAddress */\n      dup5\n        /* \"contracts/LendingPlatform.sol\":5939:5992  RequestPending(_loanId, _borrowerAddress, msg.sender) */\n      0xffffffffffffffffffffffffffffffffffffffff\n      and\n        /* \"contracts/LendingPlatform.sol\":5954:5961  _loanId */\n      dup5\n        /* \"contracts/LendingPlatform.sol\":5939:5992  RequestPending(_loanId, _borrowerAddress, msg.sender) */\n      0x7dfb381ca6b3c326cf21bffba41143daf6e8967c09b614a3f8ce26869ef4478a\n      mload(0x40)\n      mload(0x40)\n      dup1\n      swap2\n      sub\n      swap1\n      log4\n        /* \"contracts/LendingPlatform.sol\":5382:5999  {... */\n      pop\n      pop\n        /* \"contracts/LendingPlatform.sol\":5309:5999  function fundRequest(address _borrowerAddress, uint256 _loanId) external {... */\n      pop\n      pop\n      jump\t// out\n        /* \"contracts/LendingPlatform.sol\":10037:10944  function performUpkeep(bytes calldata performData) external override {... */\n    tag_32:\n        /* \"contracts/LendingPlatform.sol\":10112:10122  uint index */\n      0x00\n        /* \"contracts/LendingPlatform.sol\":10136:10147  performData */\n      dup3\n      dup3\n        /* \"contracts/LendingPlatform.sol\":10125:10156  abi.decode(performData, (uint)) */\n      dup2\n      add\n      swap1\n      tag_148\n      swap2\n      swap1\n      tag_40\n      jump\t// in\n    tag_148:\n        /* \"contracts/LendingPlatform.sol\":10112:10156  uint index = abi.decode(performData, (uint)) */\n      swap1\n      pop\n        /* \"contracts/LendingPlatform.sol\":10162:10180  LoanKey memory key */\n      0x00\n        /* \"contracts/LendingPlatform.sol\":10183:10194  activeLoans */\n      0x06\n        /* \"contracts/LendingPlatform.sol\":10195:10200  index */\n      dup3\n        /* \"contracts/LendingPlatform.sol\":10183:10201  activeLoans[index] */\n      dup2\n      sload\n      dup2\n      lt\n      tag_149\n      jumpi\n      tag_150\n      tag_151\n      jump\t// in\n    tag_150:\n    tag_149:\n      swap1\n      0x00\n      mstore\n      keccak256(0x00, 0x20)\n      swap1\n      0x02\n      mul\n      add\n        /* \"contracts/LendingPlatform.sol\":10162:10201  LoanKey memory key = activeLoans[index] */\n      mload(0x40)\n      dup1\n      0x40\n      add\n      0x40\n      mstore\n      swap1\n      dup2\n      0x00\n      dup3\n      add\n      0x00\n      swap1\n      sload\n      swap1\n      0x0100\n      exp\n      swap1\n      div\n      0xffffffffffffffffffffffffffffffffffffffff\n      and\n      0xffffffffffffffffffffffffffffffffffffffff\n      and\n      0xffffffffffffffffffffffffffffffffffffffff\n      and\n      dup2\n      mstore\n      0x20\n      add\n      0x01\n      dup3\n      add\n      sload\n      dup2\n      mstore\n      pop\n      pop\n      swap1\n      pop\n        /* \"contracts/LendingPlatform.sol\":10207:10224  Loan storage loan */\n      0x00\n        /* \"contracts/LendingPlatform.sol\":10227:10232  loans */\n      0x07\n        /* \"contracts/LendingPlatform.sol\":10227:10246  loans[key.borrower] */\n      0x00\n        /* \"contracts/LendingPlatform.sol\":10233:10236  key */\n      dup4\n        /* \"contracts/LendingPlatform.sol\":10233:10245  key.borrower */\n      0x00\n      add\n      mload\n        /* \"contracts/LendingPlatform.sol\":10227:10246  loans[key.borrower] */\n      0xffffffffffffffffffffffffffffffffffffffff\n      and\n      0xffffffffffffffffffffffffffffffffffffffff\n      and\n      dup2\n      mstore\n      0x20\n      add\n      swap1\n      dup2\n      mstore\n      0x20\n      add\n      0x00\n      keccak256\n        /* \"contracts/LendingPlatform.sol\":10227:10258  loans[key.borrower][key.loanId] */\n      0x00\n        /* \"contracts/LendingPlatform.sol\":10247:10250  key */\n      dup4\n        /* \"contracts/LendingPlatform.sol\":10247:10257  key.loanId */\n      0x20\n      add\n      mload\n        /* \"contracts/LendingPlatform.sol\":10227:10258  loans[key.borrower][key.loanId] */\n      dup2\n      mstore\n      0x20\n      add\n      swap1\n      dup2\n      mstore\n      0x20\n      add\n      0x00\n      keccak256\n        /* \"contracts/LendingPlatform.sol\":10207:10258  Loan storage loan = loans[key.borrower][key.loanId] */\n      swap1\n      pop\n        /* \"contracts/LendingPlatform.sol\":10284:10297  Status.Active */\n      0x02\n        /* \"contracts/LendingPlatform.sol\":10269:10297  loan.status != Status.Active */\n      0x06\n      dup2\n      gt\n      iszero\n      tag_153\n      jumpi\n      tag_154\n      tag_114\n      jump\t// in\n    tag_154:\n    tag_153:\n        /* \"contracts/LendingPlatform.sol\":10269:10273  loan */\n      dup2\n        /* \"contracts/LendingPlatform.sol\":10269:10280  loan.status */\n      0x08\n      add\n      0x01\n      swap1\n      sload\n      swap1\n      0x0100\n      exp\n      swap1\n      div\n      0xff\n      and\n        /* \"contracts/LendingPlatform.sol\":10269:10297  loan.status != Status.Active */\n      0x06\n      dup2\n      gt\n      iszero\n      tag_155\n      jumpi\n      tag_156\n      tag_114\n      jump\t// in\n    tag_156:\n    tag_155:\n      eq\n        /* \"contracts/LendingPlatform.sol\":10265:10306  if (loan.status != Status.Active) return; */\n      tag_157\n      jumpi\n        /* \"contracts/LendingPlatform.sol\":10299:10306  return; */\n      pop\n      pop\n      pop\n      jump(tag_147)\n        /* \"contracts/LendingPlatform.sol\":10265:10306  if (loan.status != Status.Active) return; */\n    tag_157:\n        /* \"contracts/LendingPlatform.sol\":10312:10326  bool isOverdue */\n      0x00\n        /* \"contracts/LendingPlatform.sol\":10347:10351  loan */\n      dup2\n        /* \"contracts/LendingPlatform.sol\":10347:10359  loan.dueDate */\n      0x07\n      add\n      sload\n        /* \"contracts/LendingPlatform.sol\":10329:10344  block.timestamp */\n      timestamp\n        /* \"contracts/LendingPlatform.sol\":10329:10359  block.timestamp > loan.dueDate */\n      gt\n        /* \"contracts/LendingPlatform.sol\":10312:10359  bool isOverdue = block.timestamp > loan.dueDate */\n      swap1\n      pop\n        /* \"contracts/LendingPlatform.sol\":10366:10382  uint256 ethPrice */\n      0x00\n        /* \"contracts/LendingPlatform.sol\":10385:10404  getLatestETHPrice() */\n      tag_158\n        /* \"contracts/LendingPlatform.sol\":10385:10402  getLatestETHPrice */\n      tag_56\n        /* \"contracts/LendingPlatform.sol\":10385:10404  getLatestETHPrice() */\n      jump\t// in\n    tag_158:\n        /* \"contracts/LendingPlatform.sol\":10366:10404  uint256 ethPrice = getLatestETHPrice() */\n      swap1\n      pop\n        /* \"contracts/LendingPlatform.sol\":10410:10433  uint256 collateralValue */\n      0x00\n        /* \"contracts/LendingPlatform.sol\":10460:10464  1e18 */\n      0x0de0b6b3a7640000\n        /* \"contracts/LendingPlatform.sol\":10448:10456  ethPrice */\n      dup3\n        /* \"contracts/LendingPlatform.sol\":10437:10441  loan */\n      dup6\n        /* \"contracts/LendingPlatform.sol\":10437:10445  loan.ETH */\n      0x05\n      add\n      sload\n        /* \"contracts/LendingPlatform.sol\":10437:10456  loan.ETH * ethPrice */\n      tag_159\n      swap2\n      swap1\n      tag_93\n      jump\t// in\n    tag_159:\n        /* \"contracts/LendingPlatform.sol\":10436:10464  (loan.ETH * ethPrice) / 1e18 */\n      tag_160\n      swap2\n      swap1\n      tag_103\n      jump\t// in\n    tag_160:\n        /* \"contracts/LendingPlatform.sol\":10410:10464  uint256 collateralValue = (loan.ETH * ethPrice) / 1e18 */\n      swap1\n      pop\n        /* \"contracts/LendingPlatform.sol\":10470:10487  uint256 repayment */\n      0x00\n        /* \"contracts/LendingPlatform.sol\":10519:10522  100 */\n      0x64\n        /* \"contracts/LendingPlatform.sol\":10503:10507  loan */\n      dup6\n        /* \"contracts/LendingPlatform.sol\":10503:10515  loan.Percent */\n      0x04\n      add\n      sload\n        /* \"contracts/LendingPlatform.sol\":10491:10495  loan */\n      dup7\n        /* \"contracts/LendingPlatform.sol\":10491:10500  loan.USDC */\n      0x03\n      add\n      sload\n        /* \"contracts/LendingPlatform.sol\":10491:10515  loan.USDC * loan.Percent */\n      tag_161\n      swap2\n      swap1\n      tag_93\n      jump\t// in\n    tag_161:\n        /* \"contracts/LendingPlatform.sol\":10490:10522  (loan.USDC * loan.Percent) / 100 */\n      tag_162\n      swap2\n      swap1\n      tag_103\n      jump\t// in\n    tag_162:\n        /* \"contracts/LendingPlatform.sol\":10470:10522  uint256 repayment = (loan.USDC * loan.Percent) / 100 */\n      swap1\n      pop\n        /* \"contracts/LendingPlatform.sol\":10529:10555  bool isUndercollateralized */\n      0x00\n        /* \"contracts/LendingPlatform.sol\":10577:10586  repayment */\n      dup2\n        /* \"contracts/LendingPlatform.sol\":10558:10573  collateralValue */\n      dup4\n        /* \"contracts/LendingPlatform.sol\":10558:10586  collateralValue <= repayment */\n      gt\n      iszero\n        /* \"contracts/LendingPlatform.sol\":10529:10586  bool isUndercollateralized = collateralValue <= repayment */\n      swap1\n      pop\n        /* \"contracts/LendingPlatform.sol\":10597:10606  isOverdue */\n      dup5\n        /* \"contracts/LendingPlatform.sol\":10597:10631  isOverdue || isUndercollateralized */\n      dup1\n      tag_163\n      jumpi\n      pop\n        /* \"contracts/LendingPlatform.sol\":10610:10631  isUndercollateralized */\n      dup1\n        /* \"contracts/LendingPlatform.sol\":10597:10631  isOverdue || isUndercollateralized */\n    tag_163:\n        /* \"contracts/LendingPlatform.sol\":10593:10938  if (isOverdue || isUndercollateralized) {... */\n      iszero\n      tag_164\n      jumpi\n        /* \"contracts/LendingPlatform.sol\":10657:10674  Status.Liquidated */\n      0x06\n        /* \"contracts/LendingPlatform.sol\":10643:10647  loan */\n      dup7\n        /* \"contracts/LendingPlatform.sol\":10643:10654  loan.status */\n      0x08\n      add\n      0x01\n        /* \"contracts/LendingPlatform.sol\":10643:10674  loan.status = Status.Liquidated */\n      0x0100\n      exp\n      dup2\n      sload\n      dup2\n      0xff\n      mul\n      not\n      and\n      swap1\n      dup4\n      0x06\n      dup2\n      gt\n      iszero\n      tag_165\n      jumpi\n      tag_166\n      tag_114\n      jump\t// in\n    tag_166:\n    tag_165:\n      mul\n      or\n      swap1\n      sstore\n      pop\n        /* \"contracts/LendingPlatform.sol\":10692:10696  loan */\n      dup6\n        /* \"contracts/LendingPlatform.sol\":10692:10703  loan.lender */\n      0x02\n      add\n      0x00\n      swap1\n      sload\n      swap1\n      0x0100\n      exp\n      swap1\n      div\n      0xffffffffffffffffffffffffffffffffffffffff\n      and\n        /* \"contracts/LendingPlatform.sol\":10684:10713  payable(loan.lender).transfer */\n      0xffffffffffffffffffffffffffffffffffffffff\n      and\n        /* \"contracts/LendingPlatform.sol\":10684:10723  payable(loan.lender).transfer(loan.ETH) */\n      0x08fc\n        /* \"contracts/LendingPlatform.sol\":10714:10718  loan */\n      dup8\n        /* \"contracts/LendingPlatform.sol\":10714:10722  loan.ETH */\n      0x05\n      add\n      sload\n        /* \"contracts/LendingPlatform.sol\":10684:10723  payable(loan.lender).transfer(loan.ETH) */\n      swap1\n      dup2\n      iszero\n      mul\n      swap1\n      mload(0x40)\n      0x00\n      mload(0x40)\n      dup1\n      dup4\n      sub\n      dup2\n      dup6\n      dup9\n      dup9\n      call\n      swap4\n      pop\n      pop\n      pop\n      pop\n      iszero\n      dup1\n      iszero\n      tag_168\n      jumpi\n      returndatacopy(0x00, 0x00, returndatasize)\n      revert(0x00, returndatasize)\n    tag_168:\n      pop\n        /* \"contracts/LendingPlatform.sol\":10763:10766  key */\n      dup7\n        /* \"contracts/LendingPlatform.sol\":10763:10775  key.borrower */\n      0x00\n      add\n      mload\n        /* \"contracts/LendingPlatform.sol\":10739:10776  LoanLiquidated(loan.id, key.borrower) */\n      0xffffffffffffffffffffffffffffffffffffffff\n      and\n        /* \"contracts/LendingPlatform.sol\":10754:10758  loan */\n      dup7\n        /* \"contracts/LendingPlatform.sol\":10754:10761  loan.id */\n      0x00\n      add\n      sload\n        /* \"contracts/LendingPlatform.sol\":10739:10776  LoanLiquidated(loan.id, key.borrower) */\n      0x73de9acc561f27528ab0a3b5dd63fefb4e59f95575891299a6f862a787798176\n      mload(0x40)\n      mload(0x40)\n      dup1\n      swap2\n      sub\n      swap1\n      log3\n        /* \"contracts/LendingPlatform.sol\":10869:10880  activeLoans */\n      0x06\n        /* \"contracts/LendingPlatform.sol\":10902:10903  1 */\n      0x01\n        /* \"contracts/LendingPlatform.sol\":10881:10892  activeLoans */\n      0x06\n        /* \"contracts/LendingPlatform.sol\":10881:10899  activeLoans.length */\n      dup1\n      sload\n      swap1\n      pop\n        /* \"contracts/LendingPlatform.sol\":10881:10903  activeLoans.length - 1 */\n      tag_169\n      swap2\n      swap1\n      tag_170\n      jump\t// in\n    tag_169:\n        /* \"contracts/LendingPlatform.sol\":10869:10904  activeLoans[activeLoans.length - 1] */\n      dup2\n      sload\n      dup2\n      lt\n      tag_171\n      jumpi\n      tag_172\n      tag_151\n      jump\t// in\n    tag_172:\n    tag_171:\n      swap1\n      0x00\n      mstore\n      keccak256(0x00, 0x20)\n      swap1\n      0x02\n      mul\n      add\n        /* \"contracts/LendingPlatform.sol\":10848:10859  activeLoans */\n      0x06\n        /* \"contracts/LendingPlatform.sol\":10860:10865  index */\n      dup10\n        /* \"contracts/LendingPlatform.sol\":10848:10866  activeLoans[index] */\n      dup2\n      sload\n      dup2\n      lt\n      tag_174\n      jumpi\n      tag_175\n      tag_151\n      jump\t// in\n    tag_175:\n    tag_174:\n      swap1\n      0x00\n      mstore\n      keccak256(0x00, 0x20)\n      swap1\n      0x02\n      mul\n      add\n        /* \"contracts/LendingPlatform.sol\":10848:10904  activeLoans[index] = activeLoans[activeLoans.length - 1] */\n      0x00\n      dup3\n      add\n      0x00\n      swap1\n      sload\n      swap1\n      0x0100\n      exp\n      swap1\n      div\n      0xffffffffffffffffffffffffffffffffffffffff\n      and\n      dup2\n      0x00\n      add\n      exp(0x0100, 0x00)\n      dup2\n      sload\n      dup2\n      0xffffffffffffffffffffffffffffffffffffffff\n      mul\n      not\n      and\n      swap1\n      dup4\n      0xffffffffffffffffffffffffffffffffffffffff\n      and\n      mul\n      or\n      swap1\n      sstore\n      pop\n      0x01\n      dup3\n      add\n      sload\n      dup2\n      0x01\n      add\n      sstore\n      swap1\n      pop\n      pop\n        /* \"contracts/LendingPlatform.sol\":10914:10925  activeLoans */\n      0x06\n        /* \"contracts/LendingPlatform.sol\":10914:10931  activeLoans.pop() */\n      dup1\n      sload\n      dup1\n      tag_177\n      jumpi\n      tag_178\n      tag_179\n      jump\t// in\n    tag_178:\n    tag_177:\n      0x01\n      swap1\n      sub\n      dup2\n      dup2\n      swap1\n      0x00\n      mstore\n      keccak256(0x00, 0x20)\n      swap1\n      0x02\n      mul\n      add\n      0x00\n      0x00\n      dup3\n      add\n      exp(0x0100, 0x00)\n      dup2\n      sload\n      swap1\n      0xffffffffffffffffffffffffffffffffffffffff\n      mul\n      not\n      and\n      swap1\n      sstore\n      0x01\n      dup3\n      add\n      0x00\n      swap1\n      sstore\n      pop\n      pop\n      swap1\n      sstore\n        /* \"contracts/LendingPlatform.sol\":10593:10938  if (isOverdue || isUndercollateralized) {... */\n    tag_164:\n        /* \"contracts/LendingPlatform.sol\":10106:10944  {... */\n      pop\n      pop\n      pop\n      pop\n      pop\n      pop\n      pop\n      pop\n        /* \"contracts/LendingPlatform.sol\":10037:10944  function performUpkeep(bytes calldata performData) external override {... */\n    tag_147:\n      pop\n      pop\n      jump\t// out\n        /* \"contracts/LendingPlatform.sol\":7244:8164  function cancelDeal(address _borrowerAddress, uint256 _loanId) external {... */\n    tag_36:\n        /* \"contracts/LendingPlatform.sol\":7326:7343  Loan storage loan */\n      0x00\n        /* \"contracts/LendingPlatform.sol\":7346:7351  loans */\n      0x07\n        /* \"contracts/LendingPlatform.sol\":7346:7369  loans[_borrowerAddress] */\n      0x00\n        /* \"contracts/LendingPlatform.sol\":7352:7368  _borrowerAddress */\n      dup5\n        /* \"contracts/LendingPlatform.sol\":7346:7369  loans[_borrowerAddress] */\n      0xffffffffffffffffffffffffffffffffffffffff\n      and\n      0xffffffffffffffffffffffffffffffffffffffff\n      and\n      dup2\n      mstore\n      0x20\n      add\n      swap1\n      dup2\n      mstore\n      0x20\n      add\n      0x00\n      keccak256\n        /* \"contracts/LendingPlatform.sol\":7346:7378  loans[_borrowerAddress][_loanId] */\n      0x00\n        /* \"contracts/LendingPlatform.sol\":7370:7377  _loanId */\n      dup4\n        /* \"contracts/LendingPlatform.sol\":7346:7378  loans[_borrowerAddress][_loanId] */\n      dup2\n      mstore\n      0x20\n      add\n      swap1\n      dup2\n      mstore\n      0x20\n      add\n      0x00\n      keccak256\n        /* \"contracts/LendingPlatform.sol\":7326:7378  Loan storage loan = loans[_borrowerAddress][_loanId] */\n      swap1\n      pop\n        /* \"contracts/LendingPlatform.sol\":7424:7438  Status.Pending */\n      0x01\n        /* \"contracts/LendingPlatform.sol\":7409:7438  loan.status == Status.Pending */\n      0x06\n      dup2\n      gt\n      iszero\n      tag_182\n      jumpi\n      tag_183\n      tag_114\n      jump\t// in\n    tag_183:\n    tag_182:\n        /* \"contracts/LendingPlatform.sol\":7409:7413  loan */\n      dup2\n        /* \"contracts/LendingPlatform.sol\":7409:7420  loan.status */\n      0x08\n      add\n      0x01\n      swap1\n      sload\n      swap1\n      0x0100\n      exp\n      swap1\n      div\n      0xff\n      and\n        /* \"contracts/LendingPlatform.sol\":7409:7438  loan.status == Status.Pending */\n      0x06\n      dup2\n      gt\n      iszero\n      tag_184\n      jumpi\n      tag_185\n      tag_114\n      jump\t// in\n    tag_185:\n    tag_184:\n      eq\n        /* \"contracts/LendingPlatform.sol\":7388:7494  require(... */\n      tag_186\n      jumpi\n      mload(0x40)\n      0x08c379a000000000000000000000000000000000000000000000000000000000\n      dup2\n      mstore\n      0x04\n      add\n      tag_187\n      swap1\n      tag_188\n      jump\t// in\n    tag_187:\n      mload(0x40)\n      dup1\n      swap2\n      sub\n      swap1\n      revert\n    tag_186:\n        /* \"contracts/LendingPlatform.sol\":7526:7530  loan */\n      dup1\n        /* \"contracts/LendingPlatform.sol\":7526:7539  loan.borrower */\n      0x01\n      add\n      0x00\n      swap1\n      sload\n      swap1\n      0x0100\n      exp\n      swap1\n      div\n      0xffffffffffffffffffffffffffffffffffffffff\n      and\n        /* \"contracts/LendingPlatform.sol\":7512:7539  msg.sender == loan.borrower */\n      0xffffffffffffffffffffffffffffffffffffffff\n      and\n        /* \"contracts/LendingPlatform.sol\":7512:7522  msg.sender */\n      caller\n        /* \"contracts/LendingPlatform.sol\":7512:7539  msg.sender == loan.borrower */\n      0xffffffffffffffffffffffffffffffffffffffff\n      and\n      eq\n        /* \"contracts/LendingPlatform.sol\":7504:7567  require(msg.sender == loan.borrower, \"Only parties can cancel\") */\n      tag_189\n      jumpi\n      mload(0x40)\n      0x08c379a000000000000000000000000000000000000000000000000000000000\n      dup2\n      mstore\n      0x04\n      add\n      tag_190\n      swap1\n      tag_191\n      jump\t// in\n    tag_190:\n      mload(0x40)\n      dup1\n      swap2\n      sub\n      swap1\n      revert\n    tag_189:\n        /* \"contracts/LendingPlatform.sol\":7596:7600  loan */\n      dup1\n        /* \"contracts/LendingPlatform.sol\":7596:7609  loan.borrower */\n      0x01\n      add\n      0x00\n      swap1\n      sload\n      swap1\n      0x0100\n      exp\n      swap1\n      div\n      0xffffffffffffffffffffffffffffffffffffffff\n      and\n        /* \"contracts/LendingPlatform.sol\":7582:7609  msg.sender == loan.borrower */\n      0xffffffffffffffffffffffffffffffffffffffff\n      and\n        /* \"contracts/LendingPlatform.sol\":7582:7592  msg.sender */\n      caller\n        /* \"contracts/LendingPlatform.sol\":7582:7609  msg.sender == loan.borrower */\n      0xffffffffffffffffffffffffffffffffffffffff\n      and\n      sub\n        /* \"contracts/LendingPlatform.sol\":7578:8067  if (msg.sender == loan.borrower) {... */\n      tag_192\n      jumpi\n        /* \"contracts/LendingPlatform.sol\":7634:7638  loan */\n      dup1\n        /* \"contracts/LendingPlatform.sol\":7634:7647  loan.borrower */\n      0x01\n      add\n      0x00\n      swap1\n      sload\n      swap1\n      0x0100\n      exp\n      swap1\n      div\n      0xffffffffffffffffffffffffffffffffffffffff\n      and\n        /* \"contracts/LendingPlatform.sol\":7626:7657  payable(loan.borrower).transfer */\n      0xffffffffffffffffffffffffffffffffffffffff\n      and\n        /* \"contracts/LendingPlatform.sol\":7626:7667  payable(loan.borrower).transfer(loan.ETH) */\n      0x08fc\n        /* \"contracts/LendingPlatform.sol\":7658:7662  loan */\n      dup3\n        /* \"contracts/LendingPlatform.sol\":7658:7666  loan.ETH */\n      0x05\n      add\n      sload\n        /* \"contracts/LendingPlatform.sol\":7626:7667  payable(loan.borrower).transfer(loan.ETH) */\n      swap1\n      dup2\n      iszero\n      mul\n      swap1\n      mload(0x40)\n      0x00\n      mload(0x40)\n      dup1\n      dup4\n      sub\n      dup2\n      dup6\n      dup9\n      dup9\n      call\n      swap4\n      pop\n      pop\n      pop\n      pop\n      iszero\n      dup1\n      iszero\n      tag_194\n      jumpi\n      returndatacopy(0x00, 0x00, returndatasize)\n      revert(0x00, returndatasize)\n    tag_194:\n      pop\n        /* \"contracts/LendingPlatform.sol\":7811:7812  0 */\n      0x00\n        /* \"contracts/LendingPlatform.sol\":7788:7813  loan.lender != address(0) */\n      0xffffffffffffffffffffffffffffffffffffffff\n      and\n        /* \"contracts/LendingPlatform.sol\":7788:7792  loan */\n      dup2\n        /* \"contracts/LendingPlatform.sol\":7788:7799  loan.lender */\n      0x02\n      add\n      0x00\n      swap1\n      sload\n      swap1\n      0x0100\n      exp\n      swap1\n      div\n      0xffffffffffffffffffffffffffffffffffffffff\n      and\n        /* \"contracts/LendingPlatform.sol\":7788:7813  loan.lender != address(0) */\n      0xffffffffffffffffffffffffffffffffffffffff\n      and\n      eq\n        /* \"contracts/LendingPlatform.sol\":7784:7907  if (loan.lender != address(0)) {... */\n      tag_195\n      jumpi\n        /* \"contracts/LendingPlatform.sol\":7841:7857  usdtTokenAddress */\n      0x00\n      0x00\n      swap1\n      sload\n      swap1\n      0x0100\n      exp\n      swap1\n      div\n      0xffffffffffffffffffffffffffffffffffffffff\n      and\n        /* \"contracts/LendingPlatform.sol\":7834:7867  IERC20(usdtTokenAddress).transfer */\n      0xffffffffffffffffffffffffffffffffffffffff\n      and\n      0xa9059cbb\n        /* \"contracts/LendingPlatform.sol\":7868:7872  loan */\n      dup3\n        /* \"contracts/LendingPlatform.sol\":7868:7879  loan.lender */\n      0x02\n      add\n      0x00\n      swap1\n      sload\n      swap1\n      0x0100\n      exp\n      swap1\n      div\n      0xffffffffffffffffffffffffffffffffffffffff\n      and\n        /* \"contracts/LendingPlatform.sol\":7881:7885  loan */\n      dup4\n        /* \"contracts/LendingPlatform.sol\":7881:7890  loan.USDC */\n      0x03\n      add\n      sload\n        /* \"contracts/LendingPlatform.sol\":7834:7891  IERC20(usdtTokenAddress).transfer(loan.lender, loan.USDC) */\n      mload(0x40)\n      dup4\n      0xffffffff\n      and\n      0xe0\n      shl\n      dup2\n      mstore\n      0x04\n      add\n      tag_196\n      swap3\n      swap2\n      swap1\n      tag_43\n      jump\t// in\n    tag_196:\n      0x20\n      mload(0x40)\n      dup1\n      dup4\n      sub\n      dup2\n      0x00\n      dup8\n      gas\n      call\n      iszero\n      dup1\n      iszero\n      tag_198\n      jumpi\n      returndatacopy(0x00, 0x00, returndatasize)\n      revert(0x00, returndatasize)\n    tag_198:\n      pop\n      pop\n      pop\n      pop\n      mload(0x40)\n      returndatasize\n      not(0x1f)\n      0x1f\n      dup3\n      add\n      and\n      dup3\n      add\n      dup1\n      0x40\n      mstore\n      pop\n      dup2\n      add\n      swap1\n      tag_199\n      swap2\n      swap1\n      tag_144\n      jump\t// in\n    tag_199:\n      pop\n        /* \"contracts/LendingPlatform.sol\":7784:7907  if (loan.lender != address(0)) {... */\n    tag_195:\n        /* \"contracts/LendingPlatform.sol\":7578:8067  if (msg.sender == loan.borrower) {... */\n      jump(tag_200)\n    tag_192:\n        /* \"contracts/LendingPlatform.sol\":7937:7971  revert(\"Only borrower can cancel\") */\n      mload(0x40)\n      0x08c379a000000000000000000000000000000000000000000000000000000000\n      dup2\n      mstore\n      0x04\n      add\n      tag_201\n      swap1\n      tag_202\n      jump\t// in\n    tag_201:\n      mload(0x40)\n      dup1\n      swap2\n      sub\n      swap1\n      revert\n        /* \"contracts/LendingPlatform.sol\":7578:8067  if (msg.sender == loan.borrower) {... */\n    tag_200:\n        /* \"contracts/LendingPlatform.sol\":8090:8104  Status.Cancell */\n      0x05\n        /* \"contracts/LendingPlatform.sol\":8076:8080  loan */\n      dup2\n        /* \"contracts/LendingPlatform.sol\":8076:8087  loan.status */\n      0x08\n      add\n      0x01\n        /* \"contracts/LendingPlatform.sol\":8076:8104  loan.status = Status.Cancell */\n      0x0100\n      exp\n      dup2\n      sload\n      dup2\n      0xff\n      mul\n      not\n      and\n      swap1\n      dup4\n      0x06\n      dup2\n      gt\n      iszero\n      tag_203\n      jumpi\n      tag_204\n      tag_114\n      jump\t// in\n    tag_204:\n    tag_203:\n      mul\n      or\n      swap1\n      sstore\n      pop\n        /* \"contracts/LendingPlatform.sol\":8140:8156  _borrowerAddress */\n      dup3\n        /* \"contracts/LendingPlatform.sol\":8119:8157  DealCancell(_loanId, _borrowerAddress) */\n      0xffffffffffffffffffffffffffffffffffffffff\n      and\n        /* \"contracts/LendingPlatform.sol\":8131:8138  _loanId */\n      dup3\n        /* \"contracts/LendingPlatform.sol\":8119:8157  DealCancell(_loanId, _borrowerAddress) */\n      0xc95604d026b20c7e728dc9cc9734f53f6f0e74537cb0c762295fa3ec640a911c\n      mload(0x40)\n      mload(0x40)\n      dup1\n      swap2\n      sub\n      swap1\n      log3\n        /* \"contracts/LendingPlatform.sol\":7316:8164  {... */\n      pop\n        /* \"contracts/LendingPlatform.sol\":7244:8164  function cancelDeal(address _borrowerAddress, uint256 _loanId) external {... */\n      pop\n      pop\n      jump\t// out\n        /* \"contracts/LendingPlatform.sol\":2343:2371  LoanKey[] public activeLoans */\n    tag_41:\n      0x06\n      dup2\n      dup2\n      sload\n      dup2\n      lt\n      tag_205\n      jumpi\n      0x00\n      dup1\n      revert\n    tag_205:\n      swap1\n      0x00\n      mstore\n      keccak256(0x00, 0x20)\n      swap1\n      0x02\n      mul\n      add\n      0x00\n      swap2\n      pop\n      swap1\n      pop\n      dup1\n      0x00\n      add\n      0x00\n      swap1\n      sload\n      swap1\n      0x0100\n      exp\n      swap1\n      div\n      0xffffffffffffffffffffffffffffffffffffffff\n      and\n      swap1\n      dup1\n      0x01\n      add\n      sload\n      swap1\n      pop\n      dup3\n      jump\t// out\n        /* \"contracts/LendingPlatform.sol\":6077:7123  function confirmDeal(address _borrowerAddress, uint256 _loanId) external {... */\n    tag_47:\n        /* \"contracts/LendingPlatform.sol\":6160:6177  Loan storage loan */\n      0x00\n        /* \"contracts/LendingPlatform.sol\":6180:6185  loans */\n      0x07\n        /* \"contracts/LendingPlatform.sol\":6180:6203  loans[_borrowerAddress] */\n      0x00\n        /* \"contracts/LendingPlatform.sol\":6186:6202  _borrowerAddress */\n      dup5\n        /* \"contracts/LendingPlatform.sol\":6180:6203  loans[_borrowerAddress] */\n      0xffffffffffffffffffffffffffffffffffffffff\n      and\n      0xffffffffffffffffffffffffffffffffffffffff\n      and\n      dup2\n      mstore\n      0x20\n      add\n      swap1\n      dup2\n      mstore\n      0x20\n      add\n      0x00\n      keccak256\n        /* \"contracts/LendingPlatform.sol\":6180:6212  loans[_borrowerAddress][_loanId] */\n      0x00\n        /* \"contracts/LendingPlatform.sol\":6204:6211  _loanId */\n      dup4\n        /* \"contracts/LendingPlatform.sol\":6180:6212  loans[_borrowerAddress][_loanId] */\n      dup2\n      mstore\n      0x20\n      add\n      swap1\n      dup2\n      mstore\n      0x20\n      add\n      0x00\n      keccak256\n        /* \"contracts/LendingPlatform.sol\":6160:6212  Loan storage loan = loans[_borrowerAddress][_loanId] */\n      swap1\n      pop\n        /* \"contracts/LendingPlatform.sol\":6245:6259  Status.Pending */\n      0x01\n        /* \"contracts/LendingPlatform.sol\":6230:6259  loan.status == Status.Pending */\n      0x06\n      dup2\n      gt\n      iszero\n      tag_208\n      jumpi\n      tag_209\n      tag_114\n      jump\t// in\n    tag_209:\n    tag_208:\n        /* \"contracts/LendingPlatform.sol\":6230:6234  loan */\n      dup2\n        /* \"contracts/LendingPlatform.sol\":6230:6241  loan.status */\n      0x08\n      add\n      0x01\n      swap1\n      sload\n      swap1\n      0x0100\n      exp\n      swap1\n      div\n      0xff\n      and\n        /* \"contracts/LendingPlatform.sol\":6230:6259  loan.status == Status.Pending */\n      0x06\n      dup2\n      gt\n      iszero\n      tag_210\n      jumpi\n      tag_211\n      tag_114\n      jump\t// in\n    tag_211:\n    tag_210:\n      eq\n        /* \"contracts/LendingPlatform.sol\":6222:6292  require(loan.status == Status.Pending, \"Loan is not in funding state\") */\n      tag_212\n      jumpi\n      mload(0x40)\n      0x08c379a000000000000000000000000000000000000000000000000000000000\n      dup2\n      mstore\n      0x04\n      add\n      tag_213\n      swap1\n      tag_214\n      jump\t// in\n    tag_213:\n      mload(0x40)\n      dup1\n      swap2\n      sub\n      swap1\n      revert\n    tag_212:\n        /* \"contracts/LendingPlatform.sol\":6321:6325  loan */\n      dup1\n        /* \"contracts/LendingPlatform.sol\":6321:6334  loan.borrower */\n      0x01\n      add\n      0x00\n      swap1\n      sload\n      swap1\n      0x0100\n      exp\n      swap1\n      div\n      0xffffffffffffffffffffffffffffffffffffffff\n      and\n        /* \"contracts/LendingPlatform.sol\":6307:6334  msg.sender == loan.borrower */\n      0xffffffffffffffffffffffffffffffffffffffff\n      and\n        /* \"contracts/LendingPlatform.sol\":6307:6317  msg.sender */\n      caller\n        /* \"contracts/LendingPlatform.sol\":6307:6334  msg.sender == loan.borrower */\n      0xffffffffffffffffffffffffffffffffffffffff\n      and\n      sub\n        /* \"contracts/LendingPlatform.sol\":6303:6532  if (msg.sender == loan.borrower) {... */\n      tag_215\n      jumpi\n        /* \"contracts/LendingPlatform.sol\":6359:6363  loan */\n      dup1\n        /* \"contracts/LendingPlatform.sol\":6359:6381  loan.borrowerConfirmed */\n      0x08\n      add\n      0x00\n      swap1\n      sload\n      swap1\n      0x0100\n      exp\n      swap1\n      div\n      0xff\n      and\n        /* \"contracts/LendingPlatform.sol\":6358:6381  !loan.borrowerConfirmed */\n      iszero\n        /* \"contracts/LendingPlatform.sol\":6350:6412  require(!loan.borrowerConfirmed, \"Borrower already confirmed\") */\n      tag_216\n      jumpi\n      mload(0x40)\n      0x08c379a000000000000000000000000000000000000000000000000000000000\n      dup2\n      mstore\n      0x04\n      add\n      tag_217\n      swap1\n      tag_218\n      jump\t// in\n    tag_217:\n      mload(0x40)\n      dup1\n      swap2\n      sub\n      swap1\n      revert\n    tag_216:\n        /* \"contracts/LendingPlatform.sol\":6451:6455  true */\n      0x01\n        /* \"contracts/LendingPlatform.sol\":6426:6430  loan */\n      dup2\n        /* \"contracts/LendingPlatform.sol\":6426:6448  loan.borrowerConfirmed */\n      0x08\n      add\n      0x00\n        /* \"contracts/LendingPlatform.sol\":6426:6455  loan.borrowerConfirmed = true */\n      0x0100\n      exp\n      dup2\n      sload\n      dup2\n      0xff\n      mul\n      not\n      and\n      swap1\n      dup4\n      iszero\n      iszero\n      mul\n      or\n      swap1\n      sstore\n      pop\n        /* \"contracts/LendingPlatform.sol\":6303:6532  if (msg.sender == loan.borrower) {... */\n      jump(tag_219)\n    tag_215:\n        /* \"contracts/LendingPlatform.sol\":6486:6521  revert(\"Only borrower can confirm\") */\n      mload(0x40)\n      0x08c379a000000000000000000000000000000000000000000000000000000000\n      dup2\n      mstore\n      0x04\n      add\n      tag_220\n      swap1\n      tag_221\n      jump\t// in\n    tag_220:\n      mload(0x40)\n      dup1\n      swap2\n      sub\n      swap1\n      revert\n        /* \"contracts/LendingPlatform.sol\":6303:6532  if (msg.sender == loan.borrower) {... */\n    tag_219:\n        /* \"contracts/LendingPlatform.sol\":6588:6598  msg.sender */\n      caller\n        /* \"contracts/LendingPlatform.sol\":6547:6599  DealConfirmed(_loanId, _borrowerAddress, msg.sender) */\n      0xffffffffffffffffffffffffffffffffffffffff\n      and\n        /* \"contracts/LendingPlatform.sol\":6570:6586  _borrowerAddress */\n      dup4\n        /* \"contracts/LendingPlatform.sol\":6547:6599  DealConfirmed(_loanId, _borrowerAddress, msg.sender) */\n      0xffffffffffffffffffffffffffffffffffffffff\n      and\n        /* \"contracts/LendingPlatform.sol\":6561:6568  _loanId */\n      dup4\n        /* \"contracts/LendingPlatform.sol\":6547:6599  DealConfirmed(_loanId, _borrowerAddress, msg.sender) */\n      0xa5fbbfff4decd4f44ed03e28267dd014277bccd985cc2153acfa058f41ae8c07\n      mload(0x40)\n      mload(0x40)\n      dup1\n      swap2\n      sub\n      swap1\n      log4\n        /* \"contracts/LendingPlatform.sol\":6688:6692  loan */\n      dup1\n        /* \"contracts/LendingPlatform.sol\":6688:6710  loan.borrowerConfirmed */\n      0x08\n      add\n      0x00\n      swap1\n      sload\n      swap1\n      0x0100\n      exp\n      swap1\n      div\n      0xff\n      and\n        /* \"contracts/LendingPlatform.sol\":6684:7117  if (loan.borrowerConfirmed) {... */\n      iszero\n      tag_222\n      jumpi\n        /* \"contracts/LendingPlatform.sol\":6740:6753  Status.Active */\n      0x02\n        /* \"contracts/LendingPlatform.sol\":6726:6730  loan */\n      dup2\n        /* \"contracts/LendingPlatform.sol\":6726:6737  loan.status */\n      0x08\n      add\n      0x01\n        /* \"contracts/LendingPlatform.sol\":6726:6753  loan.status = Status.Active */\n      0x0100\n      exp\n      dup2\n      sload\n      dup2\n      0xff\n      mul\n      not\n      and\n      swap1\n      dup4\n      0x06\n      dup2\n      gt\n      iszero\n      tag_223\n      jumpi\n      tag_224\n      tag_114\n      jump\t// in\n    tag_224:\n    tag_223:\n      mul\n      or\n      swap1\n      sstore\n      pop\n        /* \"contracts/LendingPlatform.sol\":6800:6804  loan */\n      dup1\n        /* \"contracts/LendingPlatform.sol\":6800:6814  loan.TimeDelta */\n      0x06\n      add\n      sload\n        /* \"contracts/LendingPlatform.sol\":6782:6797  block.timestamp */\n      timestamp\n        /* \"contracts/LendingPlatform.sol\":6782:6814  block.timestamp + loan.TimeDelta */\n      tag_225\n      swap2\n      swap1\n      tag_226\n      jump\t// in\n    tag_225:\n        /* \"contracts/LendingPlatform.sol\":6767:6771  loan */\n      dup2\n        /* \"contracts/LendingPlatform.sol\":6767:6779  loan.dueDate */\n      0x07\n      add\n        /* \"contracts/LendingPlatform.sol\":6767:6814  loan.dueDate = block.timestamp + loan.TimeDelta */\n      dup2\n      swap1\n      sstore\n      pop\n        /* \"contracts/LendingPlatform.sol\":6894:6910  usdtTokenAddress */\n      0x00\n      0x00\n      swap1\n      sload\n      swap1\n      0x0100\n      exp\n      swap1\n      div\n      0xffffffffffffffffffffffffffffffffffffffff\n      and\n        /* \"contracts/LendingPlatform.sol\":6887:6920  IERC20(usdtTokenAddress).transfer */\n      0xffffffffffffffffffffffffffffffffffffffff\n      and\n      0xa9059cbb\n        /* \"contracts/LendingPlatform.sol\":6921:6925  loan */\n      dup3\n        /* \"contracts/LendingPlatform.sol\":6921:6934  loan.borrower */\n      0x01\n      add\n      0x00\n      swap1\n      sload\n      swap1\n      0x0100\n      exp\n      swap1\n      div\n      0xffffffffffffffffffffffffffffffffffffffff\n      and\n        /* \"contracts/LendingPlatform.sol\":6936:6940  loan */\n      dup4\n        /* \"contracts/LendingPlatform.sol\":6936:6945  loan.USDC */\n      0x03\n      add\n      sload\n        /* \"contracts/LendingPlatform.sol\":6887:6946  IERC20(usdtTokenAddress).transfer(loan.borrower, loan.USDC) */\n      mload(0x40)\n      dup4\n      0xffffffff\n      and\n      0xe0\n      shl\n      dup2\n      mstore\n      0x04\n      add\n      tag_227\n      swap3\n      swap2\n      swap1\n      tag_43\n      jump\t// in\n    tag_227:\n      0x20\n      mload(0x40)\n      dup1\n      dup4\n      sub\n      dup2\n      0x00\n      dup8\n      gas\n      call\n      iszero\n      dup1\n      iszero\n      tag_229\n      jumpi\n      returndatacopy(0x00, 0x00, returndatasize)\n      revert(0x00, returndatasize)\n    tag_229:\n      pop\n      pop\n      pop\n      pop\n      mload(0x40)\n      returndatasize\n      not(0x1f)\n      0x1f\n      dup3\n      add\n      and\n      dup3\n      add\n      dup1\n      0x40\n      mstore\n      pop\n      dup2\n      add\n      swap1\n      tag_230\n      swap2\n      swap1\n      tag_144\n      jump\t// in\n    tag_230:\n      pop\n        /* \"contracts/LendingPlatform.sol\":6960:6971  activeLoans */\n      0x06\n        /* \"contracts/LendingPlatform.sol\":6977:7031  LoanKey({borrower: _borrowerAddress, loanId: _loanId}) */\n      mload(0x40)\n      dup1\n      0x40\n      add\n      0x40\n      mstore\n      dup1\n        /* \"contracts/LendingPlatform.sol\":6996:7012  _borrowerAddress */\n      dup6\n        /* \"contracts/LendingPlatform.sol\":6977:7031  LoanKey({borrower: _borrowerAddress, loanId: _loanId}) */\n      0xffffffffffffffffffffffffffffffffffffffff\n      and\n      dup2\n      mstore\n      0x20\n      add\n        /* \"contracts/LendingPlatform.sol\":7022:7029  _loanId */\n      dup5\n        /* \"contracts/LendingPlatform.sol\":6977:7031  LoanKey({borrower: _borrowerAddress, loanId: _loanId}) */\n      dup2\n      mstore\n      pop\n        /* \"contracts/LendingPlatform.sol\":6960:7032  activeLoans.push(LoanKey({borrower: _borrowerAddress, loanId: _loanId})) */\n      swap1\n      dup1\n      0x01\n      dup2\n      sload\n      add\n      dup1\n      dup3\n      sstore\n      dup1\n      swap2\n      pop\n      pop\n      0x01\n      swap1\n      sub\n      swap1\n      0x00\n      mstore\n      keccak256(0x00, 0x20)\n      swap1\n      0x02\n      mul\n      add\n      0x00\n      swap1\n      swap2\n      swap1\n      swap2\n      swap1\n      swap2\n      pop\n      0x00\n      dup3\n      add\n      mload\n      dup2\n      0x00\n      add\n      exp(0x0100, 0x00)\n      dup2\n      sload\n      dup2\n      0xffffffffffffffffffffffffffffffffffffffff\n      mul\n      not\n      and\n      swap1\n      dup4\n      0xffffffffffffffffffffffffffffffffffffffff\n      and\n      mul\n      or\n      swap1\n      sstore\n      pop\n      0x20\n      dup3\n      add\n      mload\n      dup2\n      0x01\n      add\n      sstore\n      pop\n      pop\n        /* \"contracts/LendingPlatform.sol\":7075:7091  _borrowerAddress */\n      dup3\n        /* \"contracts/LendingPlatform.sol\":7052:7106  LoanActivated(_loanId, _borrowerAddress, loan.dueDate) */\n      0xffffffffffffffffffffffffffffffffffffffff\n      and\n        /* \"contracts/LendingPlatform.sol\":7066:7073  _loanId */\n      dup3\n        /* \"contracts/LendingPlatform.sol\":7052:7106  LoanActivated(_loanId, _borrowerAddress, loan.dueDate) */\n      0x237bd33232d60ceb1b878c9729a13695ea754c07aa118ae357a274460e5be951\n        /* \"contracts/LendingPlatform.sol\":7093:7097  loan */\n      dup4\n        /* \"contracts/LendingPlatform.sol\":7093:7105  loan.dueDate */\n      0x07\n      add\n      sload\n        /* \"contracts/LendingPlatform.sol\":7052:7106  LoanActivated(_loanId, _borrowerAddress, loan.dueDate) */\n      mload(0x40)\n      tag_232\n      swap2\n      swap1\n      tag_58\n      jump\t// in\n    tag_232:\n      mload(0x40)\n      dup1\n      swap2\n      sub\n      swap1\n      log3\n        /* \"contracts/LendingPlatform.sol\":6684:7117  if (loan.borrowerConfirmed) {... */\n    tag_222:\n        /* \"contracts/LendingPlatform.sol\":6150:7123  {... */\n      pop\n        /* \"contracts/LendingPlatform.sol\":6077:7123  function confirmDeal(address _borrowerAddress, uint256 _loanId) external {... */\n      pop\n      pop\n      jump\t// out\n        /* \"contracts/LendingPlatform.sol\":9076:9931  function checkUpkeep(bytes calldata) external view override returns (bool upkeepNeeded, bytes memory performData) {... */\n    tag_51:\n        /* \"contracts/LendingPlatform.sol\":9145:9162  bool upkeepNeeded */\n      0x00\n        /* \"contracts/LendingPlatform.sol\":9164:9188  bytes memory performData */\n      0x60\n        /* \"contracts/LendingPlatform.sol\":9204:9210  uint i */\n      0x00\n        /* \"contracts/LendingPlatform.sol\":9213:9214  0 */\n      0x00\n        /* \"contracts/LendingPlatform.sol\":9204:9214  uint i = 0 */\n      swap1\n      pop\n        /* \"contracts/LendingPlatform.sol\":9199:9897  for (uint i = 0; i < activeLoans.length; i++) {... */\n    tag_234:\n        /* \"contracts/LendingPlatform.sol\":9220:9231  activeLoans */\n      0x06\n        /* \"contracts/LendingPlatform.sol\":9220:9238  activeLoans.length */\n      dup1\n      sload\n      swap1\n      pop\n        /* \"contracts/LendingPlatform.sol\":9216:9217  i */\n      dup2\n        /* \"contracts/LendingPlatform.sol\":9216:9238  i < activeLoans.length */\n      lt\n        /* \"contracts/LendingPlatform.sol\":9199:9897  for (uint i = 0; i < activeLoans.length; i++) {... */\n      iszero\n      tag_235\n      jumpi\n        /* \"contracts/LendingPlatform.sol\":9255:9273  LoanKey memory key */\n      0x00\n        /* \"contracts/LendingPlatform.sol\":9276:9287  activeLoans */\n      0x06\n        /* \"contracts/LendingPlatform.sol\":9288:9289  i */\n      dup3\n        /* \"contracts/LendingPlatform.sol\":9276:9290  activeLoans[i] */\n      dup2\n      sload\n      dup2\n      lt\n      tag_237\n      jumpi\n      tag_238\n      tag_151\n      jump\t// in\n    tag_238:\n    tag_237:\n      swap1\n      0x00\n      mstore\n      keccak256(0x00, 0x20)\n      swap1\n      0x02\n      mul\n      add\n        /* \"contracts/LendingPlatform.sol\":9255:9290  LoanKey memory key = activeLoans[i] */\n      mload(0x40)\n      dup1\n      0x40\n      add\n      0x40\n      mstore\n      swap1\n      dup2\n      0x00\n      dup3\n      add\n      0x00\n      swap1\n      sload\n      swap1\n      0x0100\n      exp\n      swap1\n      div\n      0xffffffffffffffffffffffffffffffffffffffff\n      and\n      0xffffffffffffffffffffffffffffffffffffffff\n      and\n      0xffffffffffffffffffffffffffffffffffffffff\n      and\n      dup2\n      mstore\n      0x20\n      add\n      0x01\n      dup3\n      add\n      sload\n      dup2\n      mstore\n      pop\n      pop\n      swap1\n      pop\n        /* \"contracts/LendingPlatform.sol\":9300:9317  Loan storage loan */\n      0x00\n        /* \"contracts/LendingPlatform.sol\":9320:9325  loans */\n      0x07\n        /* \"contracts/LendingPlatform.sol\":9320:9339  loans[key.borrower] */\n      0x00\n        /* \"contracts/LendingPlatform.sol\":9326:9329  key */\n      dup4\n        /* \"contracts/LendingPlatform.sol\":9326:9338  key.borrower */\n      0x00\n      add\n      mload\n        /* \"contracts/LendingPlatform.sol\":9320:9339  loans[key.borrower] */\n      0xffffffffffffffffffffffffffffffffffffffff\n      and\n      0xffffffffffffffffffffffffffffffffffffffff\n      and\n      dup2\n      mstore\n      0x20\n      add\n      swap1\n      dup2\n      mstore\n      0x20\n      add\n      0x00\n      keccak256\n        /* \"contracts/LendingPlatform.sol\":9320:9351  loans[key.borrower][key.loanId] */\n      0x00\n        /* \"contracts/LendingPlatform.sol\":9340:9343  key */\n      dup4\n        /* \"contracts/LendingPlatform.sol\":9340:9350  key.loanId */\n      0x20\n      add\n      mload\n        /* \"contracts/LendingPlatform.sol\":9320:9351  loans[key.borrower][key.loanId] */\n      dup2\n      mstore\n      0x20\n      add\n      swap1\n      dup2\n      mstore\n      0x20\n      add\n      0x00\n      keccak256\n        /* \"contracts/LendingPlatform.sol\":9300:9351  Loan storage loan = loans[key.borrower][key.loanId] */\n      swap1\n      pop\n        /* \"contracts/LendingPlatform.sol\":9381:9394  Status.Active */\n      0x02\n        /* \"contracts/LendingPlatform.sol\":9366:9394  loan.status != Status.Active */\n      0x06\n      dup2\n      gt\n      iszero\n      tag_240\n      jumpi\n      tag_241\n      tag_114\n      jump\t// in\n    tag_241:\n    tag_240:\n        /* \"contracts/LendingPlatform.sol\":9366:9370  loan */\n      dup2\n        /* \"contracts/LendingPlatform.sol\":9366:9377  loan.status */\n      0x08\n      add\n      0x01\n      swap1\n      sload\n      swap1\n      0x0100\n      exp\n      swap1\n      div\n      0xff\n      and\n        /* \"contracts/LendingPlatform.sol\":9366:9394  loan.status != Status.Active */\n      0x06\n      dup2\n      gt\n      iszero\n      tag_242\n      jumpi\n      tag_243\n      tag_114\n      jump\t// in\n    tag_243:\n    tag_242:\n      eq\n        /* \"contracts/LendingPlatform.sol\":9362:9404  if (loan.status != Status.Active) continue */\n      tag_244\n      jumpi\n        /* \"contracts/LendingPlatform.sol\":9396:9404  continue */\n      pop\n      pop\n      jump(tag_236)\n        /* \"contracts/LendingPlatform.sol\":9362:9404  if (loan.status != Status.Active) continue */\n    tag_244:\n        /* \"contracts/LendingPlatform.sol\":9415:9429  bool isOverdue */\n      0x00\n        /* \"contracts/LendingPlatform.sol\":9450:9454  loan */\n      dup2\n        /* \"contracts/LendingPlatform.sol\":9450:9462  loan.dueDate */\n      0x07\n      add\n      sload\n        /* \"contracts/LendingPlatform.sol\":9432:9447  block.timestamp */\n      timestamp\n        /* \"contracts/LendingPlatform.sol\":9432:9462  block.timestamp > loan.dueDate */\n      gt\n        /* \"contracts/LendingPlatform.sol\":9415:9462  bool isOverdue = block.timestamp > loan.dueDate */\n      swap1\n      pop\n        /* \"contracts/LendingPlatform.sol\":9539:9555  uint256 ethPrice */\n      0x00\n        /* \"contracts/LendingPlatform.sol\":9558:9577  getLatestETHPrice() */\n      tag_245\n        /* \"contracts/LendingPlatform.sol\":9558:9575  getLatestETHPrice */\n      tag_56\n        /* \"contracts/LendingPlatform.sol\":9558:9577  getLatestETHPrice() */\n      jump\t// in\n    tag_245:\n        /* \"contracts/LendingPlatform.sol\":9539:9577  uint256 ethPrice = getLatestETHPrice() */\n      swap1\n      pop\n        /* \"contracts/LendingPlatform.sol\":9602:9625  uint256 collateralValue */\n      0x00\n        /* \"contracts/LendingPlatform.sol\":9652:9656  1e18 */\n      0x0de0b6b3a7640000\n        /* \"contracts/LendingPlatform.sol\":9640:9648  ethPrice */\n      dup3\n        /* \"contracts/LendingPlatform.sol\":9629:9633  loan */\n      dup6\n        /* \"contracts/LendingPlatform.sol\":9629:9637  loan.ETH */\n      0x05\n      add\n      sload\n        /* \"contracts/LendingPlatform.sol\":9629:9648  loan.ETH * ethPrice */\n      tag_246\n      swap2\n      swap1\n      tag_93\n      jump\t// in\n    tag_246:\n        /* \"contracts/LendingPlatform.sol\":9628:9656  (loan.ETH * ethPrice) / 1e18 */\n      tag_247\n      swap2\n      swap1\n      tag_103\n      jump\t// in\n    tag_247:\n        /* \"contracts/LendingPlatform.sol\":9602:9656  uint256 collateralValue = (loan.ETH * ethPrice) / 1e18 */\n      swap1\n      pop\n        /* \"contracts/LendingPlatform.sol\":9667:9684  uint256 repayment */\n      0x00\n        /* \"contracts/LendingPlatform.sol\":9716:9719  100 */\n      0x64\n        /* \"contracts/LendingPlatform.sol\":9700:9704  loan */\n      dup6\n        /* \"contracts/LendingPlatform.sol\":9700:9712  loan.Percent */\n      0x04\n      add\n      sload\n        /* \"contracts/LendingPlatform.sol\":9688:9692  loan */\n      dup7\n        /* \"contracts/LendingPlatform.sol\":9688:9697  loan.USDC */\n      0x03\n      add\n      sload\n        /* \"contracts/LendingPlatform.sol\":9688:9712  loan.USDC * loan.Percent */\n      tag_248\n      swap2\n      swap1\n      tag_93\n      jump\t// in\n    tag_248:\n        /* \"contracts/LendingPlatform.sol\":9687:9719  (loan.USDC * loan.Percent) / 100 */\n      tag_249\n      swap2\n      swap1\n      tag_103\n      jump\t// in\n    tag_249:\n        /* \"contracts/LendingPlatform.sol\":9667:9719  uint256 repayment = (loan.USDC * loan.Percent) / 100 */\n      swap1\n      pop\n        /* \"contracts/LendingPlatform.sol\":9730:9756  bool isUndercollateralized */\n      0x00\n        /* \"contracts/LendingPlatform.sol\":9778:9787  repayment */\n      dup2\n        /* \"contracts/LendingPlatform.sol\":9759:9774  collateralValue */\n      dup4\n        /* \"contracts/LendingPlatform.sol\":9759:9787  collateralValue <= repayment */\n      gt\n      iszero\n        /* \"contracts/LendingPlatform.sol\":9730:9787  bool isUndercollateralized = collateralValue <= repayment */\n      swap1\n      pop\n        /* \"contracts/LendingPlatform.sol\":9802:9811  isOverdue */\n      dup5\n        /* \"contracts/LendingPlatform.sol\":9802:9836  isOverdue || isUndercollateralized */\n      dup1\n      tag_250\n      jumpi\n      pop\n        /* \"contracts/LendingPlatform.sol\":9815:9836  isUndercollateralized */\n      dup1\n        /* \"contracts/LendingPlatform.sol\":9802:9836  isOverdue || isUndercollateralized */\n    tag_250:\n        /* \"contracts/LendingPlatform.sol\":9798:9891  if (isOverdue || isUndercollateralized) {... */\n      iszero\n      tag_251\n      jumpi\n        /* \"contracts/LendingPlatform.sol\":9860:9864  true */\n      0x01\n        /* \"contracts/LendingPlatform.sol\":9877:9878  i */\n      dup9\n        /* \"contracts/LendingPlatform.sol\":9866:9879  abi.encode(i) */\n      add(0x20, mload(0x40))\n      tag_252\n      swap2\n      swap1\n      tag_58\n      jump\t// in\n    tag_252:\n      mload(0x40)\n      0x20\n      dup2\n      dup4\n      sub\n      sub\n      dup2\n      mstore\n      swap1\n      0x40\n      mstore\n        /* \"contracts/LendingPlatform.sol\":9852:9880  return (true, abi.encode(i)) */\n      swap10\n      pop\n      swap10\n      pop\n      pop\n      pop\n      pop\n      pop\n      pop\n      pop\n      pop\n      pop\n      jump(tag_233)\n        /* \"contracts/LendingPlatform.sol\":9798:9891  if (isOverdue || isUndercollateralized) {... */\n    tag_251:\n        /* \"contracts/LendingPlatform.sol\":9245:9897  {... */\n      pop\n      pop\n      pop\n      pop\n      pop\n      pop\n      pop\n        /* \"contracts/LendingPlatform.sol\":9199:9897  for (uint i = 0; i < activeLoans.length; i++) {... */\n    tag_236:\n        /* \"contracts/LendingPlatform.sol\":9240:9243  i++ */\n      dup1\n      dup1\n      0x01\n      add\n      swap2\n      pop\n      pop\n        /* \"contracts/LendingPlatform.sol\":9199:9897  for (uint i = 0; i < activeLoans.length; i++) {... */\n      jump(tag_234)\n    tag_235:\n      pop\n        /* \"contracts/LendingPlatform.sol\":9911:9916  false */\n      0x00\n        /* \"contracts/LendingPlatform.sol\":9918:9927  bytes(\"\") */\n      mload(0x40)\n      dup1\n      0x20\n      add\n      0x40\n      mstore\n      dup1\n      0x00\n      dup2\n      mstore\n      pop\n        /* \"contracts/LendingPlatform.sol\":9903:9928  return (false, bytes(\"\")) */\n      swap2\n      pop\n      swap2\n      pop\n        /* \"contracts/LendingPlatform.sol\":9076:9931  function checkUpkeep(bytes calldata) external view override returns (bool upkeepNeeded, bytes memory performData) {... */\n    tag_233:\n      swap3\n      pop\n      swap3\n      swap1\n      pop\n      jump\t// out\n        /* \"contracts/LendingPlatform.sol\":3541:3892  function getLatestETHPrice() public view returns (uint256) {... */\n    tag_56:\n        /* \"contracts/LendingPlatform.sol\":3591:3598  uint256 */\n      0x00\n        /* \"contracts/LendingPlatform.sol\":3627:3636  int price */\n      0x00\n        /* \"contracts/LendingPlatform.sol\":3675:3684  priceFeed */\n      0x04\n      0x00\n      swap1\n      sload\n      swap1\n      0x0100\n      exp\n      swap1\n      div\n      0xffffffffffffffffffffffffffffffffffffffff\n      and\n        /* \"contracts/LendingPlatform.sol\":3675:3700  priceFeed.latestRoundData */\n      0xffffffffffffffffffffffffffffffffffffffff\n      and\n      0xfeaf968c\n        /* \"contracts/LendingPlatform.sol\":3675:3702  priceFeed.latestRoundData() */\n      mload(0x40)\n      dup2\n      0xffffffff\n      and\n      0xe0\n      shl\n      dup2\n      mstore\n      0x04\n      add\n      0xa0\n      mload(0x40)\n      dup1\n      dup4\n      sub\n      dup2\n      dup7\n      gas\n      staticcall\n      iszero\n      dup1\n      iszero\n      tag_255\n      jumpi\n      returndatacopy(0x00, 0x00, returndatasize)\n      revert(0x00, returndatasize)\n    tag_255:\n      pop\n      pop\n      pop\n      pop\n      mload(0x40)\n      returndatasize\n      not(0x1f)\n      0x1f\n      dup3\n      add\n      and\n      dup3\n      add\n      dup1\n      0x40\n      mstore\n      pop\n      dup2\n      add\n      swap1\n      tag_256\n      swap2\n      swap1\n      tag_257\n      jump\t// in\n    tag_256:\n        /* \"contracts/LendingPlatform.sol\":3606:3702  (... */\n      pop\n      pop\n      pop\n      swap2\n      pop\n      pop\n        /* \"contracts/LendingPlatform.sol\":3724:3725  0 */\n      0x00\n        /* \"contracts/LendingPlatform.sol\":3716:3721  price */\n      dup2\n        /* \"contracts/LendingPlatform.sol\":3716:3725  price > 0 */\n      sgt\n        /* \"contracts/LendingPlatform.sol\":3708:3743  require(price > 0, \"Invalid price\") */\n      tag_258\n      jumpi\n      mload(0x40)\n      0x08c379a000000000000000000000000000000000000000000000000000000000\n      dup2\n      mstore\n      0x04\n      add\n      tag_259\n      swap1\n      tag_260\n      jump\t// in\n    tag_259:\n      mload(0x40)\n      dup1\n      swap2\n      sub\n      swap1\n      revert\n    tag_258:\n        /* \"contracts/LendingPlatform.sol\":3883:3889  10**10 */\n      0x02540be400\n        /* \"contracts/LendingPlatform.sol\":3874:3879  price */\n      dup2\n        /* \"contracts/LendingPlatform.sol\":3866:3889  uint256(price) * 10**10 */\n      tag_261\n      swap2\n      swap1\n      tag_93\n      jump\t// in\n    tag_261:\n        /* \"contracts/LendingPlatform.sol\":3859:3889  return uint256(price) * 10**10 */\n      swap2\n      pop\n      pop\n        /* \"contracts/LendingPlatform.sol\":3541:3892  function getLatestETHPrice() public view returns (uint256) {... */\n      swap1\n      jump\t// out\n        /* \"contracts/LendingPlatform.sol\":2378:2435  mapping(address => mapping(uint256 => Loan)) public loans */\n    tag_62:\n      mstore(0x20, 0x07)\n      dup2\n      0x00\n      mstore\n      mstore(0x20, keccak256(0x00, 0x40))\n      dup1\n      0x00\n      mstore\n      keccak256(0x00, 0x40)\n      0x00\n      swap2\n      pop\n      swap2\n      pop\n      pop\n      dup1\n      0x00\n      add\n      sload\n      swap1\n      dup1\n      0x01\n      add\n      0x00\n      swap1\n      sload\n      swap1\n      0x0100\n      exp\n      swap1\n      div\n      0xffffffffffffffffffffffffffffffffffffffff\n      and\n      swap1\n      dup1\n      0x02\n      add\n      0x00\n      swap1\n      sload\n      swap1\n      0x0100\n      exp\n      swap1\n      div\n      0xffffffffffffffffffffffffffffffffffffffff\n      and\n      swap1\n      dup1\n      0x03\n      add\n      sload\n      swap1\n      dup1\n      0x04\n      add\n      sload\n      swap1\n      dup1\n      0x05\n      add\n      sload\n      swap1\n      dup1\n      0x06\n      add\n      sload\n      swap1\n      dup1\n      0x07\n      add\n      sload\n      swap1\n      dup1\n      0x08\n      add\n      0x00\n      swap1\n      sload\n      swap1\n      0x0100\n      exp\n      swap1\n      div\n      0xff\n      and\n      swap1\n      dup1\n      0x08\n      add\n      0x01\n      swap1\n      sload\n      swap1\n      0x0100\n      exp\n      swap1\n      div\n      0xff\n      and\n      swap1\n      pop\n      dup11\n      jump\t// out\n        /* \"contracts/LendingPlatform.sol\":530:560  IERC20 public usdtTokenAddress */\n    tag_67:\n      0x00\n      0x00\n      swap1\n      sload\n      swap1\n      0x0100\n      exp\n      swap1\n      div\n      0xffffffffffffffffffffffffffffffffffffffff\n      and\n      dup2\n      jump\t// out\n        /* \"contracts/LendingPlatform.sol\":8244:9070  function repayLoan(uint256 _loanId) external {... */\n    tag_73:\n        /* \"contracts/LendingPlatform.sol\":8299:8316  Loan storage loan */\n      0x00\n        /* \"contracts/LendingPlatform.sol\":8319:8324  loans */\n      0x07\n        /* \"contracts/LendingPlatform.sol\":8319:8336  loans[msg.sender] */\n      0x00\n        /* \"contracts/LendingPlatform.sol\":8325:8335  msg.sender */\n      caller\n        /* \"contracts/LendingPlatform.sol\":8319:8336  loans[msg.sender] */\n      0xffffffffffffffffffffffffffffffffffffffff\n      and\n      0xffffffffffffffffffffffffffffffffffffffff\n      and\n      dup2\n      mstore\n      0x20\n      add\n      swap1\n      dup2\n      mstore\n      0x20\n      add\n      0x00\n      keccak256\n        /* \"contracts/LendingPlatform.sol\":8319:8345  loans[msg.sender][_loanId] */\n      0x00\n        /* \"contracts/LendingPlatform.sol\":8337:8344  _loanId */\n      dup4\n        /* \"contracts/LendingPlatform.sol\":8319:8345  loans[msg.sender][_loanId] */\n      dup2\n      mstore\n      0x20\n      add\n      swap1\n      dup2\n      mstore\n      0x20\n      add\n      0x00\n      keccak256\n        /* \"contracts/LendingPlatform.sol\":8299:8345  Loan storage loan = loans[msg.sender][_loanId] */\n      swap1\n      pop\n        /* \"contracts/LendingPlatform.sol\":8378:8391  Status.Active */\n      0x02\n        /* \"contracts/LendingPlatform.sol\":8363:8391  loan.status == Status.Active */\n      0x06\n      dup2\n      gt\n      iszero\n      tag_263\n      jumpi\n      tag_264\n      tag_114\n      jump\t// in\n    tag_264:\n    tag_263:\n        /* \"contracts/LendingPlatform.sol\":8363:8367  loan */\n      dup2\n        /* \"contracts/LendingPlatform.sol\":8363:8374  loan.status */\n      0x08\n      add\n      0x01\n      swap1\n      sload\n      swap1\n      0x0100\n      exp\n      swap1\n      div\n      0xff\n      and\n        /* \"contracts/LendingPlatform.sol\":8363:8391  loan.status == Status.Active */\n      0x06\n      dup2\n      gt\n      iszero\n      tag_265\n      jumpi\n      tag_266\n      tag_114\n      jump\t// in\n    tag_266:\n    tag_265:\n      eq\n        /* \"contracts/LendingPlatform.sol\":8355:8414  require(loan.status == Status.Active, \"Loan is not active\") */\n      tag_267\n      jumpi\n      mload(0x40)\n      0x08c379a000000000000000000000000000000000000000000000000000000000\n      dup2\n      mstore\n      0x04\n      add\n      tag_268\n      swap1\n      tag_269\n      jump\t// in\n    tag_268:\n      mload(0x40)\n      dup1\n      swap2\n      sub\n      swap1\n      revert\n    tag_267:\n        /* \"contracts/LendingPlatform.sol\":8449:8459  msg.sender */\n      caller\n        /* \"contracts/LendingPlatform.sol\":8432:8459  loan.borrower == msg.sender */\n      0xffffffffffffffffffffffffffffffffffffffff\n      and\n        /* \"contracts/LendingPlatform.sol\":8432:8436  loan */\n      dup2\n        /* \"contracts/LendingPlatform.sol\":8432:8445  loan.borrower */\n      0x01\n      add\n      0x00\n      swap1\n      sload\n      swap1\n      0x0100\n      exp\n      swap1\n      div\n      0xffffffffffffffffffffffffffffffffffffffff\n      and\n        /* \"contracts/LendingPlatform.sol\":8432:8459  loan.borrower == msg.sender */\n      0xffffffffffffffffffffffffffffffffffffffff\n      and\n      eq\n        /* \"contracts/LendingPlatform.sol\":8424:8487  require(loan.borrower == msg.sender, \"Only borrower can repay\") */\n      tag_270\n      jumpi\n      mload(0x40)\n      0x08c379a000000000000000000000000000000000000000000000000000000000\n      dup2\n      mstore\n      0x04\n      add\n      tag_271\n      swap1\n      tag_272\n      jump\t// in\n    tag_271:\n      mload(0x40)\n      dup1\n      swap2\n      sub\n      swap1\n      revert\n    tag_270:\n        /* \"contracts/LendingPlatform.sol\":8498:8509  IERC20 usdt */\n      0x00\n        /* \"contracts/LendingPlatform.sol\":8519:8535  usdtTokenAddress */\n      0x00\n      0x00\n      swap1\n      sload\n      swap1\n      0x0100\n      exp\n      swap1\n      div\n      0xffffffffffffffffffffffffffffffffffffffff\n      and\n        /* \"contracts/LendingPlatform.sol\":8498:8536  IERC20 usdt = IERC20(usdtTokenAddress) */\n      swap1\n      pop\n        /* \"contracts/LendingPlatform.sol\":8546:8567  uint256 amountToRepay */\n      0x00\n        /* \"contracts/LendingPlatform.sol\":8599:8602  100 */\n      0x64\n        /* \"contracts/LendingPlatform.sol\":8583:8587  loan */\n      dup4\n        /* \"contracts/LendingPlatform.sol\":8583:8595  loan.Percent */\n      0x04\n      add\n      sload\n        /* \"contracts/LendingPlatform.sol\":8571:8575  loan */\n      dup5\n        /* \"contracts/LendingPlatform.sol\":8571:8580  loan.USDC */\n      0x03\n      add\n      sload\n        /* \"contracts/LendingPlatform.sol\":8571:8595  loan.USDC * loan.Percent */\n      tag_273\n      swap2\n      swap1\n      tag_93\n      jump\t// in\n    tag_273:\n        /* \"contracts/LendingPlatform.sol\":8570:8602  (loan.USDC * loan.Percent) / 100 */\n      tag_274\n      swap2\n      swap1\n      tag_103\n      jump\t// in\n    tag_274:\n        /* \"contracts/LendingPlatform.sol\":8546:8602  uint256 amountToRepay = (loan.USDC * loan.Percent) / 100 */\n      swap1\n      pop\n        /* \"contracts/LendingPlatform.sol\":8666:8679  amountToRepay */\n      dup1\n        /* \"contracts/LendingPlatform.sol\":8621:8625  usdt */\n      dup3\n        /* \"contracts/LendingPlatform.sol\":8621:8635  usdt.allowance */\n      0xffffffffffffffffffffffffffffffffffffffff\n      and\n      0xdd62ed3e\n        /* \"contracts/LendingPlatform.sol\":8636:8646  msg.sender */\n      caller\n        /* \"contracts/LendingPlatform.sol\":8656:8660  this */\n      address\n        /* \"contracts/LendingPlatform.sol\":8621:8662  usdt.allowance(msg.sender, address(this)) */\n      mload(0x40)\n      dup4\n      0xffffffff\n      and\n      0xe0\n      shl\n      dup2\n      mstore\n      0x04\n      add\n      tag_275\n      swap3\n      swap2\n      swap1\n      tag_131\n      jump\t// in\n    tag_275:\n      0x20\n      mload(0x40)\n      dup1\n      dup4\n      sub\n      dup2\n      dup7\n      gas\n      staticcall\n      iszero\n      dup1\n      iszero\n      tag_277\n      jumpi\n      returndatacopy(0x00, 0x00, returndatasize)\n      revert(0x00, returndatasize)\n    tag_277:\n      pop\n      pop\n      pop\n      pop\n      mload(0x40)\n      returndatasize\n      not(0x1f)\n      0x1f\n      dup3\n      add\n      and\n      dup3\n      add\n      dup1\n      0x40\n      mstore\n      pop\n      dup2\n      add\n      swap1\n      tag_278\n      swap2\n      swap1\n      tag_135\n      jump\t// in\n    tag_278:\n        /* \"contracts/LendingPlatform.sol\":8621:8679  usdt.allowance(msg.sender, address(this)) >= amountToRepay */\n      lt\n      iszero\n        /* \"contracts/LendingPlatform.sol\":8613:8717  require(usdt.allowance(msg.sender, address(this)) >= amountToRepay,\"Not enough allowance for repayment\") */\n      tag_279\n      jumpi\n      mload(0x40)\n      0x08c379a000000000000000000000000000000000000000000000000000000000\n      dup2\n      mstore\n      0x04\n      add\n      tag_280\n      swap1\n      tag_281\n      jump\t// in\n    tag_280:\n      mload(0x40)\n      dup1\n      swap2\n      sub\n      swap1\n      revert\n    tag_279:\n        /* \"contracts/LendingPlatform.sol\":8807:8811  usdt */\n      dup2\n        /* \"contracts/LendingPlatform.sol\":8807:8824  usdt.transferFrom */\n      0xffffffffffffffffffffffffffffffffffffffff\n      and\n      0x23b872dd\n        /* \"contracts/LendingPlatform.sol\":8825:8835  msg.sender */\n      caller\n        /* \"contracts/LendingPlatform.sol\":8837:8841  loan */\n      dup6\n        /* \"contracts/LendingPlatform.sol\":8837:8848  loan.lender */\n      0x02\n      add\n      0x00\n      swap1\n      sload\n      swap1\n      0x0100\n      exp\n      swap1\n      div\n      0xffffffffffffffffffffffffffffffffffffffff\n      and\n        /* \"contracts/LendingPlatform.sol\":8850:8863  amountToRepay */\n      dup5\n        /* \"contracts/LendingPlatform.sol\":8807:8864  usdt.transferFrom(msg.sender, loan.lender, amountToRepay) */\n      mload(0x40)\n      dup5\n      0xffffffff\n      and\n      0xe0\n      shl\n      dup2\n      mstore\n      0x04\n      add\n      tag_282\n      swap4\n      swap3\n      swap2\n      swap1\n      tag_140\n      jump\t// in\n    tag_282:\n      0x20\n      mload(0x40)\n      dup1\n      dup4\n      sub\n      dup2\n      0x00\n      dup8\n      gas\n      call\n      iszero\n      dup1\n      iszero\n      tag_284\n      jumpi\n      returndatacopy(0x00, 0x00, returndatasize)\n      revert(0x00, returndatasize)\n    tag_284:\n      pop\n      pop\n      pop\n      pop\n      mload(0x40)\n      returndatasize\n      not(0x1f)\n      0x1f\n      dup3\n      add\n      and\n      dup3\n      add\n      dup1\n      0x40\n      mstore\n      pop\n      dup2\n      add\n      swap1\n      tag_285\n      swap2\n      swap1\n      tag_144\n      jump\t// in\n    tag_285:\n      pop\n        /* \"contracts/LendingPlatform.sol\":8942:8946  loan */\n      dup3\n        /* \"contracts/LendingPlatform.sol\":8942:8955  loan.borrower */\n      0x01\n      add\n      0x00\n      swap1\n      sload\n      swap1\n      0x0100\n      exp\n      swap1\n      div\n      0xffffffffffffffffffffffffffffffffffffffff\n      and\n        /* \"contracts/LendingPlatform.sol\":8934:8965  payable(loan.borrower).transfer */\n      0xffffffffffffffffffffffffffffffffffffffff\n      and\n        /* \"contracts/LendingPlatform.sol\":8934:8975  payable(loan.borrower).transfer(loan.ETH) */\n      0x08fc\n        /* \"contracts/LendingPlatform.sol\":8966:8970  loan */\n      dup5\n        /* \"contracts/LendingPlatform.sol\":8966:8974  loan.ETH */\n      0x05\n      add\n      sload\n        /* \"contracts/LendingPlatform.sol\":8934:8975  payable(loan.borrower).transfer(loan.ETH) */\n      swap1\n      dup2\n      iszero\n      mul\n      swap1\n      mload(0x40)\n      0x00\n      mload(0x40)\n      dup1\n      dup4\n      sub\n      dup2\n      dup6\n      dup9\n      dup9\n      call\n      swap4\n      pop\n      pop\n      pop\n      pop\n      iszero\n      dup1\n      iszero\n      tag_287\n      jumpi\n      returndatacopy(0x00, 0x00, returndatasize)\n      revert(0x00, returndatasize)\n    tag_287:\n      pop\n        /* \"contracts/LendingPlatform.sol\":9000:9015  Status.Returned */\n      0x03\n        /* \"contracts/LendingPlatform.sol\":8986:8990  loan */\n      dup4\n        /* \"contracts/LendingPlatform.sol\":8986:8997  loan.status */\n      0x08\n      add\n      0x01\n        /* \"contracts/LendingPlatform.sol\":8986:9015  loan.status = Status.Returned */\n      0x0100\n      exp\n      dup2\n      sload\n      dup2\n      0xff\n      mul\n      not\n      and\n      swap1\n      dup4\n      0x06\n      dup2\n      gt\n      iszero\n      tag_288\n      jumpi\n      tag_289\n      tag_114\n      jump\t// in\n    tag_289:\n    tag_288:\n      mul\n      or\n      swap1\n      sstore\n      pop\n        /* \"contracts/LendingPlatform.sol\":9052:9062  msg.sender */\n      caller\n        /* \"contracts/LendingPlatform.sol\":9030:9063  LoanReturned(_loanId, msg.sender) */\n      0xffffffffffffffffffffffffffffffffffffffff\n      and\n        /* \"contracts/LendingPlatform.sol\":9043:9050  _loanId */\n      dup5\n        /* \"contracts/LendingPlatform.sol\":9030:9063  LoanReturned(_loanId, msg.sender) */\n      0xad4162e5033b7bb713e12d20782e2d719000e0c997983a11328616e82c93be03\n      mload(0x40)\n      mload(0x40)\n      dup1\n      swap2\n      sub\n      swap1\n      log3\n        /* \"contracts/LendingPlatform.sol\":8289:9070  {... */\n      pop\n      pop\n      pop\n        /* \"contracts/LendingPlatform.sol\":8244:9070  function repayLoan(uint256 _loanId) external {... */\n      pop\n      jump\t// out\n        /* \"contracts/LendingPlatform.sol\":695:731  uint256 public ethPriceInUsdt = 3000 */\n    tag_76:\n      sload(0x02)\n      dup2\n      jump\t// out\n        /* \"contracts/LendingPlatform.sol\":818:847  uint256 public ETHRatio = 150 */\n    tag_80:\n      sload(0x03)\n      dup2\n      jump\t// out\n        /* \"contracts/LendingPlatform.sol\":11017:11176  function getLoanDetails(address _borrowerAddress, uint256 _loanId) external view returns (Loan memory) {... */\n    tag_85:\n        /* \"contracts/LendingPlatform.sol\":11107:11118  Loan memory */\n      tag_290\n      tag_291\n      jump\t// in\n    tag_290:\n        /* \"contracts/LendingPlatform.sol\":11137:11142  loans */\n      0x07\n        /* \"contracts/LendingPlatform.sol\":11137:11160  loans[_borrowerAddress] */\n      0x00\n        /* \"contracts/LendingPlatform.sol\":11143:11159  _borrowerAddress */\n      dup5\n        /* \"contracts/LendingPlatform.sol\":11137:11160  loans[_borrowerAddress] */\n      0xffffffffffffffffffffffffffffffffffffffff\n      and\n      0xffffffffffffffffffffffffffffffffffffffff\n      and\n      dup2\n      mstore\n      0x20\n      add\n      swap1\n      dup2\n      mstore\n      0x20\n      add\n      0x00\n      keccak256\n        /* \"contracts/LendingPlatform.sol\":11137:11169  loans[_borrowerAddress][_loanId] */\n      0x00\n        /* \"contracts/LendingPlatform.sol\":11161:11168  _loanId */\n      dup4\n        /* \"contracts/LendingPlatform.sol\":11137:11169  loans[_borrowerAddress][_loanId] */\n      dup2\n      mstore\n      0x20\n      add\n      swap1\n      dup2\n      mstore\n      0x20\n      add\n      0x00\n      keccak256\n        /* \"contracts/LendingPlatform.sol\":11130:11169  return loans[_borrowerAddress][_loanId] */\n      mload(0x40)\n      dup1\n      0x0140\n      add\n      0x40\n      mstore\n      swap1\n      dup2\n      0x00\n      dup3\n      add\n      sload\n      dup2\n      mstore\n      0x20\n      add\n      0x01\n      dup3\n      add\n      0x00\n      swap1\n      sload\n      swap1\n      0x0100\n      exp\n      swap1\n      div\n      0xffffffffffffffffffffffffffffffffffffffff\n      and\n      0xffffffffffffffffffffffffffffffffffffffff\n      and\n      0xffffffffffffffffffffffffffffffffffffffff\n      and\n      dup2\n      mstore\n      0x20\n      add\n      0x02\n      dup3\n      add\n      0x00\n      swap1\n      sload\n      swap1\n      0x0100\n      exp\n      swap1\n      div\n      0xffffffffffffffffffffffffffffffffffffffff\n      and\n      0xffffffffffffffffffffffffffffffffffffffff\n      and\n      0xffffffffffffffffffffffffffffffffffffffff\n      and\n      dup2\n      mstore\n      0x20\n      add\n      0x03\n      dup3\n      add\n      sload\n      dup2\n      mstore\n      0x20\n      add\n      0x04\n      dup3\n      add\n      sload\n      dup2\n      mstore\n      0x20\n      add\n      0x05\n      dup3\n      add\n      sload\n      dup2\n      mstore\n      0x20\n      add\n      0x06\n      dup3\n      add\n      sload\n      dup2\n      mstore\n      0x20\n      add\n      0x07\n      dup3\n      add\n      sload\n      dup2\n      mstore\n      0x20\n      add\n      0x08\n      dup3\n      add\n      0x00\n      swap1\n      sload\n      swap1\n      0x0100\n      exp\n      swap1\n      div\n      0xff\n      and\n      iszero\n      iszero\n      iszero\n      iszero\n      dup2\n      mstore\n      0x20\n      add\n      0x08\n      dup3\n      add\n      0x01\n      swap1\n      sload\n      swap1\n      0x0100\n      exp\n      swap1\n      div\n      0xff\n      and\n      0x06\n      dup2\n      gt\n      iszero\n      tag_293\n      jumpi\n      tag_294\n      tag_114\n      jump\t// in\n    tag_294:\n    tag_293:\n      0x06\n      dup2\n      gt\n      iszero\n      tag_295\n      jumpi\n      tag_296\n      tag_114\n      jump\t// in\n    tag_296:\n    tag_295:\n      dup2\n      mstore\n      pop\n      pop\n      swap1\n      pop\n        /* \"contracts/LendingPlatform.sol\":11017:11176  function getLoanDetails(address _borrowerAddress, uint256 _loanId) external view returns (Loan memory) {... */\n      swap3\n      swap2\n      pop\n      pop\n      jump\t// out\n    tag_291:\n      mload(0x40)\n      dup1\n      0x0140\n      add\n      0x40\n      mstore\n      dup1\n      0x00\n      dup2\n      mstore\n      0x20\n      add\n      and(0xffffffffffffffffffffffffffffffffffffffff, 0x00)\n      dup2\n      mstore\n      0x20\n      add\n      and(0xffffffffffffffffffffffffffffffffffffffff, 0x00)\n      dup2\n      mstore\n      0x20\n      add\n      0x00\n      dup2\n      mstore\n      0x20\n      add\n      0x00\n      dup2\n      mstore\n      0x20\n      add\n      0x00\n      dup2\n      mstore\n      0x20\n      add\n      0x00\n      dup2\n      mstore\n      0x20\n      add\n      0x00\n      dup2\n      mstore\n      0x20\n      add\n      iszero(iszero(0x00))\n      dup2\n      mstore\n      0x20\n      add\n      0x00\n      0x06\n      dup2\n      gt\n      iszero\n      tag_297\n      jumpi\n      tag_298\n      tag_114\n      jump\t// in\n    tag_298:\n    tag_297:\n      dup2\n      mstore\n      pop\n      swap1\n      jump\t// out\n        /* \"#utility.yul\":88:205   */\n    tag_300:\n        /* \"#utility.yul\":197:198   */\n      0x00\n        /* \"#utility.yul\":194:195   */\n      0x00\n        /* \"#utility.yul\":187:199   */\n      revert\n        /* \"#utility.yul\":211:328   */\n    tag_301:\n        /* \"#utility.yul\":320:321   */\n      0x00\n        /* \"#utility.yul\":317:318   */\n      0x00\n        /* \"#utility.yul\":310:322   */\n      revert\n        /* \"#utility.yul\":334:411   */\n    tag_302:\n        /* \"#utility.yul\":371:378   */\n      0x00\n        /* \"#utility.yul\":400:405   */\n      dup2\n        /* \"#utility.yul\":389:405   */\n      swap1\n      pop\n        /* \"#utility.yul\":334:411   */\n      swap2\n      swap1\n      pop\n      jump\t// out\n        /* \"#utility.yul\":417:539   */\n    tag_303:\n        /* \"#utility.yul\":490:514   */\n      tag_388\n        /* \"#utility.yul\":508:513   */\n      dup2\n        /* \"#utility.yul\":490:514   */\n      tag_302\n      jump\t// in\n    tag_388:\n        /* \"#utility.yul\":483:488   */\n      dup2\n        /* \"#utility.yul\":480:515   */\n      eq\n        /* \"#utility.yul\":470:533   */\n      tag_389\n      jumpi\n        /* \"#utility.yul\":529:530   */\n      0x00\n        /* \"#utility.yul\":526:527   */\n      0x00\n        /* \"#utility.yul\":519:531   */\n      revert\n        /* \"#utility.yul\":470:533   */\n    tag_389:\n        /* \"#utility.yul\":417:539   */\n      pop\n      jump\t// out\n        /* \"#utility.yul\":545:684   */\n    tag_304:\n        /* \"#utility.yul\":591:596   */\n      0x00\n        /* \"#utility.yul\":629:635   */\n      dup2\n        /* \"#utility.yul\":616:636   */\n      calldataload\n        /* \"#utility.yul\":607:636   */\n      swap1\n      pop\n        /* \"#utility.yul\":645:678   */\n      tag_391\n        /* \"#utility.yul\":672:677   */\n      dup2\n        /* \"#utility.yul\":645:678   */\n      tag_303\n      jump\t// in\n    tag_391:\n        /* \"#utility.yul\":545:684   */\n      swap3\n      swap2\n      pop\n      pop\n      jump\t// out\n        /* \"#utility.yul\":690:1309   */\n    tag_21:\n        /* \"#utility.yul\":767:773   */\n      0x00\n        /* \"#utility.yul\":775:781   */\n      0x00\n        /* \"#utility.yul\":783:789   */\n      0x00\n        /* \"#utility.yul\":832:834   */\n      0x60\n        /* \"#utility.yul\":820:829   */\n      dup5\n        /* \"#utility.yul\":811:818   */\n      dup7\n        /* \"#utility.yul\":807:830   */\n      sub\n        /* \"#utility.yul\":803:835   */\n      slt\n        /* \"#utility.yul\":800:919   */\n      iszero\n      tag_393\n      jumpi\n        /* \"#utility.yul\":838:917   */\n      tag_394\n      tag_300\n      jump\t// in\n    tag_394:\n        /* \"#utility.yul\":800:919   */\n    tag_393:\n        /* \"#utility.yul\":958:959   */\n      0x00\n        /* \"#utility.yul\":983:1036   */\n      tag_395\n        /* \"#utility.yul\":1028:1035   */\n      dup7\n        /* \"#utility.yul\":1019:1025   */\n      dup3\n        /* \"#utility.yul\":1008:1017   */\n      dup8\n        /* \"#utility.yul\":1004:1026   */\n      add\n        /* \"#utility.yul\":983:1036   */\n      tag_304\n      jump\t// in\n    tag_395:\n        /* \"#utility.yul\":973:1036   */\n      swap4\n      pop\n        /* \"#utility.yul\":929:1046   */\n      pop\n        /* \"#utility.yul\":1085:1087   */\n      0x20\n        /* \"#utility.yul\":1111:1164   */\n      tag_396\n        /* \"#utility.yul\":1156:1163   */\n      dup7\n        /* \"#utility.yul\":1147:1153   */\n      dup3\n        /* \"#utility.yul\":1136:1145   */\n      dup8\n        /* \"#utility.yul\":1132:1154   */\n      add\n        /* \"#utility.yul\":1111:1164   */\n      tag_304\n      jump\t// in\n    tag_396:\n        /* \"#utility.yul\":1101:1164   */\n      swap3\n      pop\n        /* \"#utility.yul\":1056:1174   */\n      pop\n        /* \"#utility.yul\":1213:1215   */\n      0x40\n        /* \"#utility.yul\":1239:1292   */\n      tag_397\n        /* \"#utility.yul\":1284:1291   */\n      dup7\n        /* \"#utility.yul\":1275:1281   */\n      dup3\n        /* \"#utility.yul\":1264:1273   */\n      dup8\n        /* \"#utility.yul\":1260:1282   */\n      add\n        /* \"#utility.yul\":1239:1292   */\n      tag_304\n      jump\t// in\n    tag_397:\n        /* \"#utility.yul\":1229:1292   */\n      swap2\n      pop\n        /* \"#utility.yul\":1184:1302   */\n      pop\n        /* \"#utility.yul\":690:1309   */\n      swap3\n      pop\n      swap3\n      pop\n      swap3\n      jump\t// out\n        /* \"#utility.yul\":1315:1441   */\n    tag_305:\n        /* \"#utility.yul\":1352:1359   */\n      0x00\n        /* \"#utility.yul\":1392:1434   */\n      0xffffffffffffffffffffffffffffffffffffffff\n        /* \"#utility.yul\":1385:1390   */\n      dup3\n        /* \"#utility.yul\":1381:1435   */\n      and\n        /* \"#utility.yul\":1370:1435   */\n      swap1\n      pop\n        /* \"#utility.yul\":1315:1441   */\n      swap2\n      swap1\n      pop\n      jump\t// out\n        /* \"#utility.yul\":1447:1543   */\n    tag_306:\n        /* \"#utility.yul\":1484:1491   */\n      0x00\n        /* \"#utility.yul\":1513:1537   */\n      tag_400\n        /* \"#utility.yul\":1531:1536   */\n      dup3\n        /* \"#utility.yul\":1513:1537   */\n      tag_305\n      jump\t// in\n    tag_400:\n        /* \"#utility.yul\":1502:1537   */\n      swap1\n      pop\n        /* \"#utility.yul\":1447:1543   */\n      swap2\n      swap1\n      pop\n      jump\t// out\n        /* \"#utility.yul\":1549:1671   */\n    tag_307:\n        /* \"#utility.yul\":1622:1646   */\n      tag_402\n        /* \"#utility.yul\":1640:1645   */\n      dup2\n        /* \"#utility.yul\":1622:1646   */\n      tag_306\n      jump\t// in\n    tag_402:\n        /* \"#utility.yul\":1615:1620   */\n      dup2\n        /* \"#utility.yul\":1612:1647   */\n      eq\n        /* \"#utility.yul\":1602:1665   */\n      tag_403\n      jumpi\n        /* \"#utility.yul\":1661:1662   */\n      0x00\n        /* \"#utility.yul\":1658:1659   */\n      0x00\n        /* \"#utility.yul\":1651:1663   */\n      revert\n        /* \"#utility.yul\":1602:1665   */\n    tag_403:\n        /* \"#utility.yul\":1549:1671   */\n      pop\n      jump\t// out\n        /* \"#utility.yul\":1677:1816   */\n    tag_308:\n        /* \"#utility.yul\":1723:1728   */\n      0x00\n        /* \"#utility.yul\":1761:1767   */\n      dup2\n        /* \"#utility.yul\":1748:1768   */\n      calldataload\n        /* \"#utility.yul\":1739:1768   */\n      swap1\n      pop\n        /* \"#utility.yul\":1777:1810   */\n      tag_405\n        /* \"#utility.yul\":1804:1809   */\n      dup2\n        /* \"#utility.yul\":1777:1810   */\n      tag_307\n      jump\t// in\n    tag_405:\n        /* \"#utility.yul\":1677:1816   */\n      swap3\n      swap2\n      pop\n      pop\n      jump\t// out\n        /* \"#utility.yul\":1822:2296   */\n    tag_26:\n        /* \"#utility.yul\":1890:1896   */\n      0x00\n        /* \"#utility.yul\":1898:1904   */\n      0x00\n        /* \"#utility.yul\":1947:1949   */\n      0x40\n        /* \"#utility.yul\":1935:1944   */\n      dup4\n        /* \"#utility.yul\":1926:1933   */\n      dup6\n        /* \"#utility.yul\":1922:1945   */\n      sub\n        /* \"#utility.yul\":1918:1950   */\n      slt\n        /* \"#utility.yul\":1915:2034   */\n      iszero\n      tag_407\n      jumpi\n        /* \"#utility.yul\":1953:2032   */\n      tag_408\n      tag_300\n      jump\t// in\n    tag_408:\n        /* \"#utility.yul\":1915:2034   */\n    tag_407:\n        /* \"#utility.yul\":2073:2074   */\n      0x00\n        /* \"#utility.yul\":2098:2151   */\n      tag_409\n        /* \"#utility.yul\":2143:2150   */\n      dup6\n        /* \"#utility.yul\":2134:2140   */\n      dup3\n        /* \"#utility.yul\":2123:2132   */\n      dup7\n        /* \"#utility.yul\":2119:2141   */\n      add\n        /* \"#utility.yul\":2098:2151   */\n      tag_308\n      jump\t// in\n    tag_409:\n        /* \"#utility.yul\":2088:2151   */\n      swap3\n      pop\n        /* \"#utility.yul\":2044:2161   */\n      pop\n        /* \"#utility.yul\":2200:2202   */\n      0x20\n        /* \"#utility.yul\":2226:2279   */\n      tag_410\n        /* \"#utility.yul\":2271:2278   */\n      dup6\n        /* \"#utility.yul\":2262:2268   */\n      dup3\n        /* \"#utility.yul\":2251:2260   */\n      dup7\n        /* \"#utility.yul\":2247:2269   */\n      add\n        /* \"#utility.yul\":2226:2279   */\n      tag_304\n      jump\t// in\n    tag_410:\n        /* \"#utility.yul\":2216:2279   */\n      swap2\n      pop\n        /* \"#utility.yul\":2171:2289   */\n      pop\n        /* \"#utility.yul\":1822:2296   */\n      swap3\n      pop\n      swap3\n      swap1\n      pop\n      jump\t// out\n        /* \"#utility.yul\":2302:2419   */\n    tag_309:\n        /* \"#utility.yul\":2411:2412   */\n      0x00\n        /* \"#utility.yul\":2408:2409   */\n      0x00\n        /* \"#utility.yul\":2401:2413   */\n      revert\n        /* \"#utility.yul\":2425:2542   */\n    tag_310:\n        /* \"#utility.yul\":2534:2535   */\n      0x00\n        /* \"#utility.yul\":2531:2532   */\n      0x00\n        /* \"#utility.yul\":2524:2536   */\n      revert\n        /* \"#utility.yul\":2548:2665   */\n    tag_311:\n        /* \"#utility.yul\":2657:2658   */\n      0x00\n        /* \"#utility.yul\":2654:2655   */\n      0x00\n        /* \"#utility.yul\":2647:2659   */\n      revert\n        /* \"#utility.yul\":2684:3236   */\n    tag_312:\n        /* \"#utility.yul\":2741:2749   */\n      0x00\n        /* \"#utility.yul\":2751:2757   */\n      0x00\n        /* \"#utility.yul\":2801:2804   */\n      dup4\n        /* \"#utility.yul\":2794:2798   */\n      0x1f\n        /* \"#utility.yul\":2786:2792   */\n      dup5\n        /* \"#utility.yul\":2782:2799   */\n      add\n        /* \"#utility.yul\":2778:2805   */\n      slt\n        /* \"#utility.yul\":2768:2890   */\n      tag_415\n      jumpi\n        /* \"#utility.yul\":2809:2888   */\n      tag_416\n      tag_309\n      jump\t// in\n    tag_416:\n        /* \"#utility.yul\":2768:2890   */\n    tag_415:\n        /* \"#utility.yul\":2922:2928   */\n      dup3\n        /* \"#utility.yul\":2909:2929   */\n      calldataload\n        /* \"#utility.yul\":2899:2929   */\n      swap1\n      pop\n        /* \"#utility.yul\":2952:2970   */\n      0xffffffffffffffff\n        /* \"#utility.yul\":2944:2950   */\n      dup2\n        /* \"#utility.yul\":2941:2971   */\n      gt\n        /* \"#utility.yul\":2938:3055   */\n      iszero\n      tag_417\n      jumpi\n        /* \"#utility.yul\":2974:3053   */\n      tag_418\n      tag_310\n      jump\t// in\n    tag_418:\n        /* \"#utility.yul\":2938:3055   */\n    tag_417:\n        /* \"#utility.yul\":3088:3092   */\n      0x20\n        /* \"#utility.yul\":3080:3086   */\n      dup4\n        /* \"#utility.yul\":3076:3093   */\n      add\n        /* \"#utility.yul\":3064:3093   */\n      swap2\n      pop\n        /* \"#utility.yul\":3142:3145   */\n      dup4\n        /* \"#utility.yul\":3134:3138   */\n      0x01\n        /* \"#utility.yul\":3126:3132   */\n      dup3\n        /* \"#utility.yul\":3122:3139   */\n      mul\n        /* \"#utility.yul\":3112:3120   */\n      dup4\n        /* \"#utility.yul\":3108:3140   */\n      add\n        /* \"#utility.yul\":3105:3146   */\n      gt\n        /* \"#utility.yul\":3102:3230   */\n      iszero\n      tag_419\n      jumpi\n        /* \"#utility.yul\":3149:3228   */\n      tag_420\n      tag_311\n      jump\t// in\n    tag_420:\n        /* \"#utility.yul\":3102:3230   */\n    tag_419:\n        /* \"#utility.yul\":2684:3236   */\n      swap3\n      pop\n      swap3\n      swap1\n      pop\n      jump\t// out\n        /* \"#utility.yul\":3242:3769   */\n    tag_31:\n        /* \"#utility.yul\":3312:3318   */\n      0x00\n        /* \"#utility.yul\":3320:3326   */\n      0x00\n        /* \"#utility.yul\":3369:3371   */\n      0x20\n        /* \"#utility.yul\":3357:3366   */\n      dup4\n        /* \"#utility.yul\":3348:3355   */\n      dup6\n        /* \"#utility.yul\":3344:3367   */\n      sub\n        /* \"#utility.yul\":3340:3372   */\n      slt\n        /* \"#utility.yul\":3337:3456   */\n      iszero\n      tag_422\n      jumpi\n        /* \"#utility.yul\":3375:3454   */\n      tag_423\n      tag_300\n      jump\t// in\n    tag_423:\n        /* \"#utility.yul\":3337:3456   */\n    tag_422:\n        /* \"#utility.yul\":3523:3524   */\n      0x00\n        /* \"#utility.yul\":3512:3521   */\n      dup4\n        /* \"#utility.yul\":3508:3525   */\n      add\n        /* \"#utility.yul\":3495:3526   */\n      calldataload\n        /* \"#utility.yul\":3553:3571   */\n      0xffffffffffffffff\n        /* \"#utility.yul\":3545:3551   */\n      dup2\n        /* \"#utility.yul\":3542:3572   */\n      gt\n        /* \"#utility.yul\":3539:3656   */\n      iszero\n      tag_424\n      jumpi\n        /* \"#utility.yul\":3575:3654   */\n      tag_425\n      tag_301\n      jump\t// in\n    tag_425:\n        /* \"#utility.yul\":3539:3656   */\n    tag_424:\n        /* \"#utility.yul\":3688:3752   */\n      tag_426\n        /* \"#utility.yul\":3744:3751   */\n      dup6\n        /* \"#utility.yul\":3735:3741   */\n      dup3\n        /* \"#utility.yul\":3724:3733   */\n      dup7\n        /* \"#utility.yul\":3720:3742   */\n      add\n        /* \"#utility.yul\":3688:3752   */\n      tag_312\n      jump\t// in\n    tag_426:\n        /* \"#utility.yul\":3670:3752   */\n      swap3\n      pop\n      swap3\n      pop\n        /* \"#utility.yul\":3466:3762   */\n      pop\n        /* \"#utility.yul\":3242:3769   */\n      swap3\n      pop\n      swap3\n      swap1\n      pop\n      jump\t// out\n        /* \"#utility.yul\":3775:4104   */\n    tag_40:\n        /* \"#utility.yul\":3834:3840   */\n      0x00\n        /* \"#utility.yul\":3883:3885   */\n      0x20\n        /* \"#utility.yul\":3871:3880   */\n      dup3\n        /* \"#utility.yul\":3862:3869   */\n      dup5\n        /* \"#utility.yul\":3858:3881   */\n      sub\n        /* \"#utility.yul\":3854:3886   */\n      slt\n        /* \"#utility.yul\":3851:3970   */\n      iszero\n      tag_428\n      jumpi\n        /* \"#utility.yul\":3889:3968   */\n      tag_429\n      tag_300\n      jump\t// in\n    tag_429:\n        /* \"#utility.yul\":3851:3970   */\n    tag_428:\n        /* \"#utility.yul\":4009:4010   */\n      0x00\n        /* \"#utility.yul\":4034:4087   */\n      tag_430\n        /* \"#utility.yul\":4079:4086   */\n      dup5\n        /* \"#utility.yul\":4070:4076   */\n      dup3\n        /* \"#utility.yul\":4059:4068   */\n      dup6\n        /* \"#utility.yul\":4055:4077   */\n      add\n        /* \"#utility.yul\":4034:4087   */\n      tag_304\n      jump\t// in\n    tag_430:\n        /* \"#utility.yul\":4024:4087   */\n      swap2\n      pop\n        /* \"#utility.yul\":3980:4097   */\n      pop\n        /* \"#utility.yul\":3775:4104   */\n      swap3\n      swap2\n      pop\n      pop\n      jump\t// out\n        /* \"#utility.yul\":4110:4228   */\n    tag_313:\n        /* \"#utility.yul\":4197:4221   */\n      tag_432\n        /* \"#utility.yul\":4215:4220   */\n      dup2\n        /* \"#utility.yul\":4197:4221   */\n      tag_306\n      jump\t// in\n    tag_432:\n        /* \"#utility.yul\":4192:4195   */\n      dup3\n        /* \"#utility.yul\":4185:4222   */\n      mstore\n        /* \"#utility.yul\":4110:4228   */\n      pop\n      pop\n      jump\t// out\n        /* \"#utility.yul\":4234:4352   */\n    tag_314:\n        /* \"#utility.yul\":4321:4345   */\n      tag_434\n        /* \"#utility.yul\":4339:4344   */\n      dup2\n        /* \"#utility.yul\":4321:4345   */\n      tag_302\n      jump\t// in\n    tag_434:\n        /* \"#utility.yul\":4316:4319   */\n      dup3\n        /* \"#utility.yul\":4309:4346   */\n      mstore\n        /* \"#utility.yul\":4234:4352   */\n      pop\n      pop\n      jump\t// out\n        /* \"#utility.yul\":4358:4690   */\n    tag_43:\n        /* \"#utility.yul\":4479:4483   */\n      0x00\n        /* \"#utility.yul\":4517:4519   */\n      0x40\n        /* \"#utility.yul\":4506:4515   */\n      dup3\n        /* \"#utility.yul\":4502:4520   */\n      add\n        /* \"#utility.yul\":4494:4520   */\n      swap1\n      pop\n        /* \"#utility.yul\":4530:4601   */\n      tag_436\n        /* \"#utility.yul\":4598:4599   */\n      0x00\n        /* \"#utility.yul\":4587:4596   */\n      dup4\n        /* \"#utility.yul\":4583:4600   */\n      add\n        /* \"#utility.yul\":4574:4580   */\n      dup6\n        /* \"#utility.yul\":4530:4601   */\n      tag_313\n      jump\t// in\n    tag_436:\n        /* \"#utility.yul\":4611:4683   */\n      tag_437\n        /* \"#utility.yul\":4679:4681   */\n      0x20\n        /* \"#utility.yul\":4668:4677   */\n      dup4\n        /* \"#utility.yul\":4664:4682   */\n      add\n        /* \"#utility.yul\":4655:4661   */\n      dup5\n        /* \"#utility.yul\":4611:4683   */\n      tag_314\n      jump\t// in\n    tag_437:\n        /* \"#utility.yul\":4358:4690   */\n      swap4\n      swap3\n      pop\n      pop\n      pop\n      jump\t// out\n        /* \"#utility.yul\":4696:4786   */\n    tag_315:\n        /* \"#utility.yul\":4730:4737   */\n      0x00\n        /* \"#utility.yul\":4773:4778   */\n      dup2\n        /* \"#utility.yul\":4766:4779   */\n      iszero\n        /* \"#utility.yul\":4759:4780   */\n      iszero\n        /* \"#utility.yul\":4748:4780   */\n      swap1\n      pop\n        /* \"#utility.yul\":4696:4786   */\n      swap2\n      swap1\n      pop\n      jump\t// out\n        /* \"#utility.yul\":4792:4901   */\n    tag_316:\n        /* \"#utility.yul\":4873:4894   */\n      tag_440\n        /* \"#utility.yul\":4888:4893   */\n      dup2\n        /* \"#utility.yul\":4873:4894   */\n      tag_315\n      jump\t// in\n    tag_440:\n        /* \"#utility.yul\":4868:4871   */\n      dup3\n        /* \"#utility.yul\":4861:4895   */\n      mstore\n        /* \"#utility.yul\":4792:4901   */\n      pop\n      pop\n      jump\t// out\n        /* \"#utility.yul\":4907:5005   */\n    tag_317:\n        /* \"#utility.yul\":4958:4964   */\n      0x00\n        /* \"#utility.yul\":4992:4997   */\n      dup2\n        /* \"#utility.yul\":4986:4998   */\n      mload\n        /* \"#utility.yul\":4976:4998   */\n      swap1\n      pop\n        /* \"#utility.yul\":4907:5005   */\n      swap2\n      swap1\n      pop\n      jump\t// out\n        /* \"#utility.yul\":5011:5179   */\n    tag_318:\n        /* \"#utility.yul\":5094:5105   */\n      0x00\n        /* \"#utility.yul\":5128:5134   */\n      dup3\n        /* \"#utility.yul\":5123:5126   */\n      dup3\n        /* \"#utility.yul\":5116:5135   */\n      mstore\n        /* \"#utility.yul\":5168:5172   */\n      0x20\n        /* \"#utility.yul\":5163:5166   */\n      dup3\n        /* \"#utility.yul\":5159:5173   */\n      add\n        /* \"#utility.yul\":5144:5173   */\n      swap1\n      pop\n        /* \"#utility.yul\":5011:5179   */\n      swap3\n      swap2\n      pop\n      pop\n      jump\t// out\n        /* \"#utility.yul\":5185:5324   */\n    tag_319:\n        /* \"#utility.yul\":5274:5280   */\n      dup3\n        /* \"#utility.yul\":5269:5272   */\n      dup2\n        /* \"#utility.yul\":5264:5267   */\n      dup4\n        /* \"#utility.yul\":5258:5281   */\n      mcopy\n        /* \"#utility.yul\":5315:5316   */\n      0x00\n        /* \"#utility.yul\":5306:5312   */\n      dup4\n        /* \"#utility.yul\":5301:5304   */\n      dup4\n        /* \"#utility.yul\":5297:5313   */\n      add\n        /* \"#utility.yul\":5290:5317   */\n      mstore\n        /* \"#utility.yul\":5185:5324   */\n      pop\n      pop\n      pop\n      jump\t// out\n        /* \"#utility.yul\":5330:5432   */\n    tag_320:\n        /* \"#utility.yul\":5371:5377   */\n      0x00\n        /* \"#utility.yul\":5422:5424   */\n      0x1f\n        /* \"#utility.yul\":5418:5425   */\n      not\n        /* \"#utility.yul\":5413:5415   */\n      0x1f\n        /* \"#utility.yul\":5406:5411   */\n      dup4\n        /* \"#utility.yul\":5402:5416   */\n      add\n        /* \"#utility.yul\":5398:5426   */\n      and\n        /* \"#utility.yul\":5388:5426   */\n      swap1\n      pop\n        /* \"#utility.yul\":5330:5432   */\n      swap2\n      swap1\n      pop\n      jump\t// out\n        /* \"#utility.yul\":5438:5811   */\n    tag_321:\n        /* \"#utility.yul\":5524:5527   */\n      0x00\n        /* \"#utility.yul\":5552:5590   */\n      tag_446\n        /* \"#utility.yul\":5584:5589   */\n      dup3\n        /* \"#utility.yul\":5552:5590   */\n      tag_317\n      jump\t// in\n    tag_446:\n        /* \"#utility.yul\":5606:5676   */\n      tag_447\n        /* \"#utility.yul\":5669:5675   */\n      dup2\n        /* \"#utility.yul\":5664:5667   */\n      dup6\n        /* \"#utility.yul\":5606:5676   */\n      tag_318\n      jump\t// in\n    tag_447:\n        /* \"#utility.yul\":5599:5676   */\n      swap4\n      pop\n        /* \"#utility.yul\":5685:5750   */\n      tag_448\n        /* \"#utility.yul\":5743:5749   */\n      dup2\n        /* \"#utility.yul\":5738:5741   */\n      dup6\n        /* \"#utility.yul\":5731:5735   */\n      0x20\n        /* \"#utility.yul\":5724:5729   */\n      dup7\n        /* \"#utility.yul\":5720:5736   */\n      add\n        /* \"#utility.yul\":5685:5750   */\n      tag_319\n      jump\t// in\n    tag_448:\n        /* \"#utility.yul\":5775:5804   */\n      tag_449\n        /* \"#utility.yul\":5797:5803   */\n      dup2\n        /* \"#utility.yul\":5775:5804   */\n      tag_320\n      jump\t// in\n    tag_449:\n        /* \"#utility.yul\":5770:5773   */\n      dup5\n        /* \"#utility.yul\":5766:5805   */\n      add\n        /* \"#utility.yul\":5759:5805   */\n      swap2\n      pop\n        /* \"#utility.yul\":5528:5811   */\n      pop\n        /* \"#utility.yul\":5438:5811   */\n      swap3\n      swap2\n      pop\n      pop\n      jump\t// out\n        /* \"#utility.yul\":5817:6224   */\n    tag_53:\n        /* \"#utility.yul\":5950:5954   */\n      0x00\n        /* \"#utility.yul\":5988:5990   */\n      0x40\n        /* \"#utility.yul\":5977:5986   */\n      dup3\n        /* \"#utility.yul\":5973:5991   */\n      add\n        /* \"#utility.yul\":5965:5991   */\n      swap1\n      pop\n        /* \"#utility.yul\":6001:6066   */\n      tag_451\n        /* \"#utility.yul\":6063:6064   */\n      0x00\n        /* \"#utility.yul\":6052:6061   */\n      dup4\n        /* \"#utility.yul\":6048:6065   */\n      add\n        /* \"#utility.yul\":6039:6045   */\n      dup6\n        /* \"#utility.yul\":6001:6066   */\n      tag_316\n      jump\t// in\n    tag_451:\n        /* \"#utility.yul\":6113:6122   */\n      dup2\n        /* \"#utility.yul\":6107:6111   */\n      dup2\n        /* \"#utility.yul\":6103:6123   */\n      sub\n        /* \"#utility.yul\":6098:6100   */\n      0x20\n        /* \"#utility.yul\":6087:6096   */\n      dup4\n        /* \"#utility.yul\":6083:6101   */\n      add\n        /* \"#utility.yul\":6076:6124   */\n      mstore\n        /* \"#utility.yul\":6141:6217   */\n      tag_452\n        /* \"#utility.yul\":6212:6216   */\n      dup2\n        /* \"#utility.yul\":6203:6209   */\n      dup5\n        /* \"#utility.yul\":6141:6217   */\n      tag_321\n      jump\t// in\n    tag_452:\n        /* \"#utility.yul\":6133:6217   */\n      swap1\n      pop\n        /* \"#utility.yul\":5817:6224   */\n      swap4\n      swap3\n      pop\n      pop\n      pop\n      jump\t// out\n        /* \"#utility.yul\":6230:6452   */\n    tag_58:\n        /* \"#utility.yul\":6323:6327   */\n      0x00\n        /* \"#utility.yul\":6361:6363   */\n      0x20\n        /* \"#utility.yul\":6350:6359   */\n      dup3\n        /* \"#utility.yul\":6346:6364   */\n      add\n        /* \"#utility.yul\":6338:6364   */\n      swap1\n      pop\n        /* \"#utility.yul\":6374:6445   */\n      tag_454\n        /* \"#utility.yul\":6442:6443   */\n      0x00\n        /* \"#utility.yul\":6431:6440   */\n      dup4\n        /* \"#utility.yul\":6427:6444   */\n      add\n        /* \"#utility.yul\":6418:6424   */\n      dup5\n        /* \"#utility.yul\":6374:6445   */\n      tag_314\n      jump\t// in\n    tag_454:\n        /* \"#utility.yul\":6230:6452   */\n      swap3\n      swap2\n      pop\n      pop\n      jump\t// out\n        /* \"#utility.yul\":6458:6638   */\n    tag_114:\n        /* \"#utility.yul\":6506:6583   */\n      0x4e487b7100000000000000000000000000000000000000000000000000000000\n        /* \"#utility.yul\":6503:6504   */\n      0x00\n        /* \"#utility.yul\":6496:6584   */\n      mstore\n        /* \"#utility.yul\":6603:6607   */\n      0x21\n        /* \"#utility.yul\":6600:6601   */\n      0x04\n        /* \"#utility.yul\":6593:6608   */\n      mstore\n        /* \"#utility.yul\":6627:6631   */\n      0x24\n        /* \"#utility.yul\":6624:6625   */\n      0x00\n        /* \"#utility.yul\":6617:6632   */\n      revert\n        /* \"#utility.yul\":6644:6759   */\n    tag_322:\n        /* \"#utility.yul\":6727:6728   */\n      0x07\n        /* \"#utility.yul\":6720:6725   */\n      dup2\n        /* \"#utility.yul\":6717:6729   */\n      lt\n        /* \"#utility.yul\":6707:6753   */\n      tag_457\n      jumpi\n        /* \"#utility.yul\":6733:6751   */\n      tag_458\n      tag_114\n      jump\t// in\n    tag_458:\n        /* \"#utility.yul\":6707:6753   */\n    tag_457:\n        /* \"#utility.yul\":6644:6759   */\n      pop\n      jump\t// out\n        /* \"#utility.yul\":6765:6896   */\n    tag_323:\n        /* \"#utility.yul\":6812:6819   */\n      0x00\n        /* \"#utility.yul\":6841:6846   */\n      dup2\n        /* \"#utility.yul\":6830:6846   */\n      swap1\n      pop\n        /* \"#utility.yul\":6847:6890   */\n      tag_460\n        /* \"#utility.yul\":6884:6889   */\n      dup3\n        /* \"#utility.yul\":6847:6890   */\n      tag_322\n      jump\t// in\n    tag_460:\n        /* \"#utility.yul\":6765:6896   */\n      swap2\n      swap1\n      pop\n      jump\t// out\n        /* \"#utility.yul\":6902:7033   */\n    tag_324:\n        /* \"#utility.yul\":6960:6969   */\n      0x00\n        /* \"#utility.yul\":6993:7027   */\n      tag_462\n        /* \"#utility.yul\":7021:7026   */\n      dup3\n        /* \"#utility.yul\":6993:7027   */\n      tag_323\n      jump\t// in\n    tag_462:\n        /* \"#utility.yul\":6980:7027   */\n      swap1\n      pop\n        /* \"#utility.yul\":6902:7033   */\n      swap2\n      swap1\n      pop\n      jump\t// out\n        /* \"#utility.yul\":7039:7186   */\n    tag_325:\n        /* \"#utility.yul\":7134:7179   */\n      tag_464\n        /* \"#utility.yul\":7173:7178   */\n      dup2\n        /* \"#utility.yul\":7134:7179   */\n      tag_324\n      jump\t// in\n    tag_464:\n        /* \"#utility.yul\":7129:7132   */\n      dup3\n        /* \"#utility.yul\":7122:7180   */\n      mstore\n        /* \"#utility.yul\":7039:7186   */\n      pop\n      pop\n      jump\t// out\n        /* \"#utility.yul\":7192:8415   */\n    tag_64:\n        /* \"#utility.yul\":7539:7543   */\n      0x00\n        /* \"#utility.yul\":7577:7580   */\n      0x0140\n        /* \"#utility.yul\":7566:7575   */\n      dup3\n        /* \"#utility.yul\":7562:7581   */\n      add\n        /* \"#utility.yul\":7554:7581   */\n      swap1\n      pop\n        /* \"#utility.yul\":7591:7662   */\n      tag_466\n        /* \"#utility.yul\":7659:7660   */\n      0x00\n        /* \"#utility.yul\":7648:7657   */\n      dup4\n        /* \"#utility.yul\":7644:7661   */\n      add\n        /* \"#utility.yul\":7635:7641   */\n      dup14\n        /* \"#utility.yul\":7591:7662   */\n      tag_314\n      jump\t// in\n    tag_466:\n        /* \"#utility.yul\":7672:7744   */\n      tag_467\n        /* \"#utility.yul\":7740:7742   */\n      0x20\n        /* \"#utility.yul\":7729:7738   */\n      dup4\n        /* \"#utility.yul\":7725:7743   */\n      add\n        /* \"#utility.yul\":7716:7722   */\n      dup13\n        /* \"#utility.yul\":7672:7744   */\n      tag_313\n      jump\t// in\n    tag_467:\n        /* \"#utility.yul\":7754:7826   */\n      tag_468\n        /* \"#utility.yul\":7822:7824   */\n      0x40\n        /* \"#utility.yul\":7811:7820   */\n      dup4\n        /* \"#utility.yul\":7807:7825   */\n      add\n        /* \"#utility.yul\":7798:7804   */\n      dup12\n        /* \"#utility.yul\":7754:7826   */\n      tag_313\n      jump\t// in\n    tag_468:\n        /* \"#utility.yul\":7836:7908   */\n      tag_469\n        /* \"#utility.yul\":7904:7906   */\n      0x60\n        /* \"#utility.yul\":7893:7902   */\n      dup4\n        /* \"#utility.yul\":7889:7907   */\n      add\n        /* \"#utility.yul\":7880:7886   */\n      dup11\n        /* \"#utility.yul\":7836:7908   */\n      tag_314\n      jump\t// in\n    tag_469:\n        /* \"#utility.yul\":7918:7991   */\n      tag_470\n        /* \"#utility.yul\":7986:7989   */\n      0x80\n        /* \"#utility.yul\":7975:7984   */\n      dup4\n        /* \"#utility.yul\":7971:7990   */\n      add\n        /* \"#utility.yul\":7962:7968   */\n      dup10\n        /* \"#utility.yul\":7918:7991   */\n      tag_314\n      jump\t// in\n    tag_470:\n        /* \"#utility.yul\":8001:8074   */\n      tag_471\n        /* \"#utility.yul\":8069:8072   */\n      0xa0\n        /* \"#utility.yul\":8058:8067   */\n      dup4\n        /* \"#utility.yul\":8054:8073   */\n      add\n        /* \"#utility.yul\":8045:8051   */\n      dup9\n        /* \"#utility.yul\":8001:8074   */\n      tag_314\n      jump\t// in\n    tag_471:\n        /* \"#utility.yul\":8084:8157   */\n      tag_472\n        /* \"#utility.yul\":8152:8155   */\n      0xc0\n        /* \"#utility.yul\":8141:8150   */\n      dup4\n        /* \"#utility.yul\":8137:8156   */\n      add\n        /* \"#utility.yul\":8128:8134   */\n      dup8\n        /* \"#utility.yul\":8084:8157   */\n      tag_314\n      jump\t// in\n    tag_472:\n        /* \"#utility.yul\":8167:8240   */\n      tag_473\n        /* \"#utility.yul\":8235:8238   */\n      0xe0\n        /* \"#utility.yul\":8224:8233   */\n      dup4\n        /* \"#utility.yul\":8220:8239   */\n      add\n        /* \"#utility.yul\":8211:8217   */\n      dup7\n        /* \"#utility.yul\":8167:8240   */\n      tag_314\n      jump\t// in\n    tag_473:\n        /* \"#utility.yul\":8250:8317   */\n      tag_474\n        /* \"#utility.yul\":8312:8315   */\n      0x0100\n        /* \"#utility.yul\":8301:8310   */\n      dup4\n        /* \"#utility.yul\":8297:8316   */\n      add\n        /* \"#utility.yul\":8288:8294   */\n      dup6\n        /* \"#utility.yul\":8250:8317   */\n      tag_316\n      jump\t// in\n    tag_474:\n        /* \"#utility.yul\":8327:8408   */\n      tag_475\n        /* \"#utility.yul\":8403:8406   */\n      0x0120\n        /* \"#utility.yul\":8392:8401   */\n      dup4\n        /* \"#utility.yul\":8388:8407   */\n      add\n        /* \"#utility.yul\":8379:8385   */\n      dup5\n        /* \"#utility.yul\":8327:8408   */\n      tag_325\n      jump\t// in\n    tag_475:\n        /* \"#utility.yul\":7192:8415   */\n      swap12\n      swap11\n      pop\n      pop\n      pop\n      pop\n      pop\n      pop\n      pop\n      pop\n      pop\n      pop\n      pop\n      jump\t// out\n        /* \"#utility.yul\":8421:8481   */\n    tag_326:\n        /* \"#utility.yul\":8449:8452   */\n      0x00\n        /* \"#utility.yul\":8470:8475   */\n      dup2\n        /* \"#utility.yul\":8463:8475   */\n      swap1\n      pop\n        /* \"#utility.yul\":8421:8481   */\n      swap2\n      swap1\n      pop\n      jump\t// out\n        /* \"#utility.yul\":8487:8629   */\n    tag_327:\n        /* \"#utility.yul\":8537:8546   */\n      0x00\n        /* \"#utility.yul\":8570:8623   */\n      tag_478\n        /* \"#utility.yul\":8588:8622   */\n      tag_479\n        /* \"#utility.yul\":8597:8621   */\n      tag_480\n        /* \"#utility.yul\":8615:8620   */\n      dup5\n        /* \"#utility.yul\":8597:8621   */\n      tag_305\n      jump\t// in\n    tag_480:\n        /* \"#utility.yul\":8588:8622   */\n      tag_326\n      jump\t// in\n    tag_479:\n        /* \"#utility.yul\":8570:8623   */\n      tag_305\n      jump\t// in\n    tag_478:\n        /* \"#utility.yul\":8557:8623   */\n      swap1\n      pop\n        /* \"#utility.yul\":8487:8629   */\n      swap2\n      swap1\n      pop\n      jump\t// out\n        /* \"#utility.yul\":8635:8761   */\n    tag_328:\n        /* \"#utility.yul\":8685:8694   */\n      0x00\n        /* \"#utility.yul\":8718:8755   */\n      tag_482\n        /* \"#utility.yul\":8749:8754   */\n      dup3\n        /* \"#utility.yul\":8718:8755   */\n      tag_327\n      jump\t// in\n    tag_482:\n        /* \"#utility.yul\":8705:8755   */\n      swap1\n      pop\n        /* \"#utility.yul\":8635:8761   */\n      swap2\n      swap1\n      pop\n      jump\t// out\n        /* \"#utility.yul\":8767:8907   */\n    tag_329:\n        /* \"#utility.yul\":8831:8840   */\n      0x00\n        /* \"#utility.yul\":8864:8901   */\n      tag_484\n        /* \"#utility.yul\":8895:8900   */\n      dup3\n        /* \"#utility.yul\":8864:8901   */\n      tag_328\n      jump\t// in\n    tag_484:\n        /* \"#utility.yul\":8851:8901   */\n      swap1\n      pop\n        /* \"#utility.yul\":8767:8907   */\n      swap2\n      swap1\n      pop\n      jump\t// out\n        /* \"#utility.yul\":8913:9072   */\n    tag_330:\n        /* \"#utility.yul\":9014:9065   */\n      tag_486\n        /* \"#utility.yul\":9059:9064   */\n      dup2\n        /* \"#utility.yul\":9014:9065   */\n      tag_329\n      jump\t// in\n    tag_486:\n        /* \"#utility.yul\":9009:9012   */\n      dup3\n        /* \"#utility.yul\":9002:9066   */\n      mstore\n        /* \"#utility.yul\":8913:9072   */\n      pop\n      pop\n      jump\t// out\n        /* \"#utility.yul\":9078:9328   */\n    tag_69:\n        /* \"#utility.yul\":9185:9189   */\n      0x00\n        /* \"#utility.yul\":9223:9225   */\n      0x20\n        /* \"#utility.yul\":9212:9221   */\n      dup3\n        /* \"#utility.yul\":9208:9226   */\n      add\n        /* \"#utility.yul\":9200:9226   */\n      swap1\n      pop\n        /* \"#utility.yul\":9236:9321   */\n      tag_488\n        /* \"#utility.yul\":9318:9319   */\n      0x00\n        /* \"#utility.yul\":9307:9316   */\n      dup4\n        /* \"#utility.yul\":9303:9320   */\n      add\n        /* \"#utility.yul\":9294:9300   */\n      dup5\n        /* \"#utility.yul\":9236:9321   */\n      tag_330\n      jump\t// in\n    tag_488:\n        /* \"#utility.yul\":9078:9328   */\n      swap3\n      swap2\n      pop\n      pop\n      jump\t// out\n        /* \"#utility.yul\":9334:9442   */\n    tag_331:\n        /* \"#utility.yul\":9411:9435   */\n      tag_490\n        /* \"#utility.yul\":9429:9434   */\n      dup2\n        /* \"#utility.yul\":9411:9435   */\n      tag_302\n      jump\t// in\n    tag_490:\n        /* \"#utility.yul\":9406:9409   */\n      dup3\n        /* \"#utility.yul\":9399:9436   */\n      mstore\n        /* \"#utility.yul\":9334:9442   */\n      pop\n      pop\n      jump\t// out\n        /* \"#utility.yul\":9448:9556   */\n    tag_332:\n        /* \"#utility.yul\":9525:9549   */\n      tag_492\n        /* \"#utility.yul\":9543:9548   */\n      dup2\n        /* \"#utility.yul\":9525:9549   */\n      tag_306\n      jump\t// in\n    tag_492:\n        /* \"#utility.yul\":9520:9523   */\n      dup3\n        /* \"#utility.yul\":9513:9550   */\n      mstore\n        /* \"#utility.yul\":9448:9556   */\n      pop\n      pop\n      jump\t// out\n        /* \"#utility.yul\":9562:9661   */\n    tag_333:\n        /* \"#utility.yul\":9633:9654   */\n      tag_494\n        /* \"#utility.yul\":9648:9653   */\n      dup2\n        /* \"#utility.yul\":9633:9654   */\n      tag_315\n      jump\t// in\n    tag_494:\n        /* \"#utility.yul\":9628:9631   */\n      dup3\n        /* \"#utility.yul\":9621:9655   */\n      mstore\n        /* \"#utility.yul\":9562:9661   */\n      pop\n      pop\n      jump\t// out\n        /* \"#utility.yul\":9667:9804   */\n    tag_334:\n        /* \"#utility.yul\":9752:9797   */\n      tag_496\n        /* \"#utility.yul\":9791:9796   */\n      dup2\n        /* \"#utility.yul\":9752:9797   */\n      tag_324\n      jump\t// in\n    tag_496:\n        /* \"#utility.yul\":9747:9750   */\n      dup3\n        /* \"#utility.yul\":9740:9798   */\n      mstore\n        /* \"#utility.yul\":9667:9804   */\n      pop\n      pop\n      jump\t// out\n        /* \"#utility.yul\":9876:11808   */\n    tag_335:\n        /* \"#utility.yul\":10015:10021   */\n      0x0140\n        /* \"#utility.yul\":10010:10013   */\n      dup3\n        /* \"#utility.yul\":10006:10022   */\n      add\n        /* \"#utility.yul\":10102:10106   */\n      0x00\n        /* \"#utility.yul\":10095:10100   */\n      dup3\n        /* \"#utility.yul\":10091:10107   */\n      add\n        /* \"#utility.yul\":10085:10108   */\n      mload\n        /* \"#utility.yul\":10121:10184   */\n      tag_498\n        /* \"#utility.yul\":10178:10182   */\n      0x00\n        /* \"#utility.yul\":10173:10176   */\n      dup6\n        /* \"#utility.yul\":10169:10183   */\n      add\n        /* \"#utility.yul\":10155:10167   */\n      dup3\n        /* \"#utility.yul\":10121:10184   */\n      tag_331\n      jump\t// in\n    tag_498:\n        /* \"#utility.yul\":10032:10194   */\n      pop\n        /* \"#utility.yul\":10280:10284   */\n      0x20\n        /* \"#utility.yul\":10273:10278   */\n      dup3\n        /* \"#utility.yul\":10269:10285   */\n      add\n        /* \"#utility.yul\":10263:10286   */\n      mload\n        /* \"#utility.yul\":10299:10362   */\n      tag_499\n        /* \"#utility.yul\":10356:10360   */\n      0x20\n        /* \"#utility.yul\":10351:10354   */\n      dup6\n        /* \"#utility.yul\":10347:10361   */\n      add\n        /* \"#utility.yul\":10333:10345   */\n      dup3\n        /* \"#utility.yul\":10299:10362   */\n      tag_332\n      jump\t// in\n    tag_499:\n        /* \"#utility.yul\":10204:10372   */\n      pop\n        /* \"#utility.yul\":10456:10460   */\n      0x40\n        /* \"#utility.yul\":10449:10454   */\n      dup3\n        /* \"#utility.yul\":10445:10461   */\n      add\n        /* \"#utility.yul\":10439:10462   */\n      mload\n        /* \"#utility.yul\":10475:10538   */\n      tag_500\n        /* \"#utility.yul\":10532:10536   */\n      0x40\n        /* \"#utility.yul\":10527:10530   */\n      dup6\n        /* \"#utility.yul\":10523:10537   */\n      add\n        /* \"#utility.yul\":10509:10521   */\n      dup3\n        /* \"#utility.yul\":10475:10538   */\n      tag_332\n      jump\t// in\n    tag_500:\n        /* \"#utility.yul\":10382:10548   */\n      pop\n        /* \"#utility.yul\":10630:10634   */\n      0x60\n        /* \"#utility.yul\":10623:10628   */\n      dup3\n        /* \"#utility.yul\":10619:10635   */\n      add\n        /* \"#utility.yul\":10613:10636   */\n      mload\n        /* \"#utility.yul\":10649:10712   */\n      tag_501\n        /* \"#utility.yul\":10706:10710   */\n      0x60\n        /* \"#utility.yul\":10701:10704   */\n      dup6\n        /* \"#utility.yul\":10697:10711   */\n      add\n        /* \"#utility.yul\":10683:10695   */\n      dup3\n        /* \"#utility.yul\":10649:10712   */\n      tag_331\n      jump\t// in\n    tag_501:\n        /* \"#utility.yul\":10558:10722   */\n      pop\n        /* \"#utility.yul\":10807:10811   */\n      0x80\n        /* \"#utility.yul\":10800:10805   */\n      dup3\n        /* \"#utility.yul\":10796:10812   */\n      add\n        /* \"#utility.yul\":10790:10813   */\n      mload\n        /* \"#utility.yul\":10826:10889   */\n      tag_502\n        /* \"#utility.yul\":10883:10887   */\n      0x80\n        /* \"#utility.yul\":10878:10881   */\n      dup6\n        /* \"#utility.yul\":10874:10888   */\n      add\n        /* \"#utility.yul\":10860:10872   */\n      dup3\n        /* \"#utility.yul\":10826:10889   */\n      tag_331\n      jump\t// in\n    tag_502:\n        /* \"#utility.yul\":10732:10899   */\n      pop\n        /* \"#utility.yul\":10980:10984   */\n      0xa0\n        /* \"#utility.yul\":10973:10978   */\n      dup3\n        /* \"#utility.yul\":10969:10985   */\n      add\n        /* \"#utility.yul\":10963:10986   */\n      mload\n        /* \"#utility.yul\":10999:11062   */\n      tag_503\n        /* \"#utility.yul\":11056:11060   */\n      0xa0\n        /* \"#utility.yul\":11051:11054   */\n      dup6\n        /* \"#utility.yul\":11047:11061   */\n      add\n        /* \"#utility.yul\":11033:11045   */\n      dup3\n        /* \"#utility.yul\":10999:11062   */\n      tag_331\n      jump\t// in\n    tag_503:\n        /* \"#utility.yul\":10909:11072   */\n      pop\n        /* \"#utility.yul\":11159:11163   */\n      0xc0\n        /* \"#utility.yul\":11152:11157   */\n      dup3\n        /* \"#utility.yul\":11148:11164   */\n      add\n        /* \"#utility.yul\":11142:11165   */\n      mload\n        /* \"#utility.yul\":11178:11241   */\n      tag_504\n        /* \"#utility.yul\":11235:11239   */\n      0xc0\n        /* \"#utility.yul\":11230:11233   */\n      dup6\n        /* \"#utility.yul\":11226:11240   */\n      add\n        /* \"#utility.yul\":11212:11224   */\n      dup3\n        /* \"#utility.yul\":11178:11241   */\n      tag_331\n      jump\t// in\n    tag_504:\n        /* \"#utility.yul\":11082:11251   */\n      pop\n        /* \"#utility.yul\":11336:11340   */\n      0xe0\n        /* \"#utility.yul\":11329:11334   */\n      dup3\n        /* \"#utility.yul\":11325:11341   */\n      add\n        /* \"#utility.yul\":11319:11342   */\n      mload\n        /* \"#utility.yul\":11355:11418   */\n      tag_505\n        /* \"#utility.yul\":11412:11416   */\n      0xe0\n        /* \"#utility.yul\":11407:11410   */\n      dup6\n        /* \"#utility.yul\":11403:11417   */\n      add\n        /* \"#utility.yul\":11389:11401   */\n      dup3\n        /* \"#utility.yul\":11355:11418   */\n      tag_331\n      jump\t// in\n    tag_505:\n        /* \"#utility.yul\":11261:11428   */\n      pop\n        /* \"#utility.yul\":11523:11529   */\n      0x0100\n        /* \"#utility.yul\":11516:11521   */\n      dup3\n        /* \"#utility.yul\":11512:11530   */\n      add\n        /* \"#utility.yul\":11506:11531   */\n      mload\n        /* \"#utility.yul\":11544:11603   */\n      tag_506\n        /* \"#utility.yul\":11595:11601   */\n      0x0100\n        /* \"#utility.yul\":11590:11593   */\n      dup6\n        /* \"#utility.yul\":11586:11602   */\n      add\n        /* \"#utility.yul\":11572:11584   */\n      dup3\n        /* \"#utility.yul\":11544:11603   */\n      tag_333\n      jump\t// in\n    tag_506:\n        /* \"#utility.yul\":11438:11613   */\n      pop\n        /* \"#utility.yul\":11697:11703   */\n      0x0120\n        /* \"#utility.yul\":11690:11695   */\n      dup3\n        /* \"#utility.yul\":11686:11704   */\n      add\n        /* \"#utility.yul\":11680:11705   */\n      mload\n        /* \"#utility.yul\":11718:11791   */\n      tag_507\n        /* \"#utility.yul\":11783:11789   */\n      0x0120\n        /* \"#utility.yul\":11778:11781   */\n      dup6\n        /* \"#utility.yul\":11774:11790   */\n      add\n        /* \"#utility.yul\":11760:11772   */\n      dup3\n        /* \"#utility.yul\":11718:11791   */\n      tag_334\n      jump\t// in\n    tag_507:\n        /* \"#utility.yul\":11623:11801   */\n      pop\n        /* \"#utility.yul\":9984:11808   */\n      pop\n        /* \"#utility.yul\":9876:11808   */\n      pop\n      pop\n      jump\t// out\n        /* \"#utility.yul\":11814:12121   */\n    tag_87:\n        /* \"#utility.yul\":11949:11953   */\n      0x00\n        /* \"#utility.yul\":11987:11990   */\n      0x0140\n        /* \"#utility.yul\":11976:11985   */\n      dup3\n        /* \"#utility.yul\":11972:11991   */\n      add\n        /* \"#utility.yul\":11964:11991   */\n      swap1\n      pop\n        /* \"#utility.yul\":12001:12114   */\n      tag_509\n        /* \"#utility.yul\":12111:12112   */\n      0x00\n        /* \"#utility.yul\":12100:12109   */\n      dup4\n        /* \"#utility.yul\":12096:12113   */\n      add\n        /* \"#utility.yul\":12087:12093   */\n      dup5\n        /* \"#utility.yul\":12001:12114   */\n      tag_335\n      jump\t// in\n    tag_509:\n        /* \"#utility.yul\":11814:12121   */\n      swap3\n      swap2\n      pop\n      pop\n      jump\t// out\n        /* \"#utility.yul\":12127:12296   */\n    tag_336:\n        /* \"#utility.yul\":12211:12222   */\n      0x00\n        /* \"#utility.yul\":12245:12251   */\n      dup3\n        /* \"#utility.yul\":12240:12243   */\n      dup3\n        /* \"#utility.yul\":12233:12252   */\n      mstore\n        /* \"#utility.yul\":12285:12289   */\n      0x20\n        /* \"#utility.yul\":12280:12283   */\n      dup3\n        /* \"#utility.yul\":12276:12290   */\n      add\n        /* \"#utility.yul\":12261:12290   */\n      swap1\n      pop\n        /* \"#utility.yul\":12127:12296   */\n      swap3\n      swap2\n      pop\n      pop\n      jump\t// out\n        /* \"#utility.yul\":12302:12473   */\n    tag_337:\n        /* \"#utility.yul\":12442:12465   */\n      0x55534443206d75737420626520706f7369746976650000000000000000000000\n        /* \"#utility.yul\":12438:12439   */\n      0x00\n        /* \"#utility.yul\":12430:12436   */\n      dup3\n        /* \"#utility.yul\":12426:12440   */\n      add\n        /* \"#utility.yul\":12419:12466   */\n      mstore\n        /* \"#utility.yul\":12302:12473   */\n      pop\n      jump\t// out\n        /* \"#utility.yul\":12479:12845   */\n    tag_338:\n        /* \"#utility.yul\":12621:12624   */\n      0x00\n        /* \"#utility.yul\":12642:12709   */\n      tag_513\n        /* \"#utility.yul\":12706:12708   */\n      0x15\n        /* \"#utility.yul\":12701:12704   */\n      dup4\n        /* \"#utility.yul\":12642:12709   */\n      tag_336\n      jump\t// in\n    tag_513:\n        /* \"#utility.yul\":12635:12709   */\n      swap2\n      pop\n        /* \"#utility.yul\":12718:12811   */\n      tag_514\n        /* \"#utility.yul\":12807:12810   */\n      dup3\n        /* \"#utility.yul\":12718:12811   */\n      tag_337\n      jump\t// in\n    tag_514:\n        /* \"#utility.yul\":12836:12838   */\n      0x20\n        /* \"#utility.yul\":12831:12834   */\n      dup3\n        /* \"#utility.yul\":12827:12839   */\n      add\n        /* \"#utility.yul\":12820:12839   */\n      swap1\n      pop\n        /* \"#utility.yul\":12479:12845   */\n      swap2\n      swap1\n      pop\n      jump\t// out\n        /* \"#utility.yul\":12851:13270   */\n    tag_91:\n        /* \"#utility.yul\":13017:13021   */\n      0x00\n        /* \"#utility.yul\":13055:13057   */\n      0x20\n        /* \"#utility.yul\":13044:13053   */\n      dup3\n        /* \"#utility.yul\":13040:13058   */\n      add\n        /* \"#utility.yul\":13032:13058   */\n      swap1\n      pop\n        /* \"#utility.yul\":13104:13113   */\n      dup2\n        /* \"#utility.yul\":13098:13102   */\n      dup2\n        /* \"#utility.yul\":13094:13114   */\n      sub\n        /* \"#utility.yul\":13090:13091   */\n      0x00\n        /* \"#utility.yul\":13079:13088   */\n      dup4\n        /* \"#utility.yul\":13075:13092   */\n      add\n        /* \"#utility.yul\":13068:13115   */\n      mstore\n        /* \"#utility.yul\":13132:13263   */\n      tag_516\n        /* \"#utility.yul\":13258:13262   */\n      dup2\n        /* \"#utility.yul\":13132:13263   */\n      tag_338\n      jump\t// in\n    tag_516:\n        /* \"#utility.yul\":13124:13263   */\n      swap1\n      pop\n        /* \"#utility.yul\":12851:13270   */\n      swap2\n      swap1\n      pop\n      jump\t// out\n        /* \"#utility.yul\":13276:13456   */\n    tag_339:\n        /* \"#utility.yul\":13324:13401   */\n      0x4e487b7100000000000000000000000000000000000000000000000000000000\n        /* \"#utility.yul\":13321:13322   */\n      0x00\n        /* \"#utility.yul\":13314:13402   */\n      mstore\n        /* \"#utility.yul\":13421:13425   */\n      0x11\n        /* \"#utility.yul\":13418:13419   */\n      0x04\n        /* \"#utility.yul\":13411:13426   */\n      mstore\n        /* \"#utility.yul\":13445:13449   */\n      0x24\n        /* \"#utility.yul\":13442:13443   */\n      0x00\n        /* \"#utility.yul\":13435:13450   */\n      revert\n        /* \"#utility.yul\":13462:13872   */\n    tag_93:\n        /* \"#utility.yul\":13502:13509   */\n      0x00\n        /* \"#utility.yul\":13525:13545   */\n      tag_519\n        /* \"#utility.yul\":13543:13544   */\n      dup3\n        /* \"#utility.yul\":13525:13545   */\n      tag_302\n      jump\t// in\n    tag_519:\n        /* \"#utility.yul\":13520:13545   */\n      swap2\n      pop\n        /* \"#utility.yul\":13559:13579   */\n      tag_520\n        /* \"#utility.yul\":13577:13578   */\n      dup4\n        /* \"#utility.yul\":13559:13579   */\n      tag_302\n      jump\t// in\n    tag_520:\n        /* \"#utility.yul\":13554:13579   */\n      swap3\n      pop\n        /* \"#utility.yul\":13614:13615   */\n      dup3\n        /* \"#utility.yul\":13611:13612   */\n      dup3\n        /* \"#utility.yul\":13607:13616   */\n      mul\n        /* \"#utility.yul\":13636:13666   */\n      tag_521\n        /* \"#utility.yul\":13654:13665   */\n      dup2\n        /* \"#utility.yul\":13636:13666   */\n      tag_302\n      jump\t// in\n    tag_521:\n        /* \"#utility.yul\":13625:13666   */\n      swap2\n      pop\n        /* \"#utility.yul\":13815:13816   */\n      dup3\n        /* \"#utility.yul\":13806:13813   */\n      dup3\n        /* \"#utility.yul\":13802:13817   */\n      div\n        /* \"#utility.yul\":13799:13800   */\n      dup5\n        /* \"#utility.yul\":13796:13818   */\n      eq\n        /* \"#utility.yul\":13776:13777   */\n      dup4\n        /* \"#utility.yul\":13769:13778   */\n      iszero\n        /* \"#utility.yul\":13749:13832   */\n      or\n        /* \"#utility.yul\":13726:13865   */\n      tag_522\n      jumpi\n        /* \"#utility.yul\":13845:13863   */\n      tag_523\n      tag_339\n      jump\t// in\n    tag_523:\n        /* \"#utility.yul\":13726:13865   */\n    tag_522:\n        /* \"#utility.yul\":13510:13872   */\n      pop\n        /* \"#utility.yul\":13462:13872   */\n      swap3\n      swap2\n      pop\n      pop\n      jump\t// out\n        /* \"#utility.yul\":13878:14100   */\n    tag_340:\n        /* \"#utility.yul\":14018:14052   */\n      0x52657061796d656e74206d7573742062652067726561746572207468616e2055\n        /* \"#utility.yul\":14014:14015   */\n      0x00\n        /* \"#utility.yul\":14006:14012   */\n      dup3\n        /* \"#utility.yul\":14002:14016   */\n      add\n        /* \"#utility.yul\":13995:14053   */\n      mstore\n        /* \"#utility.yul\":14087:14092   */\n      0x5344430000000000000000000000000000000000000000000000000000000000\n        /* \"#utility.yul\":14082:14084   */\n      0x20\n        /* \"#utility.yul\":14074:14080   */\n      dup3\n        /* \"#utility.yul\":14070:14085   */\n      add\n        /* \"#utility.yul\":14063:14093   */\n      mstore\n        /* \"#utility.yul\":13878:14100   */\n      pop\n      jump\t// out\n        /* \"#utility.yul\":14106:14472   */\n    tag_341:\n        /* \"#utility.yul\":14248:14251   */\n      0x00\n        /* \"#utility.yul\":14269:14336   */\n      tag_526\n        /* \"#utility.yul\":14333:14335   */\n      0x23\n        /* \"#utility.yul\":14328:14331   */\n      dup4\n        /* \"#utility.yul\":14269:14336   */\n      tag_336\n      jump\t// in\n    tag_526:\n        /* \"#utility.yul\":14262:14336   */\n      swap2\n      pop\n        /* \"#utility.yul\":14345:14438   */\n      tag_527\n        /* \"#utility.yul\":14434:14437   */\n      dup3\n        /* \"#utility.yul\":14345:14438   */\n      tag_340\n      jump\t// in\n    tag_527:\n        /* \"#utility.yul\":14463:14465   */\n      0x40\n        /* \"#utility.yul\":14458:14461   */\n      dup3\n        /* \"#utility.yul\":14454:14466   */\n      add\n        /* \"#utility.yul\":14447:14466   */\n      swap1\n      pop\n        /* \"#utility.yul\":14106:14472   */\n      swap2\n      swap1\n      pop\n      jump\t// out\n        /* \"#utility.yul\":14478:14897   */\n    tag_96:\n        /* \"#utility.yul\":14644:14648   */\n      0x00\n        /* \"#utility.yul\":14682:14684   */\n      0x20\n        /* \"#utility.yul\":14671:14680   */\n      dup3\n        /* \"#utility.yul\":14667:14685   */\n      add\n        /* \"#utility.yul\":14659:14685   */\n      swap1\n      pop\n        /* \"#utility.yul\":14731:14740   */\n      dup2\n        /* \"#utility.yul\":14725:14729   */\n      dup2\n        /* \"#utility.yul\":14721:14741   */\n      sub\n        /* \"#utility.yul\":14717:14718   */\n      0x00\n        /* \"#utility.yul\":14706:14715   */\n      dup4\n        /* \"#utility.yul\":14702:14719   */\n      add\n        /* \"#utility.yul\":14695:14742   */\n      mstore\n        /* \"#utility.yul\":14759:14890   */\n      tag_529\n        /* \"#utility.yul\":14885:14889   */\n      dup2\n        /* \"#utility.yul\":14759:14890   */\n      tag_341\n      jump\t// in\n    tag_529:\n        /* \"#utility.yul\":14751:14890   */\n      swap1\n      pop\n        /* \"#utility.yul\":14478:14897   */\n      swap2\n      swap1\n      pop\n      jump\t// out\n        /* \"#utility.yul\":14903:15069   */\n    tag_342:\n        /* \"#utility.yul\":15043:15061   */\n      0x455448206d7573742062652073656e7400000000000000000000000000000000\n        /* \"#utility.yul\":15039:15040   */\n      0x00\n        /* \"#utility.yul\":15031:15037   */\n      dup3\n        /* \"#utility.yul\":15027:15041   */\n      add\n        /* \"#utility.yul\":15020:15062   */\n      mstore\n        /* \"#utility.yul\":14903:15069   */\n      pop\n      jump\t// out\n        /* \"#utility.yul\":15075:15441   */\n    tag_343:\n        /* \"#utility.yul\":15217:15220   */\n      0x00\n        /* \"#utility.yul\":15238:15305   */\n      tag_532\n        /* \"#utility.yul\":15302:15304   */\n      0x10\n        /* \"#utility.yul\":15297:15300   */\n      dup4\n        /* \"#utility.yul\":15238:15305   */\n      tag_336\n      jump\t// in\n    tag_532:\n        /* \"#utility.yul\":15231:15305   */\n      swap2\n      pop\n        /* \"#utility.yul\":15314:15407   */\n      tag_533\n        /* \"#utility.yul\":15403:15406   */\n      dup3\n        /* \"#utility.yul\":15314:15407   */\n      tag_342\n      jump\t// in\n    tag_533:\n        /* \"#utility.yul\":15432:15434   */\n      0x20\n        /* \"#utility.yul\":15427:15430   */\n      dup3\n        /* \"#utility.yul\":15423:15435   */\n      add\n        /* \"#utility.yul\":15416:15435   */\n      swap1\n      pop\n        /* \"#utility.yul\":15075:15441   */\n      swap2\n      swap1\n      pop\n      jump\t// out\n        /* \"#utility.yul\":15447:15866   */\n    tag_99:\n        /* \"#utility.yul\":15613:15617   */\n      0x00\n        /* \"#utility.yul\":15651:15653   */\n      0x20\n        /* \"#utility.yul\":15640:15649   */\n      dup3\n        /* \"#utility.yul\":15636:15654   */\n      add\n        /* \"#utility.yul\":15628:15654   */\n      swap1\n      pop\n        /* \"#utility.yul\":15700:15709   */\n      dup2\n        /* \"#utility.yul\":15694:15698   */\n      dup2\n        /* \"#utility.yul\":15690:15710   */\n      sub\n        /* \"#utility.yul\":15686:15687   */\n      0x00\n        /* \"#utility.yul\":15675:15684   */\n      dup4\n        /* \"#utility.yul\":15671:15688   */\n      add\n        /* \"#utility.yul\":15664:15711   */\n      mstore\n        /* \"#utility.yul\":15728:15859   */\n      tag_535\n        /* \"#utility.yul\":15854:15858   */\n      dup2\n        /* \"#utility.yul\":15728:15859   */\n      tag_343\n      jump\t// in\n    tag_535:\n        /* \"#utility.yul\":15720:15859   */\n      swap1\n      pop\n        /* \"#utility.yul\":15447:15866   */\n      swap2\n      swap1\n      pop\n      jump\t// out\n        /* \"#utility.yul\":15872:16052   */\n    tag_344:\n        /* \"#utility.yul\":15920:15997   */\n      0x4e487b7100000000000000000000000000000000000000000000000000000000\n        /* \"#utility.yul\":15917:15918   */\n      0x00\n        /* \"#utility.yul\":15910:15998   */\n      mstore\n        /* \"#utility.yul\":16017:16021   */\n      0x12\n        /* \"#utility.yul\":16014:16015   */\n      0x04\n        /* \"#utility.yul\":16007:16022   */\n      mstore\n        /* \"#utility.yul\":16041:16045   */\n      0x24\n        /* \"#utility.yul\":16038:16039   */\n      0x00\n        /* \"#utility.yul\":16031:16046   */\n      revert\n        /* \"#utility.yul\":16058:16243   */\n    tag_103:\n        /* \"#utility.yul\":16098:16099   */\n      0x00\n        /* \"#utility.yul\":16115:16135   */\n      tag_538\n        /* \"#utility.yul\":16133:16134   */\n      dup3\n        /* \"#utility.yul\":16115:16135   */\n      tag_302\n      jump\t// in\n    tag_538:\n        /* \"#utility.yul\":16110:16135   */\n      swap2\n      pop\n        /* \"#utility.yul\":16149:16169   */\n      tag_539\n        /* \"#utility.yul\":16167:16168   */\n      dup4\n        /* \"#utility.yul\":16149:16169   */\n      tag_302\n      jump\t// in\n    tag_539:\n        /* \"#utility.yul\":16144:16169   */\n      swap3\n      pop\n        /* \"#utility.yul\":16188:16189   */\n      dup3\n        /* \"#utility.yul\":16178:16213   */\n      tag_540\n      jumpi\n        /* \"#utility.yul\":16193:16211   */\n      tag_541\n      tag_344\n      jump\t// in\n    tag_541:\n        /* \"#utility.yul\":16178:16213   */\n    tag_540:\n        /* \"#utility.yul\":16235:16236   */\n      dup3\n        /* \"#utility.yul\":16232:16233   */\n      dup3\n        /* \"#utility.yul\":16228:16237   */\n      div\n        /* \"#utility.yul\":16223:16237   */\n      swap1\n      pop\n        /* \"#utility.yul\":16058:16243   */\n      swap3\n      swap2\n      pop\n      pop\n      jump\t// out\n        /* \"#utility.yul\":16249:16417   */\n    tag_345:\n        /* \"#utility.yul\":16389:16409   */\n      0x4e6f7420656e6f75676820455448204554480000000000000000000000000000\n        /* \"#utility.yul\":16385:16386   */\n      0x00\n        /* \"#utility.yul\":16377:16383   */\n      dup3\n        /* \"#utility.yul\":16373:16387   */\n      add\n        /* \"#utility.yul\":16366:16410   */\n      mstore\n        /* \"#utility.yul\":16249:16417   */\n      pop\n      jump\t// out\n        /* \"#utility.yul\":16423:16789   */\n    tag_346:\n        /* \"#utility.yul\":16565:16568   */\n      0x00\n        /* \"#utility.yul\":16586:16653   */\n      tag_544\n        /* \"#utility.yul\":16650:16652   */\n      0x12\n        /* \"#utility.yul\":16645:16648   */\n      dup4\n        /* \"#utility.yul\":16586:16653   */\n      tag_336\n      jump\t// in\n    tag_544:\n        /* \"#utility.yul\":16579:16653   */\n      swap2\n      pop\n        /* \"#utility.yul\":16662:16755   */\n      tag_545\n        /* \"#utility.yul\":16751:16754   */\n      dup3\n        /* \"#utility.yul\":16662:16755   */\n      tag_345\n      jump\t// in\n    tag_545:\n        /* \"#utility.yul\":16780:16782   */\n      0x20\n        /* \"#utility.yul\":16775:16778   */\n      dup3\n        /* \"#utility.yul\":16771:16783   */\n      add\n        /* \"#utility.yul\":16764:16783   */\n      swap1\n      pop\n        /* \"#utility.yul\":16423:16789   */\n      swap2\n      swap1\n      pop\n      jump\t// out\n        /* \"#utility.yul\":16795:17214   */\n    tag_109:\n        /* \"#utility.yul\":16961:16965   */\n      0x00\n        /* \"#utility.yul\":16999:17001   */\n      0x20\n        /* \"#utility.yul\":16988:16997   */\n      dup3\n        /* \"#utility.yul\":16984:17002   */\n      add\n        /* \"#utility.yul\":16976:17002   */\n      swap1\n      pop\n        /* \"#utility.yul\":17048:17057   */\n      dup2\n        /* \"#utility.yul\":17042:17046   */\n      dup2\n        /* \"#utility.yul\":17038:17058   */\n      sub\n        /* \"#utility.yul\":17034:17035   */\n      0x00\n        /* \"#utility.yul\":17023:17032   */\n      dup4\n        /* \"#utility.yul\":17019:17036   */\n      add\n        /* \"#utility.yul\":17012:17059   */\n      mstore\n        /* \"#utility.yul\":17076:17207   */\n      tag_547\n        /* \"#utility.yul\":17202:17206   */\n      dup2\n        /* \"#utility.yul\":17076:17207   */\n      tag_346\n      jump\t// in\n    tag_547:\n        /* \"#utility.yul\":17068:17207   */\n      swap1\n      pop\n        /* \"#utility.yul\":16795:17214   */\n      swap2\n      swap1\n      pop\n      jump\t// out\n        /* \"#utility.yul\":17220:17453   */\n    tag_111:\n        /* \"#utility.yul\":17259:17262   */\n      0x00\n        /* \"#utility.yul\":17282:17306   */\n      tag_549\n        /* \"#utility.yul\":17300:17305   */\n      dup3\n        /* \"#utility.yul\":17282:17306   */\n      tag_302\n      jump\t// in\n    tag_549:\n        /* \"#utility.yul\":17273:17306   */\n      swap2\n      pop\n        /* \"#utility.yul\":17328:17394   */\n      0xffffffffffffffffffffffffffffffffffffffffffffffffffffffffffffffff\n        /* \"#utility.yul\":17321:17326   */\n      dup3\n        /* \"#utility.yul\":17318:17395   */\n      sub\n        /* \"#utility.yul\":17315:17418   */\n      tag_550\n      jumpi\n        /* \"#utility.yul\":17398:17416   */\n      tag_551\n      tag_339\n      jump\t// in\n    tag_551:\n        /* \"#utility.yul\":17315:17418   */\n    tag_550:\n        /* \"#utility.yul\":17445:17446   */\n      0x01\n        /* \"#utility.yul\":17438:17443   */\n      dup3\n        /* \"#utility.yul\":17434:17447   */\n      add\n        /* \"#utility.yul\":17427:17447   */\n      swap1\n      pop\n        /* \"#utility.yul\":17220:17453   */\n      swap2\n      swap1\n      pop\n      jump\t// out\n        /* \"#utility.yul\":17459:17901   */\n    tag_118:\n        /* \"#utility.yul\":17608:17612   */\n      0x00\n        /* \"#utility.yul\":17646:17648   */\n      0x60\n        /* \"#utility.yul\":17635:17644   */\n      dup3\n        /* \"#utility.yul\":17631:17649   */\n      add\n        /* \"#utility.yul\":17623:17649   */\n      swap1\n      pop\n        /* \"#utility.yul\":17659:17730   */\n      tag_553\n        /* \"#utility.yul\":17727:17728   */\n      0x00\n        /* \"#utility.yul\":17716:17725   */\n      dup4\n        /* \"#utility.yul\":17712:17729   */\n      add\n        /* \"#utility.yul\":17703:17709   */\n      dup7\n        /* \"#utility.yul\":17659:17730   */\n      tag_314\n      jump\t// in\n    tag_553:\n        /* \"#utility.yul\":17740:17812   */\n      tag_554\n        /* \"#utility.yul\":17808:17810   */\n      0x20\n        /* \"#utility.yul\":17797:17806   */\n      dup4\n        /* \"#utility.yul\":17793:17811   */\n      add\n        /* \"#utility.yul\":17784:17790   */\n      dup6\n        /* \"#utility.yul\":17740:17812   */\n      tag_314\n      jump\t// in\n    tag_554:\n        /* \"#utility.yul\":17822:17894   */\n      tag_555\n        /* \"#utility.yul\":17890:17892   */\n      0x40\n        /* \"#utility.yul\":17879:17888   */\n      dup4\n        /* \"#utility.yul\":17875:17893   */\n      add\n        /* \"#utility.yul\":17866:17872   */\n      dup5\n        /* \"#utility.yul\":17822:17894   */\n      tag_314\n      jump\t// in\n    tag_555:\n        /* \"#utility.yul\":17459:17901   */\n      swap5\n      swap4\n      pop\n      pop\n      pop\n      pop\n      jump\t// out\n        /* \"#utility.yul\":17907:18078   */\n    tag_347:\n        /* \"#utility.yul\":18047:18070   */\n      0x52657175657374206973206e6f74206163746976650000000000000000000000\n        /* \"#utility.yul\":18043:18044   */\n      0x00\n        /* \"#utility.yul\":18035:18041   */\n      dup3\n        /* \"#utility.yul\":18031:18045   */\n      add\n        /* \"#utility.yul\":18024:18071   */\n      mstore\n        /* \"#utility.yul\":17907:18078   */\n      pop\n      jump\t// out\n        /* \"#utility.yul\":18084:18450   */\n    tag_348:\n        /* \"#utility.yul\":18226:18229   */\n      0x00\n        /* \"#utility.yul\":18247:18314   */\n      tag_558\n        /* \"#utility.yul\":18311:18313   */\n      0x15\n        /* \"#utility.yul\":18306:18309   */\n      dup4\n        /* \"#utility.yul\":18247:18314   */\n      tag_336\n      jump\t// in\n    tag_558:\n        /* \"#utility.yul\":18240:18314   */\n      swap2\n      pop\n        /* \"#utility.yul\":18323:18416   */\n      tag_559\n        /* \"#utility.yul\":18412:18415   */\n      dup3\n        /* \"#utility.yul\":18323:18416   */\n      tag_347\n      jump\t// in\n    tag_559:\n        /* \"#utility.yul\":18441:18443   */\n      0x20\n        /* \"#utility.yul\":18436:18439   */\n      dup3\n        /* \"#utility.yul\":18432:18444   */\n      add\n        /* \"#utility.yul\":18425:18444   */\n      swap1\n      pop\n        /* \"#utility.yul\":18084:18450   */\n      swap2\n      swap1\n      pop\n      jump\t// out\n        /* \"#utility.yul\":18456:18875   */\n    tag_126:\n        /* \"#utility.yul\":18622:18626   */\n      0x00\n        /* \"#utility.yul\":18660:18662   */\n      0x20\n        /* \"#utility.yul\":18649:18658   */\n      dup3\n        /* \"#utility.yul\":18645:18663   */\n      add\n        /* \"#utility.yul\":18637:18663   */\n      swap1\n      pop\n        /* \"#utility.yul\":18709:18718   */\n      dup2\n        /* \"#utility.yul\":18703:18707   */\n      dup2\n        /* \"#utility.yul\":18699:18719   */\n      sub\n        /* \"#utility.yul\":18695:18696   */\n      0x00\n        /* \"#utility.yul\":18684:18693   */\n      dup4\n        /* \"#utility.yul\":18680:18697   */\n      add\n        /* \"#utility.yul\":18673:18720   */\n      mstore\n        /* \"#utility.yul\":18737:18868   */\n      tag_561\n        /* \"#utility.yul\":18863:18867   */\n      dup2\n        /* \"#utility.yul\":18737:18868   */\n      tag_348\n      jump\t// in\n    tag_561:\n        /* \"#utility.yul\":18729:18868   */\n      swap1\n      pop\n        /* \"#utility.yul\":18456:18875   */\n      swap2\n      swap1\n      pop\n      jump\t// out\n        /* \"#utility.yul\":18881:19106   */\n    tag_349:\n        /* \"#utility.yul\":19021:19055   */\n      0x426f72726f7765722063616e6e6f742066756e64207468656972206f776e2072\n        /* \"#utility.yul\":19017:19018   */\n      0x00\n        /* \"#utility.yul\":19009:19015   */\n      dup3\n        /* \"#utility.yul\":19005:19019   */\n      add\n        /* \"#utility.yul\":18998:19056   */\n      mstore\n        /* \"#utility.yul\":19090:19098   */\n      0x6571756573740000000000000000000000000000000000000000000000000000\n        /* \"#utility.yul\":19085:19087   */\n      0x20\n        /* \"#utility.yul\":19077:19083   */\n      dup3\n        /* \"#utility.yul\":19073:19088   */\n      add\n        /* \"#utility.yul\":19066:19099   */\n      mstore\n        /* \"#utility.yul\":18881:19106   */\n      pop\n      jump\t// out\n        /* \"#utility.yul\":19112:19478   */\n    tag_350:\n        /* \"#utility.yul\":19254:19257   */\n      0x00\n        /* \"#utility.yul\":19275:19342   */\n      tag_564\n        /* \"#utility.yul\":19339:19341   */\n      0x26\n        /* \"#utility.yul\":19334:19337   */\n      dup4\n        /* \"#utility.yul\":19275:19342   */\n      tag_336\n      jump\t// in\n    tag_564:\n        /* \"#utility.yul\":19268:19342   */\n      swap2\n      pop\n        /* \"#utility.yul\":19351:19444   */\n      tag_565\n        /* \"#utility.yul\":19440:19443   */\n      dup3\n        /* \"#utility.yul\":19351:19444   */\n      tag_349\n      jump\t// in\n    tag_565:\n        /* \"#utility.yul\":19469:19471   */\n      0x40\n        /* \"#utility.yul\":19464:19467   */\n      dup3\n        /* \"#utility.yul\":19460:19472   */\n      add\n        /* \"#utility.yul\":19453:19472   */\n      swap1\n      pop\n        /* \"#utility.yul\":19112:19478   */\n      swap2\n      swap1\n      pop\n      jump\t// out\n        /* \"#utility.yul\":19484:19903   */\n    tag_129:\n        /* \"#utility.yul\":19650:19654   */\n      0x00\n        /* \"#utility.yul\":19688:19690   */\n      0x20\n        /* \"#utility.yul\":19677:19686   */\n      dup3\n        /* \"#utility.yul\":19673:19691   */\n      add\n        /* \"#utility.yul\":19665:19691   */\n      swap1\n      pop\n        /* \"#utility.yul\":19737:19746   */\n      dup2\n        /* \"#utility.yul\":19731:19735   */\n      dup2\n        /* \"#utility.yul\":19727:19747   */\n      sub\n        /* \"#utility.yul\":19723:19724   */\n      0x00\n        /* \"#utility.yul\":19712:19721   */\n      dup4\n        /* \"#utility.yul\":19708:19725   */\n      add\n        /* \"#utility.yul\":19701:19748   */\n      mstore\n        /* \"#utility.yul\":19765:19896   */\n      tag_567\n        /* \"#utility.yul\":19891:19895   */\n      dup2\n        /* \"#utility.yul\":19765:19896   */\n      tag_350\n      jump\t// in\n    tag_567:\n        /* \"#utility.yul\":19757:19896   */\n      swap1\n      pop\n        /* \"#utility.yul\":19484:19903   */\n      swap2\n      swap1\n      pop\n      jump\t// out\n        /* \"#utility.yul\":19909:20241   */\n    tag_131:\n        /* \"#utility.yul\":20030:20034   */\n      0x00\n        /* \"#utility.yul\":20068:20070   */\n      0x40\n        /* \"#utility.yul\":20057:20066   */\n      dup3\n        /* \"#utility.yul\":20053:20071   */\n      add\n        /* \"#utility.yul\":20045:20071   */\n      swap1\n      pop\n        /* \"#utility.yul\":20081:20152   */\n      tag_569\n        /* \"#utility.yul\":20149:20150   */\n      0x00\n        /* \"#utility.yul\":20138:20147   */\n      dup4\n        /* \"#utility.yul\":20134:20151   */\n      add\n        /* \"#utility.yul\":20125:20131   */\n      dup6\n        /* \"#utility.yul\":20081:20152   */\n      tag_313\n      jump\t// in\n    tag_569:\n        /* \"#utility.yul\":20162:20234   */\n      tag_570\n        /* \"#utility.yul\":20230:20232   */\n      0x20\n        /* \"#utility.yul\":20219:20228   */\n      dup4\n        /* \"#utility.yul\":20215:20233   */\n      add\n        /* \"#utility.yul\":20206:20212   */\n      dup5\n        /* \"#utility.yul\":20162:20234   */\n      tag_313\n      jump\t// in\n    tag_570:\n        /* \"#utility.yul\":19909:20241   */\n      swap4\n      swap3\n      pop\n      pop\n      pop\n      jump\t// out\n        /* \"#utility.yul\":20247:20390   */\n    tag_351:\n        /* \"#utility.yul\":20304:20309   */\n      0x00\n        /* \"#utility.yul\":20335:20341   */\n      dup2\n        /* \"#utility.yul\":20329:20342   */\n      mload\n        /* \"#utility.yul\":20320:20342   */\n      swap1\n      pop\n        /* \"#utility.yul\":20351:20384   */\n      tag_572\n        /* \"#utility.yul\":20378:20383   */\n      dup2\n        /* \"#utility.yul\":20351:20384   */\n      tag_303\n      jump\t// in\n    tag_572:\n        /* \"#utility.yul\":20247:20390   */\n      swap3\n      swap2\n      pop\n      pop\n      jump\t// out\n        /* \"#utility.yul\":20396:20747   */\n    tag_135:\n        /* \"#utility.yul\":20466:20472   */\n      0x00\n        /* \"#utility.yul\":20515:20517   */\n      0x20\n        /* \"#utility.yul\":20503:20512   */\n      dup3\n        /* \"#utility.yul\":20494:20501   */\n      dup5\n        /* \"#utility.yul\":20490:20513   */\n      sub\n        /* \"#utility.yul\":20486:20518   */\n      slt\n        /* \"#utility.yul\":20483:20602   */\n      iszero\n      tag_574\n      jumpi\n        /* \"#utility.yul\":20521:20600   */\n      tag_575\n      tag_300\n      jump\t// in\n    tag_575:\n        /* \"#utility.yul\":20483:20602   */\n    tag_574:\n        /* \"#utility.yul\":20641:20642   */\n      0x00\n        /* \"#utility.yul\":20666:20730   */\n      tag_576\n        /* \"#utility.yul\":20722:20729   */\n      dup5\n        /* \"#utility.yul\":20713:20719   */\n      dup3\n        /* \"#utility.yul\":20702:20711   */\n      dup6\n        /* \"#utility.yul\":20698:20720   */\n      add\n        /* \"#utility.yul\":20666:20730   */\n      tag_351\n      jump\t// in\n    tag_576:\n        /* \"#utility.yul\":20656:20730   */\n      swap2\n      pop\n        /* \"#utility.yul\":20612:20740   */\n      pop\n        /* \"#utility.yul\":20396:20747   */\n      swap3\n      swap2\n      pop\n      pop\n      jump\t// out\n        /* \"#utility.yul\":20753:20928   */\n    tag_352:\n        /* \"#utility.yul\":20893:20920   */\n      0x4e6f7420656e6f756768205553445420616c6c6f77616e636500000000000000\n        /* \"#utility.yul\":20889:20890   */\n      0x00\n        /* \"#utility.yul\":20881:20887   */\n      dup3\n        /* \"#utility.yul\":20877:20891   */\n      add\n        /* \"#utility.yul\":20870:20921   */\n      mstore\n        /* \"#utility.yul\":20753:20928   */\n      pop\n      jump\t// out\n        /* \"#utility.yul\":20934:21300   */\n    tag_353:\n        /* \"#utility.yul\":21076:21079   */\n      0x00\n        /* \"#utility.yul\":21097:21164   */\n      tag_579\n        /* \"#utility.yul\":21161:21163   */\n      0x19\n        /* \"#utility.yul\":21156:21159   */\n      dup4\n        /* \"#utility.yul\":21097:21164   */\n      tag_336\n      jump\t// in\n    tag_579:\n        /* \"#utility.yul\":21090:21164   */\n      swap2\n      pop\n        /* \"#utility.yul\":21173:21266   */\n      tag_580\n        /* \"#utility.yul\":21262:21265   */\n      dup3\n        /* \"#utility.yul\":21173:21266   */\n      tag_352\n      jump\t// in\n    tag_580:\n        /* \"#utility.yul\":21291:21293   */\n      0x20\n        /* \"#utility.yul\":21286:21289   */\n      dup3\n        /* \"#utility.yul\":21282:21294   */\n      add\n        /* \"#utility.yul\":21275:21294   */\n      swap1\n      pop\n        /* \"#utility.yul\":20934:21300   */\n      swap2\n      swap1\n      pop\n      jump\t// out\n        /* \"#utility.yul\":21306:21725   */\n    tag_138:\n        /* \"#utility.yul\":21472:21476   */\n      0x00\n        /* \"#utility.yul\":21510:21512   */\n      0x20\n        /* \"#utility.yul\":21499:21508   */\n      dup3\n        /* \"#utility.yul\":21495:21513   */\n      add\n        /* \"#utility.yul\":21487:21513   */\n      swap1\n      pop\n        /* \"#utility.yul\":21559:21568   */\n      dup2\n        /* \"#utility.yul\":21553:21557   */\n      dup2\n        /* \"#utility.yul\":21549:21569   */\n      sub\n        /* \"#utility.yul\":21545:21546   */\n      0x00\n        /* \"#utility.yul\":21534:21543   */\n      dup4\n        /* \"#utility.yul\":21530:21547   */\n      add\n        /* \"#utility.yul\":21523:21570   */\n      mstore\n        /* \"#utility.yul\":21587:21718   */\n      tag_582\n        /* \"#utility.yul\":21713:21717   */\n      dup2\n        /* \"#utility.yul\":21587:21718   */\n      tag_353\n      jump\t// in\n    tag_582:\n        /* \"#utility.yul\":21579:21718   */\n      swap1\n      pop\n        /* \"#utility.yul\":21306:21725   */\n      swap2\n      swap1\n      pop\n      jump\t// out\n        /* \"#utility.yul\":21731:22173   */\n    tag_140:\n        /* \"#utility.yul\":21880:21884   */\n      0x00\n        /* \"#utility.yul\":21918:21920   */\n      0x60\n        /* \"#utility.yul\":21907:21916   */\n      dup3\n        /* \"#utility.yul\":21903:21921   */\n      add\n        /* \"#utility.yul\":21895:21921   */\n      swap1\n      pop\n        /* \"#utility.yul\":21931:22002   */\n      tag_584\n        /* \"#utility.yul\":21999:22000   */\n      0x00\n        /* \"#utility.yul\":21988:21997   */\n      dup4\n        /* \"#utility.yul\":21984:22001   */\n      add\n        /* \"#utility.yul\":21975:21981   */\n      dup7\n        /* \"#utility.yul\":21931:22002   */\n      tag_313\n      jump\t// in\n    tag_584:\n        /* \"#utility.yul\":22012:22084   */\n      tag_585\n        /* \"#utility.yul\":22080:22082   */\n      0x20\n        /* \"#utility.yul\":22069:22078   */\n      dup4\n        /* \"#utility.yul\":22065:22083   */\n      add\n        /* \"#utility.yul\":22056:22062   */\n      dup6\n        /* \"#utility.yul\":22012:22084   */\n      tag_313\n      jump\t// in\n    tag_585:\n        /* \"#utility.yul\":22094:22166   */\n      tag_586\n        /* \"#utility.yul\":22162:22164   */\n      0x40\n        /* \"#utility.yul\":22151:22160   */\n      dup4\n        /* \"#utility.yul\":22147:22165   */\n      add\n        /* \"#utility.yul\":22138:22144   */\n      dup5\n        /* \"#utility.yul\":22094:22166   */\n      tag_314\n      jump\t// in\n    tag_586:\n        /* \"#utility.yul\":21731:22173   */\n      swap5\n      swap4\n      pop\n      pop\n      pop\n      pop\n      jump\t// out\n        /* \"#utility.yul\":22179:22295   */\n    tag_354:\n        /* \"#utility.yul\":22249:22270   */\n      tag_588\n        /* \"#utility.yul\":22264:22269   */\n      dup2\n        /* \"#utility.yul\":22249:22270   */\n      tag_315\n      jump\t// in\n    tag_588:\n        /* \"#utility.yul\":22242:22247   */\n      dup2\n        /* \"#utility.yul\":22239:22271   */\n      eq\n        /* \"#utility.yul\":22229:22289   */\n      tag_589\n      jumpi\n        /* \"#utility.yul\":22285:22286   */\n      0x00\n        /* \"#utility.yul\":22282:22283   */\n      0x00\n        /* \"#utility.yul\":22275:22287   */\n      revert\n        /* \"#utility.yul\":22229:22289   */\n    tag_589:\n        /* \"#utility.yul\":22179:22295   */\n      pop\n      jump\t// out\n        /* \"#utility.yul\":22301:22438   */\n    tag_355:\n        /* \"#utility.yul\":22355:22360   */\n      0x00\n        /* \"#utility.yul\":22386:22392   */\n      dup2\n        /* \"#utility.yul\":22380:22393   */\n      mload\n        /* \"#utility.yul\":22371:22393   */\n      swap1\n      pop\n        /* \"#utility.yul\":22402:22432   */\n      tag_591\n        /* \"#utility.yul\":22426:22431   */\n      dup2\n        /* \"#utility.yul\":22402:22432   */\n      tag_354\n      jump\t// in\n    tag_591:\n        /* \"#utility.yul\":22301:22438   */\n      swap3\n      swap2\n      pop\n      pop\n      jump\t// out\n        /* \"#utility.yul\":22444:22789   */\n    tag_144:\n        /* \"#utility.yul\":22511:22517   */\n      0x00\n        /* \"#utility.yul\":22560:22562   */\n      0x20\n        /* \"#utility.yul\":22548:22557   */\n      dup3\n        /* \"#utility.yul\":22539:22546   */\n      dup5\n        /* \"#utility.yul\":22535:22558   */\n      sub\n        /* \"#utility.yul\":22531:22563   */\n      slt\n        /* \"#utility.yul\":22528:22647   */\n      iszero\n      tag_593\n      jumpi\n        /* \"#utility.yul\":22566:22645   */\n      tag_594\n      tag_300\n      jump\t// in\n    tag_594:\n        /* \"#utility.yul\":22528:22647   */\n    tag_593:\n        /* \"#utility.yul\":22686:22687   */\n      0x00\n        /* \"#utility.yul\":22711:22772   */\n      tag_595\n        /* \"#utility.yul\":22764:22771   */\n      dup5\n        /* \"#utility.yul\":22755:22761   */\n      dup3\n        /* \"#utility.yul\":22744:22753   */\n      dup6\n        /* \"#utility.yul\":22740:22762   */\n      add\n        /* \"#utility.yul\":22711:22772   */\n      tag_355\n      jump\t// in\n    tag_595:\n        /* \"#utility.yul\":22701:22772   */\n      swap2\n      pop\n        /* \"#utility.yul\":22657:22782   */\n      pop\n        /* \"#utility.yul\":22444:22789   */\n      swap3\n      swap2\n      pop\n      pop\n      jump\t// out\n        /* \"#utility.yul\":22795:22975   */\n    tag_151:\n        /* \"#utility.yul\":22843:22920   */\n      0x4e487b7100000000000000000000000000000000000000000000000000000000\n        /* \"#utility.yul\":22840:22841   */\n      0x00\n        /* \"#utility.yul\":22833:22921   */\n      mstore\n        /* \"#utility.yul\":22940:22944   */\n      0x32\n        /* \"#utility.yul\":22937:22938   */\n      0x04\n        /* \"#utility.yul\":22930:22945   */\n      mstore\n        /* \"#utility.yul\":22964:22968   */\n      0x24\n        /* \"#utility.yul\":22961:22962   */\n      0x00\n        /* \"#utility.yul\":22954:22969   */\n      revert\n        /* \"#utility.yul\":22981:23175   */\n    tag_170:\n        /* \"#utility.yul\":23021:23025   */\n      0x00\n        /* \"#utility.yul\":23041:23061   */\n      tag_598\n        /* \"#utility.yul\":23059:23060   */\n      dup3\n        /* \"#utility.yul\":23041:23061   */\n      tag_302\n      jump\t// in\n    tag_598:\n        /* \"#utility.yul\":23036:23061   */\n      swap2\n      pop\n        /* \"#utility.yul\":23075:23095   */\n      tag_599\n        /* \"#utility.yul\":23093:23094   */\n      dup4\n        /* \"#utility.yul\":23075:23095   */\n      tag_302\n      jump\t// in\n    tag_599:\n        /* \"#utility.yul\":23070:23095   */\n      swap3\n      pop\n        /* \"#utility.yul\":23119:23120   */\n      dup3\n        /* \"#utility.yul\":23116:23117   */\n      dup3\n        /* \"#utility.yul\":23112:23121   */\n      sub\n        /* \"#utility.yul\":23104:23121   */\n      swap1\n      pop\n        /* \"#utility.yul\":23143:23144   */\n      dup2\n        /* \"#utility.yul\":23137:23141   */\n      dup2\n        /* \"#utility.yul\":23134:23145   */\n      gt\n        /* \"#utility.yul\":23131:23168   */\n      iszero\n      tag_600\n      jumpi\n        /* \"#utility.yul\":23148:23166   */\n      tag_601\n      tag_339\n      jump\t// in\n    tag_601:\n        /* \"#utility.yul\":23131:23168   */\n    tag_600:\n        /* \"#utility.yul\":22981:23175   */\n      swap3\n      swap2\n      pop\n      pop\n      jump\t// out\n        /* \"#utility.yul\":23181:23361   */\n    tag_179:\n        /* \"#utility.yul\":23229:23306   */\n      0x4e487b7100000000000000000000000000000000000000000000000000000000\n        /* \"#utility.yul\":23226:23227   */\n      0x00\n        /* \"#utility.yul\":23219:23307   */\n      mstore\n        /* \"#utility.yul\":23326:23330   */\n      0x31\n        /* \"#utility.yul\":23323:23324   */\n      0x04\n        /* \"#utility.yul\":23316:23331   */\n      mstore\n        /* \"#utility.yul\":23350:23354   */\n      0x24\n        /* \"#utility.yul\":23347:23348   */\n      0x00\n        /* \"#utility.yul\":23340:23355   */\n      revert\n        /* \"#utility.yul\":23367:23547   */\n    tag_356:\n        /* \"#utility.yul\":23507:23539   */\n      0x43616e206f6e6c792063616e63656c20612050656e64696e67206465616c0000\n        /* \"#utility.yul\":23503:23504   */\n      0x00\n        /* \"#utility.yul\":23495:23501   */\n      dup3\n        /* \"#utility.yul\":23491:23505   */\n      add\n        /* \"#utility.yul\":23484:23540   */\n      mstore\n        /* \"#utility.yul\":23367:23547   */\n      pop\n      jump\t// out\n        /* \"#utility.yul\":23553:23919   */\n    tag_357:\n        /* \"#utility.yul\":23695:23698   */\n      0x00\n        /* \"#utility.yul\":23716:23783   */\n      tag_605\n        /* \"#utility.yul\":23780:23782   */\n      0x1e\n        /* \"#utility.yul\":23775:23778   */\n      dup4\n        /* \"#utility.yul\":23716:23783   */\n      tag_336\n      jump\t// in\n    tag_605:\n        /* \"#utility.yul\":23709:23783   */\n      swap2\n      pop\n        /* \"#utility.yul\":23792:23885   */\n      tag_606\n        /* \"#utility.yul\":23881:23884   */\n      dup3\n        /* \"#utility.yul\":23792:23885   */\n      tag_356\n      jump\t// in\n    tag_606:\n        /* \"#utility.yul\":23910:23912   */\n      0x20\n        /* \"#utility.yul\":23905:23908   */\n      dup3\n        /* \"#utility.yul\":23901:23913   */\n      add\n        /* \"#utility.yul\":23894:23913   */\n      swap1\n      pop\n        /* \"#utility.yul\":23553:23919   */\n      swap2\n      swap1\n      pop\n      jump\t// out\n        /* \"#utility.yul\":23925:24344   */\n    tag_188:\n        /* \"#utility.yul\":24091:24095   */\n      0x00\n        /* \"#utility.yul\":24129:24131   */\n      0x20\n        /* \"#utility.yul\":24118:24127   */\n      dup3\n        /* \"#utility.yul\":24114:24132   */\n      add\n        /* \"#utility.yul\":24106:24132   */\n      swap1\n      pop\n        /* \"#utility.yul\":24178:24187   */\n      dup2\n        /* \"#utility.yul\":24172:24176   */\n      dup2\n        /* \"#utility.yul\":24168:24188   */\n      sub\n        /* \"#utility.yul\":24164:24165   */\n      0x00\n        /* \"#utility.yul\":24153:24162   */\n      dup4\n        /* \"#utility.yul\":24149:24166   */\n      add\n        /* \"#utility.yul\":24142:24189   */\n      mstore\n        /* \"#utility.yul\":24206:24337   */\n      tag_608\n        /* \"#utility.yul\":24332:24336   */\n      dup2\n        /* \"#utility.yul\":24206:24337   */\n      tag_357\n      jump\t// in\n    tag_608:\n        /* \"#utility.yul\":24198:24337   */\n      swap1\n      pop\n        /* \"#utility.yul\":23925:24344   */\n      swap2\n      swap1\n      pop\n      jump\t// out\n        /* \"#utility.yul\":24350:24523   */\n    tag_358:\n        /* \"#utility.yul\":24490:24515   */\n      0x4f6e6c7920706172746965732063616e2063616e63656c000000000000000000\n        /* \"#utility.yul\":24486:24487   */\n      0x00\n        /* \"#utility.yul\":24478:24484   */\n      dup3\n        /* \"#utility.yul\":24474:24488   */\n      add\n        /* \"#utility.yul\":24467:24516   */\n      mstore\n        /* \"#utility.yul\":24350:24523   */\n      pop\n      jump\t// out\n        /* \"#utility.yul\":24529:24895   */\n    tag_359:\n        /* \"#utility.yul\":24671:24674   */\n      0x00\n        /* \"#utility.yul\":24692:24759   */\n      tag_611\n        /* \"#utility.yul\":24756:24758   */\n      0x17\n        /* \"#utility.yul\":24751:24754   */\n      dup4\n        /* \"#utility.yul\":24692:24759   */\n      tag_336\n      jump\t// in\n    tag_611:\n        /* \"#utility.yul\":24685:24759   */\n      swap2\n      pop\n        /* \"#utility.yul\":24768:24861   */\n      tag_612\n        /* \"#utility.yul\":24857:24860   */\n      dup3\n        /* \"#utility.yul\":24768:24861   */\n      tag_358\n      jump\t// in\n    tag_612:\n        /* \"#utility.yul\":24886:24888   */\n      0x20\n        /* \"#utility.yul\":24881:24884   */\n      dup3\n        /* \"#utility.yul\":24877:24889   */\n      add\n        /* \"#utility.yul\":24870:24889   */\n      swap1\n      pop\n        /* \"#utility.yul\":24529:24895   */\n      swap2\n      swap1\n      pop\n      jump\t// out\n        /* \"#utility.yul\":24901:25320   */\n    tag_191:\n        /* \"#utility.yul\":25067:25071   */\n      0x00\n        /* \"#utility.yul\":25105:25107   */\n      0x20\n        /* \"#utility.yul\":25094:25103   */\n      dup3\n        /* \"#utility.yul\":25090:25108   */\n      add\n        /* \"#utility.yul\":25082:25108   */\n      swap1\n      pop\n        /* \"#utility.yul\":25154:25163   */\n      dup2\n        /* \"#utility.yul\":25148:25152   */\n      dup2\n        /* \"#utility.yul\":25144:25164   */\n      sub\n        /* \"#utility.yul\":25140:25141   */\n      0x00\n        /* \"#utility.yul\":25129:25138   */\n      dup4\n        /* \"#utility.yul\":25125:25142   */\n      add\n        /* \"#utility.yul\":25118:25165   */\n      mstore\n        /* \"#utility.yul\":25182:25313   */\n      tag_614\n        /* \"#utility.yul\":25308:25312   */\n      dup2\n        /* \"#utility.yul\":25182:25313   */\n      tag_359\n      jump\t// in\n    tag_614:\n        /* \"#utility.yul\":25174:25313   */\n      swap1\n      pop\n        /* \"#utility.yul\":24901:25320   */\n      swap2\n      swap1\n      pop\n      jump\t// out\n        /* \"#utility.yul\":25326:25500   */\n    tag_360:\n        /* \"#utility.yul\":25466:25492   */\n      0x4f6e6c7920626f72726f7765722063616e2063616e63656c0000000000000000\n        /* \"#utility.yul\":25462:25463   */\n      0x00\n        /* \"#utility.yul\":25454:25460   */\n      dup3\n        /* \"#utility.yul\":25450:25464   */\n      add\n        /* \"#utility.yul\":25443:25493   */\n      mstore\n        /* \"#utility.yul\":25326:25500   */\n      pop\n      jump\t// out\n        /* \"#utility.yul\":25506:25872   */\n    tag_361:\n        /* \"#utility.yul\":25648:25651   */\n      0x00\n        /* \"#utility.yul\":25669:25736   */\n      tag_617\n        /* \"#utility.yul\":25733:25735   */\n      0x18\n        /* \"#utility.yul\":25728:25731   */\n      dup4\n        /* \"#utility.yul\":25669:25736   */\n      tag_336\n      jump\t// in\n    tag_617:\n        /* \"#utility.yul\":25662:25736   */\n      swap2\n      pop\n        /* \"#utility.yul\":25745:25838   */\n      tag_618\n        /* \"#utility.yul\":25834:25837   */\n      dup3\n        /* \"#utility.yul\":25745:25838   */\n      tag_360\n      jump\t// in\n    tag_618:\n        /* \"#utility.yul\":25863:25865   */\n      0x20\n        /* \"#utility.yul\":25858:25861   */\n      dup3\n        /* \"#utility.yul\":25854:25866   */\n      add\n        /* \"#utility.yul\":25847:25866   */\n      swap1\n      pop\n        /* \"#utility.yul\":25506:25872   */\n      swap2\n      swap1\n      pop\n      jump\t// out\n        /* \"#utility.yul\":25878:26297   */\n    tag_202:\n        /* \"#utility.yul\":26044:26048   */\n      0x00\n        /* \"#utility.yul\":26082:26084   */\n      0x20\n        /* \"#utility.yul\":26071:26080   */\n      dup3\n        /* \"#utility.yul\":26067:26085   */\n      add\n        /* \"#utility.yul\":26059:26085   */\n      swap1\n      pop\n        /* \"#utility.yul\":26131:26140   */\n      dup2\n        /* \"#utility.yul\":26125:26129   */\n      dup2\n        /* \"#utility.yul\":26121:26141   */\n      sub\n        /* \"#utility.yul\":26117:26118   */\n      0x00\n        /* \"#utility.yul\":26106:26115   */\n      dup4\n        /* \"#utility.yul\":26102:26119   */\n      add\n        /* \"#utility.yul\":26095:26142   */\n      mstore\n        /* \"#utility.yul\":26159:26290   */\n      tag_620\n        /* \"#utility.yul\":26285:26289   */\n      dup2\n        /* \"#utility.yul\":26159:26290   */\n      tag_361\n      jump\t// in\n    tag_620:\n        /* \"#utility.yul\":26151:26290   */\n      swap1\n      pop\n        /* \"#utility.yul\":25878:26297   */\n      swap2\n      swap1\n      pop\n      jump\t// out\n        /* \"#utility.yul\":26303:26481   */\n    tag_362:\n        /* \"#utility.yul\":26443:26473   */\n      0x4c6f616e206973206e6f7420696e2066756e64696e6720737461746500000000\n        /* \"#utility.yul\":26439:26440   */\n      0x00\n        /* \"#utility.yul\":26431:26437   */\n      dup3\n        /* \"#utility.yul\":26427:26441   */\n      add\n        /* \"#utility.yul\":26420:26474   */\n      mstore\n        /* \"#utility.yul\":26303:26481   */\n      pop\n      jump\t// out\n        /* \"#utility.yul\":26487:26853   */\n    tag_363:\n        /* \"#utility.yul\":26629:26632   */\n      0x00\n        /* \"#utility.yul\":26650:26717   */\n      tag_623\n        /* \"#utility.yul\":26714:26716   */\n      0x1c\n        /* \"#utility.yul\":26709:26712   */\n      dup4\n        /* \"#utility.yul\":26650:26717   */\n      tag_336\n      jump\t// in\n    tag_623:\n        /* \"#utility.yul\":26643:26717   */\n      swap2\n      pop\n        /* \"#utility.yul\":26726:26819   */\n      tag_624\n        /* \"#utility.yul\":26815:26818   */\n      dup3\n        /* \"#utility.yul\":26726:26819   */\n      tag_362\n      jump\t// in\n    tag_624:\n        /* \"#utility.yul\":26844:26846   */\n      0x20\n        /* \"#utility.yul\":26839:26842   */\n      dup3\n        /* \"#utility.yul\":26835:26847   */\n      add\n        /* \"#utility.yul\":26828:26847   */\n      swap1\n      pop\n        /* \"#utility.yul\":26487:26853   */\n      swap2\n      swap1\n      pop\n      jump\t// out\n        /* \"#utility.yul\":26859:27278   */\n    tag_214:\n        /* \"#utility.yul\":27025:27029   */\n      0x00\n        /* \"#utility.yul\":27063:27065   */\n      0x20\n        /* \"#utility.yul\":27052:27061   */\n      dup3\n        /* \"#utility.yul\":27048:27066   */\n      add\n        /* \"#utility.yul\":27040:27066   */\n      swap1\n      pop\n        /* \"#utility.yul\":27112:27121   */\n      dup2\n        /* \"#utility.yul\":27106:27110   */\n      dup2\n        /* \"#utility.yul\":27102:27122   */\n      sub\n        /* \"#utility.yul\":27098:27099   */\n      0x00\n        /* \"#utility.yul\":27087:27096   */\n      dup4\n        /* \"#utility.yul\":27083:27100   */\n      add\n        /* \"#utility.yul\":27076:27123   */\n      mstore\n        /* \"#utility.yul\":27140:27271   */\n      tag_626\n        /* \"#utility.yul\":27266:27270   */\n      dup2\n        /* \"#utility.yul\":27140:27271   */\n      tag_363\n      jump\t// in\n    tag_626:\n        /* \"#utility.yul\":27132:27271   */\n      swap1\n      pop\n        /* \"#utility.yul\":26859:27278   */\n      swap2\n      swap1\n      pop\n      jump\t// out\n        /* \"#utility.yul\":27284:27460   */\n    tag_364:\n        /* \"#utility.yul\":27424:27452   */\n      0x426f72726f77657220616c726561647920636f6e6669726d6564000000000000\n        /* \"#utility.yul\":27420:27421   */\n      0x00\n        /* \"#utility.yul\":27412:27418   */\n      dup3\n        /* \"#utility.yul\":27408:27422   */\n      add\n        /* \"#utility.yul\":27401:27453   */\n      mstore\n        /* \"#utility.yul\":27284:27460   */\n      pop\n      jump\t// out\n        /* \"#utility.yul\":27466:27832   */\n    tag_365:\n        /* \"#utility.yul\":27608:27611   */\n      0x00\n        /* \"#utility.yul\":27629:27696   */\n      tag_629\n        /* \"#utility.yul\":27693:27695   */\n      0x1a\n        /* \"#utility.yul\":27688:27691   */\n      dup4\n        /* \"#utility.yul\":27629:27696   */\n      tag_336\n      jump\t// in\n    tag_629:\n        /* \"#utility.yul\":27622:27696   */\n      swap2\n      pop\n        /* \"#utility.yul\":27705:27798   */\n      tag_630\n        /* \"#utility.yul\":27794:27797   */\n      dup3\n        /* \"#utility.yul\":27705:27798   */\n      tag_364\n      jump\t// in\n    tag_630:\n        /* \"#utility.yul\":27823:27825   */\n      0x20\n        /* \"#utility.yul\":27818:27821   */\n      dup3\n        /* \"#utility.yul\":27814:27826   */\n      add\n        /* \"#utility.yul\":27807:27826   */\n      swap1\n      pop\n        /* \"#utility.yul\":27466:27832   */\n      swap2\n      swap1\n      pop\n      jump\t// out\n        /* \"#utility.yul\":27838:28257   */\n    tag_218:\n        /* \"#utility.yul\":28004:28008   */\n      0x00\n        /* \"#utility.yul\":28042:28044   */\n      0x20\n        /* \"#utility.yul\":28031:28040   */\n      dup3\n        /* \"#utility.yul\":28027:28045   */\n      add\n        /* \"#utility.yul\":28019:28045   */\n      swap1\n      pop\n        /* \"#utility.yul\":28091:28100   */\n      dup2\n        /* \"#utility.yul\":28085:28089   */\n      dup2\n        /* \"#utility.yul\":28081:28101   */\n      sub\n        /* \"#utility.yul\":28077:28078   */\n      0x00\n        /* \"#utility.yul\":28066:28075   */\n      dup4\n        /* \"#utility.yul\":28062:28079   */\n      add\n        /* \"#utility.yul\":28055:28102   */\n      mstore\n        /* \"#utility.yul\":28119:28250   */\n      tag_632\n        /* \"#utility.yul\":28245:28249   */\n      dup2\n        /* \"#utility.yul\":28119:28250   */\n      tag_365\n      jump\t// in\n    tag_632:\n        /* \"#utility.yul\":28111:28250   */\n      swap1\n      pop\n        /* \"#utility.yul\":27838:28257   */\n      swap2\n      swap1\n      pop\n      jump\t// out\n        /* \"#utility.yul\":28263:28438   */\n    tag_366:\n        /* \"#utility.yul\":28403:28430   */\n      0x4f6e6c7920626f72726f7765722063616e20636f6e6669726d00000000000000\n        /* \"#utility.yul\":28399:28400   */\n      0x00\n        /* \"#utility.yul\":28391:28397   */\n      dup3\n        /* \"#utility.yul\":28387:28401   */\n      add\n        /* \"#utility.yul\":28380:28431   */\n      mstore\n        /* \"#utility.yul\":28263:28438   */\n      pop\n      jump\t// out\n        /* \"#utility.yul\":28444:28810   */\n    tag_367:\n        /* \"#utility.yul\":28586:28589   */\n      0x00\n        /* \"#utility.yul\":28607:28674   */\n      tag_635\n        /* \"#utility.yul\":28671:28673   */\n      0x19\n        /* \"#utility.yul\":28666:28669   */\n      dup4\n        /* \"#utility.yul\":28607:28674   */\n      tag_336\n      jump\t// in\n    tag_635:\n        /* \"#utility.yul\":28600:28674   */\n      swap2\n      pop\n        /* \"#utility.yul\":28683:28776   */\n      tag_636\n        /* \"#utility.yul\":28772:28775   */\n      dup3\n        /* \"#utility.yul\":28683:28776   */\n      tag_366\n      jump\t// in\n    tag_636:\n        /* \"#utility.yul\":28801:28803   */\n      0x20\n        /* \"#utility.yul\":28796:28799   */\n      dup3\n        /* \"#utility.yul\":28792:28804   */\n      add\n        /* \"#utility.yul\":28785:28804   */\n      swap1\n      pop\n        /* \"#utility.yul\":28444:28810   */\n      swap2\n      swap1\n      pop\n      jump\t// out\n        /* \"#utility.yul\":28816:29235   */\n    tag_221:\n        /* \"#utility.yul\":28982:28986   */\n      0x00\n        /* \"#utility.yul\":29020:29022   */\n      0x20\n        /* \"#utility.yul\":29009:29018   */\n      dup3\n        /* \"#utility.yul\":29005:29023   */\n      add\n        /* \"#utility.yul\":28997:29023   */\n      swap1\n      pop\n        /* \"#utility.yul\":29069:29078   */\n      dup2\n        /* \"#utility.yul\":29063:29067   */\n      dup2\n        /* \"#utility.yul\":29059:29079   */\n      sub\n        /* \"#utility.yul\":29055:29056   */\n      0x00\n        /* \"#utility.yul\":29044:29053   */\n      dup4\n        /* \"#utility.yul\":29040:29057   */\n      add\n        /* \"#utility.yul\":29033:29080   */\n      mstore\n        /* \"#utility.yul\":29097:29228   */\n      tag_638\n        /* \"#utility.yul\":29223:29227   */\n      dup2\n        /* \"#utility.yul\":29097:29228   */\n      tag_367\n      jump\t// in\n    tag_638:\n        /* \"#utility.yul\":29089:29228   */\n      swap1\n      pop\n        /* \"#utility.yul\":28816:29235   */\n      swap2\n      swap1\n      pop\n      jump\t// out\n        /* \"#utility.yul\":29241:29432   */\n    tag_226:\n        /* \"#utility.yul\":29281:29284   */\n      0x00\n        /* \"#utility.yul\":29300:29320   */\n      tag_640\n        /* \"#utility.yul\":29318:29319   */\n      dup3\n        /* \"#utility.yul\":29300:29320   */\n      tag_302\n      jump\t// in\n    tag_640:\n        /* \"#utility.yul\":29295:29320   */\n      swap2\n      pop\n        /* \"#utility.yul\":29334:29354   */\n      tag_641\n        /* \"#utility.yul\":29352:29353   */\n      dup4\n        /* \"#utility.yul\":29334:29354   */\n      tag_302\n      jump\t// in\n    tag_641:\n        /* \"#utility.yul\":29329:29354   */\n      swap3\n      pop\n        /* \"#utility.yul\":29377:29378   */\n      dup3\n        /* \"#utility.yul\":29374:29375   */\n      dup3\n        /* \"#utility.yul\":29370:29379   */\n      add\n        /* \"#utility.yul\":29363:29379   */\n      swap1\n      pop\n        /* \"#utility.yul\":29398:29401   */\n      dup1\n        /* \"#utility.yul\":29395:29396   */\n      dup3\n        /* \"#utility.yul\":29392:29402   */\n      gt\n        /* \"#utility.yul\":29389:29425   */\n      iszero\n      tag_642\n      jumpi\n        /* \"#utility.yul\":29405:29423   */\n      tag_643\n      tag_339\n      jump\t// in\n    tag_643:\n        /* \"#utility.yul\":29389:29425   */\n    tag_642:\n        /* \"#utility.yul\":29241:29432   */\n      swap3\n      swap2\n      pop\n      pop\n      jump\t// out\n        /* \"#utility.yul\":29438:29543   */\n    tag_368:\n        /* \"#utility.yul\":29474:29481   */\n      0x00\n        /* \"#utility.yul\":29514:29536   */\n      0xffffffffffffffffffff\n        /* \"#utility.yul\":29507:29512   */\n      dup3\n        /* \"#utility.yul\":29503:29537   */\n      and\n        /* \"#utility.yul\":29492:29537   */\n      swap1\n      pop\n        /* \"#utility.yul\":29438:29543   */\n      swap2\n      swap1\n      pop\n      jump\t// out\n        /* \"#utility.yul\":29549:29669   */\n    tag_369:\n        /* \"#utility.yul\":29621:29644   */\n      tag_646\n        /* \"#utility.yul\":29638:29643   */\n      dup2\n        /* \"#utility.yul\":29621:29644   */\n      tag_368\n      jump\t// in\n    tag_646:\n        /* \"#utility.yul\":29614:29619   */\n      dup2\n        /* \"#utility.yul\":29611:29645   */\n      eq\n        /* \"#utility.yul\":29601:29663   */\n      tag_647\n      jumpi\n        /* \"#utility.yul\":29659:29660   */\n      0x00\n        /* \"#utility.yul\":29656:29657   */\n      0x00\n        /* \"#utility.yul\":29649:29661   */\n      revert\n        /* \"#utility.yul\":29601:29663   */\n    tag_647:\n        /* \"#utility.yul\":29549:29669   */\n      pop\n      jump\t// out\n        /* \"#utility.yul\":29675:29816   */\n    tag_370:\n        /* \"#utility.yul\":29731:29736   */\n      0x00\n        /* \"#utility.yul\":29762:29768   */\n      dup2\n        /* \"#utility.yul\":29756:29769   */\n      mload\n        /* \"#utility.yul\":29747:29769   */\n      swap1\n      pop\n        /* \"#utility.yul\":29778:29810   */\n      tag_649\n        /* \"#utility.yul\":29804:29809   */\n      dup2\n        /* \"#utility.yul\":29778:29810   */\n      tag_369\n      jump\t// in\n    tag_649:\n        /* \"#utility.yul\":29675:29816   */\n      swap3\n      swap2\n      pop\n      pop\n      jump\t// out\n        /* \"#utility.yul\":29822:29898   */\n    tag_371:\n        /* \"#utility.yul\":29858:29865   */\n      0x00\n        /* \"#utility.yul\":29887:29892   */\n      dup2\n        /* \"#utility.yul\":29876:29892   */\n      swap1\n      pop\n        /* \"#utility.yul\":29822:29898   */\n      swap2\n      swap1\n      pop\n      jump\t// out\n        /* \"#utility.yul\":29904:30024   */\n    tag_372:\n        /* \"#utility.yul\":29976:29999   */\n      tag_652\n        /* \"#utility.yul\":29993:29998   */\n      dup2\n        /* \"#utility.yul\":29976:29999   */\n      tag_371\n      jump\t// in\n    tag_652:\n        /* \"#utility.yul\":29969:29974   */\n      dup2\n        /* \"#utility.yul\":29966:30000   */\n      eq\n        /* \"#utility.yul\":29956:30018   */\n      tag_653\n      jumpi\n        /* \"#utility.yul\":30014:30015   */\n      0x00\n        /* \"#utility.yul\":30011:30012   */\n      0x00\n        /* \"#utility.yul\":30004:30016   */\n      revert\n        /* \"#utility.yul\":29956:30018   */\n    tag_653:\n        /* \"#utility.yul\":29904:30024   */\n      pop\n      jump\t// out\n        /* \"#utility.yul\":30030:30171   */\n    tag_373:\n        /* \"#utility.yul\":30086:30091   */\n      0x00\n        /* \"#utility.yul\":30117:30123   */\n      dup2\n        /* \"#utility.yul\":30111:30124   */\n      mload\n        /* \"#utility.yul\":30102:30124   */\n      swap1\n      pop\n        /* \"#utility.yul\":30133:30165   */\n      tag_655\n        /* \"#utility.yul\":30159:30164   */\n      dup2\n        /* \"#utility.yul\":30133:30165   */\n      tag_372\n      jump\t// in\n    tag_655:\n        /* \"#utility.yul\":30030:30171   */\n      swap3\n      swap2\n      pop\n      pop\n      jump\t// out\n        /* \"#utility.yul\":30177:31148   */\n    tag_257:\n        /* \"#utility.yul\":30280:30286   */\n      0x00\n        /* \"#utility.yul\":30288:30294   */\n      0x00\n        /* \"#utility.yul\":30296:30302   */\n      0x00\n        /* \"#utility.yul\":30304:30310   */\n      0x00\n        /* \"#utility.yul\":30312:30318   */\n      0x00\n        /* \"#utility.yul\":30361:30364   */\n      0xa0\n        /* \"#utility.yul\":30349:30358   */\n      dup7\n        /* \"#utility.yul\":30340:30347   */\n      dup9\n        /* \"#utility.yul\":30336:30359   */\n      sub\n        /* \"#utility.yul\":30332:30365   */\n      slt\n        /* \"#utility.yul\":30329:30449   */\n      iszero\n      tag_657\n      jumpi\n        /* \"#utility.yul\":30368:30447   */\n      tag_658\n      tag_300\n      jump\t// in\n    tag_658:\n        /* \"#utility.yul\":30329:30449   */\n    tag_657:\n        /* \"#utility.yul\":30488:30489   */\n      0x00\n        /* \"#utility.yul\":30513:30576   */\n      tag_659\n        /* \"#utility.yul\":30568:30575   */\n      dup9\n        /* \"#utility.yul\":30559:30565   */\n      dup3\n        /* \"#utility.yul\":30548:30557   */\n      dup10\n        /* \"#utility.yul\":30544:30566   */\n      add\n        /* \"#utility.yul\":30513:30576   */\n      tag_370\n      jump\t// in\n    tag_659:\n        /* \"#utility.yul\":30503:30576   */\n      swap6\n      pop\n        /* \"#utility.yul\":30459:30586   */\n      pop\n        /* \"#utility.yul\":30625:30627   */\n      0x20\n        /* \"#utility.yul\":30651:30714   */\n      tag_660\n        /* \"#utility.yul\":30706:30713   */\n      dup9\n        /* \"#utility.yul\":30697:30703   */\n      dup3\n        /* \"#utility.yul\":30686:30695   */\n      dup10\n        /* \"#utility.yul\":30682:30704   */\n      add\n        /* \"#utility.yul\":30651:30714   */\n      tag_373\n      jump\t// in\n    tag_660:\n        /* \"#utility.yul\":30641:30714   */\n      swap5\n      pop\n        /* \"#utility.yul\":30596:30724   */\n      pop\n        /* \"#utility.yul\":30763:30765   */\n      0x40\n        /* \"#utility.yul\":30789:30853   */\n      tag_661\n        /* \"#utility.yul\":30845:30852   */\n      dup9\n        /* \"#utility.yul\":30836:30842   */\n      dup3\n        /* \"#utility.yul\":30825:30834   */\n      dup10\n        /* \"#utility.yul\":30821:30843   */\n      add\n        /* \"#utility.yul\":30789:30853   */\n      tag_351\n      jump\t// in\n    tag_661:\n        /* \"#utility.yul\":30779:30853   */\n      swap4\n      pop\n        /* \"#utility.yul\":30734:30863   */\n      pop\n        /* \"#utility.yul\":30902:30904   */\n      0x60\n        /* \"#utility.yul\":30928:30992   */\n      tag_662\n        /* \"#utility.yul\":30984:30991   */\n      dup9\n        /* \"#utility.yul\":30975:30981   */\n      dup3\n        /* \"#utility.yul\":30964:30973   */\n      dup10\n        /* \"#utility.yul\":30960:30982   */\n      add\n        /* \"#utility.yul\":30928:30992   */\n      tag_351\n      jump\t// in\n    tag_662:\n        /* \"#utility.yul\":30918:30992   */\n      swap3\n      pop\n        /* \"#utility.yul\":30873:31002   */\n      pop\n        /* \"#utility.yul\":31041:31044   */\n      0x80\n        /* \"#utility.yul\":31068:31131   */\n      tag_663\n        /* \"#utility.yul\":31123:31130   */\n      dup9\n        /* \"#utility.yul\":31114:31120   */\n      dup3\n        /* \"#utility.yul\":31103:31112   */\n      dup10\n        /* \"#utility.yul\":31099:31121   */\n      add\n        /* \"#utility.yul\":31068:31131   */\n      tag_370\n      jump\t// in\n    tag_663:\n        /* \"#utility.yul\":31058:31131   */\n      swap2\n      pop\n        /* \"#utility.yul\":31012:31141   */\n      pop\n        /* \"#utility.yul\":30177:31148   */\n      swap3\n      swap6\n      pop\n      swap3\n      swap6\n      swap1\n      swap4\n      pop\n      jump\t// out\n        /* \"#utility.yul\":31154:31317   */\n    tag_374:\n        /* \"#utility.yul\":31294:31309   */\n      0x496e76616c696420707269636500000000000000000000000000000000000000\n        /* \"#utility.yul\":31290:31291   */\n      0x00\n        /* \"#utility.yul\":31282:31288   */\n      dup3\n        /* \"#utility.yul\":31278:31292   */\n      add\n        /* \"#utility.yul\":31271:31310   */\n      mstore\n        /* \"#utility.yul\":31154:31317   */\n      pop\n      jump\t// out\n        /* \"#utility.yul\":31323:31689   */\n    tag_375:\n        /* \"#utility.yul\":31465:31468   */\n      0x00\n        /* \"#utility.yul\":31486:31553   */\n      tag_666\n        /* \"#utility.yul\":31550:31552   */\n      0x0d\n        /* \"#utility.yul\":31545:31548   */\n      dup4\n        /* \"#utility.yul\":31486:31553   */\n      tag_336\n      jump\t// in\n    tag_666:\n        /* \"#utility.yul\":31479:31553   */\n      swap2\n      pop\n        /* \"#utility.yul\":31562:31655   */\n      tag_667\n        /* \"#utility.yul\":31651:31654   */\n      dup3\n        /* \"#utility.yul\":31562:31655   */\n      tag_374\n      jump\t// in\n    tag_667:\n        /* \"#utility.yul\":31680:31682   */\n      0x20\n        /* \"#utility.yul\":31675:31678   */\n      dup3\n        /* \"#utility.yul\":31671:31683   */\n      add\n        /* \"#utility.yul\":31664:31683   */\n      swap1\n      pop\n        /* \"#utility.yul\":31323:31689   */\n      swap2\n      swap1\n      pop\n      jump\t// out\n        /* \"#utility.yul\":31695:32114   */\n    tag_260:\n        /* \"#utility.yul\":31861:31865   */\n      0x00\n        /* \"#utility.yul\":31899:31901   */\n      0x20\n        /* \"#utility.yul\":31888:31897   */\n      dup3\n        /* \"#utility.yul\":31884:31902   */\n      add\n        /* \"#utility.yul\":31876:31902   */\n      swap1\n      pop\n        /* \"#utility.yul\":31948:31957   */\n      dup2\n        /* \"#utility.yul\":31942:31946   */\n      dup2\n        /* \"#utility.yul\":31938:31958   */\n      sub\n        /* \"#utility.yul\":31934:31935   */\n      0x00\n        /* \"#utility.yul\":31923:31932   */\n      dup4\n        /* \"#utility.yul\":31919:31936   */\n      add\n        /* \"#utility.yul\":31912:31959   */\n      mstore\n        /* \"#utility.yul\":31976:32107   */\n      tag_669\n        /* \"#utility.yul\":32102:32106   */\n      dup2\n        /* \"#utility.yul\":31976:32107   */\n      tag_375\n      jump\t// in\n    tag_669:\n        /* \"#utility.yul\":31968:32107   */\n      swap1\n      pop\n        /* \"#utility.yul\":31695:32114   */\n      swap2\n      swap1\n      pop\n      jump\t// out\n        /* \"#utility.yul\":32120:32288   */\n    tag_376:\n        /* \"#utility.yul\":32260:32280   */\n      0x4c6f616e206973206e6f74206163746976650000000000000000000000000000\n        /* \"#utility.yul\":32256:32257   */\n      0x00\n        /* \"#utility.yul\":32248:32254   */\n      dup3\n        /* \"#utility.yul\":32244:32258   */\n      add\n        /* \"#utility.yul\":32237:32281   */\n      mstore\n        /* \"#utility.yul\":32120:32288   */\n      pop\n      jump\t// out\n        /* \"#utility.yul\":32294:32660   */\n    tag_377:\n        /* \"#utility.yul\":32436:32439   */\n      0x00\n        /* \"#utility.yul\":32457:32524   */\n      tag_672\n        /* \"#utility.yul\":32521:32523   */\n      0x12\n        /* \"#utility.yul\":32516:32519   */\n      dup4\n        /* \"#utility.yul\":32457:32524   */\n      tag_336\n      jump\t// in\n    tag_672:\n        /* \"#utility.yul\":32450:32524   */\n      swap2\n      pop\n        /* \"#utility.yul\":32533:32626   */\n      tag_673\n        /* \"#utility.yul\":32622:32625   */\n      dup3\n        /* \"#utility.yul\":32533:32626   */\n      tag_376\n      jump\t// in\n    tag_673:\n        /* \"#utility.yul\":32651:32653   */\n      0x20\n        /* \"#utility.yul\":32646:32649   */\n      dup3\n        /* \"#utility.yul\":32642:32654   */\n      add\n        /* \"#utility.yul\":32635:32654   */\n      swap1\n      pop\n        /* \"#utility.yul\":32294:32660   */\n      swap2\n      swap1\n      pop\n      jump\t// out\n        /* \"#utility.yul\":32666:33085   */\n    tag_269:\n        /* \"#utility.yul\":32832:32836   */\n      0x00\n        /* \"#utility.yul\":32870:32872   */\n      0x20\n        /* \"#utility.yul\":32859:32868   */\n      dup3\n        /* \"#utility.yul\":32855:32873   */\n      add\n        /* \"#utility.yul\":32847:32873   */\n      swap1\n      pop\n        /* \"#utility.yul\":32919:32928   */\n      dup2\n        /* \"#utility.yul\":32913:32917   */\n      dup2\n        /* \"#utility.yul\":32909:32929   */\n      sub\n        /* \"#utility.yul\":32905:32906   */\n      0x00\n        /* \"#utility.yul\":32894:32903   */\n      dup4\n        /* \"#utility.yul\":32890:32907   */\n      add\n        /* \"#utility.yul\":32883:32930   */\n      mstore\n        /* \"#utility.yul\":32947:33078   */\n      tag_675\n        /* \"#utility.yul\":33073:33077   */\n      dup2\n        /* \"#utility.yul\":32947:33078   */\n      tag_377\n      jump\t// in\n    tag_675:\n        /* \"#utility.yul\":32939:33078   */\n      swap1\n      pop\n        /* \"#utility.yul\":32666:33085   */\n      swap2\n      swap1\n      pop\n      jump\t// out\n        /* \"#utility.yul\":33091:33264   */\n    tag_378:\n        /* \"#utility.yul\":33231:33256   */\n      0x4f6e6c7920626f72726f7765722063616e207265706179000000000000000000\n        /* \"#utility.yul\":33227:33228   */\n      0x00\n        /* \"#utility.yul\":33219:33225   */\n      dup3\n        /* \"#utility.yul\":33215:33229   */\n      add\n        /* \"#utility.yul\":33208:33257   */\n      mstore\n        /* \"#utility.yul\":33091:33264   */\n      pop\n      jump\t// out\n        /* \"#utility.yul\":33270:33636   */\n    tag_379:\n        /* \"#utility.yul\":33412:33415   */\n      0x00\n        /* \"#utility.yul\":33433:33500   */\n      tag_678\n        /* \"#utility.yul\":33497:33499   */\n      0x17\n        /* \"#utility.yul\":33492:33495   */\n      dup4\n        /* \"#utility.yul\":33433:33500   */\n      tag_336\n      jump\t// in\n    tag_678:\n        /* \"#utility.yul\":33426:33500   */\n      swap2\n      pop\n        /* \"#utility.yul\":33509:33602   */\n      tag_679\n        /* \"#utility.yul\":33598:33601   */\n      dup3\n        /* \"#utility.yul\":33509:33602   */\n      tag_378\n      jump\t// in\n    tag_679:\n        /* \"#utility.yul\":33627:33629   */\n      0x20\n        /* \"#utility.yul\":33622:33625   */\n      dup3\n        /* \"#utility.yul\":33618:33630   */\n      add\n        /* \"#utility.yul\":33611:33630   */\n      swap1\n      pop\n        /* \"#utility.yul\":33270:33636   */\n      swap2\n      swap1\n      pop\n      jump\t// out\n        /* \"#utility.yul\":33642:34061   */\n    tag_272:\n        /* \"#utility.yul\":33808:33812   */\n      0x00\n        /* \"#utility.yul\":33846:33848   */\n      0x20\n        /* \"#utility.yul\":33835:33844   */\n      dup3\n        /* \"#utility.yul\":33831:33849   */\n      add\n        /* \"#utility.yul\":33823:33849   */\n      swap1\n      pop\n        /* \"#utility.yul\":33895:33904   */\n      dup2\n        /* \"#utility.yul\":33889:33893   */\n      dup2\n        /* \"#utility.yul\":33885:33905   */\n      sub\n        /* \"#utility.yul\":33881:33882   */\n      0x00\n        /* \"#utility.yul\":33870:33879   */\n      dup4\n        /* \"#utility.yul\":33866:33883   */\n      add\n        /* \"#utility.yul\":33859:33906   */\n      mstore\n        /* \"#utility.yul\":33923:34054   */\n      tag_681\n        /* \"#utility.yul\":34049:34053   */\n      dup2\n        /* \"#utility.yul\":33923:34054   */\n      tag_379\n      jump\t// in\n    tag_681:\n        /* \"#utility.yul\":33915:34054   */\n      swap1\n      pop\n        /* \"#utility.yul\":33642:34061   */\n      swap2\n      swap1\n      pop\n      jump\t// out\n        /* \"#utility.yul\":34067:34288   */\n    tag_380:\n        /* \"#utility.yul\":34207:34241   */\n      0x4e6f7420656e6f75676820616c6c6f77616e636520666f722072657061796d65\n        /* \"#utility.yul\":34203:34204   */\n      0x00\n        /* \"#utility.yul\":34195:34201   */\n      dup3\n        /* \"#utility.yul\":34191:34205   */\n      add\n        /* \"#utility.yul\":34184:34242   */\n      mstore\n        /* \"#utility.yul\":34276:34280   */\n      0x6e74000000000000000000000000000000000000000000000000000000000000\n        /* \"#utility.yul\":34271:34273   */\n      0x20\n        /* \"#utility.yul\":34263:34269   */\n      dup3\n        /* \"#utility.yul\":34259:34274   */\n      add\n        /* \"#utility.yul\":34252:34281   */\n      mstore\n        /* \"#utility.yul\":34067:34288   */\n      pop\n      jump\t// out\n        /* \"#utility.yul\":34294:34660   */\n    tag_381:\n        /* \"#utility.yul\":34436:34439   */\n      0x00\n        /* \"#utility.yul\":34457:34524   */\n      tag_684\n        /* \"#utility.yul\":34521:34523   */\n      0x22\n        /* \"#utility.yul\":34516:34519   */\n      dup4\n        /* \"#utility.yul\":34457:34524   */\n      tag_336\n      jump\t// in\n    tag_684:\n        /* \"#utility.yul\":34450:34524   */\n      swap2\n      pop\n        /* \"#utility.yul\":34533:34626   */\n      tag_685\n        /* \"#utility.yul\":34622:34625   */\n      dup3\n        /* \"#utility.yul\":34533:34626   */\n      tag_380\n      jump\t// in\n    tag_685:\n        /* \"#utility.yul\":34651:34653   */\n      0x40\n        /* \"#utility.yul\":34646:34649   */\n      dup3\n        /* \"#utility.yul\":34642:34654   */\n      add\n        /* \"#utility.yul\":34635:34654   */\n      swap1\n      pop\n        /* \"#utility.yul\":34294:34660   */\n      swap2\n      swap1\n      pop\n      jump\t// out\n        /* \"#utility.yul\":34666:35085   */\n    tag_281:\n        /* \"#utility.yul\":34832:34836   */\n      0x00\n        /* \"#utility.yul\":34870:34872   */\n      0x20\n        /* \"#utility.yul\":34859:34868   */\n      dup3\n        /* \"#utility.yul\":34855:34873   */\n      add\n        /* \"#utility.yul\":34847:34873   */\n      swap1\n      pop\n        /* \"#utility.yul\":34919:34928   */\n      dup2\n        /* \"#utility.yul\":34913:34917   */\n      dup2\n        /* \"#utility.yul\":34909:34929   */\n      sub\n        /* \"#utility.yul\":34905:34906   */\n      0x00\n        /* \"#utility.yul\":34894:34903   */\n      dup4\n        /* \"#utility.yul\":34890:34907   */\n      add\n        /* \"#utility.yul\":34883:34930   */\n      mstore\n        /* \"#utility.yul\":34947:35078   */\n      tag_687\n        /* \"#utility.yul\":35073:35077   */\n      dup2\n        /* \"#utility.yul\":34947:35078   */\n      tag_381\n      jump\t// in\n    tag_687:\n        /* \"#utility.yul\":34939:35078   */\n      swap1\n      pop\n        /* \"#utility.yul\":34666:35085   */\n      swap2\n      swap1\n      pop\n      jump\t// out\n\n    auxdata: 0xa264697066735822122044ee5f335ba5efa3115dc3750cc5b00b32dddadad37dca5333bd94162008c2f464736f6c634300081e0033\n}\n",
				"bytecode": {
					"linkReferences": {},
					"object": "6080604052610bb8600255609660035534801561001a575f5ffd5b50604051613512380380613512833981810160405281019061003c91906101ce565b5f73ffffffffffffffffffffffffffffffffffffffff168273ffffffffffffffffffffffffffffffffffffffff16036100aa576040517f08c379a00000000000000000000000000000000000000000000000000000000081526004016100a190610266565b60405180910390fd5b815f5f6101000a81548173ffffffffffffffffffffffffffffffffffffffff021916908373ffffffffffffffffffffffffffffffffffffffff1602179055508060045f6101000a81548173ffffffffffffffffffffffffffffffffffffffff021916908373ffffffffffffffffffffffffffffffffffffffff1602179055503360015f6101000a81548173ffffffffffffffffffffffffffffffffffffffff021916908373ffffffffffffffffffffffffffffffffffffffff1602179055505050610284565b5f5ffd5b5f73ffffffffffffffffffffffffffffffffffffffff82169050919050565b5f61019d82610174565b9050919050565b6101ad81610193565b81146101b7575f5ffd5b50565b5f815190506101c8816101a4565b92915050565b5f5f604083850312156101e4576101e3610170565b5b5f6101f1858286016101ba565b9250506020610202858286016101ba565b9150509250929050565b5f82825260208201905092915050565b7f496e76616c6964205553444320746f6b656e20616464726573730000000000005f82015250565b5f610250601a8361020c565b915061025b8261021c565b602082019050919050565b5f6020820190508181035f83015261027d81610244565b9050919050565b613281806102915f395ff3fe6080604052600436106100dc575f3560e01c8063777e0d861161007e578063ab7b1c8911610058578063ab7b1c89146102af578063bfae5f42146102d7578063ccd6b21814610301578063d13d5e561461032b576100dc565b8063777e0d861461021657806398c61c37146102405780639d741e5d14610285576100dc565b806346208d68116100ba57806346208d681461014c57806347126f62146101745780636b3731f0146101b15780636e04ff0d146101d9576100dc565b80631443e4e7146100e05780632d66195e146100fc5780634585e33b14610124575b5f5ffd5b6100fa60048036038101906100f5919061218b565b610367565b005b348015610107575f5ffd5b50610122600480360381019061011d9190612235565b6107ae565b005b34801561012f575f5ffd5b5061014a600480360381019061014591906122d4565b610b3b565b005b348015610157575f5ffd5b50610172600480360381019061016d9190612235565b610eed565b005b34801561017f575f5ffd5b5061019a6004803603810190610195919061231f565b6112d6565b6040516101a8929190612368565b60405180910390f35b3480156101bc575f5ffd5b506101d760048036038101906101d29190612235565b611324565b005b3480156101e4575f5ffd5b506101ff60048036038101906101fa91906122d4565b611763565b60405161020d929190612419565b60405180910390f35b348015610221575f5ffd5b5061022a611976565b6040516102379190612447565b60405180910390f35b34801561024b575f5ffd5b5061026660048036038101906102619190612235565b611a65565b60405161027c9a999897969594939291906124d3565b60405180910390f35b348015610290575f5ffd5b50610299611b17565b6040516102a691906125c8565b60405180910390f35b3480156102ba575f5ffd5b506102d560048036038101906102d0919061231f565b611b3b565b005b3480156102e2575f5ffd5b506102eb611f19565b6040516102f89190612447565b60405180910390f35b34801561030c575f5ffd5b50610315611f1f565b6040516103229190612447565b60405180910390f35b348015610336575f5ffd5b50610351600480360381019061034c9190612235565b611f25565b60405161035e91906126e7565b60405180910390f35b5f83116103a9576040517f08c379a00000000000000000000000000000000000000000000000000000000081526004016103a09061275b565b60405180910390fd5b8283836103b691906127a6565b116103f6576040517f08c379a00000000000000000000000000000000000000000000000000000000081526004016103ed90612857565b60405180910390fd5b5f3411610438576040517f08c379a000000000000000000000000000000000000000000000000000000000815260040161042f906128bf565b60405180910390fd5b5f610441611976565b90505f670de0b6b3a764000060648361045a91906127a6565b610464919061290a565b670de0b6b3a76400006003548761047b91906127a6565b61048591906127a6565b61048f919061290a565b9050803410156104d4576040517f08c379a00000000000000000000000000000000000000000000000000000000081526004016104cb90612984565b60405180910390fd5b60055f3373ffffffffffffffffffffffffffffffffffffffff1673ffffffffffffffffffffffffffffffffffffffff1681526020019081526020015f205f815480929190610521906129a2565b91905055505f60055f3373ffffffffffffffffffffffffffffffffffffffff1673ffffffffffffffffffffffffffffffffffffffff1681526020019081526020015f205490506040518061014001604052808281526020013373ffffffffffffffffffffffffffffffffffffffff1681526020015f73ffffffffffffffffffffffffffffffffffffffff1681526020018781526020018681526020013481526020018581526020015f81526020015f151581526020015f60068111156105ea576105e9612460565b5b81525060075f3373ffffffffffffffffffffffffffffffffffffffff1673ffffffffffffffffffffffffffffffffffffffff1681526020019081526020015f205f8381526020019081526020015f205f820151815f01556020820151816001015f6101000a81548173ffffffffffffffffffffffffffffffffffffffff021916908373ffffffffffffffffffffffffffffffffffffffff1602179055506040820151816002015f6101000a81548173ffffffffffffffffffffffffffffffffffffffff021916908373ffffffffffffffffffffffffffffffffffffffff160217905550606082015181600301556080820151816004015560a0820151816005015560c0820151816006015560e08201518160070155610100820151816008015f6101000a81548160ff0219169083151502179055506101208201518160080160016101000a81548160ff0219169083600681111561074b5761074a612460565b5b02179055509050503373ffffffffffffffffffffffffffffffffffffffff16817f5562cd4ee21f29c3f86bd5fbef7db62e5d2bd7f7aec654ff86558dcdd7efe48188883460405161079e939291906129e9565b60405180910390a3505050505050565b5f60075f8473ffffffffffffffffffffffffffffffffffffffff1673ffffffffffffffffffffffffffffffffffffffff1681526020019081526020015f205f8381526020019081526020015f2090505f60068111156108105761080f612460565b5b8160080160019054906101000a900460ff16600681111561083457610833612460565b5b14610874576040517f08c379a000000000000000000000000000000000000000000000000000000000815260040161086b90612a68565b60405180910390fd5b3373ffffffffffffffffffffffffffffffffffffffff16816001015f9054906101000a900473ffffffffffffffffffffffffffffffffffffffff1673ffffffffffffffffffffffffffffffffffffffff1603610905576040517f08c379a00000000000000000000000000000000000000000000000000000000081526004016108fc90612af6565b60405180910390fd5b5f5f5f9054906101000a900473ffffffffffffffffffffffffffffffffffffffff16905081600301548173ffffffffffffffffffffffffffffffffffffffff1663dd62ed3e33306040518363ffffffff1660e01b8152600401610969929190612b14565b602060405180830381865afa158015610984573d5f5f3e3d5ffd5b505050506040513d601f19601f820116820180604052508101906109a89190612b4f565b10156109e9576040517f08c379a00000000000000000000000000000000000000000000000000000000081526004016109e090612bc4565b60405180910390fd5b8073ffffffffffffffffffffffffffffffffffffffff166323b872dd333085600301546040518463ffffffff1660e01b8152600401610a2a93929190612be2565b6020604051808303815f875af1158015610a46573d5f5f3e3d5ffd5b505050506040513d601f19601f82011682018060405250810190610a6a9190612c41565b5033826002015f6101000a81548173ffffffffffffffffffffffffffffffffffffffff021916908373ffffffffffffffffffffffffffffffffffffffff16021790555060018260080160016101000a81548160ff02191690836006811115610ad557610ad4612460565b5b02179055503373ffffffffffffffffffffffffffffffffffffffff168473ffffffffffffffffffffffffffffffffffffffff16847f7dfb381ca6b3c326cf21bffba41143daf6e8967c09b614a3f8ce26869ef4478a60405160405180910390a450505050565b5f8282810190610b4b919061231f565b90505f60068281548110610b6257610b61612c6c565b5b905f5260205f2090600202016040518060400160405290815f82015f9054906101000a900473ffffffffffffffffffffffffffffffffffffffff1673ffffffffffffffffffffffffffffffffffffffff1673ffffffffffffffffffffffffffffffffffffffff16815260200160018201548152505090505f60075f835f015173ffffffffffffffffffffffffffffffffffffffff1673ffffffffffffffffffffffffffffffffffffffff1681526020019081526020015f205f836020015181526020019081526020015f20905060026006811115610c4357610c42612460565b5b8160080160019054906101000a900460ff166006811115610c6757610c66612460565b5b14610c7457505050610ee9565b5f8160070154421190505f610c87611976565b90505f670de0b6b3a7640000828560050154610ca391906127a6565b610cad919061290a565b90505f606485600401548660030154610cc691906127a6565b610cd0919061290a565b90505f8183111590508480610ce25750805b15610ee05760068660080160016101000a81548160ff02191690836006811115610d0f57610d0e612460565b5b0217905550856002015f9054906101000a900473ffffffffffffffffffffffffffffffffffffffff1673ffffffffffffffffffffffffffffffffffffffff166108fc876005015490811502906040515f60405180830381858888f19350505050158015610d7e573d5f5f3e3d5ffd5b50865f015173ffffffffffffffffffffffffffffffffffffffff16865f01547f73de9acc561f27528ab0a3b5dd63fefb4e59f95575891299a6f862a78779817660405160405180910390a360066001600680549050610ddd9190612c99565b81548110610dee57610ded612c6c565b5b905f5260205f20906002020160068981548110610e0e57610e0d612c6c565b5b905f5260205f2090600202015f82015f9054906101000a900473ffffffffffffffffffffffffffffffffffffffff16815f015f6101000a81548173ffffffffffffffffffffffffffffffffffffffff021916908373ffffffffffffffffffffffffffffffffffffffff160217905550600182015481600101559050506006805480610e9c57610e9b612ccc565b5b600190038181905f5260205f2090600202015f5f82015f6101000a81549073ffffffffffffffffffffffffffffffffffffffff0219169055600182015f9055505090555b50505050505050505b5050565b5f60075f8473ffffffffffffffffffffffffffffffffffffffff1673ffffffffffffffffffffffffffffffffffffffff1681526020019081526020015f205f8381526020019081526020015f20905060016006811115610f5057610f4f612460565b5b8160080160019054906101000a900460ff166006811115610f7457610f73612460565b5b14610fb4576040517f08c379a0000000000000000000000000000000000000000000000000000000008152600401610fab90612d43565b60405180910390fd5b806001015f9054906101000a900473ffffffffffffffffffffffffffffffffffffffff1673ffffffffffffffffffffffffffffffffffffffff163373ffffffffffffffffffffffffffffffffffffffff1614611045576040517f08c379a000000000000000000000000000000000000000000000000000000000815260040161103c90612dab565b60405180910390fd5b806001015f9054906101000a900473ffffffffffffffffffffffffffffffffffffffff1673ffffffffffffffffffffffffffffffffffffffff163373ffffffffffffffffffffffffffffffffffffffff160361122557806001015f9054906101000a900473ffffffffffffffffffffffffffffffffffffffff1673ffffffffffffffffffffffffffffffffffffffff166108fc826005015490811502906040515f60405180830381858888f19350505050158015611105573d5f5f3e3d5ffd5b505f73ffffffffffffffffffffffffffffffffffffffff16816002015f9054906101000a900473ffffffffffffffffffffffffffffffffffffffff1673ffffffffffffffffffffffffffffffffffffffff1614611220575f5f9054906101000a900473ffffffffffffffffffffffffffffffffffffffff1673ffffffffffffffffffffffffffffffffffffffff1663a9059cbb826002015f9054906101000a900473ffffffffffffffffffffffffffffffffffffffff1683600301546040518363ffffffff1660e01b81526004016111de929190612368565b6020604051808303815f875af11580156111fa573d5f5f3e3d5ffd5b505050506040513d601f19601f8201168201806040525081019061121e9190612c41565b505b611260565b6040517f08c379a000000000000000000000000000000000000000000000000000000000815260040161125790612e13565b60405180910390fd5b60058160080160016101000a81548160ff0219169083600681111561128857611287612460565b5b02179055508273ffffffffffffffffffffffffffffffffffffffff16827fc95604d026b20c7e728dc9cc9734f53f6f0e74537cb0c762295fa3ec640a911c60405160405180910390a3505050565b600681815481106112e5575f80fd5b905f5260205f2090600202015f91509050805f015f9054906101000a900473ffffffffffffffffffffffffffffffffffffffff16908060010154905082565b5f60075f8473ffffffffffffffffffffffffffffffffffffffff1673ffffffffffffffffffffffffffffffffffffffff1681526020019081526020015f205f8381526020019081526020015f2090506001600681111561138757611386612460565b5b8160080160019054906101000a900460ff1660068111156113ab576113aa612460565b5b146113eb576040517f08c379a00000000000000000000000000000000000000000000000000000000081526004016113e290612e7b565b60405180910390fd5b806001015f9054906101000a900473ffffffffffffffffffffffffffffffffffffffff1673ffffffffffffffffffffffffffffffffffffffff163373ffffffffffffffffffffffffffffffffffffffff16036114b357806008015f9054906101000a900460ff1615611492576040517f08c379a000000000000000000000000000000000000000000000000000000000815260040161148990612ee3565b60405180910390fd5b6001816008015f6101000a81548160ff0219169083151502179055506114ee565b6040517f08c379a00000000000000000000000000000000000000000000000000000000081526004016114e590612f4b565b60405180910390fd5b3373ffffffffffffffffffffffffffffffffffffffff168373ffffffffffffffffffffffffffffffffffffffff16837fa5fbbfff4decd4f44ed03e28267dd014277bccd985cc2153acfa058f41ae8c0760405160405180910390a4806008015f9054906101000a900460ff161561175e5760028160080160016101000a81548160ff0219169083600681111561158757611586612460565b5b021790555080600601544261159c9190612f69565b81600701819055505f5f9054906101000a900473ffffffffffffffffffffffffffffffffffffffff1673ffffffffffffffffffffffffffffffffffffffff1663a9059cbb826001015f9054906101000a900473ffffffffffffffffffffffffffffffffffffffff1683600301546040518363ffffffff1660e01b8152600401611626929190612368565b6020604051808303815f875af1158015611642573d5f5f3e3d5ffd5b505050506040513d601f19601f820116820180604052508101906116669190612c41565b50600660405180604001604052808573ffffffffffffffffffffffffffffffffffffffff16815260200184815250908060018154018082558091505060019003905f5260205f2090600202015f909190919091505f820151815f015f6101000a81548173ffffffffffffffffffffffffffffffffffffffff021916908373ffffffffffffffffffffffffffffffffffffffff1602179055506020820151816001015550508273ffffffffffffffffffffffffffffffffffffffff16827f237bd33232d60ceb1b878c9729a13695ea754c07aa118ae357a274460e5be95183600701546040516117559190612447565b60405180910390a35b505050565b5f60605f5f90505b600680549050811015611959575f6006828154811061178d5761178c612c6c565b5b905f5260205f2090600202016040518060400160405290815f82015f9054906101000a900473ffffffffffffffffffffffffffffffffffffffff1673ffffffffffffffffffffffffffffffffffffffff1673ffffffffffffffffffffffffffffffffffffffff16815260200160018201548152505090505f60075f835f015173ffffffffffffffffffffffffffffffffffffffff1673ffffffffffffffffffffffffffffffffffffffff1681526020019081526020015f205f836020015181526020019081526020015f2090506002600681111561186e5761186d612460565b5b8160080160019054906101000a900460ff16600681111561189257611891612460565b5b1461189e57505061194c565b5f8160070154421190505f6118b1611976565b90505f670de0b6b3a76400008285600501546118cd91906127a6565b6118d7919061290a565b90505f6064856004015486600301546118f091906127a6565b6118fa919061290a565b90505f818311159050848061190c5750805b15611944576001886040516020016119249190612447565b60405160208183030381529060405299509950505050505050505061196f565b505050505050505b808060010191505061176b565b505f60405180602001604052805f815250915091505b9250929050565b5f5f60045f9054906101000a900473ffffffffffffffffffffffffffffffffffffffff1673ffffffffffffffffffffffffffffffffffffffff1663feaf968c6040518163ffffffff1660e01b815260040160a060405180830381865afa1580156119e2573d5f5f3e3d5ffd5b505050506040513d601f19601f82011682018060405250810190611a06919061300e565b5050509150505f8113611a4e576040517f08c379a0000000000000000000000000000000000000000000000000000000008152600401611a45906130cf565b60405180910390fd5b6402540be40081611a5f91906127a6565b91505090565b6007602052815f5260405f20602052805f5260405f205f9150915050805f015490806001015f9054906101000a900473ffffffffffffffffffffffffffffffffffffffff1690806002015f9054906101000a900473ffffffffffffffffffffffffffffffffffffffff1690806003015490806004015490806005015490806006015490806007015490806008015f9054906101000a900460ff16908060080160019054906101000a900460ff1690508a565b5f5f9054906101000a900473ffffffffffffffffffffffffffffffffffffffff1681565b5f60075f3373ffffffffffffffffffffffffffffffffffffffff1673ffffffffffffffffffffffffffffffffffffffff1681526020019081526020015f205f8381526020019081526020015f20905060026006811115611b9e57611b9d612460565b5b8160080160019054906101000a900460ff166006811115611bc257611bc1612460565b5b14611c02576040517f08c379a0000000000000000000000000000000000000000000000000000000008152600401611bf990613137565b60405180910390fd5b3373ffffffffffffffffffffffffffffffffffffffff16816001015f9054906101000a900473ffffffffffffffffffffffffffffffffffffffff1673ffffffffffffffffffffffffffffffffffffffff1614611c93576040517f08c379a0000000000000000000000000000000000000000000000000000000008152600401611c8a9061319f565b60405180910390fd5b5f5f5f9054906101000a900473ffffffffffffffffffffffffffffffffffffffff1690505f606483600401548460030154611cce91906127a6565b611cd8919061290a565b9050808273ffffffffffffffffffffffffffffffffffffffff1663dd62ed3e33306040518363ffffffff1660e01b8152600401611d16929190612b14565b602060405180830381865afa158015611d31573d5f5f3e3d5ffd5b505050506040513d601f19601f82011682018060405250810190611d559190612b4f565b1015611d96576040517f08c379a0000000000000000000000000000000000000000000000000000000008152600401611d8d9061322d565b60405180910390fd5b8173ffffffffffffffffffffffffffffffffffffffff166323b872dd33856002015f9054906101000a900473ffffffffffffffffffffffffffffffffffffffff16846040518463ffffffff1660e01b8152600401611df693929190612be2565b6020604051808303815f875af1158015611e12573d5f5f3e3d5ffd5b505050506040513d601f19601f82011682018060405250810190611e369190612c41565b50826001015f9054906101000a900473ffffffffffffffffffffffffffffffffffffffff1673ffffffffffffffffffffffffffffffffffffffff166108fc846005015490811502906040515f60405180830381858888f19350505050158015611ea1573d5f5f3e3d5ffd5b5060038360080160016101000a81548160ff02191690836006811115611eca57611ec9612460565b5b02179055503373ffffffffffffffffffffffffffffffffffffffff16847fad4162e5033b7bb713e12d20782e2d719000e0c997983a11328616e82c93be0360405160405180910390a350505050565b60025481565b60035481565b611f2d6120c7565b60075f8473ffffffffffffffffffffffffffffffffffffffff1673ffffffffffffffffffffffffffffffffffffffff1681526020019081526020015f205f8381526020019081526020015f20604051806101400160405290815f8201548152602001600182015f9054906101000a900473ffffffffffffffffffffffffffffffffffffffff1673ffffffffffffffffffffffffffffffffffffffff1673ffffffffffffffffffffffffffffffffffffffff168152602001600282015f9054906101000a900473ffffffffffffffffffffffffffffffffffffffff1673ffffffffffffffffffffffffffffffffffffffff1673ffffffffffffffffffffffffffffffffffffffff1681526020016003820154815260200160048201548152602001600582015481526020016006820154815260200160078201548152602001600882015f9054906101000a900460ff161515151581526020016008820160019054906101000a900460ff1660068111156120a9576120a8612460565b5b60068111156120bb576120ba612460565b5b81525050905092915050565b6040518061014001604052805f81526020015f73ffffffffffffffffffffffffffffffffffffffff1681526020015f73ffffffffffffffffffffffffffffffffffffffff1681526020015f81526020015f81526020015f81526020015f81526020015f81526020015f151581526020015f600681111561214a57612149612460565b5b81525090565b5f5ffd5b5f5ffd5b5f819050919050565b61216a81612158565b8114612174575f5ffd5b50565b5f8135905061218581612161565b92915050565b5f5f5f606084860312156121a2576121a1612150565b5b5f6121af86828701612177565b93505060206121c086828701612177565b92505060406121d186828701612177565b9150509250925092565b5f73ffffffffffffffffffffffffffffffffffffffff82169050919050565b5f612204826121db565b9050919050565b612214816121fa565b811461221e575f5ffd5b50565b5f8135905061222f8161220b565b92915050565b5f5f6040838503121561224b5761224a612150565b5b5f61225885828601612221565b925050602061226985828601612177565b9150509250929050565b5f5ffd5b5f5ffd5b5f5ffd5b5f5f83601f84011261229457612293612273565b5b8235905067ffffffffffffffff8111156122b1576122b0612277565b5b6020830191508360018202830111156122cd576122cc61227b565b5b9250929050565b5f5f602083850312156122ea576122e9612150565b5b5f83013567ffffffffffffffff81111561230757612306612154565b5b6123138582860161227f565b92509250509250929050565b5f6020828403121561233457612333612150565b5b5f61234184828501612177565b91505092915050565b612353816121fa565b82525050565b61236281612158565b82525050565b5f60408201905061237b5f83018561234a565b6123886020830184612359565b9392505050565b5f8115159050919050565b6123a38161238f565b82525050565b5f81519050919050565b5f82825260208201905092915050565b8281835e5f83830152505050565b5f601f19601f8301169050919050565b5f6123eb826123a9565b6123f581856123b3565b93506124058185602086016123c3565b61240e816123d1565b840191505092915050565b5f60408201905061242c5f83018561239a565b818103602083015261243e81846123e1565b90509392505050565b5f60208201905061245a5f830184612359565b92915050565b7f4e487b71000000000000000000000000000000000000000000000000000000005f52602160045260245ffd5b6007811061249e5761249d612460565b5b50565b5f8190506124ae8261248d565b919050565b5f6124bd826124a1565b9050919050565b6124cd816124b3565b82525050565b5f610140820190506124e75f83018d612359565b6124f4602083018c61234a565b612501604083018b61234a565b61250e606083018a612359565b61251b6080830189612359565b61252860a0830188612359565b61253560c0830187612359565b61254260e0830186612359565b61255061010083018561239a565b61255e6101208301846124c4565b9b9a5050505050505050505050565b5f819050919050565b5f61259061258b612586846121db565b61256d565b6121db565b9050919050565b5f6125a182612576565b9050919050565b5f6125b282612597565b9050919050565b6125c2816125a8565b82525050565b5f6020820190506125db5f8301846125b9565b92915050565b6125ea81612158565b82525050565b6125f9816121fa565b82525050565b6126088161238f565b82525050565b612617816124b3565b82525050565b61014082015f8201516126325f8501826125e1565b50602082015161264560208501826125f0565b50604082015161265860408501826125f0565b50606082015161266b60608501826125e1565b50608082015161267e60808501826125e1565b5060a082015161269160a08501826125e1565b5060c08201516126a460c08501826125e1565b5060e08201516126b760e08501826125e1565b506101008201516126cc6101008501826125ff565b506101208201516126e161012085018261260e565b50505050565b5f610140820190506126fb5f83018461261d565b92915050565b5f82825260208201905092915050565b7f55534443206d75737420626520706f73697469766500000000000000000000005f82015250565b5f612745601583612701565b915061275082612711565b602082019050919050565b5f6020820190508181035f83015261277281612739565b9050919050565b7f4e487b71000000000000000000000000000000000000000000000000000000005f52601160045260245ffd5b5f6127b082612158565b91506127bb83612158565b92508282026127c981612158565b915082820484148315176127e0576127df612779565b5b5092915050565b7f52657061796d656e74206d7573742062652067726561746572207468616e20555f8201527f5344430000000000000000000000000000000000000000000000000000000000602082015250565b5f612841602383612701565b915061284c826127e7565b604082019050919050565b5f6020820190508181035f83015261286e81612835565b9050919050565b7f455448206d7573742062652073656e74000000000000000000000000000000005f82015250565b5f6128a9601083612701565b91506128b482612875565b602082019050919050565b5f6020820190508181035f8301526128d68161289d565b9050919050565b7f4e487b71000000000000000000000000000000000000000000000000000000005f52601260045260245ffd5b5f61291482612158565b915061291f83612158565b92508261292f5761292e6128dd565b5b828204905092915050565b7f4e6f7420656e6f756768204554482045544800000000000000000000000000005f82015250565b5f61296e601283612701565b91506129798261293a565b602082019050919050565b5f6020820190508181035f83015261299b81612962565b9050919050565b5f6129ac82612158565b91507fffffffffffffffffffffffffffffffffffffffffffffffffffffffffffffffff82036129de576129dd612779565b5b600182019050919050565b5f6060820190506129fc5f830186612359565b612a096020830185612359565b612a166040830184612359565b949350505050565b7f52657175657374206973206e6f742061637469766500000000000000000000005f82015250565b5f612a52601583612701565b9150612a5d82612a1e565b602082019050919050565b5f6020820190508181035f830152612a7f81612a46565b9050919050565b7f426f72726f7765722063616e6e6f742066756e64207468656972206f776e20725f8201527f6571756573740000000000000000000000000000000000000000000000000000602082015250565b5f612ae0602683612701565b9150612aeb82612a86565b604082019050919050565b5f6020820190508181035f830152612b0d81612ad4565b9050919050565b5f604082019050612b275f83018561234a565b612b34602083018461234a565b9392505050565b5f81519050612b4981612161565b92915050565b5f60208284031215612b6457612b63612150565b5b5f612b7184828501612b3b565b91505092915050565b7f4e6f7420656e6f756768205553445420616c6c6f77616e6365000000000000005f82015250565b5f612bae601983612701565b9150612bb982612b7a565b602082019050919050565b5f6020820190508181035f830152612bdb81612ba2565b9050919050565b5f606082019050612bf55f83018661234a565b612c02602083018561234a565b612c0f6040830184612359565b949350505050565b612c208161238f565b8114612c2a575f5ffd5b50565b5f81519050612c3b81612c17565b92915050565b5f60208284031215612c5657612c55612150565b5b5f612c6384828501612c2d565b91505092915050565b7f4e487b71000000000000000000000000000000000000000000000000000000005f52603260045260245ffd5b5f612ca382612158565b9150612cae83612158565b9250828203905081811115612cc657612cc5612779565b5b92915050565b7f4e487b71000000000000000000000000000000000000000000000000000000005f52603160045260245ffd5b7f43616e206f6e6c792063616e63656c20612050656e64696e67206465616c00005f82015250565b5f612d2d601e83612701565b9150612d3882612cf9565b602082019050919050565b5f6020820190508181035f830152612d5a81612d21565b9050919050565b7f4f6e6c7920706172746965732063616e2063616e63656c0000000000000000005f82015250565b5f612d95601783612701565b9150612da082612d61565b602082019050919050565b5f6020820190508181035f830152612dc281612d89565b9050919050565b7f4f6e6c7920626f72726f7765722063616e2063616e63656c00000000000000005f82015250565b5f612dfd601883612701565b9150612e0882612dc9565b602082019050919050565b5f6020820190508181035f830152612e2a81612df1565b9050919050565b7f4c6f616e206973206e6f7420696e2066756e64696e67207374617465000000005f82015250565b5f612e65601c83612701565b9150612e7082612e31565b602082019050919050565b5f6020820190508181035f830152612e9281612e59565b9050919050565b7f426f72726f77657220616c726561647920636f6e6669726d65640000000000005f82015250565b5f612ecd601a83612701565b9150612ed882612e99565b602082019050919050565b5f6020820190508181035f830152612efa81612ec1565b9050919050565b7f4f6e6c7920626f72726f7765722063616e20636f6e6669726d000000000000005f82015250565b5f612f35601983612701565b9150612f4082612f01565b602082019050919050565b5f6020820190508181035f830152612f6281612f29565b9050919050565b5f612f7382612158565b9150612f7e83612158565b9250828201905080821115612f9657612f95612779565b5b92915050565b5f69ffffffffffffffffffff82169050919050565b612fba81612f9c565b8114612fc4575f5ffd5b50565b5f81519050612fd581612fb1565b92915050565b5f819050919050565b612fed81612fdb565b8114612ff7575f5ffd5b50565b5f8151905061300881612fe4565b92915050565b5f5f5f5f5f60a0868803121561302757613026612150565b5b5f61303488828901612fc7565b955050602061304588828901612ffa565b945050604061305688828901612b3b565b935050606061306788828901612b3b565b925050608061307888828901612fc7565b9150509295509295909350565b7f496e76616c6964207072696365000000000000000000000000000000000000005f82015250565b5f6130b9600d83612701565b91506130c482613085565b602082019050919050565b5f6020820190508181035f8301526130e6816130ad565b9050919050565b7f4c6f616e206973206e6f742061637469766500000000000000000000000000005f82015250565b5f613121601283612701565b915061312c826130ed565b602082019050919050565b5f6020820190508181035f83015261314e81613115565b9050919050565b7f4f6e6c7920626f72726f7765722063616e2072657061790000000000000000005f82015250565b5f613189601783612701565b915061319482613155565b602082019050919050565b5f6020820190508181035f8301526131b68161317d565b9050919050565b7f4e6f7420656e6f75676820616c6c6f77616e636520666f722072657061796d655f8201527f6e74000000000000000000000000000000000000000000000000000000000000602082015250565b5f613217602283612701565b9150613222826131bd565b604082019050919050565b5f6020820190508181035f8301526132448161320b565b905091905056fea264697066735822122044ee5f335ba5efa3115dc3750cc5b00b32dddadad37dca5333bd94162008c2f464736f6c634300081e0033",
					"opcodes": "PUSH1 0x80 PUSH1 0x40 MSTORE PUSH2 0xBB8 PUSH1 0x2 SSTORE PUSH1 0x96 PUSH1 0x3 SSTORE CALLVALUE DUP1 ISZERO PUSH2 0x1A JUMPI PUSH0 PUSH0 REVERT JUMPDEST POP PUSH1 0x40 MLOAD PUSH2 0x3512 CODESIZE SUB DUP1 PUSH2 0x3512 DUP4 CODECOPY DUP2 DUP2 ADD PUSH1 0x40 MSTORE DUP2 ADD SWAP1 PUSH2 0x3C SWAP2 SWAP1 PUSH2 0x1CE JUMP JUMPDEST PUSH0 PUSH20 0xFFFFFFFFFFFFFFFFFFFFFFFFFFFFFFFFFFFFFFFF AND DUP3 PUSH20 0xFFFFFFFFFFFFFFFFFFFFFFFFFFFFFFFFFFFFFFFF AND SUB PUSH2 0xAA JUMPI PUSH1 0x40 MLOAD PUSH32 0x8C379A000000000000000000000000000000000000000000000000000000000 DUP2 MSTORE PUSH1 0x4 ADD PUSH2 0xA1 SWAP1 PUSH2 0x266 JUMP JUMPDEST PUSH1 0x40 MLOAD DUP1 SWAP2 SUB SWAP1 REVERT JUMPDEST DUP2 PUSH0 PUSH0 PUSH2 0x100 EXP DUP2 SLOAD DUP2 PUSH20 0xFFFFFFFFFFFFFFFFFFFFFFFFFFFFFFFFFFFFFFFF MUL NOT AND SWAP1 DUP4 PUSH20 0xFFFFFFFFFFFFFFFFFFFFFFFFFFFFFFFFFFFFFFFF AND MUL OR SWAP1 SSTORE POP DUP1 PUSH1 0x4 PUSH0 PUSH2 0x100 EXP DUP2 SLOAD DUP2 PUSH20 0xFFFFFFFFFFFFFFFFFFFFFFFFFFFFFFFFFFFFFFFF MUL NOT AND SWAP1 DUP4 PUSH20 0xFFFFFFFFFFFFFFFFFFFFFFFFFFFFFFFFFFFFFFFF AND MUL OR SWAP1 SSTORE POP CALLER PUSH1 0x1 PUSH0 PUSH2 0x100 EXP DUP2 SLOAD DUP2 PUSH20 0xFFFFFFFFFFFFFFFFFFFFFFFFFFFFFFFFFFFFFFFF MUL NOT AND SWAP1 DUP4 PUSH20 0xFFFFFFFFFFFFFFFFFFFFFFFFFFFFFFFFFFFFFFFF AND MUL OR SWAP1 SSTORE POP POP POP PUSH2 0x284 JUMP JUMPDEST PUSH0 PUSH0 REVERT JUMPDEST PUSH0 PUSH20 0xFFFFFFFFFFFFFFFFFFFFFFFFFFFFFFFFFFFFFFFF DUP3 AND SWAP1 POP SWAP2 SWAP1 POP JUMP JUMPDEST PUSH0 PUSH2 0x19D DUP3 PUSH2 0x174 JUMP JUMPDEST SWAP1 POP SWAP2 SWAP1 POP JUMP JUMPDEST PUSH2 0x1AD DUP2 PUSH2 0x193 JUMP JUMPDEST DUP2 EQ PUSH2 0x1B7 JUMPI PUSH0 PUSH0 REVERT JUMPDEST POP JUMP JUMPDEST PUSH0 DUP2 MLOAD SWAP1 POP PUSH2 0x1C8 DUP2 PUSH2 0x1A4 JUMP JUMPDEST SWAP3 SWAP2 POP POP JUMP JUMPDEST PUSH0 PUSH0 PUSH1 0x40 DUP4 DUP6 SUB SLT ISZERO PUSH2 0x1E4 JUMPI PUSH2 0x1E3 PUSH2 0x170 JUMP JUMPDEST JUMPDEST PUSH0 PUSH2 0x1F1 DUP6 DUP3 DUP7 ADD PUSH2 0x1BA JUMP JUMPDEST SWAP3 POP POP PUSH1 0x20 PUSH2 0x202 DUP6 DUP3 DUP7 ADD PUSH2 0x1BA JUMP JUMPDEST SWAP2 POP POP SWAP3 POP SWAP3 SWAP1 POP JUMP JUMPDEST PUSH0 DUP3 DUP3 MSTORE PUSH1 0x20 DUP3 ADD SWAP1 POP SWAP3 SWAP2 POP POP JUMP JUMPDEST PUSH32 0x496E76616C6964205553444320746F6B656E2061646472657373000000000000 PUSH0 DUP3 ADD MSTORE POP JUMP JUMPDEST PUSH0 PUSH2 0x250 PUSH1 0x1A DUP4 PUSH2 0x20C JUMP JUMPDEST SWAP2 POP PUSH2 0x25B DUP3 PUSH2 0x21C JUMP JUMPDEST PUSH1 0x20 DUP3 ADD SWAP1 POP SWAP2 SWAP1 POP JUMP JUMPDEST PUSH0 PUSH1 0x20 DUP3 ADD SWAP1 POP DUP2 DUP2 SUB PUSH0 DUP4 ADD MSTORE PUSH2 0x27D DUP2 PUSH2 0x244 JUMP JUMPDEST SWAP1 POP SWAP2 SWAP1 POP JUMP JUMPDEST PUSH2 0x3281 DUP1 PUSH2 0x291 PUSH0 CODECOPY PUSH0 RETURN INVALID PUSH1 0x80 PUSH1 0x40 MSTORE PUSH1 0x4 CALLDATASIZE LT PUSH2 0xDC JUMPI PUSH0 CALLDATALOAD PUSH1 0xE0 SHR DUP1 PUSH4 0x777E0D86 GT PUSH2 0x7E JUMPI DUP1 PUSH4 0xAB7B1C89 GT PUSH2 0x58 JUMPI DUP1 PUSH4 0xAB7B1C89 EQ PUSH2 0x2AF JUMPI DUP1 PUSH4 0xBFAE5F42 EQ PUSH2 0x2D7 JUMPI DUP1 PUSH4 0xCCD6B218 EQ PUSH2 0x301 JUMPI DUP1 PUSH4 0xD13D5E56 EQ PUSH2 0x32B JUMPI PUSH2 0xDC JUMP JUMPDEST DUP1 PUSH4 0x777E0D86 EQ PUSH2 0x216 JUMPI DUP1 PUSH4 0x98C61C37 EQ PUSH2 0x240 JUMPI DUP1 PUSH4 0x9D741E5D EQ PUSH2 0x285 JUMPI PUSH2 0xDC JUMP JUMPDEST DUP1 PUSH4 0x46208D68 GT PUSH2 0xBA JUMPI DUP1 PUSH4 0x46208D68 EQ PUSH2 0x14C JUMPI DUP1 PUSH4 0x47126F62 EQ PUSH2 0x174 JUMPI DUP1 PUSH4 0x6B3731F0 EQ PUSH2 0x1B1 JUMPI DUP1 PUSH4 0x6E04FF0D EQ PUSH2 0x1D9 JUMPI PUSH2 0xDC JUMP JUMPDEST DUP1 PUSH4 0x1443E4E7 EQ PUSH2 0xE0 JUMPI DUP1 PUSH4 0x2D66195E EQ PUSH2 0xFC JUMPI DUP1 PUSH4 0x4585E33B EQ PUSH2 0x124 JUMPI JUMPDEST PUSH0 PUSH0 REVERT JUMPDEST PUSH2 0xFA PUSH1 0x4 DUP1 CALLDATASIZE SUB DUP2 ADD SWAP1 PUSH2 0xF5 SWAP2 SWAP1 PUSH2 0x218B JUMP JUMPDEST PUSH2 0x367 JUMP JUMPDEST STOP JUMPDEST CALLVALUE DUP1 ISZERO PUSH2 0x107 JUMPI PUSH0 PUSH0 REVERT JUMPDEST POP PUSH2 0x122 PUSH1 0x4 DUP1 CALLDATASIZE SUB DUP2 ADD SWAP1 PUSH2 0x11D SWAP2 SWAP1 PUSH2 0x2235 JUMP JUMPDEST PUSH2 0x7AE JUMP JUMPDEST STOP JUMPDEST CALLVALUE DUP1 ISZERO PUSH2 0x12F JUMPI PUSH0 PUSH0 REVERT JUMPDEST POP PUSH2 0x14A PUSH1 0x4 DUP1 CALLDATASIZE SUB DUP2 ADD SWAP1 PUSH2 0x145 SWAP2 SWAP1 PUSH2 0x22D4 JUMP JUMPDEST PUSH2 0xB3B JUMP JUMPDEST STOP JUMPDEST CALLVALUE DUP1 ISZERO PUSH2 0x157 JUMPI PUSH0 PUSH0 REVERT JUMPDEST POP PUSH2 0x172 PUSH1 0x4 DUP1 CALLDATASIZE SUB DUP2 ADD SWAP1 PUSH2 0x16D SWAP2 SWAP1 PUSH2 0x2235 JUMP JUMPDEST PUSH2 0xEED JUMP JUMPDEST STOP JUMPDEST CALLVALUE DUP1 ISZERO PUSH2 0x17F JUMPI PUSH0 PUSH0 REVERT JUMPDEST POP PUSH2 0x19A PUSH1 0x4 DUP1 CALLDATASIZE SUB DUP2 ADD SWAP1 PUSH2 0x195 SWAP2 SWAP1 PUSH2 0x231F JUMP JUMPDEST PUSH2 0x12D6 JUMP JUMPDEST PUSH1 0x40 MLOAD PUSH2 0x1A8 SWAP3 SWAP2 SWAP1 PUSH2 0x2368 JUMP JUMPDEST PUSH1 0x40 MLOAD DUP1 SWAP2 SUB SWAP1 RETURN JUMPDEST CALLVALUE DUP1 ISZERO PUSH2 0x1BC JUMPI PUSH0 PUSH0 REVERT JUMPDEST POP PUSH2 0x1D7 PUSH1 0x4 DUP1 CALLDATASIZE SUB DUP2 ADD SWAP1 PUSH2 0x1D2 SWAP2 SWAP1 PUSH2 0x2235 JUMP JUMPDEST PUSH2 0x1324 JUMP JUMPDEST STOP JUMPDEST CALLVALUE DUP1 ISZERO PUSH2 0x1E4 JUMPI PUSH0 PUSH0 REVERT JUMPDEST POP PUSH2 0x1FF PUSH1 0x4 DUP1 CALLDATASIZE SUB DUP2 ADD SWAP1 PUSH2 0x1FA SWAP2 SWAP1 PUSH2 0x22D4 JUMP JUMPDEST PUSH2 0x1763 JUMP JUMPDEST PUSH1 0x40 MLOAD PUSH2 0x20D SWAP3 SWAP2 SWAP1 PUSH2 0x2419 JUMP JUMPDEST PUSH1 0x40 MLOAD DUP1 SWAP2 SUB SWAP1 RETURN JUMPDEST CALLVALUE DUP1 ISZERO PUSH2 0x221 JUMPI PUSH0 PUSH0 REVERT JUMPDEST POP PUSH2 0x22A PUSH2 0x1976 JUMP JUMPDEST PUSH1 0x40 MLOAD PUSH2 0x237 SWAP2 SWAP1 PUSH2 0x2447 JUMP JUMPDEST PUSH1 0x40 MLOAD DUP1 SWAP2 SUB SWAP1 RETURN JUMPDEST CALLVALUE DUP1 ISZERO PUSH2 0x24B JUMPI PUSH0 PUSH0 REVERT JUMPDEST POP PUSH2 0x266 PUSH1 0x4 DUP1 CALLDATASIZE SUB DUP2 ADD SWAP1 PUSH2 0x261 SWAP2 SWAP1 PUSH2 0x2235 JUMP JUMPDEST PUSH2 0x1A65 JUMP JUMPDEST PUSH1 0x40 MLOAD PUSH2 0x27C SWAP11 SWAP10 SWAP9 SWAP8 SWAP7 SWAP6 SWAP5 SWAP4 SWAP3 SWAP2 SWAP1 PUSH2 0x24D3 JUMP JUMPDEST PUSH1 0x40 MLOAD DUP1 SWAP2 SUB SWAP1 RETURN JUMPDEST CALLVALUE DUP1 ISZERO PUSH2 0x290 JUMPI PUSH0 PUSH0 REVERT JUMPDEST POP PUSH2 0x299 PUSH2 0x1B17 JUMP JUMPDEST PUSH1 0x40 MLOAD PUSH2 0x2A6 SWAP2 SWAP1 PUSH2 0x25C8 JUMP JUMPDEST PUSH1 0x40 MLOAD DUP1 SWAP2 SUB SWAP1 RETURN JUMPDEST CALLVALUE DUP1 ISZERO PUSH2 0x2BA JUMPI PUSH0 PUSH0 REVERT JUMPDEST POP PUSH2 0x2D5 PUSH1 0x4 DUP1 CALLDATASIZE SUB DUP2 ADD SWAP1 PUSH2 0x2D0 SWAP2 SWAP1 PUSH2 0x231F JUMP JUMPDEST PUSH2 0x1B3B JUMP JUMPDEST STOP JUMPDEST CALLVALUE DUP1 ISZERO PUSH2 0x2E2 JUMPI PUSH0 PUSH0 REVERT JUMPDEST POP PUSH2 0x2EB PUSH2 0x1F19 JUMP JUMPDEST PUSH1 0x40 MLOAD PUSH2 0x2F8 SWAP2 SWAP1 PUSH2 0x2447 JUMP JUMPDEST PUSH1 0x40 MLOAD DUP1 SWAP2 SUB SWAP1 RETURN JUMPDEST CALLVALUE DUP1 ISZERO PUSH2 0x30C JUMPI PUSH0 PUSH0 REVERT JUMPDEST POP PUSH2 0x315 PUSH2 0x1F1F JUMP JUMPDEST PUSH1 0x40 MLOAD PUSH2 0x322 SWAP2 SWAP1 PUSH2 0x2447 JUMP JUMPDEST PUSH1 0x40 MLOAD DUP1 SWAP2 SUB SWAP1 RETURN JUMPDEST CALLVALUE DUP1 ISZERO PUSH2 0x336 JUMPI PUSH0 PUSH0 REVERT JUMPDEST POP PUSH2 0x351 PUSH1 0x4 DUP1 CALLDATASIZE SUB DUP2 ADD SWAP1 PUSH2 0x34C SWAP2 SWAP1 PUSH2 0x2235 JUMP JUMPDEST PUSH2 0x1F25 JUMP JUMPDEST PUSH1 0x40 MLOAD PUSH2 0x35E SWAP2 SWAP1 PUSH2 0x26E7 JUMP JUMPDEST PUSH1 0x40 MLOAD DUP1 SWAP2 SUB SWAP1 RETURN JUMPDEST PUSH0 DUP4 GT PUSH2 0x3A9 JUMPI PUSH1 0x40 MLOAD PUSH32 0x8C379A000000000000000000000000000000000000000000000000000000000 DUP2 MSTORE PUSH1 0x4 ADD PUSH2 0x3A0 SWAP1 PUSH2 0x275B JUMP JUMPDEST PUSH1 0x40 MLOAD DUP1 SWAP2 SUB SWAP1 REVERT JUMPDEST DUP3 DUP4 DUP4 PUSH2 0x3B6 SWAP2 SWAP1 PUSH2 0x27A6 JUMP JUMPDEST GT PUSH2 0x3F6 JUMPI PUSH1 0x40 MLOAD PUSH32 0x8C379A000000000000000000000000000000000000000000000000000000000 DUP2 MSTORE PUSH1 0x4 ADD PUSH2 0x3ED SWAP1 PUSH2 0x2857 JUMP JUMPDEST PUSH1 0x40 MLOAD DUP1 SWAP2 SUB SWAP1 REVERT JUMPDEST PUSH0 CALLVALUE GT PUSH2 0x438 JUMPI PUSH1 0x40 MLOAD PUSH32 0x8C379A000000000000000000000000000000000000000000000000000000000 DUP2 MSTORE PUSH1 0x4 ADD PUSH2 0x42F SWAP1 PUSH2 0x28BF JUMP JUMPDEST PUSH1 0x40 MLOAD DUP1 SWAP2 SUB SWAP1 REVERT JUMPDEST PUSH0 PUSH2 0x441 PUSH2 0x1976 JUMP JUMPDEST SWAP1 POP PUSH0 PUSH8 0xDE0B6B3A7640000 PUSH1 0x64 DUP4 PUSH2 0x45A SWAP2 SWAP1 PUSH2 0x27A6 JUMP JUMPDEST PUSH2 0x464 SWAP2 SWAP1 PUSH2 0x290A JUMP JUMPDEST PUSH8 0xDE0B6B3A7640000 PUSH1 0x3 SLOAD DUP8 PUSH2 0x47B SWAP2 SWAP1 PUSH2 0x27A6 JUMP JUMPDEST PUSH2 0x485 SWAP2 SWAP1 PUSH2 0x27A6 JUMP JUMPDEST PUSH2 0x48F SWAP2 SWAP1 PUSH2 0x290A JUMP JUMPDEST SWAP1 POP DUP1 CALLVALUE LT ISZERO PUSH2 0x4D4 JUMPI PUSH1 0x40 MLOAD PUSH32 0x8C379A000000000000000000000000000000000000000000000000000000000 DUP2 MSTORE PUSH1 0x4 ADD PUSH2 0x4CB SWAP1 PUSH2 0x2984 JUMP JUMPDEST PUSH1 0x40 MLOAD DUP1 SWAP2 SUB SWAP1 REVERT JUMPDEST PUSH1 0x5 PUSH0 CALLER PUSH20 0xFFFFFFFFFFFFFFFFFFFFFFFFFFFFFFFFFFFFFFFF AND PUSH20 0xFFFFFFFFFFFFFFFFFFFFFFFFFFFFFFFFFFFFFFFF AND DUP2 MSTORE PUSH1 0x20 ADD SWAP1 DUP2 MSTORE PUSH1 0x20 ADD PUSH0 KECCAK256 PUSH0 DUP2 SLOAD DUP1 SWAP3 SWAP2 SWAP1 PUSH2 0x521 SWAP1 PUSH2 0x29A2 JUMP JUMPDEST SWAP2 SWAP1 POP SSTORE POP PUSH0 PUSH1 0x5 PUSH0 CALLER PUSH20 0xFFFFFFFFFFFFFFFFFFFFFFFFFFFFFFFFFFFFFFFF AND PUSH20 0xFFFFFFFFFFFFFFFFFFFFFFFFFFFFFFFFFFFFFFFF AND DUP2 MSTORE PUSH1 0x20 ADD SWAP1 DUP2 MSTORE PUSH1 0x20 ADD PUSH0 KECCAK256 SLOAD SWAP1 POP PUSH1 0x40 MLOAD DUP1 PUSH2 0x140 ADD PUSH1 0x40 MSTORE DUP1 DUP3 DUP2 MSTORE PUSH1 0x20 ADD CALLER PUSH20 0xFFFFFFFFFFFFFFFFFFFFFFFFFFFFFFFFFFFFFFFF AND DUP2 MSTORE PUSH1 0x20 ADD PUSH0 PUSH20 0xFFFFFFFFFFFFFFFFFFFFFFFFFFFFFFFFFFFFFFFF AND DUP2 MSTORE PUSH1 0x20 ADD DUP8 DUP2 MSTORE PUSH1 0x20 ADD DUP7 DUP2 MSTORE PUSH1 0x20 ADD CALLVALUE DUP2 MSTORE PUSH1 0x20 ADD DUP6 DUP2 MSTORE PUSH1 0x20 ADD PUSH0 DUP2 MSTORE PUSH1 0x20 ADD PUSH0 ISZERO ISZERO DUP2 MSTORE PUSH1 0x20 ADD PUSH0 PUSH1 0x6 DUP2 GT ISZERO PUSH2 0x5EA JUMPI PUSH2 0x5E9 PUSH2 0x2460 JUMP JUMPDEST JUMPDEST DUP2 MSTORE POP PUSH1 0x7 PUSH0 CALLER PUSH20 0xFFFFFFFFFFFFFFFFFFFFFFFFFFFFFFFFFFFFFFFF AND PUSH20 0xFFFFFFFFFFFFFFFFFFFFFFFFFFFFFFFFFFFFFFFF AND DUP2 MSTORE PUSH1 0x20 ADD SWAP1 DUP2 MSTORE PUSH1 0x20 ADD PUSH0 KECCAK256 PUSH0 DUP4 DUP2 MSTORE PUSH1 0x20 ADD SWAP1 DUP2 MSTORE PUSH1 0x20 ADD PUSH0 KECCAK256 PUSH0 DUP3 ADD MLOAD DUP2 PUSH0 ADD SSTORE PUSH1 0x20 DUP3 ADD MLOAD DUP2 PUSH1 0x1 ADD PUSH0 PUSH2 0x100 EXP DUP2 SLOAD DUP2 PUSH20 0xFFFFFFFFFFFFFFFFFFFFFFFFFFFFFFFFFFFFFFFF MUL NOT AND SWAP1 DUP4 PUSH20 0xFFFFFFFFFFFFFFFFFFFFFFFFFFFFFFFFFFFFFFFF AND MUL OR SWAP1 SSTORE POP PUSH1 0x40 DUP3 ADD MLOAD DUP2 PUSH1 0x2 ADD PUSH0 PUSH2 0x100 EXP DUP2 SLOAD DUP2 PUSH20 0xFFFFFFFFFFFFFFFFFFFFFFFFFFFFFFFFFFFFFFFF MUL NOT AND SWAP1 DUP4 PUSH20 0xFFFFFFFFFFFFFFFFFFFFFFFFFFFFFFFFFFFFFFFF AND MUL OR SWAP1 SSTORE POP PUSH1 0x60 DUP3 ADD MLOAD DUP2 PUSH1 0x3 ADD SSTORE PUSH1 0x80 DUP3 ADD MLOAD DUP2 PUSH1 0x4 ADD SSTORE PUSH1 0xA0 DUP3 ADD MLOAD DUP2 PUSH1 0x5 ADD SSTORE PUSH1 0xC0 DUP3 ADD MLOAD DUP2 PUSH1 0x6 ADD SSTORE PUSH1 0xE0 DUP3 ADD MLOAD DUP2 PUSH1 0x7 ADD SSTORE PUSH2 0x100 DUP3 ADD MLOAD DUP2 PUSH1 0x8 ADD PUSH0 PUSH2 0x100 EXP DUP2 SLOAD DUP2 PUSH1 0xFF MUL NOT AND SWAP1 DUP4 ISZERO ISZERO MUL OR SWAP1 SSTORE POP PUSH2 0x120 DUP3 ADD MLOAD DUP2 PUSH1 0x8 ADD PUSH1 0x1 PUSH2 0x100 EXP DUP2 SLOAD DUP2 PUSH1 0xFF MUL NOT AND SWAP1 DUP4 PUSH1 0x6 DUP2 GT ISZERO PUSH2 0x74B JUMPI PUSH2 0x74A PUSH2 0x2460 JUMP JUMPDEST JUMPDEST MUL OR SWAP1 SSTORE POP SWAP1 POP POP CALLER PUSH20 0xFFFFFFFFFFFFFFFFFFFFFFFFFFFFFFFFFFFFFFFF AND DUP2 PUSH32 0x5562CD4EE21F29C3F86BD5FBEF7DB62E5D2BD7F7AEC654FF86558DCDD7EFE481 DUP9 DUP9 CALLVALUE PUSH1 0x40 MLOAD PUSH2 0x79E SWAP4 SWAP3 SWAP2 SWAP1 PUSH2 0x29E9 JUMP JUMPDEST PUSH1 0x40 MLOAD DUP1 SWAP2 SUB SWAP1 LOG3 POP POP POP POP POP POP JUMP JUMPDEST PUSH0 PUSH1 0x7 PUSH0 DUP5 PUSH20 0xFFFFFFFFFFFFFFFFFFFFFFFFFFFFFFFFFFFFFFFF AND PUSH20 0xFFFFFFFFFFFFFFFFFFFFFFFFFFFFFFFFFFFFFFFF AND DUP2 MSTORE PUSH1 0x20 ADD SWAP1 DUP2 MSTORE PUSH1 0x20 ADD PUSH0 KECCAK256 PUSH0 DUP4 DUP2 MSTORE PUSH1 0x20 ADD SWAP1 DUP2 MSTORE PUSH1 0x20 ADD PUSH0 KECCAK256 SWAP1 POP PUSH0 PUSH1 0x6 DUP2 GT ISZERO PUSH2 0x810 JUMPI PUSH2 0x80F PUSH2 0x2460 JUMP JUMPDEST JUMPDEST DUP2 PUSH1 0x8 ADD PUSH1 0x1 SWAP1 SLOAD SWAP1 PUSH2 0x100 EXP SWAP1 DIV PUSH1 0xFF AND PUSH1 0x6 DUP2 GT ISZERO PUSH2 0x834 JUMPI PUSH2 0x833 PUSH2 0x2460 JUMP JUMPDEST JUMPDEST EQ PUSH2 0x874 JUMPI PUSH1 0x40 MLOAD PUSH32 0x8C379A000000000000000000000000000000000000000000000000000000000 DUP2 MSTORE PUSH1 0x4 ADD PUSH2 0x86B SWAP1 PUSH2 0x2A68 JUMP JUMPDEST PUSH1 0x40 MLOAD DUP1 SWAP2 SUB SWAP1 REVERT JUMPDEST CALLER PUSH20 0xFFFFFFFFFFFFFFFFFFFFFFFFFFFFFFFFFFFFFFFF AND DUP2 PUSH1 0x1 ADD PUSH0 SWAP1 SLOAD SWAP1 PUSH2 0x100 EXP SWAP1 DIV PUSH20 0xFFFFFFFFFFFFFFFFFFFFFFFFFFFFFFFFFFFFFFFF AND PUSH20 0xFFFFFFFFFFFFFFFFFFFFFFFFFFFFFFFFFFFFFFFF AND SUB PUSH2 0x905 JUMPI PUSH1 0x40 MLOAD PUSH32 0x8C379A000000000000000000000000000000000000000000000000000000000 DUP2 MSTORE PUSH1 0x4 ADD PUSH2 0x8FC SWAP1 PUSH2 0x2AF6 JUMP JUMPDEST PUSH1 0x40 MLOAD DUP1 SWAP2 SUB SWAP1 REVERT JUMPDEST PUSH0 PUSH0 PUSH0 SWAP1 SLOAD SWAP1 PUSH2 0x100 EXP SWAP1 DIV PUSH20 0xFFFFFFFFFFFFFFFFFFFFFFFFFFFFFFFFFFFFFFFF AND SWAP1 POP DUP2 PUSH1 0x3 ADD SLOAD DUP2 PUSH20 0xFFFFFFFFFFFFFFFFFFFFFFFFFFFFFFFFFFFFFFFF AND PUSH4 0xDD62ED3E CALLER ADDRESS PUSH1 0x40 MLOAD DUP4 PUSH4 0xFFFFFFFF AND PUSH1 0xE0 SHL DUP2 MSTORE PUSH1 0x4 ADD PUSH2 0x969 SWAP3 SWAP2 SWAP1 PUSH2 0x2B14 JUMP JUMPDEST PUSH1 0x20 PUSH1 0x40 MLOAD DUP1 DUP4 SUB DUP2 DUP7 GAS STATICCALL ISZERO DUP1 ISZERO PUSH2 0x984 JUMPI RETURNDATASIZE PUSH0 PUSH0 RETURNDATACOPY RETURNDATASIZE PUSH0 REVERT JUMPDEST POP POP POP POP PUSH1 0x40 MLOAD RETURNDATASIZE PUSH1 0x1F NOT PUSH1 0x1F DUP3 ADD AND DUP3 ADD DUP1 PUSH1 0x40 MSTORE POP DUP2 ADD SWAP1 PUSH2 0x9A8 SWAP2 SWAP1 PUSH2 0x2B4F JUMP JUMPDEST LT ISZERO PUSH2 0x9E9 JUMPI PUSH1 0x40 MLOAD PUSH32 0x8C379A000000000000000000000000000000000000000000000000000000000 DUP2 MSTORE PUSH1 0x4 ADD PUSH2 0x9E0 SWAP1 PUSH2 0x2BC4 JUMP JUMPDEST PUSH1 0x40 MLOAD DUP1 SWAP2 SUB SWAP1 REVERT JUMPDEST DUP1 PUSH20 0xFFFFFFFFFFFFFFFFFFFFFFFFFFFFFFFFFFFFFFFF AND PUSH4 0x23B872DD CALLER ADDRESS DUP6 PUSH1 0x3 ADD SLOAD PUSH1 0x40 MLOAD DUP5 PUSH4 0xFFFFFFFF AND PUSH1 0xE0 SHL DUP2 MSTORE PUSH1 0x4 ADD PUSH2 0xA2A SWAP4 SWAP3 SWAP2 SWAP1 PUSH2 0x2BE2 JUMP JUMPDEST PUSH1 0x20 PUSH1 0x40 MLOAD DUP1 DUP4 SUB DUP2 PUSH0 DUP8 GAS CALL ISZERO DUP1 ISZERO PUSH2 0xA46 JUMPI RETURNDATASIZE PUSH0 PUSH0 RETURNDATACOPY RETURNDATASIZE PUSH0 REVERT JUMPDEST POP POP POP POP PUSH1 0x40 MLOAD RETURNDATASIZE PUSH1 0x1F NOT PUSH1 0x1F DUP3 ADD AND DUP3 ADD DUP1 PUSH1 0x40 MSTORE POP DUP2 ADD SWAP1 PUSH2 0xA6A SWAP2 SWAP1 PUSH2 0x2C41 JUMP JUMPDEST POP CALLER DUP3 PUSH1 0x2 ADD PUSH0 PUSH2 0x100 EXP DUP2 SLOAD DUP2 PUSH20 0xFFFFFFFFFFFFFFFFFFFFFFFFFFFFFFFFFFFFFFFF MUL NOT AND SWAP1 DUP4 PUSH20 0xFFFFFFFFFFFFFFFFFFFFFFFFFFFFFFFFFFFFFFFF AND MUL OR SWAP1 SSTORE POP PUSH1 0x1 DUP3 PUSH1 0x8 ADD PUSH1 0x1 PUSH2 0x100 EXP DUP2 SLOAD DUP2 PUSH1 0xFF MUL NOT AND SWAP1 DUP4 PUSH1 0x6 DUP2 GT ISZERO PUSH2 0xAD5 JUMPI PUSH2 0xAD4 PUSH2 0x2460 JUMP JUMPDEST JUMPDEST MUL OR SWAP1 SSTORE POP CALLER PUSH20 0xFFFFFFFFFFFFFFFFFFFFFFFFFFFFFFFFFFFFFFFF AND DUP5 PUSH20 0xFFFFFFFFFFFFFFFFFFFFFFFFFFFFFFFFFFFFFFFF AND DUP5 PUSH32 0x7DFB381CA6B3C326CF21BFFBA41143DAF6E8967C09B614A3F8CE26869EF4478A PUSH1 0x40 MLOAD PUSH1 0x40 MLOAD DUP1 SWAP2 SUB SWAP1 LOG4 POP POP POP POP JUMP JUMPDEST PUSH0 DUP3 DUP3 DUP2 ADD SWAP1 PUSH2 0xB4B SWAP2 SWAP1 PUSH2 0x231F JUMP JUMPDEST SWAP1 POP PUSH0 PUSH1 0x6 DUP3 DUP2 SLOAD DUP2 LT PUSH2 0xB62 JUMPI PUSH2 0xB61 PUSH2 0x2C6C JUMP JUMPDEST JUMPDEST SWAP1 PUSH0 MSTORE PUSH1 0x20 PUSH0 KECCAK256 SWAP1 PUSH1 0x2 MUL ADD PUSH1 0x40 MLOAD DUP1 PUSH1 0x40 ADD PUSH1 0x40 MSTORE SWAP1 DUP2 PUSH0 DUP3 ADD PUSH0 SWAP1 SLOAD SWAP1 PUSH2 0x100 EXP SWAP1 DIV PUSH20 0xFFFFFFFFFFFFFFFFFFFFFFFFFFFFFFFFFFFFFFFF AND PUSH20 0xFFFFFFFFFFFFFFFFFFFFFFFFFFFFFFFFFFFFFFFF AND PUSH20 0xFFFFFFFFFFFFFFFFFFFFFFFFFFFFFFFFFFFFFFFF AND DUP2 MSTORE PUSH1 0x20 ADD PUSH1 0x1 DUP3 ADD SLOAD DUP2 MSTORE POP POP SWAP1 POP PUSH0 PUSH1 0x7 PUSH0 DUP4 PUSH0 ADD MLOAD PUSH20 0xFFFFFFFFFFFFFFFFFFFFFFFFFFFFFFFFFFFFFFFF AND PUSH20 0xFFFFFFFFFFFFFFFFFFFFFFFFFFFFFFFFFFFFFFFF AND DUP2 MSTORE PUSH1 0x20 ADD SWAP1 DUP2 MSTORE PUSH1 0x20 ADD PUSH0 KECCAK256 PUSH0 DUP4 PUSH1 0x20 ADD MLOAD DUP2 MSTORE PUSH1 0x20 ADD SWAP1 DUP2 MSTORE PUSH1 0x20 ADD PUSH0 KECCAK256 SWAP1 POP PUSH1 0x2 PUSH1 0x6 DUP2 GT ISZERO PUSH2 0xC43 JUMPI PUSH2 0xC42 PUSH2 0x2460 JUMP JUMPDEST JUMPDEST DUP2 PUSH1 0x8 ADD PUSH1 0x1 SWAP1 SLOAD SWAP1 PUSH2 0x100 EXP SWAP1 DIV PUSH1 0xFF AND PUSH1 0x6 DUP2 GT ISZERO PUSH2 0xC67 JUMPI PUSH2 0xC66 PUSH2 0x2460 JUMP JUMPDEST JUMPDEST EQ PUSH2 0xC74 JUMPI POP POP POP PUSH2 0xEE9 JUMP JUMPDEST PUSH0 DUP2 PUSH1 0x7 ADD SLOAD TIMESTAMP GT SWAP1 POP PUSH0 PUSH2 0xC87 PUSH2 0x1976 JUMP JUMPDEST SWAP1 POP PUSH0 PUSH8 0xDE0B6B3A7640000 DUP3 DUP6 PUSH1 0x5 ADD SLOAD PUSH2 0xCA3 SWAP2 SWAP1 PUSH2 0x27A6 JUMP JUMPDEST PUSH2 0xCAD SWAP2 SWAP1 PUSH2 0x290A JUMP JUMPDEST SWAP1 POP PUSH0 PUSH1 0x64 DUP6 PUSH1 0x4 ADD SLOAD DUP7 PUSH1 0x3 ADD SLOAD PUSH2 0xCC6 SWAP2 SWAP1 PUSH2 0x27A6 JUMP JUMPDEST PUSH2 0xCD0 SWAP2 SWAP1 PUSH2 0x290A JUMP JUMPDEST SWAP1 POP PUSH0 DUP2 DUP4 GT ISZERO SWAP1 POP DUP5 DUP1 PUSH2 0xCE2 JUMPI POP DUP1 JUMPDEST ISZERO PUSH2 0xEE0 JUMPI PUSH1 0x6 DUP7 PUSH1 0x8 ADD PUSH1 0x1 PUSH2 0x100 EXP DUP2 SLOAD DUP2 PUSH1 0xFF MUL NOT AND SWAP1 DUP4 PUSH1 0x6 DUP2 GT ISZERO PUSH2 0xD0F JUMPI PUSH2 0xD0E PUSH2 0x2460 JUMP JUMPDEST JUMPDEST MUL OR SWAP1 SSTORE POP DUP6 PUSH1 0x2 ADD PUSH0 SWAP1 SLOAD SWAP1 PUSH2 0x100 EXP SWAP1 DIV PUSH20 0xFFFFFFFFFFFFFFFFFFFFFFFFFFFFFFFFFFFFFFFF AND PUSH20 0xFFFFFFFFFFFFFFFFFFFFFFFFFFFFFFFFFFFFFFFF AND PUSH2 0x8FC DUP8 PUSH1 0x5 ADD SLOAD SWAP1 DUP2 ISZERO MUL SWAP1 PUSH1 0x40 MLOAD PUSH0 PUSH1 0x40 MLOAD DUP1 DUP4 SUB DUP2 DUP6 DUP9 DUP9 CALL SWAP4 POP POP POP POP ISZERO DUP1 ISZERO PUSH2 0xD7E JUMPI RETURNDATASIZE PUSH0 PUSH0 RETURNDATACOPY RETURNDATASIZE PUSH0 REVERT JUMPDEST POP DUP7 PUSH0 ADD MLOAD PUSH20 0xFFFFFFFFFFFFFFFFFFFFFFFFFFFFFFFFFFFFFFFF AND DUP7 PUSH0 ADD SLOAD PUSH32 0x73DE9ACC561F27528AB0A3B5DD63FEFB4E59F95575891299A6F862A787798176 PUSH1 0x40 MLOAD PUSH1 0x40 MLOAD DUP1 SWAP2 SUB SWAP1 LOG3 PUSH1 0x6 PUSH1 0x1 PUSH1 0x6 DUP1 SLOAD SWAP1 POP PUSH2 0xDDD SWAP2 SWAP1 PUSH2 0x2C99 JUMP JUMPDEST DUP2 SLOAD DUP2 LT PUSH2 0xDEE JUMPI PUSH2 0xDED PUSH2 0x2C6C JUMP JUMPDEST JUMPDEST SWAP1 PUSH0 MSTORE PUSH1 0x20 PUSH0 KECCAK256 SWAP1 PUSH1 0x2 MUL ADD PUSH1 0x6 DUP10 DUP2 SLOAD DUP2 LT PUSH2 0xE0E JUMPI PUSH2 0xE0D PUSH2 0x2C6C JUMP JUMPDEST JUMPDEST SWAP1 PUSH0 MSTORE PUSH1 0x20 PUSH0 KECCAK256 SWAP1 PUSH1 0x2 MUL ADD PUSH0 DUP3 ADD PUSH0 SWAP1 SLOAD SWAP1 PUSH2 0x100 EXP SWAP1 DIV PUSH20 0xFFFFFFFFFFFFFFFFFFFFFFFFFFFFFFFFFFFFFFFF AND DUP2 PUSH0 ADD PUSH0 PUSH2 0x100 EXP DUP2 SLOAD DUP2 PUSH20 0xFFFFFFFFFFFFFFFFFFFFFFFFFFFFFFFFFFFFFFFF MUL NOT AND SWAP1 DUP4 PUSH20 0xFFFFFFFFFFFFFFFFFFFFFFFFFFFFFFFFFFFFFFFF AND MUL OR SWAP1 SSTORE POP PUSH1 0x1 DUP3 ADD SLOAD DUP2 PUSH1 0x1 ADD SSTORE SWAP1 POP POP PUSH1 0x6 DUP1 SLOAD DUP1 PUSH2 0xE9C JUMPI PUSH2 0xE9B PUSH2 0x2CCC JUMP JUMPDEST JUMPDEST PUSH1 0x1 SWAP1 SUB DUP2 DUP2 SWAP1 PUSH0 MSTORE PUSH1 0x20 PUSH0 KECCAK256 SWAP1 PUSH1 0x2 MUL ADD PUSH0 PUSH0 DUP3 ADD PUSH0 PUSH2 0x100 EXP DUP2 SLOAD SWAP1 PUSH20 0xFFFFFFFFFFFFFFFFFFFFFFFFFFFFFFFFFFFFFFFF MUL NOT AND SWAP1 SSTORE PUSH1 0x1 DUP3 ADD PUSH0 SWAP1 SSTORE POP POP SWAP1 SSTORE JUMPDEST POP POP POP POP POP POP POP POP JUMPDEST POP POP JUMP JUMPDEST PUSH0 PUSH1 0x7 PUSH0 DUP5 PUSH20 0xFFFFFFFFFFFFFFFFFFFFFFFFFFFFFFFFFFFFFFFF AND PUSH20 0xFFFFFFFFFFFFFFFFFFFFFFFFFFFFFFFFFFFFFFFF AND DUP2 MSTORE PUSH1 0x20 ADD SWAP1 DUP2 MSTORE PUSH1 0x20 ADD PUSH0 KECCAK256 PUSH0 DUP4 DUP2 MSTORE PUSH1 0x20 ADD SWAP1 DUP2 MSTORE PUSH1 0x20 ADD PUSH0 KECCAK256 SWAP1 POP PUSH1 0x1 PUSH1 0x6 DUP2 GT ISZERO PUSH2 0xF50 JUMPI PUSH2 0xF4F PUSH2 0x2460 JUMP JUMPDEST JUMPDEST DUP2 PUSH1 0x8 ADD PUSH1 0x1 SWAP1 SLOAD SWAP1 PUSH2 0x100 EXP SWAP1 DIV PUSH1 0xFF AND PUSH1 0x6 DUP2 GT ISZERO PUSH2 0xF74 JUMPI PUSH2 0xF73 PUSH2 0x2460 JUMP JUMPDEST JUMPDEST EQ PUSH2 0xFB4 JUMPI PUSH1 0x40 MLOAD PUSH32 0x8C379A000000000000000000000000000000000000000000000000000000000 DUP2 MSTORE PUSH1 0x4 ADD PUSH2 0xFAB SWAP1 PUSH2 0x2D43 JUMP JUMPDEST PUSH1 0x40 MLOAD DUP1 SWAP2 SUB SWAP1 REVERT JUMPDEST DUP1 PUSH1 0x1 ADD PUSH0 SWAP1 SLOAD SWAP1 PUSH2 0x100 EXP SWAP1 DIV PUSH20 0xFFFFFFFFFFFFFFFFFFFFFFFFFFFFFFFFFFFFFFFF AND PUSH20 0xFFFFFFFFFFFFFFFFFFFFFFFFFFFFFFFFFFFFFFFF AND CALLER PUSH20 0xFFFFFFFFFFFFFFFFFFFFFFFFFFFFFFFFFFFFFFFF AND EQ PUSH2 0x1045 JUMPI PUSH1 0x40 MLOAD PUSH32 0x8C379A000000000000000000000000000000000000000000000000000000000 DUP2 MSTORE PUSH1 0x4 ADD PUSH2 0x103C SWAP1 PUSH2 0x2DAB JUMP JUMPDEST PUSH1 0x40 MLOAD DUP1 SWAP2 SUB SWAP1 REVERT JUMPDEST DUP1 PUSH1 0x1 ADD PUSH0 SWAP1 SLOAD SWAP1 PUSH2 0x100 EXP SWAP1 DIV PUSH20 0xFFFFFFFFFFFFFFFFFFFFFFFFFFFFFFFFFFFFFFFF AND PUSH20 0xFFFFFFFFFFFFFFFFFFFFFFFFFFFFFFFFFFFFFFFF AND CALLER PUSH20 0xFFFFFFFFFFFFFFFFFFFFFFFFFFFFFFFFFFFFFFFF AND SUB PUSH2 0x1225 JUMPI DUP1 PUSH1 0x1 ADD PUSH0 SWAP1 SLOAD SWAP1 PUSH2 0x100 EXP SWAP1 DIV PUSH20 0xFFFFFFFFFFFFFFFFFFFFFFFFFFFFFFFFFFFFFFFF AND PUSH20 0xFFFFFFFFFFFFFFFFFFFFFFFFFFFFFFFFFFFFFFFF AND PUSH2 0x8FC DUP3 PUSH1 0x5 ADD SLOAD SWAP1 DUP2 ISZERO MUL SWAP1 PUSH1 0x40 MLOAD PUSH0 PUSH1 0x40 MLOAD DUP1 DUP4 SUB DUP2 DUP6 DUP9 DUP9 CALL SWAP4 POP POP POP POP ISZERO DUP1 ISZERO PUSH2 0x1105 JUMPI RETURNDATASIZE PUSH0 PUSH0 RETURNDATACOPY RETURNDATASIZE PUSH0 REVERT JUMPDEST POP PUSH0 PUSH20 0xFFFFFFFFFFFFFFFFFFFFFFFFFFFFFFFFFFFFFFFF AND DUP2 PUSH1 0x2 ADD PUSH0 SWAP1 SLOAD SWAP1 PUSH2 0x100 EXP SWAP1 DIV PUSH20 0xFFFFFFFFFFFFFFFFFFFFFFFFFFFFFFFFFFFFFFFF AND PUSH20 0xFFFFFFFFFFFFFFFFFFFFFFFFFFFFFFFFFFFFFFFF AND EQ PUSH2 0x1220 JUMPI PUSH0 PUSH0 SWAP1 SLOAD SWAP1 PUSH2 0x100 EXP SWAP1 DIV PUSH20 0xFFFFFFFFFFFFFFFFFFFFFFFFFFFFFFFFFFFFFFFF AND PUSH20 0xFFFFFFFFFFFFFFFFFFFFFFFFFFFFFFFFFFFFFFFF AND PUSH4 0xA9059CBB DUP3 PUSH1 0x2 ADD PUSH0 SWAP1 SLOAD SWAP1 PUSH2 0x100 EXP SWAP1 DIV PUSH20 0xFFFFFFFFFFFFFFFFFFFFFFFFFFFFFFFFFFFFFFFF AND DUP4 PUSH1 0x3 ADD SLOAD PUSH1 0x40 MLOAD DUP4 PUSH4 0xFFFFFFFF AND PUSH1 0xE0 SHL DUP2 MSTORE PUSH1 0x4 ADD PUSH2 0x11DE SWAP3 SWAP2 SWAP1 PUSH2 0x2368 JUMP JUMPDEST PUSH1 0x20 PUSH1 0x40 MLOAD DUP1 DUP4 SUB DUP2 PUSH0 DUP8 GAS CALL ISZERO DUP1 ISZERO PUSH2 0x11FA JUMPI RETURNDATASIZE PUSH0 PUSH0 RETURNDATACOPY RETURNDATASIZE PUSH0 REVERT JUMPDEST POP POP POP POP PUSH1 0x40 MLOAD RETURNDATASIZE PUSH1 0x1F NOT PUSH1 0x1F DUP3 ADD AND DUP3 ADD DUP1 PUSH1 0x40 MSTORE POP DUP2 ADD SWAP1 PUSH2 0x121E SWAP2 SWAP1 PUSH2 0x2C41 JUMP JUMPDEST POP JUMPDEST PUSH2 0x1260 JUMP JUMPDEST PUSH1 0x40 MLOAD PUSH32 0x8C379A000000000000000000000000000000000000000000000000000000000 DUP2 MSTORE PUSH1 0x4 ADD PUSH2 0x1257 SWAP1 PUSH2 0x2E13 JUMP JUMPDEST PUSH1 0x40 MLOAD DUP1 SWAP2 SUB SWAP1 REVERT JUMPDEST PUSH1 0x5 DUP2 PUSH1 0x8 ADD PUSH1 0x1 PUSH2 0x100 EXP DUP2 SLOAD DUP2 PUSH1 0xFF MUL NOT AND SWAP1 DUP4 PUSH1 0x6 DUP2 GT ISZERO PUSH2 0x1288 JUMPI PUSH2 0x1287 PUSH2 0x2460 JUMP JUMPDEST JUMPDEST MUL OR SWAP1 SSTORE POP DUP3 PUSH20 0xFFFFFFFFFFFFFFFFFFFFFFFFFFFFFFFFFFFFFFFF AND DUP3 PUSH32 0xC95604D026B20C7E728DC9CC9734F53F6F0E74537CB0C762295FA3EC640A911C PUSH1 0x40 MLOAD PUSH1 0x40 MLOAD DUP1 SWAP2 SUB SWAP1 LOG3 POP POP POP JUMP JUMPDEST PUSH1 0x6 DUP2 DUP2 SLOAD DUP2 LT PUSH2 0x12E5 JUMPI PUSH0 DUP1 REVERT JUMPDEST SWAP1 PUSH0 MSTORE PUSH1 0x20 PUSH0 KECCAK256 SWAP1 PUSH1 0x2 MUL ADD PUSH0 SWAP2 POP SWAP1 POP DUP1 PUSH0 ADD PUSH0 SWAP1 SLOAD SWAP1 PUSH2 0x100 EXP SWAP1 DIV PUSH20 0xFFFFFFFFFFFFFFFFFFFFFFFFFFFFFFFFFFFFFFFF AND SWAP1 DUP1 PUSH1 0x1 ADD SLOAD SWAP1 POP DUP3 JUMP JUMPDEST PUSH0 PUSH1 0x7 PUSH0 DUP5 PUSH20 0xFFFFFFFFFFFFFFFFFFFFFFFFFFFFFFFFFFFFFFFF AND PUSH20 0xFFFFFFFFFFFFFFFFFFFFFFFFFFFFFFFFFFFFFFFF AND DUP2 MSTORE PUSH1 0x20 ADD SWAP1 DUP2 MSTORE PUSH1 0x20 ADD PUSH0 KECCAK256 PUSH0 DUP4 DUP2 MSTORE PUSH1 0x20 ADD SWAP1 DUP2 MSTORE PUSH1 0x20 ADD PUSH0 KECCAK256 SWAP1 POP PUSH1 0x1 PUSH1 0x6 DUP2 GT ISZERO PUSH2 0x1387 JUMPI PUSH2 0x1386 PUSH2 0x2460 JUMP JUMPDEST JUMPDEST DUP2 PUSH1 0x8 ADD PUSH1 0x1 SWAP1 SLOAD SWAP1 PUSH2 0x100 EXP SWAP1 DIV PUSH1 0xFF AND PUSH1 0x6 DUP2 GT ISZERO PUSH2 0x13AB JUMPI PUSH2 0x13AA PUSH2 0x2460 JUMP JUMPDEST JUMPDEST EQ PUSH2 0x13EB JUMPI PUSH1 0x40 MLOAD PUSH32 0x8C379A000000000000000000000000000000000000000000000000000000000 DUP2 MSTORE PUSH1 0x4 ADD PUSH2 0x13E2 SWAP1 PUSH2 0x2E7B JUMP JUMPDEST PUSH1 0x40 MLOAD DUP1 SWAP2 SUB SWAP1 REVERT JUMPDEST DUP1 PUSH1 0x1 ADD PUSH0 SWAP1 SLOAD SWAP1 PUSH2 0x100 EXP SWAP1 DIV PUSH20 0xFFFFFFFFFFFFFFFFFFFFFFFFFFFFFFFFFFFFFFFF AND PUSH20 0xFFFFFFFFFFFFFFFFFFFFFFFFFFFFFFFFFFFFFFFF AND CALLER PUSH20 0xFFFFFFFFFFFFFFFFFFFFFFFFFFFFFFFFFFFFFFFF AND SUB PUSH2 0x14B3 JUMPI DUP1 PUSH1 0x8 ADD PUSH0 SWAP1 SLOAD SWAP1 PUSH2 0x100 EXP SWAP1 DIV PUSH1 0xFF AND ISZERO PUSH2 0x1492 JUMPI PUSH1 0x40 MLOAD PUSH32 0x8C379A000000000000000000000000000000000000000000000000000000000 DUP2 MSTORE PUSH1 0x4 ADD PUSH2 0x1489 SWAP1 PUSH2 0x2EE3 JUMP JUMPDEST PUSH1 0x40 MLOAD DUP1 SWAP2 SUB SWAP1 REVERT JUMPDEST PUSH1 0x1 DUP2 PUSH1 0x8 ADD PUSH0 PUSH2 0x100 EXP DUP2 SLOAD DUP2 PUSH1 0xFF MUL NOT AND SWAP1 DUP4 ISZERO ISZERO MUL OR SWAP1 SSTORE POP PUSH2 0x14EE JUMP JUMPDEST PUSH1 0x40 MLOAD PUSH32 0x8C379A000000000000000000000000000000000000000000000000000000000 DUP2 MSTORE PUSH1 0x4 ADD PUSH2 0x14E5 SWAP1 PUSH2 0x2F4B JUMP JUMPDEST PUSH1 0x40 MLOAD DUP1 SWAP2 SUB SWAP1 REVERT JUMPDEST CALLER PUSH20 0xFFFFFFFFFFFFFFFFFFFFFFFFFFFFFFFFFFFFFFFF AND DUP4 PUSH20 0xFFFFFFFFFFFFFFFFFFFFFFFFFFFFFFFFFFFFFFFF AND DUP4 PUSH32 0xA5FBBFFF4DECD4F44ED03E28267DD014277BCCD985CC2153ACFA058F41AE8C07 PUSH1 0x40 MLOAD PUSH1 0x40 MLOAD DUP1 SWAP2 SUB SWAP1 LOG4 DUP1 PUSH1 0x8 ADD PUSH0 SWAP1 SLOAD SWAP1 PUSH2 0x100 EXP SWAP1 DIV PUSH1 0xFF AND ISZERO PUSH2 0x175E JUMPI PUSH1 0x2 DUP2 PUSH1 0x8 ADD PUSH1 0x1 PUSH2 0x100 EXP DUP2 SLOAD DUP2 PUSH1 0xFF MUL NOT AND SWAP1 DUP4 PUSH1 0x6 DUP2 GT ISZERO PUSH2 0x1587 JUMPI PUSH2 0x1586 PUSH2 0x2460 JUMP JUMPDEST JUMPDEST MUL OR SWAP1 SSTORE POP DUP1 PUSH1 0x6 ADD SLOAD TIMESTAMP PUSH2 0x159C SWAP2 SWAP1 PUSH2 0x2F69 JUMP JUMPDEST DUP2 PUSH1 0x7 ADD DUP2 SWAP1 SSTORE POP PUSH0 PUSH0 SWAP1 SLOAD SWAP1 PUSH2 0x100 EXP SWAP1 DIV PUSH20 0xFFFFFFFFFFFFFFFFFFFFFFFFFFFFFFFFFFFFFFFF AND PUSH20 0xFFFFFFFFFFFFFFFFFFFFFFFFFFFFFFFFFFFFFFFF AND PUSH4 0xA9059CBB DUP3 PUSH1 0x1 ADD PUSH0 SWAP1 SLOAD SWAP1 PUSH2 0x100 EXP SWAP1 DIV PUSH20 0xFFFFFFFFFFFFFFFFFFFFFFFFFFFFFFFFFFFFFFFF AND DUP4 PUSH1 0x3 ADD SLOAD PUSH1 0x40 MLOAD DUP4 PUSH4 0xFFFFFFFF AND PUSH1 0xE0 SHL DUP2 MSTORE PUSH1 0x4 ADD PUSH2 0x1626 SWAP3 SWAP2 SWAP1 PUSH2 0x2368 JUMP JUMPDEST PUSH1 0x20 PUSH1 0x40 MLOAD DUP1 DUP4 SUB DUP2 PUSH0 DUP8 GAS CALL ISZERO DUP1 ISZERO PUSH2 0x1642 JUMPI RETURNDATASIZE PUSH0 PUSH0 RETURNDATACOPY RETURNDATASIZE PUSH0 REVERT JUMPDEST POP POP POP POP PUSH1 0x40 MLOAD RETURNDATASIZE PUSH1 0x1F NOT PUSH1 0x1F DUP3 ADD AND DUP3 ADD DUP1 PUSH1 0x40 MSTORE POP DUP2 ADD SWAP1 PUSH2 0x1666 SWAP2 SWAP1 PUSH2 0x2C41 JUMP JUMPDEST POP PUSH1 0x6 PUSH1 0x40 MLOAD DUP1 PUSH1 0x40 ADD PUSH1 0x40 MSTORE DUP1 DUP6 PUSH20 0xFFFFFFFFFFFFFFFFFFFFFFFFFFFFFFFFFFFFFFFF AND DUP2 MSTORE PUSH1 0x20 ADD DUP5 DUP2 MSTORE POP SWAP1 DUP1 PUSH1 0x1 DUP2 SLOAD ADD DUP1 DUP3 SSTORE DUP1 SWAP2 POP POP PUSH1 0x1 SWAP1 SUB SWAP1 PUSH0 MSTORE PUSH1 0x20 PUSH0 KECCAK256 SWAP1 PUSH1 0x2 MUL ADD PUSH0 SWAP1 SWAP2 SWAP1 SWAP2 SWAP1 SWAP2 POP PUSH0 DUP3 ADD MLOAD DUP2 PUSH0 ADD PUSH0 PUSH2 0x100 EXP DUP2 SLOAD DUP2 PUSH20 0xFFFFFFFFFFFFFFFFFFFFFFFFFFFFFFFFFFFFFFFF MUL NOT AND SWAP1 DUP4 PUSH20 0xFFFFFFFFFFFFFFFFFFFFFFFFFFFFFFFFFFFFFFFF AND MUL OR SWAP1 SSTORE POP PUSH1 0x20 DUP3 ADD MLOAD DUP2 PUSH1 0x1 ADD SSTORE POP POP DUP3 PUSH20 0xFFFFFFFFFFFFFFFFFFFFFFFFFFFFFFFFFFFFFFFF AND DUP3 PUSH32 0x237BD33232D60CEB1B878C9729A13695EA754C07AA118AE357A274460E5BE951 DUP4 PUSH1 0x7 ADD SLOAD PUSH1 0x40 MLOAD PUSH2 0x1755 SWAP2 SWAP1 PUSH2 0x2447 JUMP JUMPDEST PUSH1 0x40 MLOAD DUP1 SWAP2 SUB SWAP1 LOG3 JUMPDEST POP POP POP JUMP JUMPDEST PUSH0 PUSH1 0x60 PUSH0 PUSH0 SWAP1 POP JUMPDEST PUSH1 0x6 DUP1 SLOAD SWAP1 POP DUP2 LT ISZERO PUSH2 0x1959 JUMPI PUSH0 PUSH1 0x6 DUP3 DUP2 SLOAD DUP2 LT PUSH2 0x178D JUMPI PUSH2 0x178C PUSH2 0x2C6C JUMP JUMPDEST JUMPDEST SWAP1 PUSH0 MSTORE PUSH1 0x20 PUSH0 KECCAK256 SWAP1 PUSH1 0x2 MUL ADD PUSH1 0x40 MLOAD DUP1 PUSH1 0x40 ADD PUSH1 0x40 MSTORE SWAP1 DUP2 PUSH0 DUP3 ADD PUSH0 SWAP1 SLOAD SWAP1 PUSH2 0x100 EXP SWAP1 DIV PUSH20 0xFFFFFFFFFFFFFFFFFFFFFFFFFFFFFFFFFFFFFFFF AND PUSH20 0xFFFFFFFFFFFFFFFFFFFFFFFFFFFFFFFFFFFFFFFF AND PUSH20 0xFFFFFFFFFFFFFFFFFFFFFFFFFFFFFFFFFFFFFFFF AND DUP2 MSTORE PUSH1 0x20 ADD PUSH1 0x1 DUP3 ADD SLOAD DUP2 MSTORE POP POP SWAP1 POP PUSH0 PUSH1 0x7 PUSH0 DUP4 PUSH0 ADD MLOAD PUSH20 0xFFFFFFFFFFFFFFFFFFFFFFFFFFFFFFFFFFFFFFFF AND PUSH20 0xFFFFFFFFFFFFFFFFFFFFFFFFFFFFFFFFFFFFFFFF AND DUP2 MSTORE PUSH1 0x20 ADD SWAP1 DUP2 MSTORE PUSH1 0x20 ADD PUSH0 KECCAK256 PUSH0 DUP4 PUSH1 0x20 ADD MLOAD DUP2 MSTORE PUSH1 0x20 ADD SWAP1 DUP2 MSTORE PUSH1 0x20 ADD PUSH0 KECCAK256 SWAP1 POP PUSH1 0x2 PUSH1 0x6 DUP2 GT ISZERO PUSH2 0x186E JUMPI PUSH2 0x186D PUSH2 0x2460 JUMP JUMPDEST JUMPDEST DUP2 PUSH1 0x8 ADD PUSH1 0x1 SWAP1 SLOAD SWAP1 PUSH2 0x100 EXP SWAP1 DIV PUSH1 0xFF AND PUSH1 0x6 DUP2 GT ISZERO PUSH2 0x1892 JUMPI PUSH2 0x1891 PUSH2 0x2460 JUMP JUMPDEST JUMPDEST EQ PUSH2 0x189E JUMPI POP POP PUSH2 0x194C JUMP JUMPDEST PUSH0 DUP2 PUSH1 0x7 ADD SLOAD TIMESTAMP GT SWAP1 POP PUSH0 PUSH2 0x18B1 PUSH2 0x1976 JUMP JUMPDEST SWAP1 POP PUSH0 PUSH8 0xDE0B6B3A7640000 DUP3 DUP6 PUSH1 0x5 ADD SLOAD PUSH2 0x18CD SWAP2 SWAP1 PUSH2 0x27A6 JUMP JUMPDEST PUSH2 0x18D7 SWAP2 SWAP1 PUSH2 0x290A JUMP JUMPDEST SWAP1 POP PUSH0 PUSH1 0x64 DUP6 PUSH1 0x4 ADD SLOAD DUP7 PUSH1 0x3 ADD SLOAD PUSH2 0x18F0 SWAP2 SWAP1 PUSH2 0x27A6 JUMP JUMPDEST PUSH2 0x18FA SWAP2 SWAP1 PUSH2 0x290A JUMP JUMPDEST SWAP1 POP PUSH0 DUP2 DUP4 GT ISZERO SWAP1 POP DUP5 DUP1 PUSH2 0x190C JUMPI POP DUP1 JUMPDEST ISZERO PUSH2 0x1944 JUMPI PUSH1 0x1 DUP9 PUSH1 0x40 MLOAD PUSH1 0x20 ADD PUSH2 0x1924 SWAP2 SWAP1 PUSH2 0x2447 JUMP JUMPDEST PUSH1 0x40 MLOAD PUSH1 0x20 DUP2 DUP4 SUB SUB DUP2 MSTORE SWAP1 PUSH1 0x40 MSTORE SWAP10 POP SWAP10 POP POP POP POP POP POP POP POP POP PUSH2 0x196F JUMP JUMPDEST POP POP POP POP POP POP POP JUMPDEST DUP1 DUP1 PUSH1 0x1 ADD SWAP2 POP POP PUSH2 0x176B JUMP JUMPDEST POP PUSH0 PUSH1 0x40 MLOAD DUP1 PUSH1 0x20 ADD PUSH1 0x40 MSTORE DUP1 PUSH0 DUP2 MSTORE POP SWAP2 POP SWAP2 POP JUMPDEST SWAP3 POP SWAP3 SWAP1 POP JUMP JUMPDEST PUSH0 PUSH0 PUSH1 0x4 PUSH0 SWAP1 SLOAD SWAP1 PUSH2 0x100 EXP SWAP1 DIV PUSH20 0xFFFFFFFFFFFFFFFFFFFFFFFFFFFFFFFFFFFFFFFF AND PUSH20 0xFFFFFFFFFFFFFFFFFFFFFFFFFFFFFFFFFFFFFFFF AND PUSH4 0xFEAF968C PUSH1 0x40 MLOAD DUP2 PUSH4 0xFFFFFFFF AND PUSH1 0xE0 SHL DUP2 MSTORE PUSH1 0x4 ADD PUSH1 0xA0 PUSH1 0x40 MLOAD DUP1 DUP4 SUB DUP2 DUP7 GAS STATICCALL ISZERO DUP1 ISZERO PUSH2 0x19E2 JUMPI RETURNDATASIZE PUSH0 PUSH0 RETURNDATACOPY RETURNDATASIZE PUSH0 REVERT JUMPDEST POP POP POP POP PUSH1 0x40 MLOAD RETURNDATASIZE PUSH1 0x1F NOT PUSH1 0x1F DUP3 ADD AND DUP3 ADD DUP1 PUSH1 0x40 MSTORE POP DUP2 ADD SWAP1 PUSH2 0x1A06 SWAP2 SWAP1 PUSH2 0x300E JUMP JUMPDEST POP POP POP SWAP2 POP POP PUSH0 DUP2 SGT PUSH2 0x1A4E JUMPI PUSH1 0x40 MLOAD PUSH32 0x8C379A000000000000000000000000000000000000000000000000000000000 DUP2 MSTORE PUSH1 0x4 ADD PUSH2 0x1A45 SWAP1 PUSH2 0x30CF JUMP JUMPDEST PUSH1 0x40 MLOAD DUP1 SWAP2 SUB SWAP1 REVERT JUMPDEST PUSH5 0x2540BE400 DUP2 PUSH2 0x1A5F SWAP2 SWAP1 PUSH2 0x27A6 JUMP JUMPDEST SWAP2 POP POP SWAP1 JUMP JUMPDEST PUSH1 0x7 PUSH1 0x20 MSTORE DUP2 PUSH0 MSTORE PUSH1 0x40 PUSH0 KECCAK256 PUSH1 0x20 MSTORE DUP1 PUSH0 MSTORE PUSH1 0x40 PUSH0 KECCAK256 PUSH0 SWAP2 POP SWAP2 POP POP DUP1 PUSH0 ADD SLOAD SWAP1 DUP1 PUSH1 0x1 ADD PUSH0 SWAP1 SLOAD SWAP1 PUSH2 0x100 EXP SWAP1 DIV PUSH20 0xFFFFFFFFFFFFFFFFFFFFFFFFFFFFFFFFFFFFFFFF AND SWAP1 DUP1 PUSH1 0x2 ADD PUSH0 SWAP1 SLOAD SWAP1 PUSH2 0x100 EXP SWAP1 DIV PUSH20 0xFFFFFFFFFFFFFFFFFFFFFFFFFFFFFFFFFFFFFFFF AND SWAP1 DUP1 PUSH1 0x3 ADD SLOAD SWAP1 DUP1 PUSH1 0x4 ADD SLOAD SWAP1 DUP1 PUSH1 0x5 ADD SLOAD SWAP1 DUP1 PUSH1 0x6 ADD SLOAD SWAP1 DUP1 PUSH1 0x7 ADD SLOAD SWAP1 DUP1 PUSH1 0x8 ADD PUSH0 SWAP1 SLOAD SWAP1 PUSH2 0x100 EXP SWAP1 DIV PUSH1 0xFF AND SWAP1 DUP1 PUSH1 0x8 ADD PUSH1 0x1 SWAP1 SLOAD SWAP1 PUSH2 0x100 EXP SWAP1 DIV PUSH1 0xFF AND SWAP1 POP DUP11 JUMP JUMPDEST PUSH0 PUSH0 SWAP1 SLOAD SWAP1 PUSH2 0x100 EXP SWAP1 DIV PUSH20 0xFFFFFFFFFFFFFFFFFFFFFFFFFFFFFFFFFFFFFFFF AND DUP2 JUMP JUMPDEST PUSH0 PUSH1 0x7 PUSH0 CALLER PUSH20 0xFFFFFFFFFFFFFFFFFFFFFFFFFFFFFFFFFFFFFFFF AND PUSH20 0xFFFFFFFFFFFFFFFFFFFFFFFFFFFFFFFFFFFFFFFF AND DUP2 MSTORE PUSH1 0x20 ADD SWAP1 DUP2 MSTORE PUSH1 0x20 ADD PUSH0 KECCAK256 PUSH0 DUP4 DUP2 MSTORE PUSH1 0x20 ADD SWAP1 DUP2 MSTORE PUSH1 0x20 ADD PUSH0 KECCAK256 SWAP1 POP PUSH1 0x2 PUSH1 0x6 DUP2 GT ISZERO PUSH2 0x1B9E JUMPI PUSH2 0x1B9D PUSH2 0x2460 JUMP JUMPDEST JUMPDEST DUP2 PUSH1 0x8 ADD PUSH1 0x1 SWAP1 SLOAD SWAP1 PUSH2 0x100 EXP SWAP1 DIV PUSH1 0xFF AND PUSH1 0x6 DUP2 GT ISZERO PUSH2 0x1BC2 JUMPI PUSH2 0x1BC1 PUSH2 0x2460 JUMP JUMPDEST JUMPDEST EQ PUSH2 0x1C02 JUMPI PUSH1 0x40 MLOAD PUSH32 0x8C379A000000000000000000000000000000000000000000000000000000000 DUP2 MSTORE PUSH1 0x4 ADD PUSH2 0x1BF9 SWAP1 PUSH2 0x3137 JUMP JUMPDEST PUSH1 0x40 MLOAD DUP1 SWAP2 SUB SWAP1 REVERT JUMPDEST CALLER PUSH20 0xFFFFFFFFFFFFFFFFFFFFFFFFFFFFFFFFFFFFFFFF AND DUP2 PUSH1 0x1 ADD PUSH0 SWAP1 SLOAD SWAP1 PUSH2 0x100 EXP SWAP1 DIV PUSH20 0xFFFFFFFFFFFFFFFFFFFFFFFFFFFFFFFFFFFFFFFF AND PUSH20 0xFFFFFFFFFFFFFFFFFFFFFFFFFFFFFFFFFFFFFFFF AND EQ PUSH2 0x1C93 JUMPI PUSH1 0x40 MLOAD PUSH32 0x8C379A000000000000000000000000000000000000000000000000000000000 DUP2 MSTORE PUSH1 0x4 ADD PUSH2 0x1C8A SWAP1 PUSH2 0x319F JUMP JUMPDEST PUSH1 0x40 MLOAD DUP1 SWAP2 SUB SWAP1 REVERT JUMPDEST PUSH0 PUSH0 PUSH0 SWAP1 SLOAD SWAP1 PUSH2 0x100 EXP SWAP1 DIV PUSH20 0xFFFFFFFFFFFFFFFFFFFFFFFFFFFFFFFFFFFFFFFF AND SWAP1 POP PUSH0 PUSH1 0x64 DUP4 PUSH1 0x4 ADD SLOAD DUP5 PUSH1 0x3 ADD SLOAD PUSH2 0x1CCE SWAP2 SWAP1 PUSH2 0x27A6 JUMP JUMPDEST PUSH2 0x1CD8 SWAP2 SWAP1 PUSH2 0x290A JUMP JUMPDEST SWAP1 POP DUP1 DUP3 PUSH20 0xFFFFFFFFFFFFFFFFFFFFFFFFFFFFFFFFFFFFFFFF AND PUSH4 0xDD62ED3E CALLER ADDRESS PUSH1 0x40 MLOAD DUP4 PUSH4 0xFFFFFFFF AND PUSH1 0xE0 SHL DUP2 MSTORE PUSH1 0x4 ADD PUSH2 0x1D16 SWAP3 SWAP2 SWAP1 PUSH2 0x2B14 JUMP JUMPDEST PUSH1 0x20 PUSH1 0x40 MLOAD DUP1 DUP4 SUB DUP2 DUP7 GAS STATICCALL ISZERO DUP1 ISZERO PUSH2 0x1D31 JUMPI RETURNDATASIZE PUSH0 PUSH0 RETURNDATACOPY RETURNDATASIZE PUSH0 REVERT JUMPDEST POP POP POP POP PUSH1 0x40 MLOAD RETURNDATASIZE PUSH1 0x1F NOT PUSH1 0x1F DUP3 ADD AND DUP3 ADD DUP1 PUSH1 0x40 MSTORE POP DUP2 ADD SWAP1 PUSH2 0x1D55 SWAP2 SWAP1 PUSH2 0x2B4F JUMP JUMPDEST LT ISZERO PUSH2 0x1D96 JUMPI PUSH1 0x40 MLOAD PUSH32 0x8C379A000000000000000000000000000000000000000000000000000000000 DUP2 MSTORE PUSH1 0x4 ADD PUSH2 0x1D8D SWAP1 PUSH2 0x322D JUMP JUMPDEST PUSH1 0x40 MLOAD DUP1 SWAP2 SUB SWAP1 REVERT JUMPDEST DUP2 PUSH20 0xFFFFFFFFFFFFFFFFFFFFFFFFFFFFFFFFFFFFFFFF AND PUSH4 0x23B872DD CALLER DUP6 PUSH1 0x2 ADD PUSH0 SWAP1 SLOAD SWAP1 PUSH2 0x100 EXP SWAP1 DIV PUSH20 0xFFFFFFFFFFFFFFFFFFFFFFFFFFFFFFFFFFFFFFFF AND DUP5 PUSH1 0x40 MLOAD DUP5 PUSH4 0xFFFFFFFF AND PUSH1 0xE0 SHL DUP2 MSTORE PUSH1 0x4 ADD PUSH2 0x1DF6 SWAP4 SWAP3 SWAP2 SWAP1 PUSH2 0x2BE2 JUMP JUMPDEST PUSH1 0x20 PUSH1 0x40 MLOAD DUP1 DUP4 SUB DUP2 PUSH0 DUP8 GAS CALL ISZERO DUP1 ISZERO PUSH2 0x1E12 JUMPI RETURNDATASIZE PUSH0 PUSH0 RETURNDATACOPY RETURNDATASIZE PUSH0 REVERT JUMPDEST POP POP POP POP PUSH1 0x40 MLOAD RETURNDATASIZE PUSH1 0x1F NOT PUSH1 0x1F DUP3 ADD AND DUP3 ADD DUP1 PUSH1 0x40 MSTORE POP DUP2 ADD SWAP1 PUSH2 0x1E36 SWAP2 SWAP1 PUSH2 0x2C41 JUMP JUMPDEST POP DUP3 PUSH1 0x1 ADD PUSH0 SWAP1 SLOAD SWAP1 PUSH2 0x100 EXP SWAP1 DIV PUSH20 0xFFFFFFFFFFFFFFFFFFFFFFFFFFFFFFFFFFFFFFFF AND PUSH20 0xFFFFFFFFFFFFFFFFFFFFFFFFFFFFFFFFFFFFFFFF AND PUSH2 0x8FC DUP5 PUSH1 0x5 ADD SLOAD SWAP1 DUP2 ISZERO MUL SWAP1 PUSH1 0x40 MLOAD PUSH0 PUSH1 0x40 MLOAD DUP1 DUP4 SUB DUP2 DUP6 DUP9 DUP9 CALL SWAP4 POP POP POP POP ISZERO DUP1 ISZERO PUSH2 0x1EA1 JUMPI RETURNDATASIZE PUSH0 PUSH0 RETURNDATACOPY RETURNDATASIZE PUSH0 REVERT JUMPDEST POP PUSH1 0x3 DUP4 PUSH1 0x8 ADD PUSH1 0x1 PUSH2 0x100 EXP DUP2 SLOAD DUP2 PUSH1 0xFF MUL NOT AND SWAP1 DUP4 PUSH1 0x6 DUP2 GT ISZERO PUSH2 0x1ECA JUMPI PUSH2 0x1EC9 PUSH2 0x2460 JUMP JUMPDEST JUMPDEST MUL OR SWAP1 SSTORE POP CALLER PUSH20 0xFFFFFFFFFFFFFFFFFFFFFFFFFFFFFFFFFFFFFFFF AND DUP5 PUSH32 0xAD4162E5033B7BB713E12D20782E2D719000E0C997983A11328616E82C93BE03 PUSH1 0x40 MLOAD PUSH1 0x40 MLOAD DUP1 SWAP2 SUB SWAP1 LOG3 POP POP POP POP JUMP JUMPDEST PUSH1 0x2 SLOAD DUP2 JUMP JUMPDEST PUSH1 0x3 SLOAD DUP2 JUMP JUMPDEST PUSH2 0x1F2D PUSH2 0x20C7 JUMP JUMPDEST PUSH1 0x7 PUSH0 DUP5 PUSH20 0xFFFFFFFFFFFFFFFFFFFFFFFFFFFFFFFFFFFFFFFF AND PUSH20 0xFFFFFFFFFFFFFFFFFFFFFFFFFFFFFFFFFFFFFFFF AND DUP2 MSTORE PUSH1 0x20 ADD SWAP1 DUP2 MSTORE PUSH1 0x20 ADD PUSH0 KECCAK256 PUSH0 DUP4 DUP2 MSTORE PUSH1 0x20 ADD SWAP1 DUP2 MSTORE PUSH1 0x20 ADD PUSH0 KECCAK256 PUSH1 0x40 MLOAD DUP1 PUSH2 0x140 ADD PUSH1 0x40 MSTORE SWAP1 DUP2 PUSH0 DUP3 ADD SLOAD DUP2 MSTORE PUSH1 0x20 ADD PUSH1 0x1 DUP3 ADD PUSH0 SWAP1 SLOAD SWAP1 PUSH2 0x100 EXP SWAP1 DIV PUSH20 0xFFFFFFFFFFFFFFFFFFFFFFFFFFFFFFFFFFFFFFFF AND PUSH20 0xFFFFFFFFFFFFFFFFFFFFFFFFFFFFFFFFFFFFFFFF AND PUSH20 0xFFFFFFFFFFFFFFFFFFFFFFFFFFFFFFFFFFFFFFFF AND DUP2 MSTORE PUSH1 0x20 ADD PUSH1 0x2 DUP3 ADD PUSH0 SWAP1 SLOAD SWAP1 PUSH2 0x100 EXP SWAP1 DIV PUSH20 0xFFFFFFFFFFFFFFFFFFFFFFFFFFFFFFFFFFFFFFFF AND PUSH20 0xFFFFFFFFFFFFFFFFFFFFFFFFFFFFFFFFFFFFFFFF AND PUSH20 0xFFFFFFFFFFFFFFFFFFFFFFFFFFFFFFFFFFFFFFFF AND DUP2 MSTORE PUSH1 0x20 ADD PUSH1 0x3 DUP3 ADD SLOAD DUP2 MSTORE PUSH1 0x20 ADD PUSH1 0x4 DUP3 ADD SLOAD DUP2 MSTORE PUSH1 0x20 ADD PUSH1 0x5 DUP3 ADD SLOAD DUP2 MSTORE PUSH1 0x20 ADD PUSH1 0x6 DUP3 ADD SLOAD DUP2 MSTORE PUSH1 0x20 ADD PUSH1 0x7 DUP3 ADD SLOAD DUP2 MSTORE PUSH1 0x20 ADD PUSH1 0x8 DUP3 ADD PUSH0 SWAP1 SLOAD SWAP1 PUSH2 0x100 EXP SWAP1 DIV PUSH1 0xFF AND ISZERO ISZERO ISZERO ISZERO DUP2 MSTORE PUSH1 0x20 ADD PUSH1 0x8 DUP3 ADD PUSH1 0x1 SWAP1 SLOAD SWAP1 PUSH2 0x100 EXP SWAP1 DIV PUSH1 0xFF AND PUSH1 0x6 DUP2 GT ISZERO PUSH2 0x20A9 JUMPI PUSH2 0x20A8 PUSH2 0x2460 JUMP JUMPDEST JUMPDEST PUSH1 0x6 DUP2 GT ISZERO PUSH2 0x20BB JUMPI PUSH2 0x20BA PUSH2 0x2460 JUMP JUMPDEST JUMPDEST DUP2 MSTORE POP POP SWAP1 POP SWAP3 SWAP2 POP POP JUMP JUMPDEST PUSH1 0x40 MLOAD DUP1 PUSH2 0x140 ADD PUSH1 0x40 MSTORE DUP1 PUSH0 DUP2 MSTORE PUSH1 0x20 ADD PUSH0 PUSH20 0xFFFFFFFFFFFFFFFFFFFFFFFFFFFFFFFFFFFFFFFF AND DUP2 MSTORE PUSH1 0x20 ADD PUSH0 PUSH20 0xFFFFFFFFFFFFFFFFFFFFFFFFFFFFFFFFFFFFFFFF AND DUP2 MSTORE PUSH1 0x20 ADD PUSH0 DUP2 MSTORE PUSH1 0x20 ADD PUSH0 DUP2 MSTORE PUSH1 0x20 ADD PUSH0 DUP2 MSTORE PUSH1 0x20 ADD PUSH0 DUP2 MSTORE PUSH1 0x20 ADD PUSH0 DUP2 MSTORE PUSH1 0x20 ADD PUSH0 ISZERO ISZERO DUP2 MSTORE PUSH1 0x20 ADD PUSH0 PUSH1 0x6 DUP2 GT ISZERO PUSH2 0x214A JUMPI PUSH2 0x2149 PUSH2 0x2460 JUMP JUMPDEST JUMPDEST DUP2 MSTORE POP SWAP1 JUMP JUMPDEST PUSH0 PUSH0 REVERT JUMPDEST PUSH0 PUSH0 REVERT JUMPDEST PUSH0 DUP2 SWAP1 POP SWAP2 SWAP1 POP JUMP JUMPDEST PUSH2 0x216A DUP2 PUSH2 0x2158 JUMP JUMPDEST DUP2 EQ PUSH2 0x2174 JUMPI PUSH0 PUSH0 REVERT JUMPDEST POP JUMP JUMPDEST PUSH0 DUP2 CALLDATALOAD SWAP1 POP PUSH2 0x2185 DUP2 PUSH2 0x2161 JUMP JUMPDEST SWAP3 SWAP2 POP POP JUMP JUMPDEST PUSH0 PUSH0 PUSH0 PUSH1 0x60 DUP5 DUP7 SUB SLT ISZERO PUSH2 0x21A2 JUMPI PUSH2 0x21A1 PUSH2 0x2150 JUMP JUMPDEST JUMPDEST PUSH0 PUSH2 0x21AF DUP7 DUP3 DUP8 ADD PUSH2 0x2177 JUMP JUMPDEST SWAP4 POP POP PUSH1 0x20 PUSH2 0x21C0 DUP7 DUP3 DUP8 ADD PUSH2 0x2177 JUMP JUMPDEST SWAP3 POP POP PUSH1 0x40 PUSH2 0x21D1 DUP7 DUP3 DUP8 ADD PUSH2 0x2177 JUMP JUMPDEST SWAP2 POP POP SWAP3 POP SWAP3 POP SWAP3 JUMP JUMPDEST PUSH0 PUSH20 0xFFFFFFFFFFFFFFFFFFFFFFFFFFFFFFFFFFFFFFFF DUP3 AND SWAP1 POP SWAP2 SWAP1 POP JUMP JUMPDEST PUSH0 PUSH2 0x2204 DUP3 PUSH2 0x21DB JUMP JUMPDEST SWAP1 POP SWAP2 SWAP1 POP JUMP JUMPDEST PUSH2 0x2214 DUP2 PUSH2 0x21FA JUMP JUMPDEST DUP2 EQ PUSH2 0x221E JUMPI PUSH0 PUSH0 REVERT JUMPDEST POP JUMP JUMPDEST PUSH0 DUP2 CALLDATALOAD SWAP1 POP PUSH2 0x222F DUP2 PUSH2 0x220B JUMP JUMPDEST SWAP3 SWAP2 POP POP JUMP JUMPDEST PUSH0 PUSH0 PUSH1 0x40 DUP4 DUP6 SUB SLT ISZERO PUSH2 0x224B JUMPI PUSH2 0x224A PUSH2 0x2150 JUMP JUMPDEST JUMPDEST PUSH0 PUSH2 0x2258 DUP6 DUP3 DUP7 ADD PUSH2 0x2221 JUMP JUMPDEST SWAP3 POP POP PUSH1 0x20 PUSH2 0x2269 DUP6 DUP3 DUP7 ADD PUSH2 0x2177 JUMP JUMPDEST SWAP2 POP POP SWAP3 POP SWAP3 SWAP1 POP JUMP JUMPDEST PUSH0 PUSH0 REVERT JUMPDEST PUSH0 PUSH0 REVERT JUMPDEST PUSH0 PUSH0 REVERT JUMPDEST PUSH0 PUSH0 DUP4 PUSH1 0x1F DUP5 ADD SLT PUSH2 0x2294 JUMPI PUSH2 0x2293 PUSH2 0x2273 JUMP JUMPDEST JUMPDEST DUP3 CALLDATALOAD SWAP1 POP PUSH8 0xFFFFFFFFFFFFFFFF DUP2 GT ISZERO PUSH2 0x22B1 JUMPI PUSH2 0x22B0 PUSH2 0x2277 JUMP JUMPDEST JUMPDEST PUSH1 0x20 DUP4 ADD SWAP2 POP DUP4 PUSH1 0x1 DUP3 MUL DUP4 ADD GT ISZERO PUSH2 0x22CD JUMPI PUSH2 0x22CC PUSH2 0x227B JUMP JUMPDEST JUMPDEST SWAP3 POP SWAP3 SWAP1 POP JUMP JUMPDEST PUSH0 PUSH0 PUSH1 0x20 DUP4 DUP6 SUB SLT ISZERO PUSH2 0x22EA JUMPI PUSH2 0x22E9 PUSH2 0x2150 JUMP JUMPDEST JUMPDEST PUSH0 DUP4 ADD CALLDATALOAD PUSH8 0xFFFFFFFFFFFFFFFF DUP2 GT ISZERO PUSH2 0x2307 JUMPI PUSH2 0x2306 PUSH2 0x2154 JUMP JUMPDEST JUMPDEST PUSH2 0x2313 DUP6 DUP3 DUP7 ADD PUSH2 0x227F JUMP JUMPDEST SWAP3 POP SWAP3 POP POP SWAP3 POP SWAP3 SWAP1 POP JUMP JUMPDEST PUSH0 PUSH1 0x20 DUP3 DUP5 SUB SLT ISZERO PUSH2 0x2334 JUMPI PUSH2 0x2333 PUSH2 0x2150 JUMP JUMPDEST JUMPDEST PUSH0 PUSH2 0x2341 DUP5 DUP3 DUP6 ADD PUSH2 0x2177 JUMP JUMPDEST SWAP2 POP POP SWAP3 SWAP2 POP POP JUMP JUMPDEST PUSH2 0x2353 DUP2 PUSH2 0x21FA JUMP JUMPDEST DUP3 MSTORE POP POP JUMP JUMPDEST PUSH2 0x2362 DUP2 PUSH2 0x2158 JUMP JUMPDEST DUP3 MSTORE POP POP JUMP JUMPDEST PUSH0 PUSH1 0x40 DUP3 ADD SWAP1 POP PUSH2 0x237B PUSH0 DUP4 ADD DUP6 PUSH2 0x234A JUMP JUMPDEST PUSH2 0x2388 PUSH1 0x20 DUP4 ADD DUP5 PUSH2 0x2359 JUMP JUMPDEST SWAP4 SWAP3 POP POP POP JUMP JUMPDEST PUSH0 DUP2 ISZERO ISZERO SWAP1 POP SWAP2 SWAP1 POP JUMP JUMPDEST PUSH2 0x23A3 DUP2 PUSH2 0x238F JUMP JUMPDEST DUP3 MSTORE POP POP JUMP JUMPDEST PUSH0 DUP2 MLOAD SWAP1 POP SWAP2 SWAP1 POP JUMP JUMPDEST PUSH0 DUP3 DUP3 MSTORE PUSH1 0x20 DUP3 ADD SWAP1 POP SWAP3 SWAP2 POP POP JUMP JUMPDEST DUP3 DUP2 DUP4 MCOPY PUSH0 DUP4 DUP4 ADD MSTORE POP POP POP JUMP JUMPDEST PUSH0 PUSH1 0x1F NOT PUSH1 0x1F DUP4 ADD AND SWAP1 POP SWAP2 SWAP1 POP JUMP JUMPDEST PUSH0 PUSH2 0x23EB DUP3 PUSH2 0x23A9 JUMP JUMPDEST PUSH2 0x23F5 DUP2 DUP6 PUSH2 0x23B3 JUMP JUMPDEST SWAP4 POP PUSH2 0x2405 DUP2 DUP6 PUSH1 0x20 DUP7 ADD PUSH2 0x23C3 JUMP JUMPDEST PUSH2 0x240E DUP2 PUSH2 0x23D1 JUMP JUMPDEST DUP5 ADD SWAP2 POP POP SWAP3 SWAP2 POP POP JUMP JUMPDEST PUSH0 PUSH1 0x40 DUP3 ADD SWAP1 POP PUSH2 0x242C PUSH0 DUP4 ADD DUP6 PUSH2 0x239A JUMP JUMPDEST DUP2 DUP2 SUB PUSH1 0x20 DUP4 ADD MSTORE PUSH2 0x243E DUP2 DUP5 PUSH2 0x23E1 JUMP JUMPDEST SWAP1 POP SWAP4 SWAP3 POP POP POP JUMP JUMPDEST PUSH0 PUSH1 0x20 DUP3 ADD SWAP1 POP PUSH2 0x245A PUSH0 DUP4 ADD DUP5 PUSH2 0x2359 JUMP JUMPDEST SWAP3 SWAP2 POP POP JUMP JUMPDEST PUSH32 0x4E487B7100000000000000000000000000000000000000000000000000000000 PUSH0 MSTORE PUSH1 0x21 PUSH1 0x4 MSTORE PUSH1 0x24 PUSH0 REVERT JUMPDEST PUSH1 0x7 DUP2 LT PUSH2 0x249E JUMPI PUSH2 0x249D PUSH2 0x2460 JUMP JUMPDEST JUMPDEST POP JUMP JUMPDEST PUSH0 DUP2 SWAP1 POP PUSH2 0x24AE DUP3 PUSH2 0x248D JUMP JUMPDEST SWAP2 SWAP1 POP JUMP JUMPDEST PUSH0 PUSH2 0x24BD DUP3 PUSH2 0x24A1 JUMP JUMPDEST SWAP1 POP SWAP2 SWAP1 POP JUMP JUMPDEST PUSH2 0x24CD DUP2 PUSH2 0x24B3 JUMP JUMPDEST DUP3 MSTORE POP POP JUMP JUMPDEST PUSH0 PUSH2 0x140 DUP3 ADD SWAP1 POP PUSH2 0x24E7 PUSH0 DUP4 ADD DUP14 PUSH2 0x2359 JUMP JUMPDEST PUSH2 0x24F4 PUSH1 0x20 DUP4 ADD DUP13 PUSH2 0x234A JUMP JUMPDEST PUSH2 0x2501 PUSH1 0x40 DUP4 ADD DUP12 PUSH2 0x234A JUMP JUMPDEST PUSH2 0x250E PUSH1 0x60 DUP4 ADD DUP11 PUSH2 0x2359 JUMP JUMPDEST PUSH2 0x251B PUSH1 0x80 DUP4 ADD DUP10 PUSH2 0x2359 JUMP JUMPDEST PUSH2 0x2528 PUSH1 0xA0 DUP4 ADD DUP9 PUSH2 0x2359 JUMP JUMPDEST PUSH2 0x2535 PUSH1 0xC0 DUP4 ADD DUP8 PUSH2 0x2359 JUMP JUMPDEST PUSH2 0x2542 PUSH1 0xE0 DUP4 ADD DUP7 PUSH2 0x2359 JUMP JUMPDEST PUSH2 0x2550 PUSH2 0x100 DUP4 ADD DUP6 PUSH2 0x239A JUMP JUMPDEST PUSH2 0x255E PUSH2 0x120 DUP4 ADD DUP5 PUSH2 0x24C4 JUMP JUMPDEST SWAP12 SWAP11 POP POP POP POP POP POP POP POP POP POP POP JUMP JUMPDEST PUSH0 DUP2 SWAP1 POP SWAP2 SWAP1 POP JUMP JUMPDEST PUSH0 PUSH2 0x2590 PUSH2 0x258B PUSH2 0x2586 DUP5 PUSH2 0x21DB JUMP JUMPDEST PUSH2 0x256D JUMP JUMPDEST PUSH2 0x21DB JUMP JUMPDEST SWAP1 POP SWAP2 SWAP1 POP JUMP JUMPDEST PUSH0 PUSH2 0x25A1 DUP3 PUSH2 0x2576 JUMP JUMPDEST SWAP1 POP SWAP2 SWAP1 POP JUMP JUMPDEST PUSH0 PUSH2 0x25B2 DUP3 PUSH2 0x2597 JUMP JUMPDEST SWAP1 POP SWAP2 SWAP1 POP JUMP JUMPDEST PUSH2 0x25C2 DUP2 PUSH2 0x25A8 JUMP JUMPDEST DUP3 MSTORE POP POP JUMP JUMPDEST PUSH0 PUSH1 0x20 DUP3 ADD SWAP1 POP PUSH2 0x25DB PUSH0 DUP4 ADD DUP5 PUSH2 0x25B9 JUMP JUMPDEST SWAP3 SWAP2 POP POP JUMP JUMPDEST PUSH2 0x25EA DUP2 PUSH2 0x2158 JUMP JUMPDEST DUP3 MSTORE POP POP JUMP JUMPDEST PUSH2 0x25F9 DUP2 PUSH2 0x21FA JUMP JUMPDEST DUP3 MSTORE POP POP JUMP JUMPDEST PUSH2 0x2608 DUP2 PUSH2 0x238F JUMP JUMPDEST DUP3 MSTORE POP POP JUMP JUMPDEST PUSH2 0x2617 DUP2 PUSH2 0x24B3 JUMP JUMPDEST DUP3 MSTORE POP POP JUMP JUMPDEST PUSH2 0x140 DUP3 ADD PUSH0 DUP3 ADD MLOAD PUSH2 0x2632 PUSH0 DUP6 ADD DUP3 PUSH2 0x25E1 JUMP JUMPDEST POP PUSH1 0x20 DUP3 ADD MLOAD PUSH2 0x2645 PUSH1 0x20 DUP6 ADD DUP3 PUSH2 0x25F0 JUMP JUMPDEST POP PUSH1 0x40 DUP3 ADD MLOAD PUSH2 0x2658 PUSH1 0x40 DUP6 ADD DUP3 PUSH2 0x25F0 JUMP JUMPDEST POP PUSH1 0x60 DUP3 ADD MLOAD PUSH2 0x266B PUSH1 0x60 DUP6 ADD DUP3 PUSH2 0x25E1 JUMP JUMPDEST POP PUSH1 0x80 DUP3 ADD MLOAD PUSH2 0x267E PUSH1 0x80 DUP6 ADD DUP3 PUSH2 0x25E1 JUMP JUMPDEST POP PUSH1 0xA0 DUP3 ADD MLOAD PUSH2 0x2691 PUSH1 0xA0 DUP6 ADD DUP3 PUSH2 0x25E1 JUMP JUMPDEST POP PUSH1 0xC0 DUP3 ADD MLOAD PUSH2 0x26A4 PUSH1 0xC0 DUP6 ADD DUP3 PUSH2 0x25E1 JUMP JUMPDEST POP PUSH1 0xE0 DUP3 ADD MLOAD PUSH2 0x26B7 PUSH1 0xE0 DUP6 ADD DUP3 PUSH2 0x25E1 JUMP JUMPDEST POP PUSH2 0x100 DUP3 ADD MLOAD PUSH2 0x26CC PUSH2 0x100 DUP6 ADD DUP3 PUSH2 0x25FF JUMP JUMPDEST POP PUSH2 0x120 DUP3 ADD MLOAD PUSH2 0x26E1 PUSH2 0x120 DUP6 ADD DUP3 PUSH2 0x260E JUMP JUMPDEST POP POP POP POP JUMP JUMPDEST PUSH0 PUSH2 0x140 DUP3 ADD SWAP1 POP PUSH2 0x26FB PUSH0 DUP4 ADD DUP5 PUSH2 0x261D JUMP JUMPDEST SWAP3 SWAP2 POP POP JUMP JUMPDEST PUSH0 DUP3 DUP3 MSTORE PUSH1 0x20 DUP3 ADD SWAP1 POP SWAP3 SWAP2 POP POP JUMP JUMPDEST PUSH32 0x55534443206D75737420626520706F7369746976650000000000000000000000 PUSH0 DUP3 ADD MSTORE POP JUMP JUMPDEST PUSH0 PUSH2 0x2745 PUSH1 0x15 DUP4 PUSH2 0x2701 JUMP JUMPDEST SWAP2 POP PUSH2 0x2750 DUP3 PUSH2 0x2711 JUMP JUMPDEST PUSH1 0x20 DUP3 ADD SWAP1 POP SWAP2 SWAP1 POP JUMP JUMPDEST PUSH0 PUSH1 0x20 DUP3 ADD SWAP1 POP DUP2 DUP2 SUB PUSH0 DUP4 ADD MSTORE PUSH2 0x2772 DUP2 PUSH2 0x2739 JUMP JUMPDEST SWAP1 POP SWAP2 SWAP1 POP JUMP JUMPDEST PUSH32 0x4E487B7100000000000000000000000000000000000000000000000000000000 PUSH0 MSTORE PUSH1 0x11 PUSH1 0x4 MSTORE PUSH1 0x24 PUSH0 REVERT JUMPDEST PUSH0 PUSH2 0x27B0 DUP3 PUSH2 0x2158 JUMP JUMPDEST SWAP2 POP PUSH2 0x27BB DUP4 PUSH2 0x2158 JUMP JUMPDEST SWAP3 POP DUP3 DUP3 MUL PUSH2 0x27C9 DUP2 PUSH2 0x2158 JUMP JUMPDEST SWAP2 POP DUP3 DUP3 DIV DUP5 EQ DUP4 ISZERO OR PUSH2 0x27E0 JUMPI PUSH2 0x27DF PUSH2 0x2779 JUMP JUMPDEST JUMPDEST POP SWAP3 SWAP2 POP POP JUMP JUMPDEST PUSH32 0x52657061796D656E74206D7573742062652067726561746572207468616E2055 PUSH0 DUP3 ADD MSTORE PUSH32 0x5344430000000000000000000000000000000000000000000000000000000000 PUSH1 0x20 DUP3 ADD MSTORE POP JUMP JUMPDEST PUSH0 PUSH2 0x2841 PUSH1 0x23 DUP4 PUSH2 0x2701 JUMP JUMPDEST SWAP2 POP PUSH2 0x284C DUP3 PUSH2 0x27E7 JUMP JUMPDEST PUSH1 0x40 DUP3 ADD SWAP1 POP SWAP2 SWAP1 POP JUMP JUMPDEST PUSH0 PUSH1 0x20 DUP3 ADD SWAP1 POP DUP2 DUP2 SUB PUSH0 DUP4 ADD MSTORE PUSH2 0x286E DUP2 PUSH2 0x2835 JUMP JUMPDEST SWAP1 POP SWAP2 SWAP1 POP JUMP JUMPDEST PUSH32 0x455448206D7573742062652073656E7400000000000000000000000000000000 PUSH0 DUP3 ADD MSTORE POP JUMP JUMPDEST PUSH0 PUSH2 0x28A9 PUSH1 0x10 DUP4 PUSH2 0x2701 JUMP JUMPDEST SWAP2 POP PUSH2 0x28B4 DUP3 PUSH2 0x2875 JUMP JUMPDEST PUSH1 0x20 DUP3 ADD SWAP1 POP SWAP2 SWAP1 POP JUMP JUMPDEST PUSH0 PUSH1 0x20 DUP3 ADD SWAP1 POP DUP2 DUP2 SUB PUSH0 DUP4 ADD MSTORE PUSH2 0x28D6 DUP2 PUSH2 0x289D JUMP JUMPDEST SWAP1 POP SWAP2 SWAP1 POP JUMP JUMPDEST PUSH32 0x4E487B7100000000000000000000000000000000000000000000000000000000 PUSH0 MSTORE PUSH1 0x12 PUSH1 0x4 MSTORE PUSH1 0x24 PUSH0 REVERT JUMPDEST PUSH0 PUSH2 0x2914 DUP3 PUSH2 0x2158 JUMP JUMPDEST SWAP2 POP PUSH2 0x291F DUP4 PUSH2 0x2158 JUMP JUMPDEST SWAP3 POP DUP3 PUSH2 0x292F JUMPI PUSH2 0x292E PUSH2 0x28DD JUMP JUMPDEST JUMPDEST DUP3 DUP3 DIV SWAP1 POP SWAP3 SWAP2 POP POP JUMP JUMPDEST PUSH32 0x4E6F7420656E6F75676820455448204554480000000000000000000000000000 PUSH0 DUP3 ADD MSTORE POP JUMP JUMPDEST PUSH0 PUSH2 0x296E PUSH1 0x12 DUP4 PUSH2 0x2701 JUMP JUMPDEST SWAP2 POP PUSH2 0x2979 DUP3 PUSH2 0x293A JUMP JUMPDEST PUSH1 0x20 DUP3 ADD SWAP1 POP SWAP2 SWAP1 POP JUMP JUMPDEST PUSH0 PUSH1 0x20 DUP3 ADD SWAP1 POP DUP2 DUP2 SUB PUSH0 DUP4 ADD MSTORE PUSH2 0x299B DUP2 PUSH2 0x2962 JUMP JUMPDEST SWAP1 POP SWAP2 SWAP1 POP JUMP JUMPDEST PUSH0 PUSH2 0x29AC DUP3 PUSH2 0x2158 JUMP JUMPDEST SWAP2 POP PUSH32 0xFFFFFFFFFFFFFFFFFFFFFFFFFFFFFFFFFFFFFFFFFFFFFFFFFFFFFFFFFFFFFFFF DUP3 SUB PUSH2 0x29DE JUMPI PUSH2 0x29DD PUSH2 0x2779 JUMP JUMPDEST JUMPDEST PUSH1 0x1 DUP3 ADD SWAP1 POP SWAP2 SWAP1 POP JUMP JUMPDEST PUSH0 PUSH1 0x60 DUP3 ADD SWAP1 POP PUSH2 0x29FC PUSH0 DUP4 ADD DUP7 PUSH2 0x2359 JUMP JUMPDEST PUSH2 0x2A09 PUSH1 0x20 DUP4 ADD DUP6 PUSH2 0x2359 JUMP JUMPDEST PUSH2 0x2A16 PUSH1 0x40 DUP4 ADD DUP5 PUSH2 0x2359 JUMP JUMPDEST SWAP5 SWAP4 POP POP POP POP JUMP JUMPDEST PUSH32 0x52657175657374206973206E6F74206163746976650000000000000000000000 PUSH0 DUP3 ADD MSTORE POP JUMP JUMPDEST PUSH0 PUSH2 0x2A52 PUSH1 0x15 DUP4 PUSH2 0x2701 JUMP JUMPDEST SWAP2 POP PUSH2 0x2A5D DUP3 PUSH2 0x2A1E JUMP JUMPDEST PUSH1 0x20 DUP3 ADD SWAP1 POP SWAP2 SWAP1 POP JUMP JUMPDEST PUSH0 PUSH1 0x20 DUP3 ADD SWAP1 POP DUP2 DUP2 SUB PUSH0 DUP4 ADD MSTORE PUSH2 0x2A7F DUP2 PUSH2 0x2A46 JUMP JUMPDEST SWAP1 POP SWAP2 SWAP1 POP JUMP JUMPDEST PUSH32 0x426F72726F7765722063616E6E6F742066756E64207468656972206F776E2072 PUSH0 DUP3 ADD MSTORE PUSH32 0x6571756573740000000000000000000000000000000000000000000000000000 PUSH1 0x20 DUP3 ADD MSTORE POP JUMP JUMPDEST PUSH0 PUSH2 0x2AE0 PUSH1 0x26 DUP4 PUSH2 0x2701 JUMP JUMPDEST SWAP2 POP PUSH2 0x2AEB DUP3 PUSH2 0x2A86 JUMP JUMPDEST PUSH1 0x40 DUP3 ADD SWAP1 POP SWAP2 SWAP1 POP JUMP JUMPDEST PUSH0 PUSH1 0x20 DUP3 ADD SWAP1 POP DUP2 DUP2 SUB PUSH0 DUP4 ADD MSTORE PUSH2 0x2B0D DUP2 PUSH2 0x2AD4 JUMP JUMPDEST SWAP1 POP SWAP2 SWAP1 POP JUMP JUMPDEST PUSH0 PUSH1 0x40 DUP3 ADD SWAP1 POP PUSH2 0x2B27 PUSH0 DUP4 ADD DUP6 PUSH2 0x234A JUMP JUMPDEST PUSH2 0x2B34 PUSH1 0x20 DUP4 ADD DUP5 PUSH2 0x234A JUMP JUMPDEST SWAP4 SWAP3 POP POP POP JUMP JUMPDEST PUSH0 DUP2 MLOAD SWAP1 POP PUSH2 0x2B49 DUP2 PUSH2 0x2161 JUMP JUMPDEST SWAP3 SWAP2 POP POP JUMP JUMPDEST PUSH0 PUSH1 0x20 DUP3 DUP5 SUB SLT ISZERO PUSH2 0x2B64 JUMPI PUSH2 0x2B63 PUSH2 0x2150 JUMP JUMPDEST JUMPDEST PUSH0 PUSH2 0x2B71 DUP5 DUP3 DUP6 ADD PUSH2 0x2B3B JUMP JUMPDEST SWAP2 POP POP SWAP3 SWAP2 POP POP JUMP JUMPDEST PUSH32 0x4E6F7420656E6F756768205553445420616C6C6F77616E636500000000000000 PUSH0 DUP3 ADD MSTORE POP JUMP JUMPDEST PUSH0 PUSH2 0x2BAE PUSH1 0x19 DUP4 PUSH2 0x2701 JUMP JUMPDEST SWAP2 POP PUSH2 0x2BB9 DUP3 PUSH2 0x2B7A JUMP JUMPDEST PUSH1 0x20 DUP3 ADD SWAP1 POP SWAP2 SWAP1 POP JUMP JUMPDEST PUSH0 PUSH1 0x20 DUP3 ADD SWAP1 POP DUP2 DUP2 SUB PUSH0 DUP4 ADD MSTORE PUSH2 0x2BDB DUP2 PUSH2 0x2BA2 JUMP JUMPDEST SWAP1 POP SWAP2 SWAP1 POP JUMP JUMPDEST PUSH0 PUSH1 0x60 DUP3 ADD SWAP1 POP PUSH2 0x2BF5 PUSH0 DUP4 ADD DUP7 PUSH2 0x234A JUMP JUMPDEST PUSH2 0x2C02 PUSH1 0x20 DUP4 ADD DUP6 PUSH2 0x234A JUMP JUMPDEST PUSH2 0x2C0F PUSH1 0x40 DUP4 ADD DUP5 PUSH2 0x2359 JUMP JUMPDEST SWAP5 SWAP4 POP POP POP POP JUMP JUMPDEST PUSH2 0x2C20 DUP2 PUSH2 0x238F JUMP JUMPDEST DUP2 EQ PUSH2 0x2C2A JUMPI PUSH0 PUSH0 REVERT JUMPDEST POP JUMP JUMPDEST PUSH0 DUP2 MLOAD SWAP1 POP PUSH2 0x2C3B DUP2 PUSH2 0x2C17 JUMP JUMPDEST SWAP3 SWAP2 POP POP JUMP JUMPDEST PUSH0 PUSH1 0x20 DUP3 DUP5 SUB SLT ISZERO PUSH2 0x2C56 JUMPI PUSH2 0x2C55 PUSH2 0x2150 JUMP JUMPDEST JUMPDEST PUSH0 PUSH2 0x2C63 DUP5 DUP3 DUP6 ADD PUSH2 0x2C2D JUMP JUMPDEST SWAP2 POP POP SWAP3 SWAP2 POP POP JUMP JUMPDEST PUSH32 0x4E487B7100000000000000000000000000000000000000000000000000000000 PUSH0 MSTORE PUSH1 0x32 PUSH1 0x4 MSTORE PUSH1 0x24 PUSH0 REVERT JUMPDEST PUSH0 PUSH2 0x2CA3 DUP3 PUSH2 0x2158 JUMP JUMPDEST SWAP2 POP PUSH2 0x2CAE DUP4 PUSH2 0x2158 JUMP JUMPDEST SWAP3 POP DUP3 DUP3 SUB SWAP1 POP DUP2 DUP2 GT ISZERO PUSH2 0x2CC6 JUMPI PUSH2 0x2CC5 PUSH2 0x2779 JUMP JUMPDEST JUMPDEST SWAP3 SWAP2 POP POP JUMP JUMPDEST PUSH32 0x4E487B7100000000000000000000000000000000000000000000000000000000 PUSH0 MSTORE PUSH1 0x31 PUSH1 0x4 MSTORE PUSH1 0x24 PUSH0 REVERT JUMPDEST PUSH32 0x43616E206F6E6C792063616E63656C20612050656E64696E67206465616C0000 PUSH0 DUP3 ADD MSTORE POP JUMP JUMPDEST PUSH0 PUSH2 0x2D2D PUSH1 0x1E DUP4 PUSH2 0x2701 JUMP JUMPDEST SWAP2 POP PUSH2 0x2D38 DUP3 PUSH2 0x2CF9 JUMP JUMPDEST PUSH1 0x20 DUP3 ADD SWAP1 POP SWAP2 SWAP1 POP JUMP JUMPDEST PUSH0 PUSH1 0x20 DUP3 ADD SWAP1 POP DUP2 DUP2 SUB PUSH0 DUP4 ADD MSTORE PUSH2 0x2D5A DUP2 PUSH2 0x2D21 JUMP JUMPDEST SWAP1 POP SWAP2 SWAP1 POP JUMP JUMPDEST PUSH32 0x4F6E6C7920706172746965732063616E2063616E63656C000000000000000000 PUSH0 DUP3 ADD MSTORE POP JUMP JUMPDEST PUSH0 PUSH2 0x2D95 PUSH1 0x17 DUP4 PUSH2 0x2701 JUMP JUMPDEST SWAP2 POP PUSH2 0x2DA0 DUP3 PUSH2 0x2D61 JUMP JUMPDEST PUSH1 0x20 DUP3 ADD SWAP1 POP SWAP2 SWAP1 POP JUMP JUMPDEST PUSH0 PUSH1 0x20 DUP3 ADD SWAP1 POP DUP2 DUP2 SUB PUSH0 DUP4 ADD MSTORE PUSH2 0x2DC2 DUP2 PUSH2 0x2D89 JUMP JUMPDEST SWAP1 POP SWAP2 SWAP1 POP JUMP JUMPDEST PUSH32 0x4F6E6C7920626F72726F7765722063616E2063616E63656C0000000000000000 PUSH0 DUP3 ADD MSTORE POP JUMP JUMPDEST PUSH0 PUSH2 0x2DFD PUSH1 0x18 DUP4 PUSH2 0x2701 JUMP JUMPDEST SWAP2 POP PUSH2 0x2E08 DUP3 PUSH2 0x2DC9 JUMP JUMPDEST PUSH1 0x20 DUP3 ADD SWAP1 POP SWAP2 SWAP1 POP JUMP JUMPDEST PUSH0 PUSH1 0x20 DUP3 ADD SWAP1 POP DUP2 DUP2 SUB PUSH0 DUP4 ADD MSTORE PUSH2 0x2E2A DUP2 PUSH2 0x2DF1 JUMP JUMPDEST SWAP1 POP SWAP2 SWAP1 POP JUMP JUMPDEST PUSH32 0x4C6F616E206973206E6F7420696E2066756E64696E6720737461746500000000 PUSH0 DUP3 ADD MSTORE POP JUMP JUMPDEST PUSH0 PUSH2 0x2E65 PUSH1 0x1C DUP4 PUSH2 0x2701 JUMP JUMPDEST SWAP2 POP PUSH2 0x2E70 DUP3 PUSH2 0x2E31 JUMP JUMPDEST PUSH1 0x20 DUP3 ADD SWAP1 POP SWAP2 SWAP1 POP JUMP JUMPDEST PUSH0 PUSH1 0x20 DUP3 ADD SWAP1 POP DUP2 DUP2 SUB PUSH0 DUP4 ADD MSTORE PUSH2 0x2E92 DUP2 PUSH2 0x2E59 JUMP JUMPDEST SWAP1 POP SWAP2 SWAP1 POP JUMP JUMPDEST PUSH32 0x426F72726F77657220616C726561647920636F6E6669726D6564000000000000 PUSH0 DUP3 ADD MSTORE POP JUMP JUMPDEST PUSH0 PUSH2 0x2ECD PUSH1 0x1A DUP4 PUSH2 0x2701 JUMP JUMPDEST SWAP2 POP PUSH2 0x2ED8 DUP3 PUSH2 0x2E99 JUMP JUMPDEST PUSH1 0x20 DUP3 ADD SWAP1 POP SWAP2 SWAP1 POP JUMP JUMPDEST PUSH0 PUSH1 0x20 DUP3 ADD SWAP1 POP DUP2 DUP2 SUB PUSH0 DUP4 ADD MSTORE PUSH2 0x2EFA DUP2 PUSH2 0x2EC1 JUMP JUMPDEST SWAP1 POP SWAP2 SWAP1 POP JUMP JUMPDEST PUSH32 0x4F6E6C7920626F72726F7765722063616E20636F6E6669726D00000000000000 PUSH0 DUP3 ADD MSTORE POP JUMP JUMPDEST PUSH0 PUSH2 0x2F35 PUSH1 0x19 DUP4 PUSH2 0x2701 JUMP JUMPDEST SWAP2 POP PUSH2 0x2F40 DUP3 PUSH2 0x2F01 JUMP JUMPDEST PUSH1 0x20 DUP3 ADD SWAP1 POP SWAP2 SWAP1 POP JUMP JUMPDEST PUSH0 PUSH1 0x20 DUP3 ADD SWAP1 POP DUP2 DUP2 SUB PUSH0 DUP4 ADD MSTORE PUSH2 0x2F62 DUP2 PUSH2 0x2F29 JUMP JUMPDEST SWAP1 POP SWAP2 SWAP1 POP JUMP JUMPDEST PUSH0 PUSH2 0x2F73 DUP3 PUSH2 0x2158 JUMP JUMPDEST SWAP2 POP PUSH2 0x2F7E DUP4 PUSH2 0x2158 JUMP JUMPDEST SWAP3 POP DUP3 DUP3 ADD SWAP1 POP DUP1 DUP3 GT ISZERO PUSH2 0x2F96 JUMPI PUSH2 0x2F95 PUSH2 0x2779 JUMP JUMPDEST JUMPDEST SWAP3 SWAP2 POP POP JUMP JUMPDEST PUSH0 PUSH10 0xFFFFFFFFFFFFFFFFFFFF DUP3 AND SWAP1 POP SWAP2 SWAP1 POP JUMP JUMPDEST PUSH2 0x2FBA DUP2 PUSH2 0x2F9C JUMP JUMPDEST DUP2 EQ PUSH2 0x2FC4 JUMPI PUSH0 PUSH0 REVERT JUMPDEST POP JUMP JUMPDEST PUSH0 DUP2 MLOAD SWAP1 POP PUSH2 0x2FD5 DUP2 PUSH2 0x2FB1 JUMP JUMPDEST SWAP3 SWAP2 POP POP JUMP JUMPDEST PUSH0 DUP2 SWAP1 POP SWAP2 SWAP1 POP JUMP JUMPDEST PUSH2 0x2FED DUP2 PUSH2 0x2FDB JUMP JUMPDEST DUP2 EQ PUSH2 0x2FF7 JUMPI PUSH0 PUSH0 REVERT JUMPDEST POP JUMP JUMPDEST PUSH0 DUP2 MLOAD SWAP1 POP PUSH2 0x3008 DUP2 PUSH2 0x2FE4 JUMP JUMPDEST SWAP3 SWAP2 POP POP JUMP JUMPDEST PUSH0 PUSH0 PUSH0 PUSH0 PUSH0 PUSH1 0xA0 DUP7 DUP9 SUB SLT ISZERO PUSH2 0x3027 JUMPI PUSH2 0x3026 PUSH2 0x2150 JUMP JUMPDEST JUMPDEST PUSH0 PUSH2 0x3034 DUP9 DUP3 DUP10 ADD PUSH2 0x2FC7 JUMP JUMPDEST SWAP6 POP POP PUSH1 0x20 PUSH2 0x3045 DUP9 DUP3 DUP10 ADD PUSH2 0x2FFA JUMP JUMPDEST SWAP5 POP POP PUSH1 0x40 PUSH2 0x3056 DUP9 DUP3 DUP10 ADD PUSH2 0x2B3B JUMP JUMPDEST SWAP4 POP POP PUSH1 0x60 PUSH2 0x3067 DUP9 DUP3 DUP10 ADD PUSH2 0x2B3B JUMP JUMPDEST SWAP3 POP POP PUSH1 0x80 PUSH2 0x3078 DUP9 DUP3 DUP10 ADD PUSH2 0x2FC7 JUMP JUMPDEST SWAP2 POP POP SWAP3 SWAP6 POP SWAP3 SWAP6 SWAP1 SWAP4 POP JUMP JUMPDEST PUSH32 0x496E76616C696420707269636500000000000000000000000000000000000000 PUSH0 DUP3 ADD MSTORE POP JUMP JUMPDEST PUSH0 PUSH2 0x30B9 PUSH1 0xD DUP4 PUSH2 0x2701 JUMP JUMPDEST SWAP2 POP PUSH2 0x30C4 DUP3 PUSH2 0x3085 JUMP JUMPDEST PUSH1 0x20 DUP3 ADD SWAP1 POP SWAP2 SWAP1 POP JUMP JUMPDEST PUSH0 PUSH1 0x20 DUP3 ADD SWAP1 POP DUP2 DUP2 SUB PUSH0 DUP4 ADD MSTORE PUSH2 0x30E6 DUP2 PUSH2 0x30AD JUMP JUMPDEST SWAP1 POP SWAP2 SWAP1 POP JUMP JUMPDEST PUSH32 0x4C6F616E206973206E6F74206163746976650000000000000000000000000000 PUSH0 DUP3 ADD MSTORE POP JUMP JUMPDEST PUSH0 PUSH2 0x3121 PUSH1 0x12 DUP4 PUSH2 0x2701 JUMP JUMPDEST SWAP2 POP PUSH2 0x312C DUP3 PUSH2 0x30ED JUMP JUMPDEST PUSH1 0x20 DUP3 ADD SWAP1 POP SWAP2 SWAP1 POP JUMP JUMPDEST PUSH0 PUSH1 0x20 DUP3 ADD SWAP1 POP DUP2 DUP2 SUB PUSH0 DUP4 ADD MSTORE PUSH2 0x314E DUP2 PUSH2 0x3115 JUMP JUMPDEST SWAP1 POP SWAP2 SWAP1 POP JUMP JUMPDEST PUSH32 0x4F6E6C7920626F72726F7765722063616E207265706179000000000000000000 PUSH0 DUP3 ADD MSTORE POP JUMP JUMPDEST PUSH0 PUSH2 0x3189 PUSH1 0x17 DUP4 PUSH2 0x2701 JUMP JUMPDEST SWAP2 POP PUSH2 0x3194 DUP3 PUSH2 0x3155 JUMP JUMPDEST PUSH1 0x20 DUP3 ADD SWAP1 POP SWAP2 SWAP1 POP JUMP JUMPDEST PUSH0 PUSH1 0x20 DUP3 ADD SWAP1 POP DUP2 DUP2 SUB PUSH0 DUP4 ADD MSTORE PUSH2 0x31B6 DUP2 PUSH2 0x317D JUMP JUMPDEST SWAP1 POP SWAP2 SWAP1 POP JUMP JUMPDEST PUSH32 0x4E6F7420656E6F75676820616C6C6F77616E636520666F722072657061796D65 PUSH0 DUP3 ADD MSTORE PUSH32 0x6E74000000000000000000000000000000000000000000000000000000000000 PUSH1 0x20 DUP3 ADD MSTORE POP JUMP JUMPDEST PUSH0 PUSH2 0x3217 PUSH1 0x22 DUP4 PUSH2 0x2701 JUMP JUMPDEST SWAP2 POP PUSH2 0x3222 DUP3 PUSH2 0x31BD JUMP JUMPDEST PUSH1 0x40 DUP3 ADD SWAP1 POP SWAP2 SWAP1 POP JUMP JUMPDEST PUSH0 PUSH1 0x20 DUP3 ADD SWAP1 POP DUP2 DUP2 SUB PUSH0 DUP4 ADD MSTORE PUSH2 0x3244 DUP2 PUSH2 0x320B JUMP JUMPDEST SWAP1 POP SWAP2 SWAP1 POP JUMP INVALID LOG2 PUSH5 0x6970667358 0x22 SLT KECCAK256 PREVRANDAO RETURNCONTRACT 0x5F CALLER JUMPDEST 0xA5 0xEF LOG3 GT TSTORE 0xC3 PUSH22 0xCC5B00B32DDDADAD37DCA5333BD94162008C2F46473 PUSH16 0x6C634300081E00330000000000000000 "
				},
				"gasEstimates": {
					"creation": {
						"codeDepositCost": "2585800",
						"executionCost": "infinite",
						"totalCost": "infinite"
					},
					"external": {
						"ETHRatio()": "2491",
						"activeLoans(uint256)": "infinite",
						"cancelDeal(address,uint256)": "infinite",
						"checkUpkeep(bytes)": "infinite",
						"confirmDeal(address,uint256)": "infinite",
						"createLoanRequest(uint256,uint256,uint256)": "infinite",
						"ethPriceInUsdt()": "2469",
						"fundRequest(address,uint256)": "infinite",
						"getLatestETHPrice()": "infinite",
						"getLoanDetails(address,uint256)": "infinite",
						"loans(address,uint256)": "infinite",
						"performUpkeep(bytes)": "infinite",
						"repayLoan(uint256)": "infinite",
						"usdtTokenAddress()": "infinite"
					}
				},
				"methodIdentifiers": {
					"ETHRatio()": "ccd6b218",
					"activeLoans(uint256)": "47126f62",
					"cancelDeal(address,uint256)": "46208d68",
					"checkUpkeep(bytes)": "6e04ff0d",
					"confirmDeal(address,uint256)": "6b3731f0",
					"createLoanRequest(uint256,uint256,uint256)": "1443e4e7",
					"ethPriceInUsdt()": "bfae5f42",
					"fundRequest(address,uint256)": "2d66195e",
					"getLatestETHPrice()": "777e0d86",
					"getLoanDetails(address,uint256)": "d13d5e56",
					"loans(address,uint256)": "98c61c37",
					"performUpkeep(bytes)": "4585e33b",
					"repayLoan(uint256)": "ab7b1c89",
					"usdtTokenAddress()": "9d741e5d"
				}
			},
			"storageLayout": {
				"storage": [
					{
						"astId": 157,
						"contract": "contracts/LendingPlatform.sol:LendingPlatform",
						"label": "usdtTokenAddress",
						"offset": 0,
						"slot": "0",
						"type": "t_contract(IERC20)146"
					},
					{
						"astId": 159,
						"contract": "contracts/LendingPlatform.sol:LendingPlatform",
						"label": "_owner",
						"offset": 0,
						"slot": "1",
						"type": "t_address"
					},
					{
						"astId": 162,
						"contract": "contracts/LendingPlatform.sol:LendingPlatform",
						"label": "ethPriceInUsdt",
						"offset": 0,
						"slot": "2",
						"type": "t_uint256"
					},
					{
						"astId": 165,
						"contract": "contracts/LendingPlatform.sol:LendingPlatform",
						"label": "ETHRatio",
						"offset": 0,
						"slot": "3",
						"type": "t_uint256"
					},
					{
						"astId": 168,
						"contract": "contracts/LendingPlatform.sol:LendingPlatform",
						"label": "priceFeed",
						"offset": 0,
						"slot": "4",
						"type": "t_contract(AggregatorV3Interface)45"
					},
					{
						"astId": 172,
						"contract": "contracts/LendingPlatform.sol:LendingPlatform",
						"label": "_loanCounter",
						"offset": 0,
						"slot": "5",
						"type": "t_mapping(t_address,t_uint256)"
					},
					{
						"astId": 211,
						"contract": "contracts/LendingPlatform.sol:LendingPlatform",
						"label": "activeLoans",
						"offset": 0,
						"slot": "6",
						"type": "t_array(t_struct(LoanKey)207_storage)dyn_storage"
					},
					{
						"astId": 218,
						"contract": "contracts/LendingPlatform.sol:LendingPlatform",
						"label": "loans",
						"offset": 0,
						"slot": "7",
						"type": "t_mapping(t_address,t_mapping(t_uint256,t_struct(Loan)202_storage))"
					}
				],
				"types": {
					"t_address": {
						"encoding": "inplace",
						"label": "address",
						"numberOfBytes": "20"
					},
					"t_array(t_struct(LoanKey)207_storage)dyn_storage": {
						"base": "t_struct(LoanKey)207_storage",
						"encoding": "dynamic_array",
						"label": "struct LendingPlatform.LoanKey[]",
						"numberOfBytes": "32"
					},
					"t_bool": {
						"encoding": "inplace",
						"label": "bool",
						"numberOfBytes": "1"
					},
					"t_contract(AggregatorV3Interface)45": {
						"encoding": "inplace",
						"label": "contract AggregatorV3Interface",
						"numberOfBytes": "20"
					},
					"t_contract(IERC20)146": {
						"encoding": "inplace",
						"label": "contract IERC20",
						"numberOfBytes": "20"
					},
					"t_enum(Status)180": {
						"encoding": "inplace",
						"label": "enum LendingPlatform.Status",
						"numberOfBytes": "1"
					},
					"t_mapping(t_address,t_mapping(t_uint256,t_struct(Loan)202_storage))": {
						"encoding": "mapping",
						"key": "t_address",
						"label": "mapping(address => mapping(uint256 => struct LendingPlatform.Loan))",
						"numberOfBytes": "32",
						"value": "t_mapping(t_uint256,t_struct(Loan)202_storage)"
					},
					"t_mapping(t_address,t_uint256)": {
						"encoding": "mapping",
						"key": "t_address",
						"label": "mapping(address => uint256)",
						"numberOfBytes": "32",
						"value": "t_uint256"
					},
					"t_mapping(t_uint256,t_struct(Loan)202_storage)": {
						"encoding": "mapping",
						"key": "t_uint256",
						"label": "mapping(uint256 => struct LendingPlatform.Loan)",
						"numberOfBytes": "32",
						"value": "t_struct(Loan)202_storage"
					},
					"t_struct(Loan)202_storage": {
						"encoding": "inplace",
						"label": "struct LendingPlatform.Loan",
						"members": [
							{
								"astId": 182,
								"contract": "contracts/LendingPlatform.sol:LendingPlatform",
								"label": "id",
								"offset": 0,
								"slot": "0",
								"type": "t_uint256"
							},
							{
								"astId": 184,
								"contract": "contracts/LendingPlatform.sol:LendingPlatform",
								"label": "borrower",
								"offset": 0,
								"slot": "1",
								"type": "t_address"
							},
							{
								"astId": 186,
								"contract": "contracts/LendingPlatform.sol:LendingPlatform",
								"label": "lender",
								"offset": 0,
								"slot": "2",
								"type": "t_address"
							},
							{
								"astId": 188,
								"contract": "contracts/LendingPlatform.sol:LendingPlatform",
								"label": "USDC",
								"offset": 0,
								"slot": "3",
								"type": "t_uint256"
							},
							{
								"astId": 190,
								"contract": "contracts/LendingPlatform.sol:LendingPlatform",
								"label": "Percent",
								"offset": 0,
								"slot": "4",
								"type": "t_uint256"
							},
							{
								"astId": 192,
								"contract": "contracts/LendingPlatform.sol:LendingPlatform",
								"label": "ETH",
								"offset": 0,
								"slot": "5",
								"type": "t_uint256"
							},
							{
								"astId": 194,
								"contract": "contracts/LendingPlatform.sol:LendingPlatform",
								"label": "TimeDelta",
								"offset": 0,
								"slot": "6",
								"type": "t_uint256"
							},
							{
								"astId": 196,
								"contract": "contracts/LendingPlatform.sol:LendingPlatform",
								"label": "dueDate",
								"offset": 0,
								"slot": "7",
								"type": "t_uint256"
							},
							{
								"astId": 198,
								"contract": "contracts/LendingPlatform.sol:LendingPlatform",
								"label": "borrowerConfirmed",
								"offset": 0,
								"slot": "8",
								"type": "t_bool"
							},
							{
								"astId": 201,
								"contract": "contracts/LendingPlatform.sol:LendingPlatform",
								"label": "status",
								"offset": 1,
								"slot": "8",
								"type": "t_enum(Status)180"
							}
						],
						"numberOfBytes": "288"
					},
					"t_struct(LoanKey)207_storage": {
						"encoding": "inplace",
						"label": "struct LendingPlatform.LoanKey",
						"members": [
							{
								"astId": 204,
								"contract": "contracts/LendingPlatform.sol:LendingPlatform",
								"label": "borrower",
								"offset": 0,
								"slot": "0",
								"type": "t_address"
							},
							{
								"astId": 206,
								"contract": "contracts/LendingPlatform.sol:LendingPlatform",
								"label": "loanId",
								"offset": 0,
								"slot": "1",
								"type": "t_uint256"
							}
						],
						"numberOfBytes": "64"
					},
					"t_uint256": {
						"encoding": "inplace",
						"label": "uint256",
						"numberOfBytes": "32"
					}
				}
			},
			"userdoc": {
				"kind": "user",
				"methods": {},
				"version": 1
			}
		}
	}
}